{
  "contractName": "alt_bn128",
  "abi": [
    {
      "inputs": [
        {
          "components": [
            {
              "internalType": "uint256",
              "name": "X",
              "type": "uint256"
            },
            {
              "internalType": "uint256",
              "name": "Y",
              "type": "uint256"
            }
          ],
          "internalType": "struct alt_bn128.G1Point",
          "name": "p",
          "type": "tuple"
        }
      ],
      "name": "serialize",
      "outputs": [
        {
          "internalType": "bytes32",
          "name": "",
          "type": "bytes32"
        }
      ],
      "stateMutability": "pure",
      "type": "function",
      "constant": true
    }
  ],
  "bytecode": "0x610354610053600b82828239805160001a607314610046577f4e487b7100000000000000000000000000000000000000000000000000000000600052600060045260246000fd5b30600052607381538281f3fe73000000000000000000000000000000000000000030146080604052600436106100355760003560e01c8063aba8f7061461003a575b600080fd5b610054600480360381019061004f91906101cc565b61006a565b6040516100619190610212565b60405180910390f35b60008160000151826020015160405160200161008792919061024e565b60405160208183030381529060405261009f906102b7565b9050919050565b6000604051905090565b600080fd5b600080fd5b6000601f19601f8301169050919050565b7f4e487b7100000000000000000000000000000000000000000000000000000000600052604160045260246000fd5b610103826100ba565b810181811067ffffffffffffffff82111715610122576101216100cb565b5b80604052505050565b60006101356100a6565b905061014182826100fa565b919050565b6000819050919050565b61015981610146565b811461016457600080fd5b50565b60008135905061017681610150565b92915050565b600060408284031215610192576101916100b5565b5b61019c604061012b565b905060006101ac84828501610167565b60008301525060206101c084828501610167565b60208301525092915050565b6000604082840312156101e2576101e16100b0565b5b60006101f08482850161017c565b91505092915050565b6000819050919050565b61020c816101f9565b82525050565b60006020820190506102276000830184610203565b92915050565b6000819050919050565b61024861024382610146565b61022d565b82525050565b600061025a8285610237565b60208201915061026a8284610237565b6020820191508190509392505050565b600081519050919050565b6000819050602082019050919050565b60006102a182516101f9565b80915050919050565b600082821b905092915050565b60006102c28261027a565b826102cc84610285565b90506102d781610295565b92506020821015610317576103127fffffffffffffffffffffffffffffffffffffffffffffffffffffffffffffffff836020036008026102aa565b831692505b505091905056fea2646970667358221220b2fb7fe519d4a829466b3c9759a265bd6c785a4d5125ef04bc05fc3c3d9bebf464736f6c63430008130033",
  "immutableReferences": {},
  "source": "// SPDX-License-Identifier: GPL-3.0\npragma solidity >=0.4.0 <0.9.0;\n\nlibrary alt_bn128 {\n\n    // uint256 public constant q = 21888242871839275222246405745257275088548364400416034343698204186575808495617; // curve order\n    // uint256 public constant n = 21888242871839275222246405745257275088696311157297823662689037894645226208583; // prime field order\n    // uint256 public constant b = 3;\n\n    // uint256 constant public ECSignMask = 0x8000000000000000000000000000000000000000000000000000000000000000;\n    // uint256 constant public BigModExponent = (n + 1)/4;\n\n    struct G1Point {\n        uint256 X;\n        uint256 Y;\n    }\n\n    function add(G1Point memory p1, G1Point memory p2) internal view returns (G1Point memory r) {\n        uint256[4] memory input;\n        input[0] = p1.X;\n        input[1] = p1.Y;\n        input[2] = p2.X;\n        input[3] = p2.Y;\n        assembly {\n            if iszero(staticcall(not(0), 6, input, 0x80, r, 0x40)) {\n                revert(0, 0)\n            }\n        }\n    }\n\n    // function add(uint256[2] p1, uint256[2] p2) internal view returns (uint256[2] r) {\n    //     uint256[4] memory input;\n    //     input[0] = p1[0];\n    //     input[1] = p1[1];\n    //     input[2] = p2[0];\n    //     input[3] = p2[1];\n    //     assembly {\n    //         if iszero(staticcall(not(0), 6, input, 0x80, r, 0x40)) {\n    //             revert(0, 0)\n    //         }\n    //     }\n    // }\n\n    // function mul(uint256[2] P, uint256 s) internal view returns (uint256[2] R) {\n    //     uint256[3] memory input;\n    //     input[0] = P[0];\n    //     input[1] = P[1];\n    //     input[2] = s;\n    //     assembly {\n    //         if iszero(staticcall(not(0), 7, input, 0x60, R, 0x40)) {\n    //             revert(0, 0)\n    //         }\n    //     }\n    // }\n\n    function mul(G1Point memory p, uint256 s) internal view returns (G1Point memory r) {\n        if (s == 1) {\n            return p;\n        }\n        if (s == 2) {\n            return add(p, p);\n        }\n        uint256[3] memory input;\n        input[0] = p.X;\n        input[1] = p.Y;\n        input[2] = s;\n        assembly {\n            if iszero(staticcall(not(0), 7, input, 0x60, r, 0x40)) {\n                revert(0, 0)\n            }\n        }\n    }\n\n    function neg(G1Point memory p) internal pure returns (G1Point memory) {\n        if (p.X == 0 && p.Y == 0)\n            return G1Point(0, 0);\n        uint256 n = 21888242871839275222246405745257275088696311157297823662689037894645226208583;\n        return G1Point(p.X, n - p.Y);\n        // return G1Point(p.X, n - (p.Y % n));\n    }\n\n    function eq(G1Point memory p1, G1Point memory p2) internal pure returns (bool) {\n        return p1.X == p2.X && p1.Y == p2.Y;\n    }\n\n    function add(uint256 x, uint256 y) internal pure returns (uint256) {\n        uint256 q = 21888242871839275222246405745257275088548364400416034343698204186575808495617;\n        return addmod(x, y, q);\n    }\n\n    function mul(uint256 x, uint256 y) internal pure returns (uint256) {\n        uint256 q = 21888242871839275222246405745257275088548364400416034343698204186575808495617;\n        return mulmod(x, y, q);\n    }\n\n    // function inv2(uint256 x) internal view returns (uint256) {\n    //     uint256 q = 21888242871839275222246405745257275088548364400416034343698204186575808495617;\n    //     return modExp(x, q - 2, q);\n    // }\n\n    function inv(uint256 x) internal pure returns (uint) {\n        uint256 p = 21888242871839275222246405745257275088548364400416034343698204186575808495617;\n        uint256 a = x;\n        if (a == 0)\n            return 0;\n        if (a > p)\n            a = a % p;\n        int t1;\n        int t2 = 1;\n        uint r1 = p;\n        uint r2 = a;\n        uint q;\n        while (r2 != 0) {\n            q = r1 / r2;\n            (t1, t2, r1, r2) = (t2, t1 - int(q) * t2, r2, r1 - q * r2);\n        }\n        if (t1 < 0)\n            return (p - uint(-t1));\n        return uint(t1);\n    }\n\n    function mod(uint256 x) internal pure returns (uint256) {\n        uint256 q = 21888242871839275222246405745257275088548364400416034343698204186575808495617;\n        return x % q;\n    }\n\n    function sub(uint256 x, uint256 y) internal pure returns (uint256) {\n        uint256 q = 21888242871839275222246405745257275088548364400416034343698204186575808495617;\n        return x >= y ? x - y : q - y + x;\n    }\n\n    function neg(uint256 x) internal pure returns (uint256) {\n        return 21888242871839275222246405745257275088548364400416034343698204186575808495617 - x;\n    }\n\n    function modExp(uint256 base, uint256 exponent, uint256 modulus) internal view returns (uint256) {\n        uint256[6] memory input;\n        uint256[1] memory output;\n        input[0] = 0x20;  // length_of_BASE\n        input[1] = 0x20;  // length_of_EXPONENT\n        input[2] = 0x20;  // length_of_MODULUS\n        input[3] = base;\n        input[4] = exponent;\n        input[5] = modulus;\n        assembly {\n            if iszero(staticcall(not(0), 5, input, 0xc0, output, 0x20)) {\n                revert(0, 0)\n            }\n        }\n        return output[0];\n    }\n\n    function modExp(uint256 base, uint256 exponent) internal view returns (uint256) {\n        uint256 q = 21888242871839275222246405745257275088548364400416034343698204186575808495617;\n        return modExp(base, exponent, q);\n    }\n\n    function hashToCurve(bytes memory input) internal view returns (G1Point memory p) {\n        uint256 seed = uint256(keccak256(input));\n        return uintToCurvePoint(seed);\n    }\n\n    function uintToCurvePoint(uint256 x) internal view returns(G1Point memory p) {\n        uint256 n = 21888242871839275222246405745257275088696311157297823662689037894645226208583;\n        uint256 seed = x % n;\n        uint256 y;\n        seed -= 1;\n        bool onCurve = false;\n        uint256 y2;\n        uint256 b = uint256(3);\n        while(!onCurve) {\n            seed += 1;\n            y2 = mulmod(seed, seed, n);\n            y2 = mulmod(y2, seed, n);\n            y2 = addmod(y2, b, n);\n            // y2 += b;\n            y = modExp(y2, (n + 1) / 4, n);\n            onCurve = mulmod(y, y, n) == y2;\n        }\n        return G1Point(seed, y);\n    }\n\n    function serialize(G1Point memory p) public pure returns (bytes32){\n      return bytes32(abi.encodePacked(p.X, p.Y));\n    }\n}",
  "sourcePath": "/Users/qian/Desktop/Y4/COMP4550/ZKP-Blockchain/contracts/alt_bn128.sol",
  "compiler": {
    "name": "solc",
    "version": "0.8.19+commit.7dd6d404.Emscripten.clang"
  },
  "schemaVersion": "3.4.13",
  "updatedAt": "2023-03-12T14:51:16.051Z",
  "networkType": "ethereum",
  "devdoc": {
    "kind": "dev",
    "methods": {},
    "version": 1
  },
  "userdoc": {
    "kind": "user",
    "methods": {},
    "version": 1
  }
}