{
  "contractName": "alt_bn128",
  "abi": [
    {
      "inputs": [],
      "name": "b",
      "outputs": [
        {
          "internalType": "uint256",
          "name": "",
          "type": "uint256"
        }
      ],
      "stateMutability": "view",
      "type": "function",
      "constant": true
    },
    {
      "inputs": [],
      "name": "n",
      "outputs": [
        {
          "internalType": "uint256",
          "name": "",
          "type": "uint256"
        }
      ],
      "stateMutability": "view",
      "type": "function",
      "constant": true
    },
    {
      "inputs": [],
      "name": "q",
      "outputs": [
        {
          "internalType": "uint256",
          "name": "",
          "type": "uint256"
        }
      ],
      "stateMutability": "view",
      "type": "function",
      "constant": true
    },
    {
      "inputs": [
        {
          "components": [
            {
              "internalType": "uint256",
              "name": "X",
              "type": "uint256"
            },
            {
              "internalType": "uint256",
              "name": "Y",
              "type": "uint256"
            }
          ],
          "internalType": "struct alt_bn128.G1Point",
          "name": "p",
          "type": "tuple"
        }
      ],
      "name": "serialize",
      "outputs": [
        {
          "internalType": "bytes32",
          "name": "",
          "type": "bytes32"
        }
      ],
      "stateMutability": "pure",
      "type": "function",
      "constant": true
    }
  ],
  "bytecode": "0x610446610053600b82828239805160001a607314610046577f4e487b7100000000000000000000000000000000000000000000000000000000600052600060045260246000fd5b30600052607381538281f3fe73000000000000000000000000000000000000000030146080604052600436106100565760003560e01c80632e52d6061461005b5780634df7e3d014610079578063aba8f70614610097578063fd3ab282146100c7575b600080fd5b6100636100e5565b6040516100709190610187565b60405180910390f35b610081610109565b60405161008e9190610187565b60405180910390f35b6100b160048036038101906100ac91906102be565b61010e565b6040516100be9190610304565b60405180910390f35b6100cf61014a565b6040516100dc9190610187565b60405180910390f35b7f30644e72e131a029b85045b68181585d97816a916871ca8d3c208c16d87cfd4781565b600381565b60008160000151826020015160405160200161012b929190610340565b604051602081830303815290604052610143906103a9565b9050919050565b7f30644e72e131a029b85045b68181585d2833e84879b9709143e1f593f000000181565b6000819050919050565b6101818161016e565b82525050565b600060208201905061019c6000830184610178565b92915050565b6000604051905090565b600080fd5b600080fd5b6000601f19601f8301169050919050565b7f4e487b7100000000000000000000000000000000000000000000000000000000600052604160045260246000fd5b6101ff826101b6565b810181811067ffffffffffffffff8211171561021e5761021d6101c7565b5b80604052505050565b60006102316101a2565b905061023d82826101f6565b919050565b61024b8161016e565b811461025657600080fd5b50565b60008135905061026881610242565b92915050565b600060408284031215610284576102836101b1565b5b61028e6040610227565b9050600061029e84828501610259565b60008301525060206102b284828501610259565b60208301525092915050565b6000604082840312156102d4576102d36101ac565b5b60006102e28482850161026e565b91505092915050565b6000819050919050565b6102fe816102eb565b82525050565b600060208201905061031960008301846102f5565b92915050565b6000819050919050565b61033a6103358261016e565b61031f565b82525050565b600061034c8285610329565b60208201915061035c8284610329565b6020820191508190509392505050565b600081519050919050565b6000819050602082019050919050565b600061039382516102eb565b80915050919050565b600082821b905092915050565b60006103b48261036c565b826103be84610377565b90506103c981610387565b92506020821015610409576104047fffffffffffffffffffffffffffffffffffffffffffffffffffffffffffffffff8360200360080261039c565b831692505b505091905056fea2646970667358221220149088f2b71a19b6de9c4a08edaecac8aba9d475e62ca3eed72515ae2a682b1e64736f6c63430008130033",
  "immutableReferences": {},
  "source": "// SPDX-License-Identifier: GPL-3.0\npragma solidity >=0.4.0 <0.9.0;\n\nlibrary alt_bn128 {\n\n    uint256 public constant q = 21888242871839275222246405745257275088548364400416034343698204186575808495617; // curve order\n    uint256 public constant n = 21888242871839275222246405745257275088696311157297823662689037894645226208583; // prime field order\n    uint256 public constant b = 3;\n\n    // uint256 constant public ECSignMask = 0x8000000000000000000000000000000000000000000000000000000000000000;\n    // uint256 constant public BigModExponent = (n + 1)/4;\n\n    struct G1Point {\n        uint256 X;\n        uint256 Y;\n    }\n\n    function add(G1Point memory p1, G1Point memory p2) internal view returns (G1Point memory r) {\n        uint256[4] memory input;\n        input[0] = p1.X;\n        input[1] = p1.Y;\n        input[2] = p2.X;\n        input[3] = p2.Y;\n        assembly {\n            if iszero(staticcall(not(0), 6, input, 0x80, r, 0x40)) {\n                revert(0, 0)\n            }\n        }\n    }\n\n    // function add(uint256[2] p1, uint256[2] p2) internal view returns (uint256[2] r) {\n    //     uint256[4] memory input;\n    //     input[0] = p1[0];\n    //     input[1] = p1[1];\n    //     input[2] = p2[0];\n    //     input[3] = p2[1];\n    //     assembly {\n    //         if iszero(staticcall(not(0), 6, input, 0x80, r, 0x40)) {\n    //             revert(0, 0)\n    //         }\n    //     }\n    // }\n\n    // function mul(uint256[2] P, uint256 s) internal view returns (uint256[2] R) {\n    //     uint256[3] memory input;\n    //     input[0] = P[0];\n    //     input[1] = P[1];\n    //     input[2] = s;\n    //     assembly {\n    //         if iszero(staticcall(not(0), 7, input, 0x60, R, 0x40)) {\n    //             revert(0, 0)\n    //         }\n    //     }\n    // }\n\n    function mul(G1Point memory p, uint256 s) internal view returns (G1Point memory r) {\n        if (s == 1) {\n            return p;\n        }\n        if (s == 2) {\n            return add(p, p);\n        }\n        uint256[3] memory input;\n        input[0] = p.X;\n        input[1] = p.Y;\n        input[2] = s;\n        assembly {\n            if iszero(staticcall(not(0), 7, input, 0x60, r, 0x40)) {\n                revert(0, 0)\n            }\n        }\n    }\n\n    function neg(G1Point memory p) internal pure returns (G1Point memory) {\n        if (p.X == 0 && p.Y == 0)\n            return G1Point(0, 0);\n        return G1Point(p.X, n - p.Y);\n        // return G1Point(p.X, n - (p.Y % n));\n    }\n\n    function eq(G1Point memory p1, G1Point memory p2) internal pure returns (bool) {\n        return p1.X == p2.X && p1.Y == p2.Y;\n    }\n\n    function add(uint256 x, uint256 y) internal pure returns (uint256) {\n        return addmod(x, y, q);\n    }\n\n    function mul(uint256 x, uint256 y) internal pure returns (uint256) {\n        return mulmod(x, y, q);\n    }\n\n\n    // function inv2(uint256 x) internal view returns (uint256) {\n    //     uint256 q = 21888242871839275222246405745257275088548364400416034343698204186575808495617;\n    //     return modExp(x, q - 2, q);\n    // }\n\n    function inv(uint256 x) internal pure returns (uint) {\n        uint256 a = x;\n        if (a == 0)\n            return 0;\n        if (a > q)\n            a = a % q;\n        int t1;\n        int t2 = 1;\n        uint r1 = q;\n        uint r2 = a;\n        uint p;\n        while (r2 != 0) {\n            p = r1 / r2;\n            (t1, t2, r1, r2) = (t2, t1 - int(p) * t2, r2, r1 - p * r2);\n        }\n        if (t1 < 0)\n            return (q - uint(-t1));\n        return uint(t1);\n    }\n\n    function mod(uint256 x) internal pure returns (uint256) {\n        return x % q;\n    }\n\n    function sub(uint256 x, uint256 y) internal pure returns (uint256) {\n        return x >= y ? x - y : q - y + x;\n    }\n\n    function neg(uint256 x) internal pure returns (uint256) {\n        return q - x;\n    }\n\n    function modExp(uint256 base, uint256 exponent, uint256 modulus) internal view returns (uint256) {\n        uint256[6] memory input;\n        uint256[1] memory output;\n        input[0] = 0x20;  // length_of_BASE\n        input[1] = 0x20;  // length_of_EXPONENT\n        input[2] = 0x20;  // length_of_MODULUS\n        input[3] = base;\n        input[4] = exponent;\n        input[5] = modulus;\n        assembly {\n            if iszero(staticcall(not(0), 5, input, 0xc0, output, 0x20)) {\n                revert(0, 0)\n            }\n        }\n        return output[0];\n    }\n\n    function modExp(uint256 base, uint256 exponent) internal view returns (uint256) {\n        return modExp(base, exponent, q);\n    }\n\n    function uintToCurvePoint(uint256 x) internal view returns(G1Point memory p) {\n        uint256 seed = x % n;\n        uint256 y;\n        seed -= 1;\n        bool onCurve = false;\n        uint256 y2;\n        while(!onCurve) {\n            seed += 1;\n            y2 = mulmod(seed, seed, n);\n            y2 = mulmod(y2, seed, n);\n            y2 = addmod(y2, b, n);\n            // y2 += b;\n            y = modExp(y2, (n + 1) / 4, n);\n            onCurve = mulmod(y, y, n) == y2;\n        }\n        return G1Point(seed, y);\n    }\n\n    function serialize(G1Point memory p) public pure returns (bytes32){\n      return bytes32(abi.encodePacked(p.X, p.Y));\n    }\n}",
  "sourcePath": "/Users/qian/Desktop/Y4/COMP4550/ZKP-Blockchain/contracts/alt_bn128.sol",
  "compiler": {
    "name": "solc",
    "version": "0.8.19+commit.7dd6d404.Emscripten.clang"
  },
  "schemaVersion": "3.4.13",
  "updatedAt": "2023-04-06T03:36:06.016Z",
  "networkType": "ethereum",
  "devdoc": {
    "kind": "dev",
    "methods": {},
    "version": 1
  },
  "userdoc": {
    "kind": "user",
    "methods": {},
    "version": 1
  }
}