{
  "contractName": "BulletProof",
  "abi": [
    {
      "inputs": [
        {
          "internalType": "uint256",
          "name": "count",
          "type": "uint256"
        }
      ],
      "name": "generators",
      "outputs": [
        {
          "components": [
            {
              "internalType": "uint256",
              "name": "X",
              "type": "uint256"
            },
            {
              "internalType": "uint256",
              "name": "Y",
              "type": "uint256"
            }
          ],
          "internalType": "struct alt_bn128.G1Point[]",
          "name": "Gs",
          "type": "tuple[]"
        }
      ],
      "stateMutability": "view",
      "type": "function",
      "constant": true
    },
    {
      "inputs": [
        {
          "components": [
            {
              "internalType": "uint256",
              "name": "X",
              "type": "uint256"
            },
            {
              "internalType": "uint256",
              "name": "Y",
              "type": "uint256"
            }
          ],
          "internalType": "struct alt_bn128.G1Point[]",
          "name": "Gs",
          "type": "tuple[]"
        },
        {
          "internalType": "uint256[]",
          "name": "poly",
          "type": "uint256[]"
        }
      ],
      "name": "commit",
      "outputs": [
        {
          "components": [
            {
              "internalType": "uint256",
              "name": "X",
              "type": "uint256"
            },
            {
              "internalType": "uint256",
              "name": "Y",
              "type": "uint256"
            }
          ],
          "internalType": "struct alt_bn128.G1Point",
          "name": "C",
          "type": "tuple"
        }
      ],
      "stateMutability": "view",
      "type": "function",
      "constant": true
    },
    {
      "inputs": [
        {
          "components": [
            {
              "internalType": "uint256",
              "name": "X",
              "type": "uint256"
            },
            {
              "internalType": "uint256",
              "name": "Y",
              "type": "uint256"
            }
          ],
          "internalType": "struct alt_bn128.G1Point[]",
          "name": "Gs",
          "type": "tuple[]"
        },
        {
          "internalType": "uint256[]",
          "name": "poly",
          "type": "uint256[]"
        }
      ],
      "name": "LRpair",
      "outputs": [
        {
          "components": [
            {
              "internalType": "uint256",
              "name": "X",
              "type": "uint256"
            },
            {
              "internalType": "uint256",
              "name": "Y",
              "type": "uint256"
            }
          ],
          "internalType": "struct alt_bn128.G1Point",
          "name": "L",
          "type": "tuple"
        },
        {
          "components": [
            {
              "internalType": "uint256",
              "name": "X",
              "type": "uint256"
            },
            {
              "internalType": "uint256",
              "name": "Y",
              "type": "uint256"
            }
          ],
          "internalType": "struct alt_bn128.G1Point",
          "name": "R",
          "type": "tuple"
        }
      ],
      "stateMutability": "view",
      "type": "function",
      "constant": true
    },
    {
      "inputs": [
        {
          "internalType": "uint256",
          "name": "n",
          "type": "uint256"
        }
      ],
      "name": "log2",
      "outputs": [
        {
          "internalType": "uint256",
          "name": "ndigits",
          "type": "uint256"
        }
      ],
      "stateMutability": "pure",
      "type": "function",
      "constant": true
    },
    {
      "inputs": [
        {
          "components": [
            {
              "internalType": "uint256",
              "name": "X",
              "type": "uint256"
            },
            {
              "internalType": "uint256",
              "name": "Y",
              "type": "uint256"
            }
          ],
          "internalType": "struct alt_bn128.G1Point[]",
          "name": "Gs",
          "type": "tuple[]"
        },
        {
          "internalType": "uint256",
          "name": "a",
          "type": "uint256"
        }
      ],
      "name": "nextRound",
      "outputs": [
        {
          "components": [
            {
              "internalType": "uint256",
              "name": "X",
              "type": "uint256"
            },
            {
              "internalType": "uint256",
              "name": "Y",
              "type": "uint256"
            }
          ],
          "internalType": "struct alt_bn128.G1Point[]",
          "name": "Gs_new",
          "type": "tuple[]"
        }
      ],
      "stateMutability": "view",
      "type": "function",
      "constant": true
    },
    {
      "inputs": [
        {
          "components": [
            {
              "internalType": "uint256",
              "name": "X",
              "type": "uint256"
            },
            {
              "internalType": "uint256",
              "name": "Y",
              "type": "uint256"
            }
          ],
          "internalType": "struct alt_bn128.G1Point[]",
          "name": "Gs",
          "type": "tuple[]"
        },
        {
          "internalType": "uint256[]",
          "name": "poly",
          "type": "uint256[]"
        },
        {
          "internalType": "uint256",
          "name": "a",
          "type": "uint256"
        }
      ],
      "name": "nextRound",
      "outputs": [
        {
          "components": [
            {
              "internalType": "uint256",
              "name": "X",
              "type": "uint256"
            },
            {
              "internalType": "uint256",
              "name": "Y",
              "type": "uint256"
            }
          ],
          "internalType": "struct alt_bn128.G1Point[]",
          "name": "Gs_new",
          "type": "tuple[]"
        },
        {
          "internalType": "uint256[]",
          "name": "poly_new",
          "type": "uint256[]"
        }
      ],
      "stateMutability": "view",
      "type": "function",
      "constant": true
    },
    {
      "inputs": [
        {
          "components": [
            {
              "internalType": "uint256",
              "name": "X",
              "type": "uint256"
            },
            {
              "internalType": "uint256",
              "name": "Y",
              "type": "uint256"
            }
          ],
          "internalType": "struct alt_bn128.G1Point[]",
          "name": "Gs",
          "type": "tuple[]"
        },
        {
          "components": [
            {
              "internalType": "uint256",
              "name": "X",
              "type": "uint256"
            },
            {
              "internalType": "uint256",
              "name": "Y",
              "type": "uint256"
            }
          ],
          "internalType": "struct alt_bn128.G1Point",
          "name": "C",
          "type": "tuple"
        },
        {
          "internalType": "uint256[]",
          "name": "poly",
          "type": "uint256[]"
        }
      ],
      "name": "prove",
      "outputs": [
        {
          "components": [
            {
              "components": [
                {
                  "internalType": "uint256",
                  "name": "X",
                  "type": "uint256"
                },
                {
                  "internalType": "uint256",
                  "name": "Y",
                  "type": "uint256"
                }
              ],
              "internalType": "struct alt_bn128.G1Point[]",
              "name": "Ls",
              "type": "tuple[]"
            },
            {
              "components": [
                {
                  "internalType": "uint256",
                  "name": "X",
                  "type": "uint256"
                },
                {
                  "internalType": "uint256",
                  "name": "Y",
                  "type": "uint256"
                }
              ],
              "internalType": "struct alt_bn128.G1Point[]",
              "name": "Rs",
              "type": "tuple[]"
            },
            {
              "internalType": "uint256",
              "name": "final_co",
              "type": "uint256"
            }
          ],
          "internalType": "struct BulletProof.Proof",
          "name": "p",
          "type": "tuple"
        }
      ],
      "stateMutability": "view",
      "type": "function",
      "constant": true
    },
    {
      "inputs": [
        {
          "components": [
            {
              "internalType": "uint256",
              "name": "X",
              "type": "uint256"
            },
            {
              "internalType": "uint256",
              "name": "Y",
              "type": "uint256"
            }
          ],
          "internalType": "struct alt_bn128.G1Point[]",
          "name": "Gs",
          "type": "tuple[]"
        },
        {
          "components": [
            {
              "internalType": "uint256",
              "name": "X",
              "type": "uint256"
            },
            {
              "internalType": "uint256",
              "name": "Y",
              "type": "uint256"
            }
          ],
          "internalType": "struct alt_bn128.G1Point",
          "name": "C",
          "type": "tuple"
        },
        {
          "components": [
            {
              "components": [
                {
                  "internalType": "uint256",
                  "name": "X",
                  "type": "uint256"
                },
                {
                  "internalType": "uint256",
                  "name": "Y",
                  "type": "uint256"
                }
              ],
              "internalType": "struct alt_bn128.G1Point[]",
              "name": "Ls",
              "type": "tuple[]"
            },
            {
              "components": [
                {
                  "internalType": "uint256",
                  "name": "X",
                  "type": "uint256"
                },
                {
                  "internalType": "uint256",
                  "name": "Y",
                  "type": "uint256"
                }
              ],
              "internalType": "struct alt_bn128.G1Point[]",
              "name": "Rs",
              "type": "tuple[]"
            },
            {
              "internalType": "uint256",
              "name": "final_co",
              "type": "uint256"
            }
          ],
          "internalType": "struct BulletProof.Proof",
          "name": "p",
          "type": "tuple"
        }
      ],
      "name": "verify",
      "outputs": [
        {
          "internalType": "bool",
          "name": "",
          "type": "bool"
        }
      ],
      "stateMutability": "view",
      "type": "function",
      "constant": true
    }
  ],
  "bytecode": "0x608060405234801561001057600080fd5b506121f8806100206000396000f3fe608060405234801561001057600080fd5b50600436106100885760003560e01c80635bb217ad1161005b5780635bb217ad1461014d578063719e277c1461017e5780639baa2a87146101ae578063b01d657d146101df57610088565b806302d6910e1461008d5780630ab6c6e3146100bd5780631fad9b63146100ed5780635456bf131461011d575b600080fd5b6100a760048036038101906100a29190611736565b61020f565b6040516100b49190611905565b60405180910390f35b6100d760048036038101906100d29190611927565b6105a6565b6040516100e491906119f2565b60405180910390f35b61010760048036038101906101029190611a14565b6106bf565b60405161011491906119f2565b60405180910390f35b61013760048036038101906101329190611a14565b61076e565b6040516101449190611a50565b60405180910390f35b61016760048036038101906101629190611a6b565b6107a2565b604051610175929190611ba5565b60405180910390f35b61019860048036038101906101939190611c78565b610993565b6040516101a59190611d1e565b60405180910390f35b6101c860048036038101906101c39190611d39565b610c50565b6040516101d6929190611de0565b60405180910390f35b6101f960048036038101906101f49190611d39565b610df5565b6040516102069190611e09565b60405180910390f35b6102176113b3565b6000600183516102279190611e53565b8351161461026a576040517f08c379a000000000000000000000000000000000000000000000000000000000815260040161026190611f0a565b60405180910390fd5b6000610276835161076e565b905060008073__alt_bn128_____________________________63aba8f706876040518263ffffffff1660e01b81526004016102b29190611f68565b602060405180830381865af41580156102cf573d6000803e3d6000fd5b505050506040513d601f19601f820116820180604052508101906102f39190611fb9565b90506102fd6113d4565b6103056113d4565b60008567ffffffffffffffff811115610321576103206114a0565b5b60405190808252806020026020018201604052801561035a57816020015b6103476113d4565b81526020019060019003908161033f5790505b50905060008667ffffffffffffffff811115610379576103786114a0565b5b6040519080825280602002602001820160405280156103b257816020015b61039f6113d4565b8152602001906001900390816103975790505b50905060005b8781101561055f576103ca8c8b610c50565b8095508196505050848382815181106103e6576103e5611fe6565b5b60200260200101819052508382828151811061040557610404611fe6565b5b60200260200101819052508573__alt_bn128_____________________________63aba8f706876040518263ffffffff1660e01b81526004016104489190611f68565b602060405180830381865af4158015610465573d6000803e3d6000fd5b505050506040513d601f19601f820116820180604052508101906104899190611fb9565b73__alt_bn128_____________________________63aba8f706876040518263ffffffff1660e01b81526004016104c09190611f68565b602060405180830381865af41580156104dd573d6000803e3d6000fd5b505050506040513d601f19601f820116820180604052508101906105019190611fb9565b60405160200161051393929190612036565b6040516020818303038152906040528051906020012095506105378660001c610eb2565b96506105448c8b896107a2565b809b50819d505050808061055790612073565b9150506103b8565b5060405180606001604052808381526020018281526020018a60008151811061058b5761058a611fe6565b5b60200260200101518152509750505050505050509392505050565b60606000600284516105b891906120ea565b90508067ffffffffffffffff8111156105d4576105d36114a0565b5b60405190808252806020026020018201604052801561060d57816020015b6105fa6113d4565b8152602001906001900390816105f25790505b50915060005b818110156106b75761068661064e8683600261062f919061211b565b815181106106405761063f611fe6565b5b602002602001015186610ee7565b86600184600261065e919061211b565b610668919061215d565b8151811061067957610678611fe6565b5b6020026020010151610f9f565b83828151811061069957610698611fe6565b5b602002602001018190525080806106af90612073565b915050610613565b505092915050565b60608167ffffffffffffffff8111156106db576106da6114a0565b5b60405190808252806020026020018201604052801561071457816020015b6107016113d4565b8152602001906001900390816106f95790505b50905060005b8281101561076857610737600282610732919061215d565b611053565b82828151811061074a57610749611fe6565b5b6020026020010181905250808061076090612073565b91505061071a565b50919050565b60005b600182111561079d57600181610787919061215d565b905060028261079691906120ea565b9150610771565b919050565b6060806000600285516107b591906120ea565b90508067ffffffffffffffff8111156107d1576107d06114a0565b5b60405190808252806020026020018201604052801561080a57816020015b6107f76113d4565b8152602001906001900390816107ef5790505b5092508067ffffffffffffffff811115610827576108266114a0565b5b6040519080825280602002602001820160405280156108555781602001602082028036833780820191505090505b50915060005b81811015610989576108ce61089688836002610877919061211b565b8151811061088857610887611fe6565b5b602002602001015187610ee7565b8860018460026108a6919061211b565b6108b0919061215d565b815181106108c1576108c0611fe6565b5b6020026020010151610f9f565b8482815181106108e1576108e0611fe6565b5b6020026020010181905250610957868260026108fd919061211b565b8151811061090e5761090d611fe6565b5b60200260200101516109528789600186600261092a919061211b565b610934919061215d565b8151811061094557610944611fe6565b5b6020026020010151611211565b61124d565b83828151811061096a57610969611fe6565b5b602002602001018181525050808061098190612073565b91505061085b565b5050935093915050565b600080600073__alt_bn128_____________________________63aba8f706866040518263ffffffff1660e01b81526004016109cf9190611f68565b602060405180830381865af41580156109ec573d6000803e3d6000fd5b505050506040513d601f19601f82011682018060405250810190610a109190611fb9565b905060005b846000015151811015610c12578173__alt_bn128_____________________________63aba8f70687600001518481518110610a5457610a53611fe6565b5b60200260200101516040518263ffffffff1660e01b8152600401610a789190611f68565b602060405180830381865af4158015610a95573d6000803e3d6000fd5b505050506040513d601f19601f82011682018060405250810190610ab99190611fb9565b73__alt_bn128_____________________________63aba8f70688602001518581518110610aea57610ae9611fe6565b5b60200260200101516040518263ffffffff1660e01b8152600401610b0e9190611f68565b602060405180830381865af4158015610b2b573d6000803e3d6000fd5b505050506040513d601f19601f82011682018060405250810190610b4f9190611fb9565b604051602001610b6193929190612036565b604051602081830303815290604052805190602001209150610b858260001c610eb2565b9250610bf1610bcd610b978886610ee7565b610bc888600001518581518110610bb157610bb0611fe6565b5b6020026020010151610bc38889611211565b610ee7565b610f9f565b86602001518381518110610be457610be3611fe6565b5b6020026020010151610f9f565b9550610bfd87846105a6565b96508080610c0a90612073565b915050610a15565b50610c45610c3f87600081518110610c2d57610c2c611fe6565b5b60200260200101518660400151610ee7565b86611289565b925050509392505050565b610c586113d4565b610c606113d4565b610ca084600081518110610c7757610c76611fe6565b5b602002602001015184600181518110610c9357610c92611fe6565b5b6020026020010151610ee7565b9150610ce284600181518110610cb957610cb8611fe6565b5b602002602001015184600081518110610cd557610cd4611fe6565b5b6020026020010151610ee7565b90506000600190505b60028451610cf991906120ea565b811015610ded57610d6b610d6586836002610d14919061211b565b81518110610d2557610d24611fe6565b5b6020026020010151866001856002610d3d919061211b565b610d47919061215d565b81518110610d5857610d57611fe6565b5b6020026020010151610ee7565b84610f9f565b9250610dd8610dd2866001846002610d83919061211b565b610d8d919061215d565b81518110610d9e57610d9d611fe6565b5b602002602001015186846002610db4919061211b565b81518110610dc557610dc4611fe6565b5b6020026020010151610ee7565b83610f9f565b91508080610de590612073565b915050610ceb565b509250929050565b610dfd6113d4565b610e3d83600081518110610e1457610e13611fe6565b5b602002602001015183600081518110610e3057610e2f611fe6565b5b6020026020010151610ee7565b90506000600190505b8251811015610eab57610e96610e90858381518110610e6857610e67611fe6565b5b6020026020010151858481518110610e8357610e82611fe6565b5b6020026020010151610ee7565b83610f9f565b91508080610ea390612073565b915050610e46565b5092915050565b60007f30644e72e131a029b85045b68181585d2833e84879b9709143e1f593f000000182610ee09190612191565b9050919050565b610eef6113d4565b60018203610eff57829050610f99565b60028203610f1857610f118384610f9f565b9050610f99565b610f206113ee565b836000015181600060038110610f3957610f38611fe6565b5b602002018181525050836020015181600160038110610f5b57610f5a611fe6565b5b6020020181815250508281600260038110610f7957610f78611fe6565b5b6020020181815250506040826060836007600019fa610f9757600080fd5b505b92915050565b610fa76113d4565b610faf611410565b836000015181600060048110610fc857610fc7611fe6565b5b602002018181525050836020015181600160048110610fea57610fe9611fe6565b5b60200201818152505082600001518160026004811061100c5761100b611fe6565b5b60200201818152505082602001518160036004811061102e5761102d611fe6565b5b6020020181815250506040826080836006600019fa61104c57600080fd5b5092915050565b61105b6113d4565b60007f30644e72e131a029b85045b68181585d97816a916871ca8d3c208c16d87cfd47836110899190612191565b9050600060018261109a9190611e53565b91506000805b816111f1576001846110b2919061215d565b93507f30644e72e131a029b85045b68181585d97816a916871ca8d3c208c16d87cfd47806110e3576110e26120bb565b5b84850990507f30644e72e131a029b85045b68181585d97816a916871ca8d3c208c16d87cfd4780611117576111166120bb565b5b84820990507f30644e72e131a029b85045b68181585d97816a916871ca8d3c208c16d87cfd478061114b5761114a6120bb565b5b6003820890506111b481600460017f30644e72e131a029b85045b68181585d97816a916871ca8d3c208c16d87cfd47611184919061215d565b61118e91906120ea565b7f30644e72e131a029b85045b68181585d97816a916871ca8d3c208c16d87cfd476112b1565b9250807f30644e72e131a029b85045b68181585d97816a916871ca8d3c208c16d87cfd47806111e6576111e56120bb565b5b8485091491506110a0565b604051806040016040528085815260200184815250945050505050919050565b60007f30644e72e131a029b85045b68181585d2833e84879b9709143e1f593f000000180611242576112416120bb565b5b828409905092915050565b60007f30644e72e131a029b85045b68181585d2833e84879b9709143e1f593f00000018061127e5761127d6120bb565b5b828408905092915050565b6000816000015183600001511480156112a9575081602001518360200151145b905092915050565b60006112bb611432565b6112c3611454565b6020826000600681106112d9576112d8611fe6565b5b6020020181815250506020826001600681106112f8576112f7611fe6565b5b60200201818152505060208260026006811061131757611316611fe6565b5b602002018181525050858260036006811061133557611334611fe6565b5b602002018181525050848260046006811061135357611352611fe6565b5b602002018181525050838260056006811061137157611370611fe6565b5b60200201818152505060208160c0846005600019fa61138f57600080fd5b806000600181106113a3576113a2611fe6565b5b6020020151925050509392505050565b60405180606001604052806060815260200160608152602001600081525090565b604051806040016040528060008152602001600081525090565b6040518060600160405280600390602082028036833780820191505090505090565b6040518060800160405280600490602082028036833780820191505090505090565b6040518060c00160405280600690602082028036833780820191505090505090565b6040518060200160405280600190602082028036833780820191505090505090565b6000604051905090565b600080fd5b600080fd5b600080fd5b6000601f19601f8301169050919050565b7f4e487b7100000000000000000000000000000000000000000000000000000000600052604160045260246000fd5b6114d88261148f565b810181811067ffffffffffffffff821117156114f7576114f66114a0565b5b80604052505050565b600061150a611476565b905061151682826114cf565b919050565b600067ffffffffffffffff821115611536576115356114a0565b5b602082029050602081019050919050565b600080fd5b600080fd5b600080fd5b6000819050919050565b61156981611556565b811461157457600080fd5b50565b60008135905061158681611560565b92915050565b6000604082840312156115a2576115a161154c565b5b6115ac6040611500565b905060006115bc84828501611577565b60008301525060206115d084828501611577565b60208301525092915050565b60006115ef6115ea8461151b565b611500565b9050808382526020820190506040840283018581111561161257611611611547565b5b835b8181101561163b5780611627888261158c565b845260208401935050604081019050611614565b5050509392505050565b600082601f83011261165a5761165961148a565b5b813561166a8482602086016115dc565b91505092915050565b600067ffffffffffffffff82111561168e5761168d6114a0565b5b602082029050602081019050919050565b60006116b26116ad84611673565b611500565b905080838252602082019050602084028301858111156116d5576116d4611547565b5b835b818110156116fe57806116ea8882611577565b8452602084019350506020810190506116d7565b5050509392505050565b600082601f83011261171d5761171c61148a565b5b813561172d84826020860161169f565b91505092915050565b60008060006080848603121561174f5761174e611480565b5b600084013567ffffffffffffffff81111561176d5761176c611485565b5b61177986828701611645565b935050602061178a8682870161158c565b925050606084013567ffffffffffffffff8111156117ab576117aa611485565b5b6117b786828701611708565b9150509250925092565b600081519050919050565b600082825260208201905092915050565b6000819050602082019050919050565b6117f681611556565b82525050565b60408201600082015161181260008501826117ed565b50602082015161182560208501826117ed565b50505050565b600061183783836117fc565b60408301905092915050565b6000602082019050919050565b600061185b826117c1565b61186581856117cc565b9350611870836117dd565b8060005b838110156118a1578151611888888261182b565b975061189383611843565b925050600181019050611874565b5085935050505092915050565b600060608301600083015184820360008601526118cb8282611850565b915050602083015184820360208601526118e58282611850565b91505060408301516118fa60408601826117ed565b508091505092915050565b6000602082019050818103600083015261191f81846118ae565b905092915050565b6000806040838503121561193e5761193d611480565b5b600083013567ffffffffffffffff81111561195c5761195b611485565b5b61196885828601611645565b925050602061197985828601611577565b9150509250929050565b600082825260208201905092915050565b600061199f826117c1565b6119a98185611983565b93506119b4836117dd565b8060005b838110156119e55781516119cc888261182b565b97506119d783611843565b9250506001810190506119b8565b5085935050505092915050565b60006020820190508181036000830152611a0c8184611994565b905092915050565b600060208284031215611a2a57611a29611480565b5b6000611a3884828501611577565b91505092915050565b611a4a81611556565b82525050565b6000602082019050611a656000830184611a41565b92915050565b600080600060608486031215611a8457611a83611480565b5b600084013567ffffffffffffffff811115611aa257611aa1611485565b5b611aae86828701611645565b935050602084013567ffffffffffffffff811115611acf57611ace611485565b5b611adb86828701611708565b9250506040611aec86828701611577565b9150509250925092565b600081519050919050565b600082825260208201905092915050565b6000819050602082019050919050565b6000611b2e83836117ed565b60208301905092915050565b6000602082019050919050565b6000611b5282611af6565b611b5c8185611b01565b9350611b6783611b12565b8060005b83811015611b98578151611b7f8882611b22565b9750611b8a83611b3a565b925050600181019050611b6b565b5085935050505092915050565b60006040820190508181036000830152611bbf8185611994565b90508181036020830152611bd38184611b47565b90509392505050565b600060608284031215611bf257611bf161154c565b5b611bfc6060611500565b9050600082013567ffffffffffffffff811115611c1c57611c1b611551565b5b611c2884828501611645565b600083015250602082013567ffffffffffffffff811115611c4c57611c4b611551565b5b611c5884828501611645565b6020830152506040611c6c84828501611577565b60408301525092915050565b600080600060808486031215611c9157611c90611480565b5b600084013567ffffffffffffffff811115611caf57611cae611485565b5b611cbb86828701611645565b9350506020611ccc8682870161158c565b925050606084013567ffffffffffffffff811115611ced57611cec611485565b5b611cf986828701611bdc565b9150509250925092565b60008115159050919050565b611d1881611d03565b82525050565b6000602082019050611d336000830184611d0f565b92915050565b60008060408385031215611d5057611d4f611480565b5b600083013567ffffffffffffffff811115611d6e57611d6d611485565b5b611d7a85828601611645565b925050602083013567ffffffffffffffff811115611d9b57611d9a611485565b5b611da785828601611708565b9150509250929050565b604082016000820151611dc760008501826117ed565b506020820151611dda60208501826117ed565b50505050565b6000608082019050611df56000830185611db1565b611e026040830184611db1565b9392505050565b6000604082019050611e1e6000830184611db1565b92915050565b7f4e487b7100000000000000000000000000000000000000000000000000000000600052601160045260246000fd5b6000611e5e82611556565b9150611e6983611556565b9250828203905081811115611e8157611e80611e24565b5b92915050565b600082825260208201905092915050565b7f706f6c796e6f6d69616c206c656e6774682073686f756c64206265206120706f60008201527f776572206f662032000000000000000000000000000000000000000000000000602082015250565b6000611ef4602883611e87565b9150611eff82611e98565b604082019050919050565b60006020820190508181036000830152611f2381611ee7565b9050919050565b611f3381611556565b82525050565b604082016000820151611f4f6000850182611f2a565b506020820151611f626020850182611f2a565b50505050565b6000604082019050611f7d6000830184611f39565b92915050565b6000819050919050565b611f9681611f83565b8114611fa157600080fd5b50565b600081519050611fb381611f8d565b92915050565b600060208284031215611fcf57611fce611480565b5b6000611fdd84828501611fa4565b91505092915050565b7f4e487b7100000000000000000000000000000000000000000000000000000000600052603260045260246000fd5b6000819050919050565b61203061202b82611f83565b612015565b82525050565b6000612042828661201f565b602082019150612052828561201f565b602082019150612062828461201f565b602082019150819050949350505050565b600061207e82611556565b91507fffffffffffffffffffffffffffffffffffffffffffffffffffffffffffffffff82036120b0576120af611e24565b5b600182019050919050565b7f4e487b7100000000000000000000000000000000000000000000000000000000600052601260045260246000fd5b60006120f582611556565b915061210083611556565b9250826121105761210f6120bb565b5b828204905092915050565b600061212682611556565b915061213183611556565b925082820261213f81611556565b9150828204841483151761215657612155611e24565b5b5092915050565b600061216882611556565b915061217383611556565b925082820190508082111561218b5761218a611e24565b5b92915050565b600061219c82611556565b91506121a783611556565b9250826121b7576121b66120bb565b5b82820690509291505056fea2646970667358221220b1f85bbf6a084bcd39505974aa25040ba8af1f4cceda8a28f057f272b1a0b78364736f6c63430008130033",
  "immutableReferences": {},
  "source": "// SPDX-License-Identifier: GPL-3.0\npragma solidity >=0.4.0 <0.9.0;\n\nimport \"./alt_bn128.sol\";\n\ncontract BulletProof {\n    using alt_bn128 for uint256;\n    using alt_bn128 for alt_bn128.G1Point;\n\n    struct Proof {\n        alt_bn128.G1Point[] Ls;\n        alt_bn128.G1Point[] Rs;\n        uint256 final_co;\n    }\n    \n    /** Base points of the elliptic curve */\n    function generators(uint count) public view returns (alt_bn128.G1Point[] memory Gs){\n        Gs = new alt_bn128.G1Point[](count);\n        for (uint256 i = 0; i < count; i++){\n            Gs[i] = alt_bn128.uintToCurvePoint(i+2);\n        }\n    }\n\n    // /** Commitment to polynomial (lower and upper half scheme) */\n    // function commit(alt_bn128.G1Point[] memory Gs, uint256[] memory poly, uint Gstart, uint polystart, uint number)\n    // public view returns (alt_bn128.G1Point memory C){\n    //     C = alt_bn128.mul(Gs[Gstart], poly[polystart]);\n    //     for (uint i = 1; i < number; i++){\n    //         C = alt_bn128.add(alt_bn128.mul(Gs[Gstart+i], poly[polystart+i]));\n    //     }\n    // }\n\n    /** Commitment to polynomial (even and odd scheme) */\n    function commit(alt_bn128.G1Point[] memory Gs, uint256[] memory poly) public view \n    returns (alt_bn128.G1Point memory C){\n        C = alt_bn128.mul(Gs[0], poly[0]);\n        for (uint i = 1; i < poly.length; i++){\n            C = alt_bn128.add(alt_bn128.mul(Gs[i], poly[i]), C);\n        }\n    }\n\n    /** compute the (L, R) pair */\n    function LRpair(alt_bn128.G1Point[] memory Gs, uint256[] memory poly) public view\n    returns (alt_bn128.G1Point memory L, alt_bn128.G1Point memory R){\n        L = alt_bn128.mul(Gs[0], poly[1]);\n        R = alt_bn128.mul(Gs[1], poly[0]);\n\n        for (uint i = 1; i < poly.length/2; i++){\n            L = alt_bn128.add(alt_bn128.mul(Gs[2*i], poly[2*i+1]), L);\n            R = alt_bn128.add(alt_bn128.mul(Gs[2*i+1], poly[2*i]), R);\n        }\n    }\n\n    /** new base points and polynomial \n     * G'_i = aG_2i + G_(2i+1)\n     * c'_i = c_2i + ac_(2i+1)\n     * => intermediate commitment \n     * C' = sum c'_i G'_i = aC + a^2L + R\n    */\n    function nextRound(alt_bn128.G1Point[] memory Gs, uint256[] memory poly , uint256 a) public view\n    returns (alt_bn128.G1Point[] memory Gs_new, uint256[] memory poly_new){\n        uint length = poly.length / 2;\n\n        Gs_new = new alt_bn128.G1Point[](length);\n        poly_new = new uint256[](length);\n\n        for (uint i = 0; i < length; i++){\n            Gs_new[i] = alt_bn128.add(alt_bn128.mul(Gs[2*i], a), Gs[2*i+1]);\n            poly_new[i] = alt_bn128.add(poly[2*i], alt_bn128.mul(a, poly[2*i+1]));\n        }\n    }\n\n    function log2(uint n) public pure returns (uint ndigits){\n        ndigits = 0;\n        while (n > 1){\n            ndigits += 1;\n            n = n/2;\n        }\n    }\n\n    function nextRound(alt_bn128.G1Point[] memory Gs, uint256 a) public view\n    returns (alt_bn128.G1Point[] memory Gs_new){\n        uint length = Gs.length / 2;\n\n        Gs_new = new alt_bn128.G1Point[](length);\n        for (uint i = 0; i < length; i++){\n            Gs_new[i] = alt_bn128.add(alt_bn128.mul(Gs[2*i], a), Gs[2*i+1]);\n        }\n    }\n\n    /** Proof of the polynomial */\n    function prove(alt_bn128.G1Point[] memory Gs, alt_bn128.G1Point memory C, uint256[] memory poly) public view\n    returns (Proof memory p) {\n        require(poly.length & (poly.length - 1) == 0, \"polynomial length should be a power of 2\");\n        uint length = log2(poly.length);\n        // Fiat-shamir heuristics as challenge\n        uint256 a;\n        bytes32 r = alt_bn128.serialize(C);\n\n        alt_bn128.G1Point memory L;\n        alt_bn128.G1Point memory R;\n\n        alt_bn128.G1Point[] memory Ls = new alt_bn128.G1Point[](length);\n        alt_bn128.G1Point[] memory Rs = new alt_bn128.G1Point[](length);\n\n        // log(n) rounds\n        for (uint i = 0; i < length; i++){\n            (L, R) = LRpair(Gs, poly);\n            Ls[i] = L; Rs[i] = R;\n\n            r = keccak256(abi.encodePacked(r, alt_bn128.serialize(L), alt_bn128.serialize(R)));\n            a = alt_bn128.mod(uint256(r));\n\n            // // Generate half-size poly and Gs\n            (Gs, poly) = nextRound(Gs, poly, a);\n        }\n\n        p = Proof(Ls, Rs, poly[0]);\n    }\n\n    /** Base case check: final point * final coefficient ?= final commitment */\n    function verify(alt_bn128.G1Point[] memory Gs, alt_bn128.G1Point memory C, Proof memory p) public view\n    returns (bool){\n        // Fiat-shamir heuristics\n        uint256 a;\n        bytes32 r = alt_bn128.serialize(C);\n\n        for (uint i = 0; i < p.Ls.length; i++){\n            r = keccak256(abi.encodePacked(r, alt_bn128.serialize(p.Ls[i]), alt_bn128.serialize(p.Rs[i])));\n            a = alt_bn128.mod(uint256(r));\n\n            // C' = sum c'_i G'_i = aC + a^2L + R\n            C = alt_bn128.add(\n                    alt_bn128.add(\n                        alt_bn128.mul(C, a), \n                        alt_bn128.mul(p.Ls[i], alt_bn128.mul(a, a))\n                    ), \n                    p.Rs[i]\n                );\n\n            Gs = nextRound(Gs, a);\n        }\n        return alt_bn128.eq(alt_bn128.mul(Gs[0], p.final_co), C);\n    }\n}",
  "sourcePath": "/Users/qian/Desktop/Y4/COMP4550/ZKP-Blockchain/contracts/bulletproof.sol",
  "compiler": {
    "name": "solc",
    "version": "0.8.19+commit.7dd6d404.Emscripten.clang"
  },
  "schemaVersion": "3.4.13",
  "updatedAt": "2023-03-17T15:34:42.953Z",
  "networkType": "ethereum",
  "devdoc": {
    "kind": "dev",
    "methods": {},
    "version": 1
  },
  "userdoc": {
    "kind": "user",
    "methods": {
      "LRpair((uint256,uint256)[],uint256[])": {
        "notice": "compute the (L, R) pair "
      },
      "commit((uint256,uint256)[],uint256[])": {
        "notice": "Commitment to polynomial (even and odd scheme) "
      },
      "generators(uint256)": {
        "notice": "Base points of the elliptic curve "
      },
      "nextRound((uint256,uint256)[],uint256[],uint256)": {
        "notice": "new base points and polynomial  G'_i = aG_2i + G_(2i+1) c'_i = c_2i + ac_(2i+1) => intermediate commitment  C' = sum c'_i G'_i = aC + a^2L + R"
      },
      "prove((uint256,uint256)[],(uint256,uint256),uint256[])": {
        "notice": "Proof of the polynomial "
      },
      "verify((uint256,uint256)[],(uint256,uint256),((uint256,uint256)[],(uint256,uint256)[],uint256))": {
        "notice": "Base case check: final point * final coefficient ?= final commitment "
      }
    },
    "version": 1
  }
}