{
  "contractName": "BulletProof",
  "abi": [
    {
      "inputs": [
        {
          "internalType": "uint256",
          "name": "count",
          "type": "uint256"
        }
      ],
      "name": "generators",
      "outputs": [
        {
          "components": [
            {
              "internalType": "uint256",
              "name": "X",
              "type": "uint256"
            },
            {
              "internalType": "uint256",
              "name": "Y",
              "type": "uint256"
            }
          ],
          "internalType": "struct alt_bn128.G1Point[]",
          "name": "Gs",
          "type": "tuple[]"
        }
      ],
      "stateMutability": "view",
      "type": "function",
      "constant": true
    },
    {
      "inputs": [
        {
          "components": [
            {
              "internalType": "uint256",
              "name": "X",
              "type": "uint256"
            },
            {
              "internalType": "uint256",
              "name": "Y",
              "type": "uint256"
            }
          ],
          "internalType": "struct alt_bn128.G1Point[]",
          "name": "Gs",
          "type": "tuple[]"
        },
        {
          "internalType": "uint256[]",
          "name": "poly",
          "type": "uint256[]"
        }
      ],
      "name": "commit",
      "outputs": [
        {
          "components": [
            {
              "internalType": "uint256",
              "name": "X",
              "type": "uint256"
            },
            {
              "internalType": "uint256",
              "name": "Y",
              "type": "uint256"
            }
          ],
          "internalType": "struct alt_bn128.G1Point",
          "name": "C",
          "type": "tuple"
        }
      ],
      "stateMutability": "view",
      "type": "function",
      "constant": true
    },
    {
      "inputs": [
        {
          "components": [
            {
              "internalType": "uint256",
              "name": "X",
              "type": "uint256"
            },
            {
              "internalType": "uint256",
              "name": "Y",
              "type": "uint256"
            }
          ],
          "internalType": "struct alt_bn128.G1Point[]",
          "name": "Gs",
          "type": "tuple[]"
        },
        {
          "internalType": "uint256[]",
          "name": "poly",
          "type": "uint256[]"
        }
      ],
      "name": "LRpair",
      "outputs": [
        {
          "components": [
            {
              "internalType": "uint256",
              "name": "X",
              "type": "uint256"
            },
            {
              "internalType": "uint256",
              "name": "Y",
              "type": "uint256"
            }
          ],
          "internalType": "struct alt_bn128.G1Point",
          "name": "L",
          "type": "tuple"
        },
        {
          "components": [
            {
              "internalType": "uint256",
              "name": "X",
              "type": "uint256"
            },
            {
              "internalType": "uint256",
              "name": "Y",
              "type": "uint256"
            }
          ],
          "internalType": "struct alt_bn128.G1Point",
          "name": "R",
          "type": "tuple"
        }
      ],
      "stateMutability": "view",
      "type": "function",
      "constant": true
    },
    {
      "inputs": [
        {
          "internalType": "uint256",
          "name": "n",
          "type": "uint256"
        }
      ],
      "name": "log2",
      "outputs": [
        {
          "internalType": "uint256",
          "name": "ndigits",
          "type": "uint256"
        }
      ],
      "stateMutability": "pure",
      "type": "function",
      "constant": true
    },
    {
      "inputs": [
        {
          "components": [
            {
              "internalType": "uint256",
              "name": "X",
              "type": "uint256"
            },
            {
              "internalType": "uint256",
              "name": "Y",
              "type": "uint256"
            }
          ],
          "internalType": "struct alt_bn128.G1Point[]",
          "name": "Gs",
          "type": "tuple[]"
        },
        {
          "internalType": "uint256",
          "name": "a",
          "type": "uint256"
        }
      ],
      "name": "nextRound",
      "outputs": [
        {
          "components": [
            {
              "internalType": "uint256",
              "name": "X",
              "type": "uint256"
            },
            {
              "internalType": "uint256",
              "name": "Y",
              "type": "uint256"
            }
          ],
          "internalType": "struct alt_bn128.G1Point[]",
          "name": "Gs_new",
          "type": "tuple[]"
        }
      ],
      "stateMutability": "view",
      "type": "function",
      "constant": true
    },
    {
      "inputs": [
        {
          "components": [
            {
              "internalType": "uint256",
              "name": "X",
              "type": "uint256"
            },
            {
              "internalType": "uint256",
              "name": "Y",
              "type": "uint256"
            }
          ],
          "internalType": "struct alt_bn128.G1Point[]",
          "name": "Gs",
          "type": "tuple[]"
        },
        {
          "internalType": "uint256[]",
          "name": "poly",
          "type": "uint256[]"
        },
        {
          "internalType": "uint256",
          "name": "a",
          "type": "uint256"
        }
      ],
      "name": "nextRound",
      "outputs": [
        {
          "components": [
            {
              "internalType": "uint256",
              "name": "X",
              "type": "uint256"
            },
            {
              "internalType": "uint256",
              "name": "Y",
              "type": "uint256"
            }
          ],
          "internalType": "struct alt_bn128.G1Point[]",
          "name": "Gs_new",
          "type": "tuple[]"
        },
        {
          "internalType": "uint256[]",
          "name": "poly_new",
          "type": "uint256[]"
        }
      ],
      "stateMutability": "view",
      "type": "function",
      "constant": true
    },
    {
      "inputs": [
        {
          "components": [
            {
              "internalType": "uint256",
              "name": "X",
              "type": "uint256"
            },
            {
              "internalType": "uint256",
              "name": "Y",
              "type": "uint256"
            }
          ],
          "internalType": "struct alt_bn128.G1Point[]",
          "name": "Gs",
          "type": "tuple[]"
        },
        {
          "components": [
            {
              "internalType": "uint256",
              "name": "X",
              "type": "uint256"
            },
            {
              "internalType": "uint256",
              "name": "Y",
              "type": "uint256"
            }
          ],
          "internalType": "struct alt_bn128.G1Point",
          "name": "C",
          "type": "tuple"
        },
        {
          "internalType": "uint256[]",
          "name": "poly",
          "type": "uint256[]"
        }
      ],
      "name": "prove",
      "outputs": [
        {
          "components": [
            {
              "components": [
                {
                  "internalType": "uint256",
                  "name": "X",
                  "type": "uint256"
                },
                {
                  "internalType": "uint256",
                  "name": "Y",
                  "type": "uint256"
                }
              ],
              "internalType": "struct alt_bn128.G1Point[]",
              "name": "Ls",
              "type": "tuple[]"
            },
            {
              "components": [
                {
                  "internalType": "uint256",
                  "name": "X",
                  "type": "uint256"
                },
                {
                  "internalType": "uint256",
                  "name": "Y",
                  "type": "uint256"
                }
              ],
              "internalType": "struct alt_bn128.G1Point[]",
              "name": "Rs",
              "type": "tuple[]"
            },
            {
              "internalType": "uint256",
              "name": "final_co",
              "type": "uint256"
            }
          ],
          "internalType": "struct BulletProof.Proof",
          "name": "p",
          "type": "tuple"
        }
      ],
      "stateMutability": "view",
      "type": "function",
      "constant": true
    },
    {
      "inputs": [
        {
          "components": [
            {
              "internalType": "uint256",
              "name": "X",
              "type": "uint256"
            },
            {
              "internalType": "uint256",
              "name": "Y",
              "type": "uint256"
            }
          ],
          "internalType": "struct alt_bn128.G1Point[]",
          "name": "Gs",
          "type": "tuple[]"
        },
        {
          "components": [
            {
              "internalType": "uint256",
              "name": "X",
              "type": "uint256"
            },
            {
              "internalType": "uint256",
              "name": "Y",
              "type": "uint256"
            }
          ],
          "internalType": "struct alt_bn128.G1Point",
          "name": "C",
          "type": "tuple"
        },
        {
          "components": [
            {
              "components": [
                {
                  "internalType": "uint256",
                  "name": "X",
                  "type": "uint256"
                },
                {
                  "internalType": "uint256",
                  "name": "Y",
                  "type": "uint256"
                }
              ],
              "internalType": "struct alt_bn128.G1Point[]",
              "name": "Ls",
              "type": "tuple[]"
            },
            {
              "components": [
                {
                  "internalType": "uint256",
                  "name": "X",
                  "type": "uint256"
                },
                {
                  "internalType": "uint256",
                  "name": "Y",
                  "type": "uint256"
                }
              ],
              "internalType": "struct alt_bn128.G1Point[]",
              "name": "Rs",
              "type": "tuple[]"
            },
            {
              "internalType": "uint256",
              "name": "final_co",
              "type": "uint256"
            }
          ],
          "internalType": "struct BulletProof.Proof",
          "name": "p",
          "type": "tuple"
        }
      ],
      "name": "verify",
      "outputs": [
        {
          "internalType": "bool",
          "name": "",
          "type": "bool"
        }
      ],
      "stateMutability": "view",
      "type": "function",
      "constant": true
    }
  ],
  "bytecode": "0x608060405234801561001057600080fd5b50612140806100206000396000f3fe608060405234801561001057600080fd5b50600436106100885760003560e01c80635bb217ad1161005b5780635bb217ad1461014d578063719e277c1461017e5780639baa2a87146101ae578063b01d657d146101df57610088565b806302d6910e1461008d5780630ab6c6e3146100bd5780631fad9b63146100ed5780635456bf131461011d575b600080fd5b6100a760048036038101906100a2919061167e565b61020f565b6040516100b4919061184d565b60405180910390f35b6100d760048036038101906100d2919061186f565b6105a6565b6040516100e4919061193a565b60405180910390f35b6101076004803603810190610102919061195c565b6106bf565b604051610114919061193a565b60405180910390f35b6101376004803603810190610132919061195c565b610762565b6040516101449190611998565b60405180910390f35b610167600480360381019061016291906119b3565b61078e565b604051610175929190611aed565b60405180910390f35b61019860048036038101906101939190611bc0565b61097f565b6040516101a59190611c66565b60405180910390f35b6101c860048036038101906101c39190611c81565b610c3e565b6040516101d6929190611d28565b60405180910390f35b6101f960048036038101906101f49190611c81565b610de3565b6040516102069190611d51565b60405180910390f35b6102176112fb565b6000600183516102279190611d9b565b8351161461026a576040517f08c379a000000000000000000000000000000000000000000000000000000000815260040161026190611e52565b60405180910390fd5b60006102768351610762565b905060008073__alt_bn128_____________________________63aba8f706876040518263ffffffff1660e01b81526004016102b29190611eb0565b602060405180830381865af41580156102cf573d6000803e3d6000fd5b505050506040513d601f19601f820116820180604052508101906102f39190611f01565b90506102fd61131c565b61030561131c565b60008567ffffffffffffffff811115610321576103206113e8565b5b60405190808252806020026020018201604052801561035a57816020015b61034761131c565b81526020019060019003908161033f5790505b50905060008667ffffffffffffffff811115610379576103786113e8565b5b6040519080825280602002602001820160405280156103b257816020015b61039f61131c565b8152602001906001900390816103975790505b50905060005b8781101561055f576103ca8c8b610c3e565b8095508196505050848382815181106103e6576103e5611f2e565b5b60200260200101819052508382828151811061040557610404611f2e565b5b60200260200101819052508573__alt_bn128_____________________________63aba8f706876040518263ffffffff1660e01b81526004016104489190611eb0565b602060405180830381865af4158015610465573d6000803e3d6000fd5b505050506040513d601f19601f820116820180604052508101906104899190611f01565b73__alt_bn128_____________________________63aba8f706876040518263ffffffff1660e01b81526004016104c09190611eb0565b602060405180830381865af41580156104dd573d6000803e3d6000fd5b505050506040513d601f19601f820116820180604052508101906105019190611f01565b60405160200161051393929190611f7e565b6040516020818303038152906040528051906020012095506105378660001c610ea0565b96506105448c8b8961078e565b809b50819d505050808061055790611fbb565b9150506103b8565b5060405180606001604052808381526020018281526020018a60008151811061058b5761058a611f2e565b5b60200260200101518152509750505050505050509392505050565b60606000600284516105b89190612032565b90508067ffffffffffffffff8111156105d4576105d36113e8565b5b60405190808252806020026020018201604052801561060d57816020015b6105fa61131c565b8152602001906001900390816105f25790505b50915060005b818110156106b75761068661064e8683600261062f9190612063565b815181106106405761063f611f2e565b5b602002602001015186610eda565b86600184600261065e9190612063565b61066891906120a5565b8151811061067957610678611f2e565b5b6020026020010151610f92565b83828151811061069957610698611f2e565b5b602002602001018190525080806106af90611fbb565b915050610613565b505092915050565b60608167ffffffffffffffff8111156106db576106da6113e8565b5b60405190808252806020026020018201604052801561071457816020015b61070161131c565b8152602001906001900390816106f95790505b50905060005b8281101561075c5761072b81611046565b82828151811061073e5761073d611f2e565b5b6020026020010181905250808061075490611fbb565b91505061071a565b50919050565b60005b60018211156107895760018161077b91906120a5565b9050600182901b9150610765565b919050565b6060806000600285516107a19190612032565b90508067ffffffffffffffff8111156107bd576107bc6113e8565b5b6040519080825280602002602001820160405280156107f657816020015b6107e361131c565b8152602001906001900390816107db5790505b5092508067ffffffffffffffff811115610813576108126113e8565b5b6040519080825280602002602001820160405280156108415781602001602082028036833780820191505090505b50915060005b81811015610975576108ba610882888360026108639190612063565b8151811061087457610873611f2e565b5b602002602001015187610eda565b8860018460026108929190612063565b61089c91906120a5565b815181106108ad576108ac611f2e565b5b6020026020010151610f92565b8482815181106108cd576108cc611f2e565b5b6020026020010181905250610943838260026108e99190612063565b815181106108fa576108f9611f2e565b5b602002602001015161093e878660018660026109169190612063565b61092091906120a5565b8151811061093157610930611f2e565b5b602002602001015161114f565b611190565b83828151811061095657610955611f2e565b5b602002602001018181525050808061096d90611fbb565b915050610847565b5050935093915050565b600080600073__alt_bn128_____________________________63aba8f706866040518263ffffffff1660e01b81526004016109bb9190611eb0565b602060405180830381865af41580156109d8573d6000803e3d6000fd5b505050506040513d601f19601f820116820180604052508101906109fc9190611f01565b905060005b846000015151811015610c00578173__alt_bn128_____________________________63aba8f70687600001518481518110610a4057610a3f611f2e565b5b60200260200101516040518263ffffffff1660e01b8152600401610a649190611eb0565b602060405180830381865af4158015610a81573d6000803e3d6000fd5b505050506040513d601f19601f82011682018060405250810190610aa59190611f01565b73__alt_bn128_____________________________63aba8f70688602001518581518110610ad657610ad5611f2e565b5b60200260200101516040518263ffffffff1660e01b8152600401610afa9190611eb0565b602060405180830381865af4158015610b17573d6000803e3d6000fd5b505050506040513d601f19601f82011682018060405250810190610b3b9190611f01565b604051602001610b4d93929190611f7e565b604051602081830303815290604052805190602001209150610b718260001c610ea0565b9250610bdf610bbb610b838886610eda565b610bb688600001518581518110610b9d57610b9c611f2e565b5b60200260200101518788610bb19190612063565b610eda565b610f92565b86602001518381518110610bd257610bd1611f2e565b5b6020026020010151610f92565b9550610beb87846105a6565b96508080610bf890611fbb565b915050610a01565b50610c33610c2d87600081518110610c1b57610c1a611f2e565b5b60200260200101518660400151610eda565b866111d1565b925050509392505050565b610c4661131c565b610c4e61131c565b610c8e84600081518110610c6557610c64611f2e565b5b602002602001015184600181518110610c8157610c80611f2e565b5b6020026020010151610eda565b9150610cd084600181518110610ca757610ca6611f2e565b5b602002602001015184600081518110610cc357610cc2611f2e565b5b6020026020010151610eda565b90506000600190505b60028451610ce79190612032565b811015610ddb57610d59610d5386836002610d029190612063565b81518110610d1357610d12611f2e565b5b6020026020010151866001856002610d2b9190612063565b610d3591906120a5565b81518110610d4657610d45611f2e565b5b6020026020010151610eda565b84610f92565b9250610dc6610dc0866001846002610d719190612063565b610d7b91906120a5565b81518110610d8c57610d8b611f2e565b5b602002602001015186846002610da29190612063565b81518110610db357610db2611f2e565b5b6020026020010151610eda565b83610f92565b91508080610dd390611fbb565b915050610cd9565b509250929050565b610deb61131c565b610e2b83600081518110610e0257610e01611f2e565b5b602002602001015183600081518110610e1e57610e1d611f2e565b5b6020026020010151610eda565b90506000600190505b8251811015610e9957610e84610e7e858381518110610e5657610e55611f2e565b5b6020026020010151858481518110610e7157610e70611f2e565b5b6020026020010151610eda565b83610f92565b91508080610e9190611fbb565b915050610e34565b5092915050565b6000807f30644e72e131a029b85045b68181585d2833e84879b9709143e1f593f000000190508083610ed291906120d9565b915050919050565b610ee261131c565b60018203610ef257829050610f8c565b60028203610f0b57610f048384610f92565b9050610f8c565b610f13611336565b836000015181600060038110610f2c57610f2b611f2e565b5b602002018181525050836020015181600160038110610f4e57610f4d611f2e565b5b6020020181815250508281600260038110610f6c57610f6b611f2e565b5b6020020181815250506040826060836007600019fa610f8a57600080fd5b505b92915050565b610f9a61131c565b610fa2611358565b836000015181600060048110610fbb57610fba611f2e565b5b602002018181525050836020015181600160048110610fdd57610fdc611f2e565b5b602002018181525050826000015181600260048110610fff57610ffe611f2e565b5b60200201818152505082602001518160036004811061102157611020611f2e565b5b6020020181815250506040826080836006600019fa61103f57600080fd5b5092915050565b61104e61131c565b60007f30644e72e131a029b85045b68181585d97816a916871ca8d3c208c16d87cfd4790506000818461108191906120d9565b905060006001826110929190611d9b565b915060008080600390505b8261112d576001856110af91906120a5565b945085806110c0576110bf612003565b5b858609915085806110d4576110d3612003565b5b858309915085806110e8576110e7612003565b5b818308915061111082600460018961110091906120a5565b61110a9190612032565b886111f9565b935081868061112257611121612003565b5b85860914925061109d565b6040518060400160405280868152602001858152509650505050505050919050565b6000807f30644e72e131a029b85045b68181585d2833e84879b9709143e1f593f00000019050808061118457611183612003565b5b83850991505092915050565b6000807f30644e72e131a029b85045b68181585d2833e84879b9709143e1f593f0000001905080806111c5576111c4612003565b5b83850891505092915050565b6000816000015183600001511480156111f1575081602001518360200151145b905092915050565b600061120361137a565b61120b61139c565b60208260006006811061122157611220611f2e565b5b6020020181815250506020826001600681106112405761123f611f2e565b5b60200201818152505060208260026006811061125f5761125e611f2e565b5b602002018181525050858260036006811061127d5761127c611f2e565b5b602002018181525050848260046006811061129b5761129a611f2e565b5b60200201818152505083826005600681106112b9576112b8611f2e565b5b60200201818152505060208160c0846005600019fa6112d757600080fd5b806000600181106112eb576112ea611f2e565b5b6020020151925050509392505050565b60405180606001604052806060815260200160608152602001600081525090565b604051806040016040528060008152602001600081525090565b6040518060600160405280600390602082028036833780820191505090505090565b6040518060800160405280600490602082028036833780820191505090505090565b6040518060c00160405280600690602082028036833780820191505090505090565b6040518060200160405280600190602082028036833780820191505090505090565b6000604051905090565b600080fd5b600080fd5b600080fd5b6000601f19601f8301169050919050565b7f4e487b7100000000000000000000000000000000000000000000000000000000600052604160045260246000fd5b611420826113d7565b810181811067ffffffffffffffff8211171561143f5761143e6113e8565b5b80604052505050565b60006114526113be565b905061145e8282611417565b919050565b600067ffffffffffffffff82111561147e5761147d6113e8565b5b602082029050602081019050919050565b600080fd5b600080fd5b600080fd5b6000819050919050565b6114b18161149e565b81146114bc57600080fd5b50565b6000813590506114ce816114a8565b92915050565b6000604082840312156114ea576114e9611494565b5b6114f46040611448565b90506000611504848285016114bf565b6000830152506020611518848285016114bf565b60208301525092915050565b600061153761153284611463565b611448565b9050808382526020820190506040840283018581111561155a5761155961148f565b5b835b81811015611583578061156f88826114d4565b84526020840193505060408101905061155c565b5050509392505050565b600082601f8301126115a2576115a16113d2565b5b81356115b2848260208601611524565b91505092915050565b600067ffffffffffffffff8211156115d6576115d56113e8565b5b602082029050602081019050919050565b60006115fa6115f5846115bb565b611448565b9050808382526020820190506020840283018581111561161d5761161c61148f565b5b835b81811015611646578061163288826114bf565b84526020840193505060208101905061161f565b5050509392505050565b600082601f830112611665576116646113d2565b5b81356116758482602086016115e7565b91505092915050565b600080600060808486031215611697576116966113c8565b5b600084013567ffffffffffffffff8111156116b5576116b46113cd565b5b6116c18682870161158d565b93505060206116d2868287016114d4565b925050606084013567ffffffffffffffff8111156116f3576116f26113cd565b5b6116ff86828701611650565b9150509250925092565b600081519050919050565b600082825260208201905092915050565b6000819050602082019050919050565b61173e8161149e565b82525050565b60408201600082015161175a6000850182611735565b50602082015161176d6020850182611735565b50505050565b600061177f8383611744565b60408301905092915050565b6000602082019050919050565b60006117a382611709565b6117ad8185611714565b93506117b883611725565b8060005b838110156117e95781516117d08882611773565b97506117db8361178b565b9250506001810190506117bc565b5085935050505092915050565b600060608301600083015184820360008601526118138282611798565b9150506020830151848203602086015261182d8282611798565b91505060408301516118426040860182611735565b508091505092915050565b6000602082019050818103600083015261186781846117f6565b905092915050565b60008060408385031215611886576118856113c8565b5b600083013567ffffffffffffffff8111156118a4576118a36113cd565b5b6118b08582860161158d565b92505060206118c1858286016114bf565b9150509250929050565b600082825260208201905092915050565b60006118e782611709565b6118f181856118cb565b93506118fc83611725565b8060005b8381101561192d5781516119148882611773565b975061191f8361178b565b925050600181019050611900565b5085935050505092915050565b6000602082019050818103600083015261195481846118dc565b905092915050565b600060208284031215611972576119716113c8565b5b6000611980848285016114bf565b91505092915050565b6119928161149e565b82525050565b60006020820190506119ad6000830184611989565b92915050565b6000806000606084860312156119cc576119cb6113c8565b5b600084013567ffffffffffffffff8111156119ea576119e96113cd565b5b6119f68682870161158d565b935050602084013567ffffffffffffffff811115611a1757611a166113cd565b5b611a2386828701611650565b9250506040611a34868287016114bf565b9150509250925092565b600081519050919050565b600082825260208201905092915050565b6000819050602082019050919050565b6000611a768383611735565b60208301905092915050565b6000602082019050919050565b6000611a9a82611a3e565b611aa48185611a49565b9350611aaf83611a5a565b8060005b83811015611ae0578151611ac78882611a6a565b9750611ad283611a82565b925050600181019050611ab3565b5085935050505092915050565b60006040820190508181036000830152611b0781856118dc565b90508181036020830152611b1b8184611a8f565b90509392505050565b600060608284031215611b3a57611b39611494565b5b611b446060611448565b9050600082013567ffffffffffffffff811115611b6457611b63611499565b5b611b708482850161158d565b600083015250602082013567ffffffffffffffff811115611b9457611b93611499565b5b611ba08482850161158d565b6020830152506040611bb4848285016114bf565b60408301525092915050565b600080600060808486031215611bd957611bd86113c8565b5b600084013567ffffffffffffffff811115611bf757611bf66113cd565b5b611c038682870161158d565b9350506020611c14868287016114d4565b925050606084013567ffffffffffffffff811115611c3557611c346113cd565b5b611c4186828701611b24565b9150509250925092565b60008115159050919050565b611c6081611c4b565b82525050565b6000602082019050611c7b6000830184611c57565b92915050565b60008060408385031215611c9857611c976113c8565b5b600083013567ffffffffffffffff811115611cb657611cb56113cd565b5b611cc28582860161158d565b925050602083013567ffffffffffffffff811115611ce357611ce26113cd565b5b611cef85828601611650565b9150509250929050565b604082016000820151611d0f6000850182611735565b506020820151611d226020850182611735565b50505050565b6000608082019050611d3d6000830185611cf9565b611d4a6040830184611cf9565b9392505050565b6000604082019050611d666000830184611cf9565b92915050565b7f4e487b7100000000000000000000000000000000000000000000000000000000600052601160045260246000fd5b6000611da68261149e565b9150611db18361149e565b9250828203905081811115611dc957611dc8611d6c565b5b92915050565b600082825260208201905092915050565b7f706f6c796e6f6d69616c206c656e6774682073686f756c64206265206120706f60008201527f776572206f662032000000000000000000000000000000000000000000000000602082015250565b6000611e3c602883611dcf565b9150611e4782611de0565b604082019050919050565b60006020820190508181036000830152611e6b81611e2f565b9050919050565b611e7b8161149e565b82525050565b604082016000820151611e976000850182611e72565b506020820151611eaa6020850182611e72565b50505050565b6000604082019050611ec56000830184611e81565b92915050565b6000819050919050565b611ede81611ecb565b8114611ee957600080fd5b50565b600081519050611efb81611ed5565b92915050565b600060208284031215611f1757611f166113c8565b5b6000611f2584828501611eec565b91505092915050565b7f4e487b7100000000000000000000000000000000000000000000000000000000600052603260045260246000fd5b6000819050919050565b611f78611f7382611ecb565b611f5d565b82525050565b6000611f8a8286611f67565b602082019150611f9a8285611f67565b602082019150611faa8284611f67565b602082019150819050949350505050565b6000611fc68261149e565b91507fffffffffffffffffffffffffffffffffffffffffffffffffffffffffffffffff8203611ff857611ff7611d6c565b5b600182019050919050565b7f4e487b7100000000000000000000000000000000000000000000000000000000600052601260045260246000fd5b600061203d8261149e565b91506120488361149e565b92508261205857612057612003565b5b828204905092915050565b600061206e8261149e565b91506120798361149e565b92508282026120878161149e565b9150828204841483151761209e5761209d611d6c565b5b5092915050565b60006120b08261149e565b91506120bb8361149e565b92508282019050808211156120d3576120d2611d6c565b5b92915050565b60006120e48261149e565b91506120ef8361149e565b9250826120ff576120fe612003565b5b82820690509291505056fea264697066735822122012dd122e44f391bdb8fa7da44379761139ca756db88f62c639d12ec7869c52d664736f6c63430008130033",
  "immutableReferences": {},
  "source": "// SPDX-License-Identifier: GPL-3.0\npragma solidity >=0.4.0 <0.9.0;\n\nimport \"./alt_bn128.sol\";\n\ncontract BulletProof {\n    using alt_bn128 for uint256;\n\n    struct Proof {\n        alt_bn128.G1Point[] Ls;\n        alt_bn128.G1Point[] Rs;\n        uint256 final_co;\n    }\n    \n    /** Base points of the elliptic curve */\n    function generators(uint count) public view returns (alt_bn128.G1Point[] memory Gs){\n        Gs = new alt_bn128.G1Point[](count);\n        for (uint i = 0; i < count; i++){\n            Gs[i] = alt_bn128.uintToCurvePoint(i);\n        }\n        return Gs;\n    }\n\n    // /** Commitment to polynomial (lower and upper half scheme) */\n    // function commit(alt_bn128.G1Point[] memory Gs, uint256[] memory poly, uint Gstart, uint polystart, uint number)\n    // public view returns (alt_bn128.G1Point memory C){\n    //     C = alt_bn128.mul(Gs[Gstart], poly[polystart]);\n    //     for (uint i = 1; i < number; i++){\n    //         C = alt_bn128.add(alt_bn128.mul(Gs[Gstart+i], poly[polystart+i]));\n    //     }\n    // }\n\n    /** Commitment to polynomial (even and odd scheme) */\n    function commit(alt_bn128.G1Point[] memory Gs, uint256[] memory poly) public view \n    returns (alt_bn128.G1Point memory C){\n        C = alt_bn128.mul(Gs[0], poly[0]);\n        for (uint i = 1; i < poly.length; i++){\n            C = alt_bn128.add(alt_bn128.mul(Gs[i], poly[i]), C);\n        }\n    }\n\n    /** compute the (L, R) pair */\n    function LRpair(alt_bn128.G1Point[] memory Gs, uint256[] memory poly) public view\n    returns (alt_bn128.G1Point memory L, alt_bn128.G1Point memory R){\n        L = alt_bn128.mul(Gs[0], poly[1]);\n        R = alt_bn128.mul(Gs[1], poly[0]);\n\n        for (uint i = 1; i < poly.length/2; i++){\n            L = alt_bn128.add(alt_bn128.mul(Gs[2*i], poly[2*i+1]), L);\n            R = alt_bn128.add(alt_bn128.mul(Gs[2*i+1], poly[2*i]), R);\n        }\n    }\n\n    /** new base points and polynomial \n     * G'_i = aG_2i + G_(2i+1)\n     * c'_i = c_2i + ac_(2i+1)\n     * => intermediate commitment \n     * C' = sum c'_i G'_i = aC + a^2L + R\n    */\n    function nextRound(alt_bn128.G1Point[] memory Gs, uint256[] memory poly , uint256 a) public view\n    returns (alt_bn128.G1Point[] memory Gs_new, uint256[] memory poly_new){\n        uint length = poly.length / 2;\n\n        Gs_new = new alt_bn128.G1Point[](length);\n        poly_new = new uint256[](length);\n\n        for (uint i = 0; i < length; i++){\n            Gs_new[i] = alt_bn128.add(alt_bn128.mul(Gs[2*i], a), Gs[2*i+1]);\n            poly_new[i] = alt_bn128.add(poly_new[2*i], alt_bn128.mul(a, poly_new[2*i+1]));\n        }\n    }\n\n    function log2(uint n) public pure returns (uint ndigits){\n        ndigits = 0;\n        while (n > 1){\n            ndigits += 1;\n            n <<= 1;\n        }\n    }\n\n    function nextRound(alt_bn128.G1Point[] memory Gs, uint256 a) public view\n    returns (alt_bn128.G1Point[] memory Gs_new){\n        uint length = Gs.length / 2;\n\n        Gs_new = new alt_bn128.G1Point[](length);\n        for (uint i = 0; i < length; i++){\n            Gs_new[i] = alt_bn128.add(alt_bn128.mul(Gs[2*i], a), Gs[2*i+1]);\n        }\n    }\n\n    /** Proof of the polynomial */\n    function prove(alt_bn128.G1Point[] memory Gs, alt_bn128.G1Point memory C, uint256[] memory poly) public view\n    returns (Proof memory p) {\n        require(poly.length & (poly.length - 1) == 0, \"polynomial length should be a power of 2\");\n        uint length = log2(poly.length);\n\n        // Fiat-shamir heuristics as challenge\n        uint256 a;\n        bytes32 r = alt_bn128.serialize(C);\n\n        alt_bn128.G1Point memory L;\n        alt_bn128.G1Point memory R;\n\n        alt_bn128.G1Point[] memory Ls = new alt_bn128.G1Point[](length);\n        alt_bn128.G1Point[] memory Rs = new alt_bn128.G1Point[](length);\n\n        // log(n) rounds\n        for (uint i = 0; i < length; i++){\n            (L, R) = LRpair(Gs, poly);\n            Ls[i] = L; Rs[i] = R;\n\n            r = keccak256(abi.encodePacked(r, alt_bn128.serialize(L), alt_bn128.serialize(R)));\n            a = alt_bn128.mod(uint256(r));\n\n            // Generate half-size poly and Gs\n            (Gs, poly) = nextRound(Gs, poly, a);\n        }\n\n        p = Proof(Ls, Rs, poly[0]);\n    }\n\n    /** Base case check: final point * final coefficient ?= final commitment */\n    function verify(alt_bn128.G1Point[] memory Gs, alt_bn128.G1Point memory C, Proof memory p) public view\n    returns (bool){\n        // Fiat-shamir heuristics\n        uint256 a;\n        bytes32 r = alt_bn128.serialize(C);\n\n        for (uint i = 0; i < p.Ls.length; i++){\n            r = keccak256(abi.encodePacked(r, alt_bn128.serialize(p.Ls[i]), alt_bn128.serialize(p.Rs[i])));\n            a = alt_bn128.mod(uint256(r));\n\n            // C' = sum c'_i G'_i = aC + a^2L + R\n            C = alt_bn128.add(\n                    alt_bn128.add(\n                        alt_bn128.mul(C, a), \n                        alt_bn128.mul(p.Ls[i], a*a)\n                    ), \n                    p.Rs[i]\n                );\n\n            Gs = nextRound(Gs, a);\n        }\n        return alt_bn128.eq(alt_bn128.mul(Gs[0], p.final_co), C);\n    }\n}",
  "sourcePath": "/Users/qian/Desktop/Y4/COMP4550/ZKP-Blockchain/contracts/bulletproof.sol",
  "compiler": {
    "name": "solc",
    "version": "0.8.19+commit.7dd6d404.Emscripten.clang"
  },
  "schemaVersion": "3.4.13",
  "updatedAt": "2023-03-12T14:51:16.062Z",
  "networkType": "ethereum",
  "devdoc": {
    "kind": "dev",
    "methods": {},
    "version": 1
  },
  "userdoc": {
    "kind": "user",
    "methods": {
      "LRpair((uint256,uint256)[],uint256[])": {
        "notice": "compute the (L, R) pair "
      },
      "commit((uint256,uint256)[],uint256[])": {
        "notice": "Commitment to polynomial (even and odd scheme) "
      },
      "generators(uint256)": {
        "notice": "Base points of the elliptic curve "
      },
      "nextRound((uint256,uint256)[],uint256[],uint256)": {
        "notice": "new base points and polynomial  G'_i = aG_2i + G_(2i+1) c'_i = c_2i + ac_(2i+1) => intermediate commitment  C' = sum c'_i G'_i = aC + a^2L + R"
      },
      "prove((uint256,uint256)[],(uint256,uint256),uint256[])": {
        "notice": "Proof of the polynomial "
      },
      "verify((uint256,uint256)[],(uint256,uint256),((uint256,uint256)[],(uint256,uint256)[],uint256))": {
        "notice": "Base case check: final point * final coefficient ?= final commitment "
      }
    },
    "version": 1
  }
}