{
  "contractName": "BulletProof",
  "abi": [
    {
      "inputs": [
        {
          "internalType": "uint256",
          "name": "count",
          "type": "uint256"
        }
      ],
      "name": "generate",
      "outputs": [
        {
          "components": [
            {
              "internalType": "uint256",
              "name": "X",
              "type": "uint256"
            },
            {
              "internalType": "uint256",
              "name": "Y",
              "type": "uint256"
            }
          ],
          "internalType": "struct alt_bn128.G1Point[]",
          "name": "Gs",
          "type": "tuple[]"
        }
      ],
      "stateMutability": "view",
      "type": "function",
      "constant": true
    },
    {
      "inputs": [
        {
          "components": [
            {
              "internalType": "uint256",
              "name": "X",
              "type": "uint256"
            },
            {
              "internalType": "uint256",
              "name": "Y",
              "type": "uint256"
            }
          ],
          "internalType": "struct alt_bn128.G1Point[]",
          "name": "Gs",
          "type": "tuple[]"
        },
        {
          "internalType": "uint256[]",
          "name": "poly",
          "type": "uint256[]"
        }
      ],
      "name": "commit",
      "outputs": [
        {
          "components": [
            {
              "internalType": "uint256",
              "name": "X",
              "type": "uint256"
            },
            {
              "internalType": "uint256",
              "name": "Y",
              "type": "uint256"
            }
          ],
          "internalType": "struct alt_bn128.G1Point",
          "name": "C",
          "type": "tuple"
        }
      ],
      "stateMutability": "view",
      "type": "function",
      "constant": true
    },
    {
      "inputs": [
        {
          "components": [
            {
              "internalType": "uint256",
              "name": "X",
              "type": "uint256"
            },
            {
              "internalType": "uint256",
              "name": "Y",
              "type": "uint256"
            }
          ],
          "internalType": "struct alt_bn128.G1Point[]",
          "name": "Gs",
          "type": "tuple[]"
        },
        {
          "components": [
            {
              "internalType": "uint256",
              "name": "X",
              "type": "uint256"
            },
            {
              "internalType": "uint256",
              "name": "Y",
              "type": "uint256"
            }
          ],
          "internalType": "struct alt_bn128.G1Point",
          "name": "C",
          "type": "tuple"
        },
        {
          "internalType": "uint256[]",
          "name": "poly",
          "type": "uint256[]"
        }
      ],
      "name": "prove",
      "outputs": [
        {
          "components": [
            {
              "components": [
                {
                  "internalType": "uint256",
                  "name": "X",
                  "type": "uint256"
                },
                {
                  "internalType": "uint256",
                  "name": "Y",
                  "type": "uint256"
                }
              ],
              "internalType": "struct alt_bn128.G1Point[]",
              "name": "Ls",
              "type": "tuple[]"
            },
            {
              "components": [
                {
                  "internalType": "uint256",
                  "name": "X",
                  "type": "uint256"
                },
                {
                  "internalType": "uint256",
                  "name": "Y",
                  "type": "uint256"
                }
              ],
              "internalType": "struct alt_bn128.G1Point[]",
              "name": "Rs",
              "type": "tuple[]"
            },
            {
              "internalType": "uint256",
              "name": "final_co",
              "type": "uint256"
            }
          ],
          "internalType": "struct BulletProof.Proof",
          "name": "p",
          "type": "tuple"
        }
      ],
      "stateMutability": "view",
      "type": "function",
      "constant": true
    },
    {
      "inputs": [
        {
          "components": [
            {
              "internalType": "uint256",
              "name": "X",
              "type": "uint256"
            },
            {
              "internalType": "uint256",
              "name": "Y",
              "type": "uint256"
            }
          ],
          "internalType": "struct alt_bn128.G1Point[]",
          "name": "Gs",
          "type": "tuple[]"
        },
        {
          "components": [
            {
              "internalType": "uint256",
              "name": "X",
              "type": "uint256"
            },
            {
              "internalType": "uint256",
              "name": "Y",
              "type": "uint256"
            }
          ],
          "internalType": "struct alt_bn128.G1Point",
          "name": "C",
          "type": "tuple"
        },
        {
          "components": [
            {
              "components": [
                {
                  "internalType": "uint256",
                  "name": "X",
                  "type": "uint256"
                },
                {
                  "internalType": "uint256",
                  "name": "Y",
                  "type": "uint256"
                }
              ],
              "internalType": "struct alt_bn128.G1Point[]",
              "name": "Ls",
              "type": "tuple[]"
            },
            {
              "components": [
                {
                  "internalType": "uint256",
                  "name": "X",
                  "type": "uint256"
                },
                {
                  "internalType": "uint256",
                  "name": "Y",
                  "type": "uint256"
                }
              ],
              "internalType": "struct alt_bn128.G1Point[]",
              "name": "Rs",
              "type": "tuple[]"
            },
            {
              "internalType": "uint256",
              "name": "final_co",
              "type": "uint256"
            }
          ],
          "internalType": "struct BulletProof.Proof",
          "name": "p",
          "type": "tuple"
        }
      ],
      "name": "verify",
      "outputs": [
        {
          "internalType": "bool",
          "name": "",
          "type": "bool"
        }
      ],
      "stateMutability": "view",
      "type": "function",
      "constant": true
    }
  ],
  "bytecode": "0x608060405234801561001057600080fd5b50611eda806100206000396000f3fe608060405234801561001057600080fd5b506004361061004c5760003560e01c806302d6910e146100515780634a7dd52314610081578063719e277c146100b1578063b01d657d146100e1575b600080fd5b61006b60048036038101906100669190611638565b610111565b6040516100789190611807565b60405180910390f35b61009b60048036038101906100969190611829565b6104a8565b6040516100a891906118c5565b60405180910390f35b6100cb60048036038101906100c69190611983565b610557565b6040516100d89190611a29565b60405180910390f35b6100fb60048036038101906100f69190611a44565b610814565b6040516101089190611aeb565b60405180910390f35b6101196112b5565b6000600183516101299190611b35565b8351161461016c576040517f08c379a000000000000000000000000000000000000000000000000000000000815260040161016390611bec565b60405180910390fd5b600061017883516108d1565b905060008073__alt_bn128_____________________________63aba8f706876040518263ffffffff1660e01b81526004016101b49190611c4a565b602060405180830381865af41580156101d1573d6000803e3d6000fd5b505050506040513d601f19601f820116820180604052508101906101f59190611c9b565b90506101ff6112d6565b6102076112d6565b60008567ffffffffffffffff811115610223576102226113a2565b5b60405190808252806020026020018201604052801561025c57816020015b6102496112d6565b8152602001906001900390816102415790505b50905060008667ffffffffffffffff81111561027b5761027a6113a2565b5b6040519080825280602002602001820160405280156102b457816020015b6102a16112d6565b8152602001906001900390816102995790505b50905060005b87811015610461576102cc8c8b610905565b8095508196505050848382815181106102e8576102e7611cc8565b5b60200260200101819052508382828151811061030757610306611cc8565b5b60200260200101819052508573__alt_bn128_____________________________63aba8f706876040518263ffffffff1660e01b815260040161034a9190611c4a565b602060405180830381865af4158015610367573d6000803e3d6000fd5b505050506040513d601f19601f8201168201806040525081019061038b9190611c9b565b73__alt_bn128_____________________________63aba8f706876040518263ffffffff1660e01b81526004016103c29190611c4a565b602060405180830381865af41580156103df573d6000803e3d6000fd5b505050506040513d601f19601f820116820180604052508101906104039190611c9b565b60405160200161041593929190611d18565b6040516020818303038152906040528051906020012095506104398660001c610aaa565b96506104468c8b89610adf565b809b50819d505050808061045990611d55565b9150506102ba565b5060405180606001604052808381526020018281526020018a60008151811061048d5761048c611cc8565b5b60200260200101518152509750505050505050509392505050565b60608167ffffffffffffffff8111156104c4576104c36113a2565b5b6040519080825280602002602001820160405280156104fd57816020015b6104ea6112d6565b8152602001906001900390816104e25790505b50905060005b828110156105515761052060028261051b9190611d9d565b610cd0565b82828151811061053357610532611cc8565b5b6020026020010181905250808061054990611d55565b915050610503565b50919050565b600080600073__alt_bn128_____________________________63aba8f706866040518263ffffffff1660e01b81526004016105939190611c4a565b602060405180830381865af41580156105b0573d6000803e3d6000fd5b505050506040513d601f19601f820116820180604052508101906105d49190611c9b565b905060005b8460000151518110156107d6578173__alt_bn128_____________________________63aba8f7068760000151848151811061061857610617611cc8565b5b60200260200101516040518263ffffffff1660e01b815260040161063c9190611c4a565b602060405180830381865af4158015610659573d6000803e3d6000fd5b505050506040513d601f19601f8201168201806040525081019061067d9190611c9b565b73__alt_bn128_____________________________63aba8f706886020015185815181106106ae576106ad611cc8565b5b60200260200101516040518263ffffffff1660e01b81526004016106d29190611c4a565b602060405180830381865af41580156106ef573d6000803e3d6000fd5b505050506040513d601f19601f820116820180604052508101906107139190611c9b565b60405160200161072593929190611d18565b6040516020818303038152906040528051906020012091506107498260001c610aaa565b92506107b561079161075b8886610e8e565b61078c8860000151858151811061077557610774611cc8565b5b60200260200101516107878889610f46565b610e8e565b610f82565b866020015183815181106107a8576107a7611cc8565b5b6020026020010151610f82565b95506107c18784611036565b965080806107ce90611d55565b9150506105d9565b50610809610803876000815181106107f1576107f0611cc8565b5b60200260200101518660400151610e8e565b8661114f565b925050509392505050565b61081c6112d6565b61085c8360008151811061083357610832611cc8565b5b60200260200101518360008151811061084f5761084e611cc8565b5b6020026020010151610e8e565b90506000600190505b82518110156108ca576108b56108af85838151811061088757610886611cc8565b5b60200260200101518584815181106108a2576108a1611cc8565b5b6020026020010151610e8e565b83610f82565b915080806108c290611d55565b915050610865565b5092915050565b60005b6001821115610900576001816108ea9190611d9d565b90506002826108f99190611e00565b91506108d4565b919050565b61090d6112d6565b6109156112d6565b6109558460008151811061092c5761092b611cc8565b5b60200260200101518460018151811061094857610947611cc8565b5b6020026020010151610e8e565b91506109978460018151811061096e5761096d611cc8565b5b60200260200101518460008151811061098a57610989611cc8565b5b6020026020010151610e8e565b90506000600190505b600284516109ae9190611e00565b811015610aa257610a20610a1a868360026109c99190611e31565b815181106109da576109d9611cc8565b5b60200260200101518660018560026109f29190611e31565b6109fc9190611d9d565b81518110610a0d57610a0c611cc8565b5b6020026020010151610e8e565b84610f82565b9250610a8d610a87866001846002610a389190611e31565b610a429190611d9d565b81518110610a5357610a52611cc8565b5b602002602001015186846002610a699190611e31565b81518110610a7a57610a79611cc8565b5b6020026020010151610e8e565b83610f82565b91508080610a9a90611d55565b9150506109a0565b509250929050565b60007f30644e72e131a029b85045b68181585d2833e84879b9709143e1f593f000000182610ad89190611e73565b9050919050565b606080600060028551610af29190611e00565b90508067ffffffffffffffff811115610b0e57610b0d6113a2565b5b604051908082528060200260200182016040528015610b4757816020015b610b346112d6565b815260200190600190039081610b2c5790505b5092508067ffffffffffffffff811115610b6457610b636113a2565b5b604051908082528060200260200182016040528015610b925781602001602082028036833780820191505090505b50915060005b81811015610cc657610c0b610bd388836002610bb49190611e31565b81518110610bc557610bc4611cc8565b5b602002602001015187610e8e565b886001846002610be39190611e31565b610bed9190611d9d565b81518110610bfe57610bfd611cc8565b5b6020026020010151610f82565b848281518110610c1e57610c1d611cc8565b5b6020026020010181905250610c9486826002610c3a9190611e31565b81518110610c4b57610c4a611cc8565b5b6020026020010151610c8f87896001866002610c679190611e31565b610c719190611d9d565b81518110610c8257610c81611cc8565b5b6020026020010151610f46565b611177565b838281518110610ca757610ca6611cc8565b5b6020026020010181815250508080610cbe90611d55565b915050610b98565b5050935093915050565b610cd86112d6565b60007f30644e72e131a029b85045b68181585d97816a916871ca8d3c208c16d87cfd4783610d069190611e73565b90506000600182610d179190611b35565b91506000805b81610e6e57600184610d2f9190611d9d565b93507f30644e72e131a029b85045b68181585d97816a916871ca8d3c208c16d87cfd4780610d6057610d5f611dd1565b5b84850990507f30644e72e131a029b85045b68181585d97816a916871ca8d3c208c16d87cfd4780610d9457610d93611dd1565b5b84820990507f30644e72e131a029b85045b68181585d97816a916871ca8d3c208c16d87cfd4780610dc857610dc7611dd1565b5b600382089050610e3181600460017f30644e72e131a029b85045b68181585d97816a916871ca8d3c208c16d87cfd47610e019190611d9d565b610e0b9190611e00565b7f30644e72e131a029b85045b68181585d97816a916871ca8d3c208c16d87cfd476111b3565b9250807f30644e72e131a029b85045b68181585d97816a916871ca8d3c208c16d87cfd4780610e6357610e62611dd1565b5b848509149150610d1d565b604051806040016040528085815260200184815250945050505050919050565b610e966112d6565b60018203610ea657829050610f40565b60028203610ebf57610eb88384610f82565b9050610f40565b610ec76112f0565b836000015181600060038110610ee057610edf611cc8565b5b602002018181525050836020015181600160038110610f0257610f01611cc8565b5b6020020181815250508281600260038110610f2057610f1f611cc8565b5b6020020181815250506040826060836007600019fa610f3e57600080fd5b505b92915050565b60007f30644e72e131a029b85045b68181585d2833e84879b9709143e1f593f000000180610f7757610f76611dd1565b5b828409905092915050565b610f8a6112d6565b610f92611312565b836000015181600060048110610fab57610faa611cc8565b5b602002018181525050836020015181600160048110610fcd57610fcc611cc8565b5b602002018181525050826000015181600260048110610fef57610fee611cc8565b5b60200201818152505082602001518160036004811061101157611010611cc8565b5b6020020181815250506040826080836006600019fa61102f57600080fd5b5092915050565b60606000600284516110489190611e00565b90508067ffffffffffffffff811115611064576110636113a2565b5b60405190808252806020026020018201604052801561109d57816020015b61108a6112d6565b8152602001906001900390816110825790505b50915060005b81811015611147576111166110de868360026110bf9190611e31565b815181106110d0576110cf611cc8565b5b602002602001015186610e8e565b8660018460026110ee9190611e31565b6110f89190611d9d565b8151811061110957611108611cc8565b5b6020026020010151610f82565b83828151811061112957611128611cc8565b5b6020026020010181905250808061113f90611d55565b9150506110a3565b505092915050565b60008160000151836000015114801561116f575081602001518360200151145b905092915050565b60007f30644e72e131a029b85045b68181585d2833e84879b9709143e1f593f0000001806111a8576111a7611dd1565b5b828408905092915050565b60006111bd611334565b6111c5611356565b6020826000600681106111db576111da611cc8565b5b6020020181815250506020826001600681106111fa576111f9611cc8565b5b60200201818152505060208260026006811061121957611218611cc8565b5b602002018181525050858260036006811061123757611236611cc8565b5b602002018181525050848260046006811061125557611254611cc8565b5b602002018181525050838260056006811061127357611272611cc8565b5b60200201818152505060208160c0846005600019fa61129157600080fd5b806000600181106112a5576112a4611cc8565b5b6020020151925050509392505050565b60405180606001604052806060815260200160608152602001600081525090565b604051806040016040528060008152602001600081525090565b6040518060600160405280600390602082028036833780820191505090505090565b6040518060800160405280600490602082028036833780820191505090505090565b6040518060c00160405280600690602082028036833780820191505090505090565b6040518060200160405280600190602082028036833780820191505090505090565b6000604051905090565b600080fd5b600080fd5b600080fd5b6000601f19601f8301169050919050565b7f4e487b7100000000000000000000000000000000000000000000000000000000600052604160045260246000fd5b6113da82611391565b810181811067ffffffffffffffff821117156113f9576113f86113a2565b5b80604052505050565b600061140c611378565b905061141882826113d1565b919050565b600067ffffffffffffffff821115611438576114376113a2565b5b602082029050602081019050919050565b600080fd5b600080fd5b600080fd5b6000819050919050565b61146b81611458565b811461147657600080fd5b50565b60008135905061148881611462565b92915050565b6000604082840312156114a4576114a361144e565b5b6114ae6040611402565b905060006114be84828501611479565b60008301525060206114d284828501611479565b60208301525092915050565b60006114f16114ec8461141d565b611402565b9050808382526020820190506040840283018581111561151457611513611449565b5b835b8181101561153d5780611529888261148e565b845260208401935050604081019050611516565b5050509392505050565b600082601f83011261155c5761155b61138c565b5b813561156c8482602086016114de565b91505092915050565b600067ffffffffffffffff8211156115905761158f6113a2565b5b602082029050602081019050919050565b60006115b46115af84611575565b611402565b905080838252602082019050602084028301858111156115d7576115d6611449565b5b835b8181101561160057806115ec8882611479565b8452602084019350506020810190506115d9565b5050509392505050565b600082601f83011261161f5761161e61138c565b5b813561162f8482602086016115a1565b91505092915050565b60008060006080848603121561165157611650611382565b5b600084013567ffffffffffffffff81111561166f5761166e611387565b5b61167b86828701611547565b935050602061168c8682870161148e565b925050606084013567ffffffffffffffff8111156116ad576116ac611387565b5b6116b98682870161160a565b9150509250925092565b600081519050919050565b600082825260208201905092915050565b6000819050602082019050919050565b6116f881611458565b82525050565b60408201600082015161171460008501826116ef565b50602082015161172760208501826116ef565b50505050565b600061173983836116fe565b60408301905092915050565b6000602082019050919050565b600061175d826116c3565b61176781856116ce565b9350611772836116df565b8060005b838110156117a357815161178a888261172d565b975061179583611745565b925050600181019050611776565b5085935050505092915050565b600060608301600083015184820360008601526117cd8282611752565b915050602083015184820360208601526117e78282611752565b91505060408301516117fc60408601826116ef565b508091505092915050565b6000602082019050818103600083015261182181846117b0565b905092915050565b60006020828403121561183f5761183e611382565b5b600061184d84828501611479565b91505092915050565b600082825260208201905092915050565b6000611872826116c3565b61187c8185611856565b9350611887836116df565b8060005b838110156118b857815161189f888261172d565b97506118aa83611745565b92505060018101905061188b565b5085935050505092915050565b600060208201905081810360008301526118df8184611867565b905092915050565b6000606082840312156118fd576118fc61144e565b5b6119076060611402565b9050600082013567ffffffffffffffff81111561192757611926611453565b5b61193384828501611547565b600083015250602082013567ffffffffffffffff81111561195757611956611453565b5b61196384828501611547565b602083015250604061197784828501611479565b60408301525092915050565b60008060006080848603121561199c5761199b611382565b5b600084013567ffffffffffffffff8111156119ba576119b9611387565b5b6119c686828701611547565b93505060206119d78682870161148e565b925050606084013567ffffffffffffffff8111156119f8576119f7611387565b5b611a04868287016118e7565b9150509250925092565b60008115159050919050565b611a2381611a0e565b82525050565b6000602082019050611a3e6000830184611a1a565b92915050565b60008060408385031215611a5b57611a5a611382565b5b600083013567ffffffffffffffff811115611a7957611a78611387565b5b611a8585828601611547565b925050602083013567ffffffffffffffff811115611aa657611aa5611387565b5b611ab28582860161160a565b9150509250929050565b604082016000820151611ad260008501826116ef565b506020820151611ae560208501826116ef565b50505050565b6000604082019050611b006000830184611abc565b92915050565b7f4e487b7100000000000000000000000000000000000000000000000000000000600052601160045260246000fd5b6000611b4082611458565b9150611b4b83611458565b9250828203905081811115611b6357611b62611b06565b5b92915050565b600082825260208201905092915050565b7f706f6c796e6f6d69616c206c656e6774682073686f756c64206265206120706f60008201527f776572206f662032000000000000000000000000000000000000000000000000602082015250565b6000611bd6602883611b69565b9150611be182611b7a565b604082019050919050565b60006020820190508181036000830152611c0581611bc9565b9050919050565b611c1581611458565b82525050565b604082016000820151611c316000850182611c0c565b506020820151611c446020850182611c0c565b50505050565b6000604082019050611c5f6000830184611c1b565b92915050565b6000819050919050565b611c7881611c65565b8114611c8357600080fd5b50565b600081519050611c9581611c6f565b92915050565b600060208284031215611cb157611cb0611382565b5b6000611cbf84828501611c86565b91505092915050565b7f4e487b7100000000000000000000000000000000000000000000000000000000600052603260045260246000fd5b6000819050919050565b611d12611d0d82611c65565b611cf7565b82525050565b6000611d248286611d01565b602082019150611d348285611d01565b602082019150611d448284611d01565b602082019150819050949350505050565b6000611d6082611458565b91507fffffffffffffffffffffffffffffffffffffffffffffffffffffffffffffffff8203611d9257611d91611b06565b5b600182019050919050565b6000611da882611458565b9150611db383611458565b9250828201905080821115611dcb57611dca611b06565b5b92915050565b7f4e487b7100000000000000000000000000000000000000000000000000000000600052601260045260246000fd5b6000611e0b82611458565b9150611e1683611458565b925082611e2657611e25611dd1565b5b828204905092915050565b6000611e3c82611458565b9150611e4783611458565b9250828202611e5581611458565b91508282048414831517611e6c57611e6b611b06565b5b5092915050565b6000611e7e82611458565b9150611e8983611458565b925082611e9957611e98611dd1565b5b82820690509291505056fea2646970667358221220629752acbe1419b4224a87e171b369abe97716c19b4b23736911f98e4899792964736f6c63430008130033",
  "immutableReferences": {},
  "source": "// SPDX-License-Identifier: GPL-3.0\npragma solidity >=0.4.0 <0.9.0;\n\nimport \"./alt_bn128.sol\";\n\ncontract BulletProof {\n    using alt_bn128 for uint256;\n    using alt_bn128 for alt_bn128.G1Point;\n\n    struct Proof {\n        alt_bn128.G1Point[] Ls;\n        alt_bn128.G1Point[] Rs;\n        uint256 final_co;\n    }\n    \n    /** Base points of the elliptic curve */\n    function generate(uint count) public view returns (alt_bn128.G1Point[] memory Gs){\n        Gs = new alt_bn128.G1Point[](count);\n        for (uint256 i = 0; i < count; i++){\n            Gs[i] = alt_bn128.uintToCurvePoint(i+2);\n        }\n    }\n\n    // /** Commitment to polynomial (lower and upper half scheme) */\n    // function commit(alt_bn128.G1Point[] memory Gs, uint256[] memory poly, uint Gstart, uint polystart, uint number)\n    // public view returns (alt_bn128.G1Point memory C){\n    //     C = alt_bn128.mul(Gs[Gstart], poly[polystart]);\n    //     for (uint i = 1; i < number; i++){\n    //         C = alt_bn128.add(alt_bn128.mul(Gs[Gstart+i], poly[polystart+i]));\n    //     }\n    // }\n\n    /** Commitment to polynomial (even and odd scheme) */\n    function commit(alt_bn128.G1Point[] memory Gs, uint256[] memory poly) public view \n    returns (alt_bn128.G1Point memory C){\n        C = alt_bn128.mul(Gs[0], poly[0]);\n        for (uint i = 1; i < poly.length; i++){\n            C = alt_bn128.add(alt_bn128.mul(Gs[i], poly[i]), C);\n        }\n    }\n\n    /** compute the (L, R) pair */\n    function LRpair(alt_bn128.G1Point[] memory Gs, uint256[] memory poly) internal view\n    returns (alt_bn128.G1Point memory L, alt_bn128.G1Point memory R){\n        L = alt_bn128.mul(Gs[0], poly[1]);\n        R = alt_bn128.mul(Gs[1], poly[0]);\n\n        for (uint i = 1; i < poly.length/2; i++){\n            L = alt_bn128.add(alt_bn128.mul(Gs[2*i], poly[2*i+1]), L);\n            R = alt_bn128.add(alt_bn128.mul(Gs[2*i+1], poly[2*i]), R);\n        }\n    }\n\n    /** new base points and polynomial \n     * G'_i = aG_2i + G_(2i+1)\n     * c'_i = c_2i + ac_(2i+1)\n     * => intermediate commitment \n     * C' = sum c'_i G'_i = aC + a^2L + R\n    */\n    function nextRound(alt_bn128.G1Point[] memory Gs, uint256[] memory poly , uint256 a) internal view\n    returns (alt_bn128.G1Point[] memory Gs_new, uint256[] memory poly_new){\n        uint length = poly.length / 2;\n\n        Gs_new = new alt_bn128.G1Point[](length);\n        poly_new = new uint256[](length);\n\n        for (uint i = 0; i < length; i++){\n            Gs_new[i] = alt_bn128.add(alt_bn128.mul(Gs[2*i], a), Gs[2*i+1]);\n            poly_new[i] = alt_bn128.add(poly[2*i], alt_bn128.mul(a, poly[2*i+1]));\n        }\n    }\n\n    function log2(uint n) internal pure returns (uint ndigits){\n        ndigits = 0;\n        while (n > 1){\n            ndigits += 1;\n            n = n/2;\n        }\n    }\n\n    function nextRound(alt_bn128.G1Point[] memory Gs, uint256 a) internal view\n    returns (alt_bn128.G1Point[] memory Gs_new){\n        uint length = Gs.length / 2;\n\n        Gs_new = new alt_bn128.G1Point[](length);\n        for (uint i = 0; i < length; i++){\n            Gs_new[i] = alt_bn128.add(alt_bn128.mul(Gs[2*i], a), Gs[2*i+1]);\n        }\n    }\n\n    /** Proof of the polynomial */\n    function prove(alt_bn128.G1Point[] memory Gs, alt_bn128.G1Point memory C, uint256[] memory poly) public view\n    returns (Proof memory p) {\n        require(poly.length & (poly.length - 1) == 0, \"polynomial length should be a power of 2\");\n        uint length = log2(poly.length);\n        // Fiat-shamir heuristics as challenge\n        uint256 a;\n        bytes32 r = alt_bn128.serialize(C);\n\n        alt_bn128.G1Point memory L;\n        alt_bn128.G1Point memory R;\n\n        alt_bn128.G1Point[] memory Ls = new alt_bn128.G1Point[](length);\n        alt_bn128.G1Point[] memory Rs = new alt_bn128.G1Point[](length);\n\n        // log(n) rounds\n        for (uint i = 0; i < length; i++){\n            (L, R) = LRpair(Gs, poly);\n            Ls[i] = L; Rs[i] = R;\n\n            r = keccak256(abi.encodePacked(r, alt_bn128.serialize(L), alt_bn128.serialize(R)));\n            a = alt_bn128.mod(uint256(r));\n\n            // // Generate half-size poly and Gs\n            (Gs, poly) = nextRound(Gs, poly, a);\n        }\n\n        p = Proof(Ls, Rs, poly[0]);\n    }\n\n    /** Base case check: final point * final coefficient ?= final commitment */\n    function verify(alt_bn128.G1Point[] memory Gs, alt_bn128.G1Point memory C, Proof memory p) public view\n    returns (bool){\n        // Fiat-shamir heuristics\n        uint256 a;\n        bytes32 r = alt_bn128.serialize(C);\n\n        for (uint i = 0; i < p.Ls.length; i++){\n            r = keccak256(abi.encodePacked(r, alt_bn128.serialize(p.Ls[i]), alt_bn128.serialize(p.Rs[i])));\n            a = alt_bn128.mod(uint256(r));\n\n            // C' = sum c'_i G'_i = aC + a^2L + R\n            C = alt_bn128.add(\n                    alt_bn128.add(\n                        alt_bn128.mul(C, a), \n                        alt_bn128.mul(p.Ls[i], alt_bn128.mul(a, a))\n                    ), \n                    p.Rs[i]\n                );\n\n            Gs = nextRound(Gs, a);\n        }\n        return alt_bn128.eq(alt_bn128.mul(Gs[0], p.final_co), C);\n    }\n}",
  "sourcePath": "/Users/qian/Desktop/Y4/COMP4550/ZKP-Blockchain/contracts/bulletproof.sol",
  "compiler": {
    "name": "solc",
    "version": "0.8.19+commit.7dd6d404.Emscripten.clang"
  },
  "schemaVersion": "3.4.13",
  "updatedAt": "2023-04-06T12:47:10.835Z",
  "networkType": "ethereum",
  "devdoc": {
    "kind": "dev",
    "methods": {},
    "version": 1
  },
  "userdoc": {
    "kind": "user",
    "methods": {
      "commit((uint256,uint256)[],uint256[])": {
        "notice": "Commitment to polynomial (even and odd scheme) "
      },
      "generate(uint256)": {
        "notice": "Base points of the elliptic curve "
      },
      "prove((uint256,uint256)[],(uint256,uint256),uint256[])": {
        "notice": "Proof of the polynomial "
      },
      "verify((uint256,uint256)[],(uint256,uint256),((uint256,uint256)[],(uint256,uint256)[],uint256))": {
        "notice": "Base case check: final point * final coefficient ?= final commitment "
      }
    },
    "version": 1
  }
}