{
  "contractName": "DualRingEcc",
  "abi": [
    {
      "inputs": [
        {
          "internalType": "uint256",
          "name": "",
          "type": "uint256"
        }
      ],
      "name": "publicKeys",
      "outputs": [
        {
          "internalType": "uint256",
          "name": "x",
          "type": "uint256"
        },
        {
          "internalType": "uint256",
          "name": "y",
          "type": "uint256"
        }
      ],
      "stateMutability": "view",
      "type": "function"
    },
    {
      "inputs": [],
      "name": "sig",
      "outputs": [
        {
          "internalType": "uint256",
          "name": "z",
          "type": "uint256"
        }
      ],
      "stateMutability": "view",
      "type": "function"
    },
    {
      "inputs": [
        {
          "internalType": "uint256",
          "name": "",
          "type": "uint256"
        }
      ],
      "name": "sks",
      "outputs": [
        {
          "internalType": "uint256",
          "name": "",
          "type": "uint256"
        }
      ],
      "stateMutability": "view",
      "type": "function"
    },
    {
      "inputs": [
        {
          "internalType": "uint256",
          "name": "_ring_size",
          "type": "uint256"
        }
      ],
      "name": "generateKeys",
      "outputs": [],
      "stateMutability": "nonpayable",
      "type": "function"
    },
    {
      "inputs": [
        {
          "internalType": "string",
          "name": "_message",
          "type": "string"
        },
        {
          "internalType": "uint256",
          "name": "_privateKeyIndex",
          "type": "uint256"
        }
      ],
      "name": "sign",
      "outputs": [
        {
          "components": [
            {
              "internalType": "uint256[]",
              "name": "c",
              "type": "uint256[]"
            },
            {
              "internalType": "uint256",
              "name": "z",
              "type": "uint256"
            }
          ],
          "internalType": "struct DualRingEcc.Signature",
          "name": "",
          "type": "tuple"
        }
      ],
      "stateMutability": "nonpayable",
      "type": "function"
    },
    {
      "inputs": [
        {
          "internalType": "string",
          "name": "_message",
          "type": "string"
        }
      ],
      "name": "verify",
      "outputs": [
        {
          "internalType": "bool",
          "name": "",
          "type": "bool"
        }
      ],
      "stateMutability": "nonpayable",
      "type": "function"
    }
  ],
  "bytecode": "0x608060405234801561001057600080fd5b5061198d806100206000396000f3fe608060405234801561001057600080fd5b50600436106100615760003560e01c8062a7029b146100665780631a68fb50146100845780632042d725146100a057806325563051146100d0578063bb9c6c3e14610100578063c680f41014610130575b600080fd5b61006e610161565b60405161007b919061108a565b60405180910390f35b61009e600480360381019061009991906110e5565b61016d565b005b6100ba60048036038101906100b59190611258565b610318565b6040516100c791906113af565b60405180910390f35b6100ea60048036038101906100e591906110e5565b6109ae565b6040516100f7919061108a565b60405180910390f35b61011a600480360381019061011591906113d1565b6109d2565b6040516101279190611435565b60405180910390f35b61014a600480360381019061014591906110e5565b610ea0565b604051610158929190611450565b60405180910390f35b60028060010154905081565b60005b8181101561031457600081905060018190806001815401808255809150506001900390600052602060002001600090919091909150556101ae610f87565b7f1581953bcf3ce078038fa19d974e26e4757a0e65573d9628ec8939bb77a6fd04816000600381106101e3576101e2611479565b5b6020020181815250507f0b1fd6eda65bd4e6866a28bccfee143309bfb597378217a2002e5cac8cfe645f8160016003811061022157610220611479565b5b602002018181525050818160026003811061023f5761023e611479565b5b6020020181815250506000610252610fa9565b60408160608560006007600019f19150816000810361027057600080fd5b50600060405180604001604052808360006002811061029257610291611479565b5b60200201518152602001836001600281106102b0576102af611479565b5b602002015181525090506000819080600181540180825580915050600190039060005260206000209060020201600090919091909150600082015181600001556020820151816001015550505050505050808061030c906114d7565b915050610170565b5050565b610320610fcb565b6001805490508210610367576040517f08c379a000000000000000000000000000000000000000000000000000000000815260040161035e906115a2565b60405180910390fd5b60007ffffffffffffffffffffffffffffffffffffffffffffffffffffffffefffffc2f33428560405160200161039f9392919061165d565b6040516020818303038152906040528051906020012060001c6103c291906116c9565b90506000808054905067ffffffffffffffff8111156103e4576103e361112d565b5b6040519080825280602002602001820160405280156104125781602001602082028036833780820191505090505b509050600061041f610f87565b7f1581953bcf3ce078038fa19d974e26e4757a0e65573d9628ec8939bb77a6fd048160006003811061045457610453611479565b5b6020020181815250507f0b1fd6eda65bd4e6866a28bccfee143309bfb597378217a2002e5cac8cfe645f8160016003811061049257610491611479565b5b60200201818152505083816002600381106104b0576104af611479565b5b60200201818152505060006104c3610fa9565b60408160608560006007600019f1915081600081036104e157600080fd5b5060005b6000805490508110156107915788811461077e577ffffffffffffffffffffffffffffffffffffffffffffffffffffffffefffffc2f33428360405160200161052f9392919061165d565b6040516020818303038152906040528051906020012060001c61055291906116c9565b86828151811061056557610564611479565b5b602002602001018181525050610579610fa9565b610581610f87565b6000838154811061059557610594611479565b5b906000526020600020906002020160000154816000600381106105bb576105ba611479565b5b602002018181525050600083815481106105d8576105d7611479565b5b906000526020600020906002020160010154816001600381106105fe576105fd611479565b5b60200201818152505087838151811061061a57610619611479565b5b60200260200101518160026003811061063657610635611479565b5b60200201818152505060408260608360006007600019f19450846000810361065d57600080fd5b50610666610fe5565b6000848154811061067a57610679611479565b5b906000526020600020906002020160000154816000600481106106a05761069f611479565b5b602002018181525050600084815481106106bd576106bc611479565b5b906000526020600020906002020160010154816001600481106106e3576106e2611479565b5b60200201818152505082600060028110610700576106ff611479565b5b60200201518160026004811061071957610718611479565b5b6020020181815250508260016002811061073657610735611479565b5b60200201518160036004811061074f5761074e611479565b5b602002018181525050600060408660808460006006600019f19050806000810361077857600080fd5b50505050505b8080610789906114d7565b9150506104e5565b50600089805190602001206040516020016107ac919061177c565b60405160208183030381529060405280519060200120905060008161083b6000805480602002602001604051908101604052809291908181526020016000905b82821015610832578382906000526020600020906002020160405180604001604052908160008201548152602001600182015481525050815260200190600101906107ec565b50505050610ed4565b8460006002811061084f5761084e611479565b5b60200201518560016002811061086857610867611479565b5b60200201516040516020016108809493929190611813565b6040516020818303038152906040528051906020012060001c90507ffffffffffffffffffffffffffffffffffffffffffffffffffffffffefffffc2f866108c791906116c9565b816108d2919061185d565b878b815181106108e5576108e4611479565b5b60200260200101818152505060007ffffffffffffffffffffffffffffffffffffffffffffffffffffffffefffffc2f60018c8154811061092857610927611479565b5b90600052602060002001548361093e9190611891565b61094891906116c9565b89610953919061185d565b9050600060405180604001604052808a8152602001838152509050806002600082015181600001908051906020019061098d929190611007565b5060208201518160010155905050809a505050505050505050505092915050565b600181815481106109be57600080fd5b906000526020600020016000915090505481565b6000806002600001805480602002602001604051908101604052809291908181526020018280548015610a2457602002820191906000526020600020905b815481526020019060010190808311610a10575b50505050509050600060026001015490506000610a3f610f87565b7f1581953bcf3ce078038fa19d974e26e4757a0e65573d9628ec8939bb77a6fd0481600060038110610a7457610a73611479565b5b6020020181815250507f0b1fd6eda65bd4e6866a28bccfee143309bfb597378217a2002e5cac8cfe645f81600160038110610ab257610ab1611479565b5b6020020181815250508281600260038110610ad057610acf611479565b5b6020020181815250506000610ae3610fa9565b60408160608560006007600019f191508160008103610b0157600080fd5b5060005b600080549050811015610d5957868181518110610b2557610b24611479565b5b602002602001015185610b3891906118d3565b9450610b42610fa9565b610b4a610f87565b60008381548110610b5e57610b5d611479565b5b90600052602060002090600202016000015481600060038110610b8457610b83611479565b5b60200201818152505060008381548110610ba157610ba0611479565b5b90600052602060002090600202016001015481600160038110610bc757610bc6611479565b5b602002018181525050888381518110610be357610be2611479565b5b602002602001015181600260038110610bff57610bfe611479565b5b60200201818152505060408260608360006007600019f194508460008103610c2657600080fd5b50610c2f610fe5565b60008481548110610c4357610c42611479565b5b90600052602060002090600202016000015481600060048110610c6957610c68611479565b5b60200201818152505060008481548110610c8657610c85611479565b5b90600052602060002090600202016001015481600160048110610cac57610cab611479565b5b60200201818152505084600060028110610cc957610cc8611479565b5b602002015181600260048110610ce257610ce1611479565b5b60200201818152505084600160028110610cff57610cfe611479565b5b602002015181600360048110610d1857610d17611479565b5b602002018181525050600060408660808460006006600019f190508060008103610d4157600080fd5b50505050508080610d51906114d7565b915050610b05565b5060008880519060200120604051602001610d74919061177c565b604051602081830303815290604052805190602001209050600081610e036000805480602002602001604051908101604052809291908181526020016000905b82821015610dfa57838290600052602060002090600202016040518060400160405290816000820154815260200160018201548152505081526020019060010190610db4565b50505050610ed4565b84600060028110610e1757610e16611479565b5b602002015185600160028110610e3057610e2f611479565b5b6020020151604051602001610e489493929190611813565b6040516020818303038152906040528051906020012060001c90507ffffffffffffffffffffffffffffffffffffffffffffffffffffffffefffffc2f86610e8f91906116c9565b811498505050505050505050919050565b60008181548110610eb057600080fd5b90600052602060002090600202016000915090508060000154908060010154905082565b60608060005b8351811015610f7d576000848281518110610ef857610ef7611479565b5b602002602001015160000151858381518110610f1757610f16611479565b5b602002602001015160200151604051602001610f34929190611907565b60405160208183030381529060405290508281604051602001610f58929190611933565b6040516020818303038152906040529250508080610f75906114d7565b915050610eda565b5080915050919050565b6040518060600160405280600390602082028036833780820191505090505090565b6040518060400160405280600290602082028036833780820191505090505090565b604051806040016040528060608152602001600081525090565b6040518060800160405280600490602082028036833780820191505090505090565b828054828255906000526020600020908101928215611043579160200282015b82811115611042578251825591602001919060010190611027565b5b5090506110509190611054565b5090565b5b8082111561106d576000816000905550600101611055565b5090565b6000819050919050565b61108481611071565b82525050565b600060208201905061109f600083018461107b565b92915050565b6000604051905090565b600080fd5b600080fd5b6110c281611071565b81146110cd57600080fd5b50565b6000813590506110df816110b9565b92915050565b6000602082840312156110fb576110fa6110af565b5b6000611109848285016110d0565b91505092915050565b600080fd5b600080fd5b6000601f19601f8301169050919050565b7f4e487b7100000000000000000000000000000000000000000000000000000000600052604160045260246000fd5b6111658261111c565b810181811067ffffffffffffffff821117156111845761118361112d565b5b80604052505050565b60006111976110a5565b90506111a3828261115c565b919050565b600067ffffffffffffffff8211156111c3576111c261112d565b5b6111cc8261111c565b9050602081019050919050565b82818337600083830152505050565b60006111fb6111f6846111a8565b61118d565b90508281526020810184848401111561121757611216611117565b5b6112228482856111d9565b509392505050565b600082601f83011261123f5761123e611112565b5b813561124f8482602086016111e8565b91505092915050565b6000806040838503121561126f5761126e6110af565b5b600083013567ffffffffffffffff81111561128d5761128c6110b4565b5b6112998582860161122a565b92505060206112aa858286016110d0565b9150509250929050565b600081519050919050565b600082825260208201905092915050565b6000819050602082019050919050565b6112e981611071565b82525050565b60006112fb83836112e0565b60208301905092915050565b6000602082019050919050565b600061131f826112b4565b61132981856112bf565b9350611334836112d0565b8060005b8381101561136557815161134c88826112ef565b975061135783611307565b925050600181019050611338565b5085935050505092915050565b6000604083016000830151848203600086015261138f8282611314565b91505060208301516113a460208601826112e0565b508091505092915050565b600060208201905081810360008301526113c98184611372565b905092915050565b6000602082840312156113e7576113e66110af565b5b600082013567ffffffffffffffff811115611405576114046110b4565b5b6114118482850161122a565b91505092915050565b60008115159050919050565b61142f8161141a565b82525050565b600060208201905061144a6000830184611426565b92915050565b6000604082019050611465600083018561107b565b611472602083018461107b565b9392505050565b7f4e487b7100000000000000000000000000000000000000000000000000000000600052603260045260246000fd5b7f4e487b7100000000000000000000000000000000000000000000000000000000600052601160045260246000fd5b60006114e282611071565b91507fffffffffffffffffffffffffffffffffffffffffffffffffffffffffffffffff8203611514576115136114a8565b5b600182019050919050565b600082825260208201905092915050565b7f4475616c52696e673a20496e76616c69642070726976617465206b657920696e60008201527f6465780000000000000000000000000000000000000000000000000000000000602082015250565b600061158c60238361151f565b915061159782611530565b604082019050919050565b600060208201905081810360008301526115bb8161157f565b9050919050565b600073ffffffffffffffffffffffffffffffffffffffff82169050919050565b60006115ed826115c2565b9050919050565b60008160601b9050919050565b600061160c826115f4565b9050919050565b600061161e82611601565b9050919050565b611636611631826115e2565b611613565b82525050565b6000819050919050565b61165761165282611071565b61163c565b82525050565b60006116698286611625565b6014820191506116798285611646565b6020820191506116898284611646565b602082019150819050949350505050565b7f4e487b7100000000000000000000000000000000000000000000000000000000600052601260045260246000fd5b60006116d482611071565b91506116df83611071565b9250826116ef576116ee61169a565b5b828206905092915050565b600081905092915050565b7f19457468657265756d205369676e6564204d6573736167653a0a333200000000600082015250565b600061173b601c836116fa565b915061174682611705565b601c82019050919050565b6000819050919050565b6000819050919050565b61177661177182611751565b61175b565b82525050565b60006117878261172e565b91506117938284611765565b60208201915081905092915050565b600081519050919050565b600081905092915050565b60005b838110156117d65780820151818401526020810190506117bb565b60008484015250505050565b60006117ed826117a2565b6117f781856117ad565b93506118078185602086016117b8565b80840191505092915050565b600061181f8287611765565b60208201915061182f82866117e2565b915061183b8285611646565b60208201915061184b8284611646565b60208201915081905095945050505050565b600061186882611071565b915061187383611071565b925082820390508181111561188b5761188a6114a8565b5b92915050565b600061189c82611071565b91506118a783611071565b92508282026118b581611071565b915082820484148315176118cc576118cb6114a8565b5b5092915050565b60006118de82611071565b91506118e983611071565b9250828201905080821115611901576119006114a8565b5b92915050565b60006119138285611646565b6020820191506119238284611646565b6020820191508190509392505050565b600061193f82856117e2565b915061194b82846117e2565b9150819050939250505056fea2646970667358221220cfffdc5c50491d6c76726e5e31bf22805d05e4253963273649e55a4470da54b764736f6c63430008130033",
  "immutableReferences": {},
  "source": "// SPDX-License-Identifier: GPL-3.0\r\npragma solidity >=0.4.0 <0.9.0;\r\n\r\n// import \"@openzeppelin/contracts/utils/Arrays.sol\";\r\n// import \"@openzeppelin/contracts/utils/Counters.sol\";\r\n// import \"@openzeppelin/contracts/utils/cryptography/ECDSA.sol\";\r\n// import \"elliptic-curve-solidity/contracts/EllipticCurve.sol\";\r\n\r\ncontract DualRingEcc {\r\n    // using Arrays for uint256[];\r\n    // using Counters for Counters.Counter;\r\n\r\n    // Define elliptic curve parameters\r\n    uint256 constant GX = 9727523064272218541460723335320998459488975639302513747055235660443850046724;\r\n    uint256 constant GY = 5031696974169251245229961296941447383441169981934237515842977230762345915487;\r\n    uint256 constant AA = 0;\r\n    uint256 constant BB = 7;\r\n    uint256 constant PP = 0xFFFFFFFFFFFFFFFFFFFFFFFFFFFFFFFFFFFFFFFFFFFFFFFFFFFFFFFEFFFFFC2F;\r\n    \r\n    \r\n\r\n    // Define structs for public and private keys\r\n\r\n    //  function multiply(Point memory p, uint256 k)\r\n    //     public\r\n    //     returns (Point memory)\r\n    // {\r\n    //     uint256[3] memory input;\r\n    //     input[0] = p.x;\r\n    //     input[1] = p.y;\r\n    //     input[2] = k;\r\n\r\n    //     bool success;\r\n    //     uint256[2] memory result;\r\n\r\n    //     assembly {\r\n    //         success := call(not(0), 0x07, 0, input, 96, result, 64)\r\n    //     }\r\n    //     require(success, \"elliptic curve multiplication failed\");\r\n\r\n    //     return Point(result[0], result[1]);\r\n    // }\r\n\r\n    // function add(Point memory p1, Point memory p2)\r\n    //     internal\r\n    //     returns (Point memory)\r\n    // {\r\n    //     uint256[4] memory input;\r\n    //     input[0] = p1.x;\r\n    //     input[1] = p1.y;\r\n    //     input[2] = p2.x;\r\n    //     input[3] = p2.y;\r\n\r\n    //     bool success;\r\n    //     uint256[2] memory result;\r\n    //     assembly {\r\n    //         success := call(not(0), 0x06, 0, input, 128, result, 64)\r\n    //     }\r\n\r\n    //     require(success, \"bn256 addition failed\");\r\n    //     return Point(result[0], result[1]);\r\n    // }\r\n\r\n    // function sub(Point memory p1, Point memory p2)\r\n    //     public\r\n    //     returns (Point memory)\r\n    // {\r\n    //     uint256[4] memory input;\r\n    //     input[0] = p1.x;\r\n    //     input[1] = p1.y;\r\n    //     input[2] = p2.x;\r\n    //     input[3] = PP - p2.y;\r\n\r\n    //     bool success;\r\n    //     uint256[2] memory result;\r\n    //     assembly {\r\n    //         success := call(not(0), 0x06, 0, input, 128, result, 64)\r\n    //     }\r\n\r\n    //     require(success, \"bn256 subtraction failed\");\r\n    //     return Point(result[0], result[1]);\r\n    // }\r\n\r\n    struct Point {\r\n        uint256 x;\r\n        uint256 y;\r\n    }\r\n\r\n\r\n    // struct PrivateKey {\r\n    //     uint256 k;\r\n    // }\r\n\r\n    // Define a struct for a signature\r\n    struct Signature {\r\n        uint256[] c;\r\n        uint256 z;\r\n    }\r\n\r\n    // Point G = Point({ x : GX , y : GY});\r\n\r\n    // Define a counter for generating private keys\r\n    // Counters.Counter private _privateKeyNonce;\r\n\r\n    // Define arrays for public and private keys\r\n    Point[] public publicKeys;\r\n    // PrivateKey[] public privateKeys;\r\n\r\n    uint256[] public sks;\r\n\r\n    Signature public sig;\r\n\r\n    // Constructor to initialize the contract with public keys\r\n    // constructor(uint _ring_size) {\r\n    //     require(_ring_size >= 2, \"DualRing: At least two public keys are required\");\r\n    //     generateKeys(2);\r\n        \r\n        \r\n    // }\r\n\r\n    // Function to generate a new private key\r\n    function generateKeys(uint _ring_size) public {\r\n        for (uint i = 0; i < _ring_size; i++) {\r\n            // PrivateKey memory privateKey = PrivateKey({\r\n            //     k: uint256(keccak256(abi.encodePacked( block.timestamp)))\r\n            //     // k: 2\r\n            // });\r\n            // uint256 _x;\r\n            // uint256 _y;\r\n            // Point memory pk = multiply(G, privateKey.k);\r\n            // uint k = uint256(keccak256(abi.encodePacked( block.timestamp)));\r\n            uint k =i;\r\n            sks.push(k);\r\n\r\n            uint256[3] memory input;\r\n            input[0] = GX;\r\n            input[1] = GY;\r\n            input[2] = k;\r\n\r\n            bool success;\r\n            uint256[2] memory result;\r\n\r\n            assembly {\r\n                success := call(not(0), 0x07, 0, input, 96, result, 64)\r\n                switch success case 0 { revert(0, 0) }\r\n            }\r\n\r\n            Point memory pk = Point(result[0], result[1]);\r\n\r\n            publicKeys.push(pk);\r\n            \r\n        }\r\n        \r\n    }\r\n\r\n    function packArray(Point[] memory arr) internal pure returns (bytes memory) {\r\n        bytes memory packed;\r\n        for (uint256 i = 0; i < arr.length; i++) {\r\n            bytes memory temp = abi.encodePacked(arr[i].x, arr[i].y);\r\n            packed = abi.encodePacked(packed, temp);\r\n        }\r\n        return packed;\r\n    }\r\n\r\n    // Function to sign a message using a private key\r\n    function sign(string memory _message, uint _privateKeyIndex) public returns (Signature memory) {\r\n        require(_privateKeyIndex < sks.length, \"DualRing: Invalid private key index\");\r\n        uint256 r = uint256(keccak256(abi.encodePacked(msg.sender, block.timestamp, _privateKeyIndex))) % PP;\r\n        uint256[] memory cArray = new uint256[](publicKeys.length);\r\n        \r\n        uint256 sumExceptJ = 0;\r\n        // uint256 tempX = 0;\r\n        // uint256 tempY = 0;\r\n        // (tempX,tempY) =  derivePubKey(r);\r\n        // Point memory R = multiply(G, r);\r\n\r\n\r\n         uint256[3] memory input;\r\n            input[0] = GX;\r\n            input[1] = GY;\r\n            input[2] = r;\r\n\r\n        bool success;\r\n        uint256[2] memory R;\r\n\r\n        assembly {\r\n                success := call(not(0), 0x07, 0, input, 96, R, 64)\r\n                switch success case 0 { revert(0, 0) }\r\n        }\r\n        \r\n\r\n        for (uint256 i = 0; i < publicKeys.length; i++) {\r\n            if (i != _privateKeyIndex) {\r\n                \r\n                cArray[i] = uint256(keccak256(abi.encodePacked(msg.sender, block.timestamp, i))) % PP;\r\n         \r\n                uint256[2] memory temp;\r\n\r\n                uint256[3] memory inputM;\r\n                inputM[0] = publicKeys[i].x;\r\n                inputM[1] = publicKeys[i].y;\r\n                inputM[2] = cArray[i];\r\n\r\n                assembly {\r\n                success := call(not(0), 0x07, 0, inputM, 96, temp, 64)\r\n                switch success case 0 { revert(0, 0) }\r\n                }\r\n\r\n                // Point memory tempP = multiply(publicKeys[i], tempC);\r\n\r\n                uint256[4] memory inputA;\r\n                inputA[0] = publicKeys[i].x;\r\n                inputA[1] = publicKeys[i].y;\r\n                inputA[2] = temp[0];\r\n                inputA[3] = temp[1];\r\n\r\n                bool success;\r\n                // uint256[2] memory result;\r\n                assembly {\r\n                    success := call(not(0), 0x06, 0, inputA, 128, R, 64)\r\n                    switch success case 0 { revert(0, 0) }\r\n                }\r\n\r\n                // R = add(R, tempP);\r\n\r\n\r\n            }\r\n        }\r\n        \r\n        bytes32 messageHash = keccak256(abi.encodePacked(\"\\x19Ethereum Signed Message:\\n32\", keccak256(bytes(_message))));\r\n\r\n        uint256 c = uint256(keccak256(abi.encodePacked(messageHash,packArray(publicKeys),R[0],R[1])));\r\n        cArray[_privateKeyIndex] = c-sumExceptJ%PP;\r\n        uint256 z = r - (c*sks[_privateKeyIndex]) %PP;\r\n\r\n        Signature memory signature = Signature({\r\n            c: cArray,\r\n            z: z\r\n        });\r\n\r\n        sig = signature;\r\n        return signature;\r\n    }\r\n\r\n    // Function to verify a signature\r\n\r\n    function verify(string memory _message) public returns (bool) {\r\n\r\n        uint256[] memory cArray = sig.c;\r\n        uint256 z = sig.z;\r\n        // uint256 tempX = 0;\r\n        // uint256 tempY = 0;\r\n        uint256 sumExceptJ = 0;\r\n        // (tempX,tempY) =  derivePubKey(z);\r\n\r\n        // Point memory R = multiply(G, z);\r\n        uint256[3] memory input;\r\n            input[0] = GX;\r\n            input[1] = GY;\r\n            input[2] = z;\r\n\r\n        bool success;\r\n        uint256[2] memory R;\r\n\r\n        assembly {\r\n                success := call(not(0), 0x07, 0, input, 96, R, 64)\r\n                switch success case 0 { revert(0, 0) }\r\n        }\r\n\r\n        for (uint256 i = 0; i < publicKeys.length; i++) {\r\n            sumExceptJ = sumExceptJ+cArray[i];\r\n            // (uint256 a,uint256 b) = mul(publicKeys[i].x,publicKeys[i].y,cArray[i]);\r\n                uint256[2] memory temp;\r\n\r\n                uint256[3] memory inputM;\r\n                inputM[0] = publicKeys[i].x;\r\n                inputM[1] = publicKeys[i].y;\r\n                inputM[2] = cArray[i];\r\n\r\n                assembly {\r\n                success := call(not(0), 0x07, 0, inputM, 96, temp, 64)\r\n                switch success case 0 { revert(0, 0) }\r\n                }\r\n            // Point memory tempP = multiply(publicKeys[i],cArray[i]); \r\n                uint256[4] memory inputA;\r\n                inputA[0] = publicKeys[i].x;\r\n                inputA[1] = publicKeys[i].y;\r\n                inputA[2] = R[0];\r\n                inputA[3] = R[1];\r\n\r\n                bool success;\r\n                // uint256[2] memory result;\r\n                assembly {\r\n                    success := call(not(0), 0x06, 0, inputA, 128, R, 64)\r\n                    switch success case 0 { revert(0, 0) }\r\n                }\r\n\r\n\r\n            // R = add(tempP, R);\r\n\r\n\r\n            \r\n        }\r\n\r\n        bytes32 messageHash = keccak256(abi.encodePacked(\"\\x19Ethereum Signed Message:\\n32\", keccak256(bytes(_message))));\r\n        uint256 c = uint256(keccak256(abi.encodePacked(messageHash, packArray(publicKeys), R[0],R[1])));\r\n\r\n\r\n        return c == sumExceptJ%PP;\r\n    }\r\n\r\n\r\n}",
  "sourcePath": "/Users/qian/Desktop/Y4/COMP4550/ZKP-Blockchain/contracts/dualring_sig_ecc.sol",
  "compiler": {
    "name": "solc",
    "version": "0.8.19+commit.7dd6d404.Emscripten.clang"
  },
  "schemaVersion": "3.4.13",
  "updatedAt": "2023-03-17T12:31:57.040Z",
  "devdoc": {
    "kind": "dev",
    "methods": {},
    "version": 1
  },
  "userdoc": {
    "kind": "user",
    "methods": {},
    "version": 1
  }
}