{
  "contractName": "NISA",
  "abi": [
    {
      "inputs": [],
      "stateMutability": "nonpayable",
      "type": "constructor"
    },
    {
      "inputs": [
        {
          "internalType": "uint256[]",
          "name": "a",
          "type": "uint256[]"
        }
      ],
      "name": "generateParam",
      "outputs": [
        {
          "components": [
            {
              "components": [
                {
                  "internalType": "uint256",
                  "name": "X",
                  "type": "uint256"
                },
                {
                  "internalType": "uint256",
                  "name": "Y",
                  "type": "uint256"
                }
              ],
              "internalType": "struct alt_bn128.G1Point[]",
              "name": "Gs",
              "type": "tuple[]"
            },
            {
              "components": [
                {
                  "internalType": "uint256",
                  "name": "X",
                  "type": "uint256"
                },
                {
                  "internalType": "uint256",
                  "name": "Y",
                  "type": "uint256"
                }
              ],
              "internalType": "struct alt_bn128.G1Point",
              "name": "P",
              "type": "tuple"
            },
            {
              "internalType": "uint256",
              "name": "c",
              "type": "uint256"
            }
          ],
          "internalType": "struct NISA.Param",
          "name": "param",
          "type": "tuple"
        }
      ],
      "stateMutability": "view",
      "type": "function",
      "constant": true
    },
    {
      "inputs": [
        {
          "internalType": "uint256",
          "name": "n",
          "type": "uint256"
        }
      ],
      "name": "log2",
      "outputs": [
        {
          "internalType": "uint256",
          "name": "ndigits",
          "type": "uint256"
        }
      ],
      "stateMutability": "pure",
      "type": "function",
      "constant": true
    },
    {
      "inputs": [
        {
          "internalType": "uint256[]",
          "name": "a",
          "type": "uint256[]"
        }
      ],
      "name": "test",
      "outputs": [
        {
          "components": [
            {
              "components": [
                {
                  "internalType": "uint256",
                  "name": "X",
                  "type": "uint256"
                },
                {
                  "internalType": "uint256",
                  "name": "Y",
                  "type": "uint256"
                }
              ],
              "internalType": "struct alt_bn128.G1Point[]",
              "name": "Ls",
              "type": "tuple[]"
            },
            {
              "components": [
                {
                  "internalType": "uint256",
                  "name": "X",
                  "type": "uint256"
                },
                {
                  "internalType": "uint256",
                  "name": "Y",
                  "type": "uint256"
                }
              ],
              "internalType": "struct alt_bn128.G1Point[]",
              "name": "Rs",
              "type": "tuple[]"
            },
            {
              "internalType": "uint256",
              "name": "a",
              "type": "uint256"
            },
            {
              "internalType": "uint256",
              "name": "b",
              "type": "uint256"
            }
          ],
          "internalType": "struct NISA.Proof",
          "name": "",
          "type": "tuple"
        }
      ],
      "stateMutability": "nonpayable",
      "type": "function"
    },
    {
      "inputs": [
        {
          "internalType": "uint256[]",
          "name": "a",
          "type": "uint256[]"
        }
      ],
      "name": "test2",
      "outputs": [
        {
          "internalType": "bool",
          "name": "",
          "type": "bool"
        }
      ],
      "stateMutability": "nonpayable",
      "type": "function"
    },
    {
      "inputs": [
        {
          "components": [
            {
              "components": [
                {
                  "internalType": "uint256",
                  "name": "X",
                  "type": "uint256"
                },
                {
                  "internalType": "uint256",
                  "name": "Y",
                  "type": "uint256"
                }
              ],
              "internalType": "struct alt_bn128.G1Point[]",
              "name": "Gs",
              "type": "tuple[]"
            },
            {
              "components": [
                {
                  "internalType": "uint256",
                  "name": "X",
                  "type": "uint256"
                },
                {
                  "internalType": "uint256",
                  "name": "Y",
                  "type": "uint256"
                }
              ],
              "internalType": "struct alt_bn128.G1Point",
              "name": "P",
              "type": "tuple"
            },
            {
              "internalType": "uint256",
              "name": "c",
              "type": "uint256"
            }
          ],
          "internalType": "struct NISA.Param",
          "name": "param",
          "type": "tuple"
        },
        {
          "internalType": "uint256[]",
          "name": "a",
          "type": "uint256[]"
        }
      ],
      "name": "prove",
      "outputs": [
        {
          "components": [
            {
              "components": [
                {
                  "internalType": "uint256",
                  "name": "X",
                  "type": "uint256"
                },
                {
                  "internalType": "uint256",
                  "name": "Y",
                  "type": "uint256"
                }
              ],
              "internalType": "struct alt_bn128.G1Point[]",
              "name": "Ls",
              "type": "tuple[]"
            },
            {
              "components": [
                {
                  "internalType": "uint256",
                  "name": "X",
                  "type": "uint256"
                },
                {
                  "internalType": "uint256",
                  "name": "Y",
                  "type": "uint256"
                }
              ],
              "internalType": "struct alt_bn128.G1Point[]",
              "name": "Rs",
              "type": "tuple[]"
            },
            {
              "internalType": "uint256",
              "name": "a",
              "type": "uint256"
            },
            {
              "internalType": "uint256",
              "name": "b",
              "type": "uint256"
            }
          ],
          "internalType": "struct NISA.Proof",
          "name": "p",
          "type": "tuple"
        }
      ],
      "stateMutability": "nonpayable",
      "type": "function"
    },
    {
      "inputs": [
        {
          "components": [
            {
              "internalType": "uint256",
              "name": "X",
              "type": "uint256"
            },
            {
              "internalType": "uint256",
              "name": "Y",
              "type": "uint256"
            }
          ],
          "internalType": "struct alt_bn128.G1Point[]",
          "name": "Gs",
          "type": "tuple[]"
        },
        {
          "components": [
            {
              "internalType": "uint256",
              "name": "X",
              "type": "uint256"
            },
            {
              "internalType": "uint256",
              "name": "Y",
              "type": "uint256"
            }
          ],
          "internalType": "struct alt_bn128.G1Point",
          "name": "u_prime",
          "type": "tuple"
        },
        {
          "internalType": "uint256[]",
          "name": "a",
          "type": "uint256[]"
        },
        {
          "internalType": "uint256[]",
          "name": "b",
          "type": "uint256[]"
        }
      ],
      "name": "loop",
      "outputs": [
        {
          "components": [
            {
              "components": [
                {
                  "internalType": "uint256",
                  "name": "X",
                  "type": "uint256"
                },
                {
                  "internalType": "uint256",
                  "name": "Y",
                  "type": "uint256"
                }
              ],
              "internalType": "struct alt_bn128.G1Point[]",
              "name": "Ls",
              "type": "tuple[]"
            },
            {
              "components": [
                {
                  "internalType": "uint256",
                  "name": "X",
                  "type": "uint256"
                },
                {
                  "internalType": "uint256",
                  "name": "Y",
                  "type": "uint256"
                }
              ],
              "internalType": "struct alt_bn128.G1Point[]",
              "name": "Rs",
              "type": "tuple[]"
            },
            {
              "internalType": "uint256",
              "name": "a",
              "type": "uint256"
            },
            {
              "internalType": "uint256",
              "name": "b",
              "type": "uint256"
            }
          ],
          "internalType": "struct NISA.Proof",
          "name": "",
          "type": "tuple"
        }
      ],
      "stateMutability": "nonpayable",
      "type": "function"
    },
    {
      "inputs": [
        {
          "components": [
            {
              "components": [
                {
                  "internalType": "uint256",
                  "name": "X",
                  "type": "uint256"
                },
                {
                  "internalType": "uint256",
                  "name": "Y",
                  "type": "uint256"
                }
              ],
              "internalType": "struct alt_bn128.G1Point[]",
              "name": "Gs",
              "type": "tuple[]"
            },
            {
              "components": [
                {
                  "internalType": "uint256",
                  "name": "X",
                  "type": "uint256"
                },
                {
                  "internalType": "uint256",
                  "name": "Y",
                  "type": "uint256"
                }
              ],
              "internalType": "struct alt_bn128.G1Point",
              "name": "P",
              "type": "tuple"
            },
            {
              "internalType": "uint256",
              "name": "c",
              "type": "uint256"
            }
          ],
          "internalType": "struct NISA.Param",
          "name": "param",
          "type": "tuple"
        },
        {
          "components": [
            {
              "components": [
                {
                  "internalType": "uint256",
                  "name": "X",
                  "type": "uint256"
                },
                {
                  "internalType": "uint256",
                  "name": "Y",
                  "type": "uint256"
                }
              ],
              "internalType": "struct alt_bn128.G1Point[]",
              "name": "Ls",
              "type": "tuple[]"
            },
            {
              "components": [
                {
                  "internalType": "uint256",
                  "name": "X",
                  "type": "uint256"
                },
                {
                  "internalType": "uint256",
                  "name": "Y",
                  "type": "uint256"
                }
              ],
              "internalType": "struct alt_bn128.G1Point[]",
              "name": "Rs",
              "type": "tuple[]"
            },
            {
              "internalType": "uint256",
              "name": "a",
              "type": "uint256"
            },
            {
              "internalType": "uint256",
              "name": "b",
              "type": "uint256"
            }
          ],
          "internalType": "struct NISA.Proof",
          "name": "p",
          "type": "tuple"
        }
      ],
      "name": "verify",
      "outputs": [
        {
          "internalType": "bool",
          "name": "",
          "type": "bool"
        }
      ],
      "stateMutability": "view",
      "type": "function",
      "constant": true
    }
  ],
  "bytecode": "0x60806040523480156200001157600080fd5b5060004260014362000024919062000416565b4060405160200162000038929190620004a5565b6040516020818303038152906040528051906020012060001c905062000064816200008360201b60201c565b60008082015181600001556020820151816001015590505050620005de565b6200008d6200037f565b60007f30644e72e131a029b85045b68181585d97816a916871ca8d3c208c16d87cfd4783620000bd919062000504565b90506000600182620000d0919062000416565b91506000805b816200024357600184620000eb91906200053c565b93507f30644e72e131a029b85045b68181585d97816a916871ca8d3c208c16d87cfd47806200011f576200011e620004d5565b5b84850990507f30644e72e131a029b85045b68181585d97816a916871ca8d3c208c16d87cfd4780620001565762000155620004d5565b5b84820990507f30644e72e131a029b85045b68181585d97816a916871ca8d3c208c16d87cfd47806200018d576200018c620004d5565b5b6003820890506200020281600460017f30644e72e131a029b85045b68181585d97816a916871ca8d3c208c16d87cfd47620001c991906200053c565b620001d5919062000577565b7f30644e72e131a029b85045b68181585d97816a916871ca8d3c208c16d87cfd476200026360201b60201c565b9250807f30644e72e131a029b85045b68181585d97816a916871ca8d3c208c16d87cfd4780620002375762000236620004d5565b5b848509149150620000d6565b604051806040016040528085815260200184815250945050505050919050565b60006200026f62000399565b62000279620003bb565b602082600060068110620002925762000291620005af565b5b602002018181525050602082600160068110620002b457620002b3620005af565b5b602002018181525050602082600260068110620002d657620002d5620005af565b5b6020020181815250508582600360068110620002f757620002f6620005af565b5b6020020181815250508482600460068110620003185762000317620005af565b5b6020020181815250508382600560068110620003395762000338620005af565b5b60200201818152505060208160c0846005600019fa6200035857600080fd5b806000600181106200036f576200036e620005af565b5b6020020151925050509392505050565b604051806040016040528060008152602001600081525090565b6040518060c00160405280600690602082028036833780820191505090505090565b6040518060200160405280600190602082028036833780820191505090505090565b6000819050919050565b7f4e487b7100000000000000000000000000000000000000000000000000000000600052601160045260246000fd5b60006200042382620003dd565b91506200043083620003dd565b92508282039050818111156200044b576200044a620003e7565b5b92915050565b6000819050919050565b620004706200046a82620003dd565b62000451565b82525050565b6000819050919050565b6000819050919050565b6200049f620004998262000476565b62000480565b82525050565b6000620004b382856200045b565b602082019150620004c582846200048a565b6020820191508190509392505050565b7f4e487b7100000000000000000000000000000000000000000000000000000000600052601260045260246000fd5b60006200051182620003dd565b91506200051e83620003dd565b925082620005315762000530620004d5565b5b828206905092915050565b60006200054982620003dd565b91506200055683620003dd565b9250828201905080821115620005715762000570620003e7565b5b92915050565b60006200058482620003dd565b91506200059183620003dd565b925082620005a457620005a3620004d5565b5b828204905092915050565b7f4e487b7100000000000000000000000000000000000000000000000000000000600052603260045260246000fd5b612c7980620005ee6000396000f3fe608060405234801561001057600080fd5b506004361061007d5760003560e01c8063a0edfd301161005b578063a0edfd3014610112578063b5c5d37a14610142578063ca16068414610172578063f909cb5b146101a25761007d565b80635456bf13146100825780636c468bb5146100b25780636f1f05ed146100e2575b600080fd5b61009c60048036038101906100979190611ea6565b6101d2565b6040516100a99190611ee2565b60405180910390f35b6100cc60048036038101906100c791906121e0565b610206565b6040516100d99190612273565b60405180910390f35b6100fc60048036038101906100f79190612351565b6109be565b6040516101099190612273565b60405180910390f35b61012c6004803603810190610127919061239a565b6109ed565b60405161013991906125ac565b60405180910390f35b61015c60048036038101906101579190612351565b610fde565b604051610169919061261e565b60405180910390f35b61018c60048036038101906101879190612351565b61120f565b60405161019991906125ac565b60405180910390f35b6101bc60048036038101906101b79190612640565b61124a565b6040516101c991906125ac565b60405180910390f35b60005b6001821115610201576001816101eb91906126e7565b90506002826101fa919061274a565b91506101d5565b919050565b60008073__alt_bn128_____________________________63aba8f70685602001516040518263ffffffff1660e01b815260040161024491906127b9565b602060405180830381865af4158015610261573d6000803e3d6000fd5b505050506040513d601f19601f82011682018060405250810190610285919061280a565b73__alt_bn128_____________________________63aba8f70660006040518263ffffffff1660e01b81526004016102bd91906128af565b602060405180830381865af41580156102da573d6000803e3d6000fd5b505050506040513d601f19601f820116820180604052508101906102fe919061280a565b85604001516040516020016103159392919061290c565b6040516020818303038152906040528051906020012060001c9050600061035c600060405180604001604052908160008201548152602001600182015481525050836114b5565b9050600061037b86602001516103768489604001516114b5565b61156d565b9050600061038d8760000151516101d2565b905060008167ffffffffffffffff8111156103ab576103aa611f13565b5b6040519080825280602002602001820160405280156103d95781602001602082028036833780820191505090505b50905060008267ffffffffffffffff8111156103f8576103f7611f13565b5b6040519080825280602002602001820160405280156104265781602001602082028036833780820191505090505b509050600089600001515167ffffffffffffffff81111561044a57610449611f13565b5b6040519080825280602002602001820160405280156104785781602001602082028036833780820191505090505b50905060005b848110156106505773__alt_bn128_____________________________63aba8f7068b6000015183815181106104b7576104b6612949565b5b60200260200101516040518263ffffffff1660e01b81526004016104db91906127b9565b602060405180830381865af41580156104f8573d6000803e3d6000fd5b505050506040513d601f19601f8201168201806040525081019061051c919061280a565b73__alt_bn128_____________________________63aba8f7068c60200151848151811061054d5761054c612949565b5b60200260200101516040518263ffffffff1660e01b815260040161057191906127b9565b602060405180830381865af415801561058e573d6000803e3d6000fd5b505050506040513d601f19601f820116820180604052508101906105b2919061280a565b6040516020016105c3929190612978565b6040516020818303038152906040528051906020012060001c8482815181106105ef576105ee612949565b5b60200260200101818152505061061e84828151811061061157610610612949565b5b6020026020010151611621565b83828151811061063157610630612949565b5b6020026020010181815250508080610648906129a4565b91505061047e565b5060005b8a600001515181101561078357600182828151811061067657610675612949565b5b60200260200101818152505060005b8581101561076f576106978282611779565b156106fe576106da8383815181106106b2576106b1612949565b5b60200260200101518683815181106106cd576106cc612949565b5b602002602001015161178c565b8383815181106106ed576106ec612949565b5b60200260200101818152505061075c565b61073c83838151811061071457610713612949565b5b602002602001015185838151811061072f5761072e612949565b5b602002602001015161178c565b83838151811061074f5761074e612949565b5b6020026020010181815250505b8080610767906129a4565b915050610685565b50808061077b906129a4565b915050610654565b5061078c611d4a565b610794611d4a565b86915060005b86811015610895576108108361080b8e6000015184815181106107c0576107bf612949565b5b60200260200101516108068a86815181106107de576107dd612949565b5b60200260200101518b87815181106107f9576107f8612949565b5b602002602001015161178c565b6114b5565b61156d565b92506108808361087b8e6020015184815181106108305761082f612949565b5b602002602001015161087689868151811061084e5761084d612949565b5b60200260200101518a878151811061086957610868612949565b5b602002602001015161178c565b6114b5565b61156d565b9250808061088d906129a4565b91505061079a565b506108da8c600001516000815181106108b1576108b0612949565b5b6020026020010151846000815181106108cd576108cc612949565b5b60200260200101516114b5565b90506000600190505b8c60000151518110156109505761093b826109368f60000151848151811061090e5761090d612949565b5b602002602001015187858151811061092957610928612949565b5b60200260200101516114b5565b61156d565b91508080610948906129a4565b9150506108e3565b506109918161098c6109826000604051806040016040529081600082015481526020016001820154815250508d6114b5565b8e606001516114b5565b61156d565b90506109a1818c604001516114b5565b90506109ad82826117c8565b995050505050505050505092915050565b6000806109ca83610fde565b905060006109d8828561124a565b90506109e48282610206565b92505050919050565b6109f5611d64565b6001835103610b325760405180608001604052806002805480602002602001604051908101604052809291908181526020016000905b82821015610a7157838290600052602060002090600202016040518060400160405290816000820154815260200160018201548152505081526020019060010190610a2b565b5050505081526020016003805480602002602001604051908101604052809291908181526020016000905b82821015610ae257838290600052602060002090600202016040518060400160405290816000820154815260200160018201548152505081526020019060010190610a9c565b50505050815260200184600081518110610aff57610afe612949565b5b6020026020010151815260200183600081518110610b2057610b1f612949565b5b60200260200101518152509050610fd6565b610b3a611d4a565b610b42611d4a565b610b4e878686896117f0565b8092508193505050600282908060018154018082558091505060019003906000526020600020906002020160009091909190915060008201518160000155602082015181600101555050600381908060018154018082558091505060019003906000526020600020906002020160009091909190915060008201518160000155602082015181600101555050600073__alt_bn128_____________________________63aba8f706846040518263ffffffff1660e01b8152600401610c1391906127b9565b602060405180830381865af4158015610c30573d6000803e3d6000fd5b505050506040513d601f19601f82011682018060405250810190610c54919061280a565b73__alt_bn128_____________________________63aba8f706846040518263ffffffff1660e01b8152600401610c8b91906127b9565b602060405180830381865af4158015610ca8573d6000803e3d6000fd5b505050506040513d601f19601f82011682018060405250810190610ccc919061280a565b604051602001610cdd929190612978565b6040516020818303038152906040528051906020012060001c90506000610d0382611621565b9050600060028851610d15919061274a565b9050610d1f611d8c565b8167ffffffffffffffff811115610d3957610d38611f13565b5b604051908082528060200260200182016040528015610d7257816020015b610d5f611d4a565b815260200190600190039081610d575790505b5081600001819052508167ffffffffffffffff811115610d9557610d94611f13565b5b604051908082528060200260200182016040528015610dc35781602001602082028036833780820191505090505b5081602001819052508167ffffffffffffffff811115610de657610de5611f13565b5b604051908082528060200260200182016040528015610e145781602001602082028036833780820191505090505b50816040018190525060005b82811015610fb457610e83610e4f8d8381518110610e4157610e40612949565b5b6020026020010151866114b5565b610e7e8e8487610e5f91906126e7565b81518110610e7057610e6f612949565b5b6020026020010151886114b5565b61156d565b82600001518281518110610e9a57610e99612949565b5b6020026020010181905250610f00610ecc868c8481518110610ebf57610ebe612949565b5b602002602001015161178c565b610efb868d8588610edd91906126e7565b81518110610eee57610eed612949565b5b602002602001015161178c565b611a4e565b82602001518281518110610f1757610f16612949565b5b602002602001018181525050610f7e610f4a858b8481518110610f3d57610f3c612949565b5b602002602001015161178c565b610f79878c8588610f5b91906126e7565b81518110610f6c57610f6b612949565b5b602002602001015161178c565b611a4e565b82604001518281518110610f9557610f94612949565b5b6020026020010181815250508080610fac906129a4565b915050610e20565b50610fcd81600001518b836020015184604001516109ed565b96505050505050505b949350505050565b610fe6611dad565b600060018351610ff691906129ec565b83511614611039576040517f08c379a000000000000000000000000000000000000000000000000000000000815260040161103090612aa3565b60405180910390fd5b815167ffffffffffffffff81111561105457611053611f13565b5b60405190808252806020026020018201604052801561108d57816020015b61107a611d4a565b8152602001906001900390816110725790505b50816000018190525060005b82518110156110ec576110b76002826110b291906126e7565b611a8a565b826000015182815181106110ce576110cd612949565b5b602002602001018190525080806110e4906129a4565b915050611099565b508160008151811061110157611100612949565b5b6020026020010151816040018181525050611156816000015160008151811061112d5761112c612949565b5b60200260200101518360008151811061114957611148612949565b5b60200260200101516114b5565b81602001819052506000600190505b825181101561120957611196826040015184838151811061118957611188612949565b5b6020026020010151611a4e565b8260400181815250506111ee82602001516111e9846000015184815181106111c1576111c0612949565b5b60200260200101518685815181106111dc576111db612949565b5b60200260200101516114b5565b61156d565b82602001819052508080611201906129a4565b915050611165565b50919050565b611217611d64565b600061122283610fde565b9050600061122f84610fde565b9050600061123d838661124a565b9050809350505050919050565b611252611d64565b60006001835161126291906129ec565b835116146112a5576040517f08c379a000000000000000000000000000000000000000000000000000000000815260040161129c90612aa3565b60405180910390fd5b60006112b183516101d2565b9050600073__alt_bn128_____________________________63aba8f70686602001516040518263ffffffff1660e01b81526004016112f091906127b9565b602060405180830381865af415801561130d573d6000803e3d6000fd5b505050506040513d601f19601f82011682018060405250810190611331919061280a565b73__alt_bn128_____________________________63aba8f70660006040518263ffffffff1660e01b815260040161136991906128af565b602060405180830381865af4158015611386573d6000803e3d6000fd5b505050506040513d601f19601f820116820180604052508101906113aa919061280a565b86604001516040516020016113c19392919061290c565b6040516020818303038152906040528051906020012060001c90506000611408600060405180604001604052908160008201548152602001600182015481525050836114b5565b90506000855167ffffffffffffffff81111561142757611426611f13565b5b6040519080825280602002602001820160405280156114555781602001602082028036833780820191505090505b50905060005b815181101561149857600182828151811061147957611478612949565b5b6020026020010181815250508080611490906129a4565b91505061145b565b506114a987600001518388846109ed565b94505050505092915050565b6114bd611d4a565b600182036114cd57829050611567565b600282036114e6576114df838461156d565b9050611567565b6114ee611dd4565b83600001518160006003811061150757611506612949565b5b60200201818152505083602001518160016003811061152957611528612949565b5b602002018181525050828160026003811061154757611546612949565b5b6020020181815250506040826060836007600019fa61156557600080fd5b505b92915050565b611575611d4a565b61157d611df6565b83600001518160006004811061159657611595612949565b5b6020020181815250508360200151816001600481106115b8576115b7612949565b5b6020020181815250508260000151816002600481106115da576115d9612949565b5b6020020181815250508260200151816003600481106115fc576115fb612949565b5b6020020181815250506040826080836006600019fa61161a57600080fd5b5092915050565b60008082905060008103611639576000915050611774565b7f30644e72e131a029b85045b68181585d2833e84879b9709143e1f593f0000001811115611690577f30644e72e131a029b85045b68181585d2833e84879b9709143e1f593f00000018161168d9190612ac3565b90505b6000806001905060007f30644e72e131a029b85045b68181585d2833e84879b9709143e1f593f00000019050600084905060005b6000821461171f5781836116d8919061274a565b90508384826116e79190612afe565b866116f29190612b76565b8384846116ff9190612bb9565b8661170a91906129ec565b809550819650829750839850505050506116c4565b600085121561176a578461173290612bfb565b7f30644e72e131a029b85045b68181585d2833e84879b9709143e1f593f000000161175d91906129ec565b9650505050505050611774565b8496505050505050505b919050565b60006001808385901c1614905092915050565b60007f30644e72e131a029b85045b68181585d2833e84879b9709143e1f593f0000001806117bd576117bc61271b565b5b828409905092915050565b6000816000015183600001511480156117e8575081602001518360200151145b905092915050565b6117f8611d4a565b611800611d4a565b600060028651611810919061274a565b905060006118538760008151811061182b5761182a612949565b5b602002602001015187848151811061184657611845612949565b5b602002602001015161178c565b9050600061189688848151811061186d5761186c612949565b5b60200260200101518860008151811061188957611888612949565b5b602002602001015161178c565b90506000600190505b83811015611962576118f9836118f48b84815181106118c1576118c0612949565b5b60200260200101518b85896118d691906126e7565b815181106118e7576118e6612949565b5b602002602001015161178c565b611a4e565b925061194d826119488b848861190f91906126e7565b815181106119205761191f612949565b5b60200260200101518b858151811061193b5761193a612949565b5b602002602001015161178c565b611a4e565b9150808061195a906129a4565b91505061189f565b5061196d86836114b5565b945061197986826114b5565b935060005b83811015611a41576119d8866119d38c848861199a91906126e7565b815181106119ab576119aa612949565b5b60200260200101518c85815181106119c6576119c5612949565b5b60200260200101516114b5565b61156d565b9550611a2c85611a278c84815181106119f4576119f3612949565b5b60200260200101518c8589611a0991906126e7565b81518110611a1a57611a19612949565b5b60200260200101516114b5565b61156d565b94508080611a39906129a4565b91505061197e565b5050505094509492505050565b60007f30644e72e131a029b85045b68181585d2833e84879b9709143e1f593f000000180611a7f57611a7e61271b565b5b828408905092915050565b611a92611d4a565b60007f30644e72e131a029b85045b68181585d97816a916871ca8d3c208c16d87cfd4783611ac09190612ac3565b90506000600182611ad191906129ec565b91506000805b81611c2857600184611ae991906126e7565b93507f30644e72e131a029b85045b68181585d97816a916871ca8d3c208c16d87cfd4780611b1a57611b1961271b565b5b84850990507f30644e72e131a029b85045b68181585d97816a916871ca8d3c208c16d87cfd4780611b4e57611b4d61271b565b5b84820990507f30644e72e131a029b85045b68181585d97816a916871ca8d3c208c16d87cfd4780611b8257611b8161271b565b5b600382089050611beb81600460017f30644e72e131a029b85045b68181585d97816a916871ca8d3c208c16d87cfd47611bbb91906126e7565b611bc5919061274a565b7f30644e72e131a029b85045b68181585d97816a916871ca8d3c208c16d87cfd47611c48565b9250807f30644e72e131a029b85045b68181585d97816a916871ca8d3c208c16d87cfd4780611c1d57611c1c61271b565b5b848509149150611ad7565b604051806040016040528085815260200184815250945050505050919050565b6000611c52611e18565b611c5a611e3a565b602082600060068110611c7057611c6f612949565b5b602002018181525050602082600160068110611c8f57611c8e612949565b5b602002018181525050602082600260068110611cae57611cad612949565b5b6020020181815250508582600360068110611ccc57611ccb612949565b5b6020020181815250508482600460068110611cea57611ce9612949565b5b6020020181815250508382600560068110611d0857611d07612949565b5b60200201818152505060208160c0846005600019fa611d2657600080fd5b80600060018110611d3a57611d39612949565b5b6020020151925050509392505050565b604051806040016040528060008152602001600081525090565b6040518060800160405280606081526020016060815260200160008152602001600081525090565b60405180606001604052806060815260200160608152602001606081525090565b604051806060016040528060608152602001611dc7611d4a565b8152602001600081525090565b6040518060600160405280600390602082028036833780820191505090505090565b6040518060800160405280600490602082028036833780820191505090505090565b6040518060c00160405280600690602082028036833780820191505090505090565b6040518060200160405280600190602082028036833780820191505090505090565b6000604051905090565b600080fd5b600080fd5b6000819050919050565b611e8381611e70565b8114611e8e57600080fd5b50565b600081359050611ea081611e7a565b92915050565b600060208284031215611ebc57611ebb611e66565b5b6000611eca84828501611e91565b91505092915050565b611edc81611e70565b82525050565b6000602082019050611ef76000830184611ed3565b92915050565b600080fd5b6000601f19601f8301169050919050565b7f4e487b7100000000000000000000000000000000000000000000000000000000600052604160045260246000fd5b611f4b82611f02565b810181811067ffffffffffffffff82111715611f6a57611f69611f13565b5b80604052505050565b6000611f7d611e5c565b9050611f898282611f42565b919050565b600080fd5b600080fd5b600067ffffffffffffffff821115611fb357611fb2611f13565b5b602082029050602081019050919050565b600080fd5b600060408284031215611fdf57611fde611efd565b5b611fe96040611f73565b90506000611ff984828501611e91565b600083015250602061200d84828501611e91565b60208301525092915050565b600061202c61202784611f98565b611f73565b9050808382526020820190506040840283018581111561204f5761204e611fc4565b5b835b8181101561207857806120648882611fc9565b845260208401935050604081019050612051565b5050509392505050565b600082601f83011261209757612096611f93565b5b81356120a7848260208601612019565b91505092915050565b6000608082840312156120c6576120c5611efd565b5b6120d06060611f73565b9050600082013567ffffffffffffffff8111156120f0576120ef611f8e565b5b6120fc84828501612082565b600083015250602061211084828501611fc9565b602083015250606061212484828501611e91565b60408301525092915050565b60006080828403121561214657612145611efd565b5b6121506080611f73565b9050600082013567ffffffffffffffff8111156121705761216f611f8e565b5b61217c84828501612082565b600083015250602082013567ffffffffffffffff8111156121a05761219f611f8e565b5b6121ac84828501612082565b60208301525060406121c084828501611e91565b60408301525060606121d484828501611e91565b60608301525092915050565b600080604083850312156121f7576121f6611e66565b5b600083013567ffffffffffffffff81111561221557612214611e6b565b5b612221858286016120b0565b925050602083013567ffffffffffffffff81111561224257612241611e6b565b5b61224e85828601612130565b9150509250929050565b60008115159050919050565b61226d81612258565b82525050565b60006020820190506122886000830184612264565b92915050565b600067ffffffffffffffff8211156122a9576122a8611f13565b5b602082029050602081019050919050565b60006122cd6122c88461228e565b611f73565b905080838252602082019050602084028301858111156122f0576122ef611fc4565b5b835b8181101561231957806123058882611e91565b8452602084019350506020810190506122f2565b5050509392505050565b600082601f83011261233857612337611f93565b5b81356123488482602086016122ba565b91505092915050565b60006020828403121561236757612366611e66565b5b600082013567ffffffffffffffff81111561238557612384611e6b565b5b61239184828501612323565b91505092915050565b60008060008060a085870312156123b4576123b3611e66565b5b600085013567ffffffffffffffff8111156123d2576123d1611e6b565b5b6123de87828801612082565b94505060206123ef87828801611fc9565b935050606085013567ffffffffffffffff8111156124105761240f611e6b565b5b61241c87828801612323565b925050608085013567ffffffffffffffff81111561243d5761243c611e6b565b5b61244987828801612323565b91505092959194509250565b600081519050919050565b600082825260208201905092915050565b6000819050602082019050919050565b61248a81611e70565b82525050565b6040820160008201516124a66000850182612481565b5060208201516124b96020850182612481565b50505050565b60006124cb8383612490565b60408301905092915050565b6000602082019050919050565b60006124ef82612455565b6124f98185612460565b935061250483612471565b8060005b8381101561253557815161251c88826124bf565b9750612527836124d7565b925050600181019050612508565b5085935050505092915050565b6000608083016000830151848203600086015261255f82826124e4565b9150506020830151848203602086015261257982826124e4565b915050604083015161258e6040860182612481565b5060608301516125a16060860182612481565b508091505092915050565b600060208201905081810360008301526125c68184612542565b905092915050565b600060808301600083015184820360008601526125eb82826124e4565b91505060208301516126006020860182612490565b5060408301516126136060860182612481565b508091505092915050565b6000602082019050818103600083015261263881846125ce565b905092915050565b6000806040838503121561265757612656611e66565b5b600083013567ffffffffffffffff81111561267557612674611e6b565b5b612681858286016120b0565b925050602083013567ffffffffffffffff8111156126a2576126a1611e6b565b5b6126ae85828601612323565b9150509250929050565b7f4e487b7100000000000000000000000000000000000000000000000000000000600052601160045260246000fd5b60006126f282611e70565b91506126fd83611e70565b9250828201905080821115612715576127146126b8565b5b92915050565b7f4e487b7100000000000000000000000000000000000000000000000000000000600052601260045260246000fd5b600061275582611e70565b915061276083611e70565b9250826127705761276f61271b565b5b828204905092915050565b61278481611e70565b82525050565b6040820160008201516127a0600085018261277b565b5060208201516127b3602085018261277b565b50505050565b60006040820190506127ce600083018461278a565b92915050565b6000819050919050565b6127e7816127d4565b81146127f257600080fd5b50565b600081519050612804816127de565b92915050565b6000602082840312156128205761281f611e66565b5b600061282e848285016127f5565b91505092915050565b60008160001c9050919050565b6000819050919050565b600061286161285c83612837565b612844565b9050919050565b60408201600080830154905061287d8161284e565b61288a600086018261277b565b506001830154905061289b8161284e565b6128a8602086018261277b565b5050505050565b60006040820190506128c46000830184612868565b92915050565b6000819050919050565b6128e56128e0826127d4565b6128ca565b82525050565b6000819050919050565b61290661290182611e70565b6128eb565b82525050565b600061291882866128d4565b60208201915061292882856128d4565b60208201915061293882846128f5565b602082019150819050949350505050565b7f4e487b7100000000000000000000000000000000000000000000000000000000600052603260045260246000fd5b600061298482856128d4565b60208201915061299482846128d4565b6020820191508190509392505050565b60006129af82611e70565b91507fffffffffffffffffffffffffffffffffffffffffffffffffffffffffffffffff82036129e1576129e06126b8565b5b600182019050919050565b60006129f782611e70565b9150612a0283611e70565b9250828203905081811115612a1a57612a196126b8565b5b92915050565b600082825260208201905092915050565b7f766563746f72206c656e6774682073686f756c64206265206120706f7765722060008201527f6f66203200000000000000000000000000000000000000000000000000000000602082015250565b6000612a8d602483612a20565b9150612a9882612a31565b604082019050919050565b60006020820190508181036000830152612abc81612a80565b9050919050565b6000612ace82611e70565b9150612ad983611e70565b925082612ae957612ae861271b565b5b828206905092915050565b6000819050919050565b6000612b0982612af4565b9150612b1483612af4565b9250828202612b2281612af4565b91507f80000000000000000000000000000000000000000000000000000000000000008414600084121615612b5a57612b596126b8565b5b8282058414831517612b6f57612b6e6126b8565b5b5092915050565b6000612b8182612af4565b9150612b8c83612af4565b9250828203905081811260008412168282136000851215161715612bb357612bb26126b8565b5b92915050565b6000612bc482611e70565b9150612bcf83611e70565b9250828202612bdd81611e70565b91508282048414831517612bf457612bf36126b8565b5b5092915050565b6000612c0682612af4565b91507f80000000000000000000000000000000000000000000000000000000000000008203612c3857612c376126b8565b5b81600003905091905056fea2646970667358221220c07c0dc6dd7a5762996574d2f692286ccc2bd3a22a72fe89019e5f8dd2322b9164736f6c63430008130033",
  "immutableReferences": {},
  "source": "// SPDX-License-Identifier: GPL-3.0\npragma solidity >=0.4.0 <0.9.0;\n\nimport \"./alt_bn128.sol\";\n\ncontract NISA{\n\tusing alt_bn128 for uint256;\n\tusing alt_bn128 for alt_bn128.G1Point;\n\n\tstruct Proof {\n\t\talt_bn128.G1Point[] Ls;\n\t\talt_bn128.G1Point[] Rs;\n\t\tuint256 a;\n\t\tuint256 b;\n\t}\n\n\talt_bn128.G1Point u; // random generator\n\tstruct Param {\n\t\talt_bn128.G1Point[] Gs; \n\t\talt_bn128.G1Point P; \n\t\tuint256 c;\n\t}\n\t// struct Var {\n\t// \talt_bn128.G1Point[] Ls;\n\t// \talt_bn128.G1Point[] Rs;\n\t// }\n\n\talt_bn128.G1Point[] Ls;\n\talt_bn128.G1Point[] Rs;\n\n\tconstructor() {\n\t\tuint256 seed = uint256(keccak256(abi.encodePacked(block.timestamp, blockhash(block.number - 1))));\n\t\tu = alt_bn128.uintToCurvePoint(seed);\n\t}\n\n\t/** generate public keys or curve points */\n\t// function generate(uint count) internal view returns (alt_bn128.G1Point[] memory Gs){\n\t// \tGs = new alt_bn128.G1Point[](count);\n\t// \tfor (uint256 i = 0; i < count; i++){\n\t// \t\tGs[i] = alt_bn128.uintToCurvePoint(i+2);\n\t// \t}\n\t// }\n\n\tfunction generateParam(uint256[] memory a) public view returns (Param memory param){\n\t\trequire(a.length & (a.length - 1) == 0, \"vector length should be a power of 2\");\n\t\tparam.Gs = new alt_bn128.G1Point[](a.length);\n\t\tfor (uint256 i = 0; i < a.length; i++){\n\t\t\tparam.Gs[i] = alt_bn128.uintToCurvePoint(i+2);\n\t\t}\n\t\tparam.c = a[0];\n\t\tparam.P = alt_bn128.mul(param.Gs[0], a[0]);\n\t\tfor (uint i = 1; i < a.length; i++){\n\t\t\tparam.c = alt_bn128.add(param.c, a[i]);\n\t\t\tparam.P = alt_bn128.add(param.P, alt_bn128.mul(param.Gs[i], a[i]));\n\t\t}\n\t}\n\n\tfunction log2(uint n) public pure returns (uint ndigits){\n\t\tndigits = 0;\n\t\twhile (n > 1){\n\t\t\tndigits += 1;\n\t\t\tn = n/2;\n\t\t}\n\t}\n\n\tfunction test(uint256[] memory a) public returns (Proof memory) {\n\t\tParam memory param = generateParam(a);\n\t\tParam memory sec = generateParam(a); // second copy\n\t\tProof memory p = prove(param, a);\n\t\t// return verify(sec, p);\n\t\treturn p;\n\t}\n\n\tfunction test2(uint256[] memory a) public returns (bool) {\n\t\tParam memory param = generateParam(a);\n\t\t// Param memory sec = generateParam(a); // second copy\n\t\tProof memory p = prove(param, a);\n\t\treturn verify(param, p);\n\t}\n\n\t/** Gs : public keys\n\t\tP : prod_i (g_i ^ a_i)\n\t\tc : sum_i a_i\n\t */\n\tfunction prove(Param memory param, uint256[] memory a) public\n\treturns (Proof memory p){\n\t\trequire(a.length & (a.length - 1) == 0, \"vector length should be a power of 2\");\n\n\t\tuint length = log2(a.length);\n\t\t// Var memory v;\n\t\t// v.Ls = new alt_bn128.G1Point[](length);\n\t\t// v.Rs = new alt_bn128.G1Point[](length);\n\n\t\tuint256 H_z = uint256(keccak256(abi.encodePacked(alt_bn128.serialize(param.P), alt_bn128.serialize(u), param.c)));\n\t\t\n\t\talt_bn128.G1Point memory u_prime = alt_bn128.mul(u, H_z);\n\n\t\tuint256[] memory b = new uint256[](a.length);\n\t\t// alt_bn128.G1Point[] memory Gs = new alt_bn128.G1Point[](a.length);\n\t\tfor (uint i = 0; i < b.length; i++){\n\t\t\tb[i] = 1;\n\t\t\t// Gs[i] = param.Gs[i];\n\t\t}\n\t\t// uint256 x;\n\n\t\t// alt_bn128.G1Point memory L;\n\t\t// alt_bn128.G1Point memory R;\n\n\t\t// O(logn) loop\n\t\t// for (uint idx = 0; idx < length; idx++){\n\n\t\t// \t// L && R\n\t\t// \t(L, R) = LR(Gs, a, b, u_prime);\n\t\t// \t// v.Ls[idx] = L; v.Rs[idx] = R;\n\n\t\t\t\n\t\t// \tx = uint256(keccak256(abi.encodePacked(alt_bn128.serialize(L), alt_bn128.serialize(R))));\n\n\t\t// \t// half size\n\t\t// \t(Gs, a, b) = nextRound(Gs, a, b, x);\n\t\t// }\n\n\t\t// p = Proof(v.Ls, v.Rs, a[0], b[0]);\n\t\tp = loop(param.Gs, u_prime, a, b);\n\t}\n\n\tstruct board {\n\t\talt_bn128.G1Point[] Gs_new;\n\t\tuint256[] a_new;\n\t\tuint256[] b_new;\n\t}\n\n\tfunction loop(alt_bn128.G1Point[] memory Gs, alt_bn128.G1Point memory u_prime, uint256[] memory a, uint256[] memory b) public returns (Proof memory){\n\t\tif (a.length == 1) {\n\t\t\treturn Proof(Ls, Rs, a[0], b[0]);\n\t\t}\n\t\talt_bn128.G1Point memory L;\n\t\talt_bn128.G1Point memory R;\n\t\t(L, R) = LR(Gs, a, b, u_prime);\n\t\tLs.push(L); Rs.push(R);\n\n\t\tuint256 x = uint256(keccak256(abi.encodePacked(alt_bn128.serialize(L), alt_bn128.serialize(R))));\n\t\tuint256 x_inv = alt_bn128.inv(x);\n\n\t\tuint n = a.length / 2;\n\n\t\tboard memory bd;\n\t\tbd.Gs_new = new alt_bn128.G1Point[](n);\n\t\tbd.a_new = new uint256[](n);\n\t\tbd.b_new = new uint256[](n);\n\n\t\tfor (uint i = 0; i < n; i++){\n\t\t\tbd.Gs_new[i] = alt_bn128.add(alt_bn128.mul(Gs[i], x_inv), alt_bn128.mul(Gs[n+i], x));\n\t\t\tbd.a_new[i] = alt_bn128.add(alt_bn128.mul(x, a[i]), alt_bn128.mul(x_inv, a[n+i]));\n\t\t\tbd.b_new[i] = alt_bn128.add(alt_bn128.mul(x_inv, b[i]), alt_bn128.mul(x, b[n+i]));\n\t\t}\n\t\treturn loop(bd.Gs_new, u_prime, bd.a_new, bd.b_new);\n\t}\n\n\tfunction LR(alt_bn128.G1Point[] memory Gs, uint256[] memory a, uint256[] memory b, alt_bn128.G1Point memory u_prime) internal view \n\treturns (alt_bn128.G1Point memory L, alt_bn128.G1Point memory R) {\n\t\tuint n = a.length / 2;\n\t\tuint256 cL = alt_bn128.mul(a[0], b[n]);\n\t\tuint256 cR = alt_bn128.mul(a[n], b[0]);\n\t\tfor (uint i = 1; i < n; i++){\n\t\t\tcL = alt_bn128.add(cL, alt_bn128.mul(a[i], b[n+i]));\n\t\t\tcR = alt_bn128.add(cR, alt_bn128.mul(a[n+i], b[i]));\n\t\t}\n\n\t\tL = alt_bn128.mul(u_prime, cL);\n\t\tR = alt_bn128.mul(u_prime, cR);\n\n\t\tfor (uint i = 0; i < n; i++){\n\t\t\tL = alt_bn128.add(L, alt_bn128.mul(Gs[n+i], a[i]));\n\t\t\tR = alt_bn128.add(R, alt_bn128.mul(Gs[i], a[n+i]));\n\t\t}\n\t}\n\n\tfunction nextRound(alt_bn128.G1Point[] memory Gs, uint256[] memory a, uint256[] memory b, uint256 x) internal view returns (alt_bn128.G1Point[] memory Gs_new, uint256[] memory a_new, uint256[] memory b_new)\n\t{\n\t\tuint n = a.length / 2;\n\n\t\tuint256 x_inv = alt_bn128.inv(x);\n\n\t\tGs_new = new alt_bn128.G1Point[](n);\n\t\ta_new = new uint256[](n);\n\t\tb_new = new uint256[](n);\n\n\t\tfor (uint i = 0; i < n; i++){\n\t\t\tGs_new[i] = alt_bn128.add(alt_bn128.mul(Gs[i], x_inv), alt_bn128.mul(Gs[n+i], x));\n\t\t\ta_new[i] = alt_bn128.add(alt_bn128.mul(x, a[i]), alt_bn128.mul(x_inv, a[n+i]));\n\t\t\tb_new[i] = alt_bn128.add(alt_bn128.mul(x_inv, b[i]), alt_bn128.mul(x, b[n+i]));\n\t\t}\n\t}\n\n\tfunction verify(Param memory param, Proof memory p) public view \n\treturns (bool){\n\t\tuint256 H_z = uint256(keccak256(abi.encodePacked(alt_bn128.serialize(param.P), alt_bn128.serialize(u), param.c)));\n\n\t\talt_bn128.G1Point memory u_prime = alt_bn128.mul(u, H_z);\n\t\t\n\t\talt_bn128.G1Point memory P_prime = alt_bn128.add(param.P, alt_bn128.mul(u_prime, param.c));\n\n\t\tuint length = log2(param.Gs.length);\n\n\t\tuint256[] memory xs = new uint256[](length);\n\t\tuint256[] memory xs_inv = new uint256[](length);\n\t\tuint256[] memory ys = new uint256[](param.Gs.length);\n\n\t\tfor (uint i = 0; i < length; i++){\n\t\t\txs[i] = uint256(keccak256(abi.encodePacked(alt_bn128.serialize(p.Ls[i]), alt_bn128.serialize(p.Rs[i]))));\n\t\t\txs_inv[i] = alt_bn128.inv(xs[i]);\n\t\t}\n\n\t\tfor (uint i = 0; i < param.Gs.length; i++){\n\t\t\tys[i] = 1;\n\t\t\tfor (uint j = 0; j < length; j++){\n\t\t\t\tif (check_bit(i, j)){\n\t\t\t\t\tys[i] = alt_bn128.mul(ys[i], xs[j]);\n\t\t\t\t} else {\n\t\t\t\t\tys[i] = alt_bn128.mul(ys[i], xs_inv[j]);\n\t\t\t\t}\n\t\t\t}\n\t\t}\n\n\t\t// verify\n\t\talt_bn128.G1Point memory left_point;\n\t\talt_bn128.G1Point memory right_point;\n\n\t\tleft_point = P_prime;\n\t\tfor (uint i = 0; i < length; i++){\n\t\t\tleft_point = alt_bn128.add(left_point, \n\t\t\t\t\t\t\talt_bn128.mul(p.Ls[i], alt_bn128.mul(xs[i], xs[i]))\n\t\t\t\t\t\t);\n\t\t\tleft_point = alt_bn128.add(left_point, \n\t\t\t\t\t\t\talt_bn128.mul(p.Rs[i], alt_bn128.mul(xs_inv[i], xs_inv[i]))\n\t\t\t\t\t\t);\n\t\t}\n\n\t\tright_point = alt_bn128.mul(param.Gs[0], ys[0]);\n\t\tfor (uint i = 1; i < param.Gs.length; i++){\n\t\t\tright_point = alt_bn128.add(right_point, alt_bn128.mul(param.Gs[i], ys[i]));\n\t\t}\n\t\tright_point = alt_bn128.add(right_point, alt_bn128.mul(alt_bn128.mul(u, H_z), p.b));\n\t\tright_point = alt_bn128.mul(right_point, p.a);\n\n\t\treturn alt_bn128.eq(left_point, right_point);\n\t}\n\n\tfunction check_bit(uint i, uint j) internal pure returns (bool){\n\t\treturn ((i >> j) & 1) == 1;\n\t}\n}",
  "sourcePath": "/Users/qian/Desktop/Y4/COMP4550/ZKP-Blockchain/contracts/nisa.sol",
  "compiler": {
    "name": "solc",
    "version": "0.8.19+commit.7dd6d404.Emscripten.clang"
  },
  "schemaVersion": "3.4.13",
  "updatedAt": "2023-04-05T14:15:36.645Z",
  "networkType": "ethereum",
  "devdoc": {
    "kind": "dev",
    "methods": {},
    "version": 1
  },
  "userdoc": {
    "kind": "user",
    "methods": {
      "generateParam(uint256[])": {
        "notice": "generate public keys or curve points "
      },
      "prove(((uint256,uint256)[],(uint256,uint256),uint256),uint256[])": {
        "notice": "Gs : public keys P : prod_i (g_i ^ a_i) c : sum_i a_i"
      }
    },
    "version": 1
  }
}