{
  "contractName": "NISA",
  "abi": [
    {
      "inputs": [],
      "stateMutability": "nonpayable",
      "type": "constructor"
    },
    {
      "inputs": [
        {
          "internalType": "uint256[]",
          "name": "a",
          "type": "uint256[]"
        }
      ],
      "name": "test",
      "outputs": [
        {
          "internalType": "bool",
          "name": "",
          "type": "bool"
        }
      ],
      "stateMutability": "view",
      "type": "function",
      "constant": true
    },
    {
      "inputs": [
        {
          "components": [
            {
              "components": [
                {
                  "internalType": "uint256",
                  "name": "X",
                  "type": "uint256"
                },
                {
                  "internalType": "uint256",
                  "name": "Y",
                  "type": "uint256"
                }
              ],
              "internalType": "struct alt_bn128.G1Point[]",
              "name": "Gs",
              "type": "tuple[]"
            },
            {
              "components": [
                {
                  "internalType": "uint256",
                  "name": "X",
                  "type": "uint256"
                },
                {
                  "internalType": "uint256",
                  "name": "Y",
                  "type": "uint256"
                }
              ],
              "internalType": "struct alt_bn128.G1Point",
              "name": "P",
              "type": "tuple"
            },
            {
              "internalType": "uint256",
              "name": "c",
              "type": "uint256"
            }
          ],
          "internalType": "struct NISA.Param",
          "name": "param",
          "type": "tuple"
        },
        {
          "internalType": "uint256[]",
          "name": "a",
          "type": "uint256[]"
        }
      ],
      "name": "prove",
      "outputs": [
        {
          "components": [
            {
              "components": [
                {
                  "internalType": "uint256",
                  "name": "X",
                  "type": "uint256"
                },
                {
                  "internalType": "uint256",
                  "name": "Y",
                  "type": "uint256"
                }
              ],
              "internalType": "struct alt_bn128.G1Point[]",
              "name": "Ls",
              "type": "tuple[]"
            },
            {
              "components": [
                {
                  "internalType": "uint256",
                  "name": "X",
                  "type": "uint256"
                },
                {
                  "internalType": "uint256",
                  "name": "Y",
                  "type": "uint256"
                }
              ],
              "internalType": "struct alt_bn128.G1Point[]",
              "name": "Rs",
              "type": "tuple[]"
            },
            {
              "internalType": "uint256",
              "name": "a",
              "type": "uint256"
            },
            {
              "internalType": "uint256",
              "name": "b",
              "type": "uint256"
            }
          ],
          "internalType": "struct NISA.Proof",
          "name": "p",
          "type": "tuple"
        }
      ],
      "stateMutability": "view",
      "type": "function",
      "constant": true
    },
    {
      "inputs": [
        {
          "components": [
            {
              "components": [
                {
                  "internalType": "uint256",
                  "name": "X",
                  "type": "uint256"
                },
                {
                  "internalType": "uint256",
                  "name": "Y",
                  "type": "uint256"
                }
              ],
              "internalType": "struct alt_bn128.G1Point[]",
              "name": "Gs",
              "type": "tuple[]"
            },
            {
              "components": [
                {
                  "internalType": "uint256",
                  "name": "X",
                  "type": "uint256"
                },
                {
                  "internalType": "uint256",
                  "name": "Y",
                  "type": "uint256"
                }
              ],
              "internalType": "struct alt_bn128.G1Point",
              "name": "P",
              "type": "tuple"
            },
            {
              "internalType": "uint256",
              "name": "c",
              "type": "uint256"
            }
          ],
          "internalType": "struct NISA.Param",
          "name": "param",
          "type": "tuple"
        },
        {
          "components": [
            {
              "components": [
                {
                  "internalType": "uint256",
                  "name": "X",
                  "type": "uint256"
                },
                {
                  "internalType": "uint256",
                  "name": "Y",
                  "type": "uint256"
                }
              ],
              "internalType": "struct alt_bn128.G1Point[]",
              "name": "Ls",
              "type": "tuple[]"
            },
            {
              "components": [
                {
                  "internalType": "uint256",
                  "name": "X",
                  "type": "uint256"
                },
                {
                  "internalType": "uint256",
                  "name": "Y",
                  "type": "uint256"
                }
              ],
              "internalType": "struct alt_bn128.G1Point[]",
              "name": "Rs",
              "type": "tuple[]"
            },
            {
              "internalType": "uint256",
              "name": "a",
              "type": "uint256"
            },
            {
              "internalType": "uint256",
              "name": "b",
              "type": "uint256"
            }
          ],
          "internalType": "struct NISA.Proof",
          "name": "p",
          "type": "tuple"
        }
      ],
      "name": "verify",
      "outputs": [
        {
          "internalType": "bool",
          "name": "",
          "type": "bool"
        }
      ],
      "stateMutability": "view",
      "type": "function",
      "constant": true
    }
  ],
  "bytecode": "0x60806040523480156200001157600080fd5b5060004260014362000024919062000416565b4060405160200162000038929190620004a5565b6040516020818303038152906040528051906020012060001c905062000064816200008360201b60201c565b60008082015181600001556020820151816001015590505050620005de565b6200008d6200037f565b60007f30644e72e131a029b85045b68181585d97816a916871ca8d3c208c16d87cfd4783620000bd919062000504565b90506000600182620000d0919062000416565b91506000805b816200024357600184620000eb91906200053c565b93507f30644e72e131a029b85045b68181585d97816a916871ca8d3c208c16d87cfd47806200011f576200011e620004d5565b5b84850990507f30644e72e131a029b85045b68181585d97816a916871ca8d3c208c16d87cfd4780620001565762000155620004d5565b5b84820990507f30644e72e131a029b85045b68181585d97816a916871ca8d3c208c16d87cfd47806200018d576200018c620004d5565b5b6003820890506200020281600460017f30644e72e131a029b85045b68181585d97816a916871ca8d3c208c16d87cfd47620001c991906200053c565b620001d5919062000577565b7f30644e72e131a029b85045b68181585d97816a916871ca8d3c208c16d87cfd476200026360201b60201c565b9250807f30644e72e131a029b85045b68181585d97816a916871ca8d3c208c16d87cfd4780620002375762000236620004d5565b5b848509149150620000d6565b604051806040016040528085815260200184815250945050505050919050565b60006200026f62000399565b62000279620003bb565b602082600060068110620002925762000291620005af565b5b602002018181525050602082600160068110620002b457620002b3620005af565b5b602002018181525050602082600260068110620002d657620002d5620005af565b5b6020020181815250508582600360068110620002f757620002f6620005af565b5b6020020181815250508482600460068110620003185762000317620005af565b5b6020020181815250508382600560068110620003395762000338620005af565b5b60200201818152505060208160c0846005600019fa6200035857600080fd5b806000600181106200036f576200036e620005af565b5b6020020151925050509392505050565b604051806040016040528060008152602001600081525090565b6040518060c00160405280600690602082028036833780820191505090505090565b6040518060200160405280600190602082028036833780820191505090505090565b6000819050919050565b7f4e487b7100000000000000000000000000000000000000000000000000000000600052601160045260246000fd5b60006200042382620003dd565b91506200043083620003dd565b92508282039050818111156200044b576200044a620003e7565b5b92915050565b6000819050919050565b620004706200046a82620003dd565b62000451565b82525050565b6000819050919050565b6000819050919050565b6200049f620004998262000476565b62000480565b82525050565b6000620004b382856200045b565b602082019150620004c582846200048a565b6020820191508190509392505050565b7f4e487b7100000000000000000000000000000000000000000000000000000000600052601260045260246000fd5b60006200051182620003dd565b91506200051e83620003dd565b925082620005315762000530620004d5565b5b828206905092915050565b60006200054982620003dd565b91506200055683620003dd565b9250828201905080821115620005715762000570620003e7565b5b92915050565b60006200058482620003dd565b91506200059183620003dd565b925082620005a457620005a3620004d5565b5b828204905092915050565b7f4e487b7100000000000000000000000000000000000000000000000000000000600052603260045260246000fd5b6129c880620005ee6000396000f3fe608060405234801561001057600080fd5b50600436106100415760003560e01c80636c468bb514610046578063ca16068414610076578063f909cb5b146100a6575b600080fd5b610060600480360381019061005b919061205c565b6100d6565b60405161006d91906120ef565b60405180910390f35b610090600480360381019061008b91906121cd565b6108b6565b60405161009d91906120ef565b60405180910390f35b6100c060048036038101906100bb9190612216565b6108e5565b6040516100cd91906123e5565b60405180910390f35b60008073__alt_bn128_____________________________63aba8f70685602001516040518263ffffffff1660e01b81526004016101149190612445565b602060405180830381865af4158015610131573d6000803e3d6000fd5b505050506040513d601f19601f820116820180604052508101906101559190612496565b73__alt_bn128_____________________________63aba8f70660006040518263ffffffff1660e01b815260040161018d919061253b565b602060405180830381865af41580156101aa573d6000803e3d6000fd5b505050506040513d601f19601f820116820180604052508101906101ce9190612496565b85604001516040516020016101e593929190612598565b6040516020818303038152906040528051906020012060001c90506000610246856020015161024160006040518060400160405290816000820154815260200160018201548152505061023c896040015187610e9c565b610ed8565b610f90565b90506000610258866000015151611044565b905060008167ffffffffffffffff81111561027657610275611d59565b5b6040519080825280602002602001820160405280156102a45781602001602082028036833780820191505090505b50905060008267ffffffffffffffff8111156102c3576102c2611d59565b5b6040519080825280602002602001820160405280156102f15781602001602082028036833780820191505090505b509050600088600001515167ffffffffffffffff81111561031557610314611d59565b5b6040519080825280602002602001820160405280156103435781602001602082028036833780820191505090505b50905060005b8481101561051b5773__alt_bn128_____________________________63aba8f7068a600001518381518110610382576103816125d5565b5b60200260200101516040518263ffffffff1660e01b81526004016103a69190612445565b602060405180830381865af41580156103c3573d6000803e3d6000fd5b505050506040513d601f19601f820116820180604052508101906103e79190612496565b73__alt_bn128_____________________________63aba8f7068b602001518481518110610418576104176125d5565b5b60200260200101516040518263ffffffff1660e01b815260040161043c9190612445565b602060405180830381865af4158015610459573d6000803e3d6000fd5b505050506040513d601f19601f8201168201806040525081019061047d9190612496565b60405160200161048e929190612604565b6040516020818303038152906040528051906020012060001c8482815181106104ba576104b96125d5565b5b6020026020010181815250506104e98482815181106104dc576104db6125d5565b5b6020026020010151611078565b8382815181106104fc576104fb6125d5565b5b60200260200101818152505080806105139061265f565b915050610349565b5060005b89600001515181101561067c576001828281518110610541576105406125d5565b5b60200260200101818152505060005b858110156106685761056282826111d0565b156105e0576105bc83838151811061057d5761057c6125d5565b5b6020026020010151866001848a61059491906126a7565b61059e91906126a7565b815181106105af576105ae6125d5565b5b6020026020010151610e9c565b8383815181106105cf576105ce6125d5565b5b602002602001018181525050610655565b6106358383815181106105f6576105f56125d5565b5b6020026020010151856001848a61060d91906126a7565b61061791906126a7565b81518110610628576106276125d5565b5b6020026020010151610e9c565b838381518110610648576106476125d5565b5b6020026020010181815250505b80806106609061265f565b915050610550565b5080806106749061265f565b91505061051f565b50610685611c3e565b61068d611c3e565b86915060005b8681101561078e57610709836107048d6000015184815181106106b9576106b86125d5565b5b60200260200101516106ff8a86815181106106d7576106d66125d5565b5b60200260200101518b87815181106106f2576106f16125d5565b5b6020026020010151610e9c565b610ed8565b610f90565b9250610779836107748d602001518481518110610729576107286125d5565b5b602002602001015161076f898681518110610747576107466125d5565b5b60200260200101518a8781518110610762576107616125d5565b5b6020026020010151610e9c565b610ed8565b610f90565b925080806107869061265f565b915050610693565b506107d38b600001516000815181106107aa576107a96125d5565b5b6020026020010151846000815181106107c6576107c56125d5565b5b6020026020010151610ed8565b90506000600190505b8b6000015151811015610849576108348261082f8e600001518481518110610807576108066125d5565b5b6020026020010151878581518110610822576108216125d5565b5b6020026020010151610ed8565b610f90565b915080806108419061265f565b9150506107dc565b5061088a8161088561087b6000604051806040016040529081600082015481526020016001820154815250508c610ed8565b8d60600151610ed8565b610f90565b905061089a818b60400151610ed8565b90506108a682826111e3565b9850505050505050505092915050565b6000806108c28361120b565b905060006108d082856108e5565b90506108dc82826100d6565b92505050919050565b6108ed611c58565b6000600183516108fd91906126a7565b83511614610940576040517f08c379a00000000000000000000000000000000000000000000000000000000081526004016109379061275e565b60405180910390fd5b600061094c8351611044565b90508067ffffffffffffffff81111561096857610967611d59565b5b6040519080825280602002602001820160405280156109a157816020015b61098e611c3e565b8152602001906001900390816109865790505b5082600001819052508067ffffffffffffffff8111156109c4576109c3611d59565b5b6040519080825280602002602001820160405280156109fd57816020015b6109ea611c3e565b8152602001906001900390816109e25790505b508260200181905250600073__alt_bn128_____________________________63aba8f70686602001516040518263ffffffff1660e01b8152600401610a439190612445565b602060405180830381865af4158015610a60573d6000803e3d6000fd5b505050506040513d601f19601f82011682018060405250810190610a849190612496565b73__alt_bn128_____________________________63aba8f70660006040518263ffffffff1660e01b8152600401610abc919061253b565b602060405180830381865af4158015610ad9573d6000803e3d6000fd5b505050506040513d601f19601f82011682018060405250810190610afd9190612496565b8660400151604051602001610b1493929190612598565b6040516020818303038152906040528051906020012060001c90506000610b5b60006040518060400160405290816000820154815260200160018201548152505083610ed8565b90506000855167ffffffffffffffff811115610b7a57610b79611d59565b5b604051908082528060200260200182016040528015610ba85781602001602082028036833780820191505090505b5090506000865167ffffffffffffffff811115610bc857610bc7611d59565b5b604051908082528060200260200182016040528015610c0157816020015b610bee611c3e565b815260200190600190039081610be65790505b50905060005b8251811015610c81576001838281518110610c2557610c246125d5565b5b60200260200101818152505088600001518181518110610c4857610c476125d5565b5b6020026020010151828281518110610c6357610c626125d5565b5b60200260200101819052508080610c799061265f565b915050610c07565b50610c8a611c3e565b610c92611c3e565b600080600090505b88811015610e4357610cae858c888a61143c565b8094508195505050838a600001518281518110610cce57610ccd6125d5565b5b6020026020010181905250828a602001518281518110610cf157610cf06125d5565b5b602002602001018190525073__alt_bn128_____________________________63aba8f706856040518263ffffffff1660e01b8152600401610d339190612445565b602060405180830381865af4158015610d50573d6000803e3d6000fd5b505050506040513d601f19601f82011682018060405250810190610d749190612496565b73__alt_bn128_____________________________63aba8f706856040518263ffffffff1660e01b8152600401610dab9190612445565b602060405180830381865af4158015610dc8573d6000803e3d6000fd5b505050506040513d601f19601f82011682018060405250810190610dec9190612496565b604051602001610dfd929190612604565b6040516020818303038152906040528051906020012060001c9150610e24858c888561169a565b809850819d508297505050508080610e3b9061265f565b915050610c9a565b5089600081518110610e5857610e576125d5565b5b602002602001015189604001818152505084600081518110610e7d57610e7c6125d5565b5b6020026020010151896060018181525050505050505050505092915050565b60007f30644e72e131a029b85045b68181585d2833e84879b9709143e1f593f000000180610ecd57610ecc61277e565b5b828409905092915050565b610ee0611c3e565b60018203610ef057829050610f8a565b60028203610f0957610f028384610f90565b9050610f8a565b610f11611c80565b836000015181600060038110610f2a57610f296125d5565b5b602002018181525050836020015181600160038110610f4c57610f4b6125d5565b5b6020020181815250508281600260038110610f6a57610f696125d5565b5b6020020181815250506040826060836007600019fa610f8857600080fd5b505b92915050565b610f98611c3e565b610fa0611ca2565b836000015181600060048110610fb957610fb86125d5565b5b602002018181525050836020015181600160048110610fdb57610fda6125d5565b5b602002018181525050826000015181600260048110610ffd57610ffc6125d5565b5b60200201818152505082602001518160036004811061101f5761101e6125d5565b5b6020020181815250506040826080836006600019fa61103d57600080fd5b5092915050565b60005b60018211156110735760018161105d91906127ad565b905060028261106c91906127e1565b9150611047565b919050565b600080829050600081036110905760009150506111cb565b7f30644e72e131a029b85045b68181585d2833e84879b9709143e1f593f00000018111156110e7577f30644e72e131a029b85045b68181585d2833e84879b9709143e1f593f0000001816110e49190612812565b90505b6000806001905060007f30644e72e131a029b85045b68181585d2833e84879b9709143e1f593f00000019050600084905060005b6000821461117657818361112f91906127e1565b905083848261113e919061284d565b8661114991906128c5565b8384846111569190612908565b8661116191906126a7565b8095508196508297508398505050505061111b565b60008512156111c157846111899061294a565b7f30644e72e131a029b85045b68181585d2833e84879b9709143e1f593f00000016111b491906126a7565b96505050505050506111cb565b8496505050505050505b919050565b60006001808385901c1614905092915050565b600081600001518360000151148015611203575081602001518360200151145b905092915050565b611213611cc4565b60006001835161122391906126a7565b83511614611266576040517f08c379a000000000000000000000000000000000000000000000000000000000815260040161125d9061275e565b60405180910390fd5b815167ffffffffffffffff81111561128157611280611d59565b5b6040519080825280602002602001820160405280156112ba57816020015b6112a7611c3e565b81526020019060019003908161129f5790505b50816000018190525060005b8251811015611319576112e46002826112df91906127ad565b611942565b826000015182815181106112fb576112fa6125d5565b5b602002602001018190525080806113119061265f565b9150506112c6565b508160008151811061132e5761132d6125d5565b5b6020026020010151816040018181525050611383816000015160008151811061135a576113596125d5565b5b602002602001015183600081518110611376576113756125d5565b5b6020026020010151610ed8565b81602001819052506000600190505b8251811015611436576113c382604001518483815181106113b6576113b56125d5565b5b6020026020010151611b00565b82604001818152505061141b8260200151611416846000015184815181106113ee576113ed6125d5565b5b6020026020010151868581518110611409576114086125d5565b5b6020026020010151610ed8565b610f90565b8260200181905250808061142e9061265f565b915050611392565b50919050565b611444611c3e565b61144c611c3e565b60006002865161145c91906127e1565b9050600061149f87600081518110611477576114766125d5565b5b6020026020010151878481518110611492576114916125d5565b5b6020026020010151610e9c565b905060006114e28884815181106114b9576114b86125d5565b5b6020026020010151886000815181106114d5576114d46125d5565b5b6020026020010151610e9c565b90506000600190505b838110156115ae57611545836115408b848151811061150d5761150c6125d5565b5b60200260200101518b858961152291906127ad565b81518110611533576115326125d5565b5b6020026020010151610e9c565b611b00565b9250611599826115948b848861155b91906127ad565b8151811061156c5761156b6125d5565b5b60200260200101518b8581518110611587576115866125d5565b5b6020026020010151610e9c565b611b00565b915080806115a69061265f565b9150506114eb565b506115b98683610ed8565b94506115c58682610ed8565b935060005b8381101561168d576116248661161f8c84886115e691906127ad565b815181106115f7576115f66125d5565b5b60200260200101518c8581518110611612576116116125d5565b5b6020026020010151610ed8565b610f90565b9550611678856116738c84815181106116405761163f6125d5565b5b60200260200101518c858961165591906127ad565b81518110611666576116656125d5565b5b6020026020010151610ed8565b610f90565b945080806116859061265f565b9150506115ca565b5050505094509492505050565b60608060606000600287516116af91906127e1565b905060006116bc86611078565b90508167ffffffffffffffff8111156116d8576116d7611d59565b5b60405190808252806020026020018201604052801561171157816020015b6116fe611c3e565b8152602001906001900390816116f65790505b5094508167ffffffffffffffff81111561172e5761172d611d59565b5b60405190808252806020026020018201604052801561175c5781602001602082028036833780820191505090505b5093508167ffffffffffffffff81111561177957611778611d59565b5b6040519080825280602002602001820160405280156117a75781602001602082028036833780820191505090505b50925060005b82811015611935576118106117dc8b83815181106117ce576117cd6125d5565b5b602002602001015184610ed8565b61180b8c84876117ec91906127ad565b815181106117fd576117fc6125d5565b5b60200260200101518a610ed8565b610f90565b868281518110611823576118226125d5565b5b6020026020010181905250611889611855888b8481518110611848576118476125d5565b5b6020026020010151610e9c565b611884848c858861186691906127ad565b81518110611877576118766125d5565b5b6020026020010151610e9c565b611b00565b85828151811061189c5761189b6125d5565b5b6020026020010181815250506119036118cf838a84815181106118c2576118c16125d5565b5b6020026020010151610e9c565b6118fe898b85886118e091906127ad565b815181106118f1576118f06125d5565b5b6020026020010151610e9c565b611b00565b848281518110611916576119156125d5565b5b602002602001018181525050808061192d9061265f565b9150506117ad565b5050509450945094915050565b61194a611c3e565b60007f30644e72e131a029b85045b68181585d97816a916871ca8d3c208c16d87cfd47836119789190612812565b9050600060018261198991906126a7565b91506000805b81611ae0576001846119a191906127ad565b93507f30644e72e131a029b85045b68181585d97816a916871ca8d3c208c16d87cfd47806119d2576119d161277e565b5b84850990507f30644e72e131a029b85045b68181585d97816a916871ca8d3c208c16d87cfd4780611a0657611a0561277e565b5b84820990507f30644e72e131a029b85045b68181585d97816a916871ca8d3c208c16d87cfd4780611a3a57611a3961277e565b5b600382089050611aa381600460017f30644e72e131a029b85045b68181585d97816a916871ca8d3c208c16d87cfd47611a7391906127ad565b611a7d91906127e1565b7f30644e72e131a029b85045b68181585d97816a916871ca8d3c208c16d87cfd47611b3c565b9250807f30644e72e131a029b85045b68181585d97816a916871ca8d3c208c16d87cfd4780611ad557611ad461277e565b5b84850914915061198f565b604051806040016040528085815260200184815250945050505050919050565b60007f30644e72e131a029b85045b68181585d2833e84879b9709143e1f593f000000180611b3157611b3061277e565b5b828408905092915050565b6000611b46611ceb565b611b4e611d0d565b602082600060068110611b6457611b636125d5565b5b602002018181525050602082600160068110611b8357611b826125d5565b5b602002018181525050602082600260068110611ba257611ba16125d5565b5b6020020181815250508582600360068110611bc057611bbf6125d5565b5b6020020181815250508482600460068110611bde57611bdd6125d5565b5b6020020181815250508382600560068110611bfc57611bfb6125d5565b5b60200201818152505060208160c0846005600019fa611c1a57600080fd5b80600060018110611c2e57611c2d6125d5565b5b6020020151925050509392505050565b604051806040016040528060008152602001600081525090565b6040518060800160405280606081526020016060815260200160008152602001600081525090565b6040518060600160405280600390602082028036833780820191505090505090565b6040518060800160405280600490602082028036833780820191505090505090565b604051806060016040528060608152602001611cde611c3e565b8152602001600081525090565b6040518060c00160405280600690602082028036833780820191505090505090565b6040518060200160405280600190602082028036833780820191505090505090565b6000604051905090565b600080fd5b600080fd5b600080fd5b6000601f19601f8301169050919050565b7f4e487b7100000000000000000000000000000000000000000000000000000000600052604160045260246000fd5b611d9182611d48565b810181811067ffffffffffffffff82111715611db057611daf611d59565b5b80604052505050565b6000611dc3611d2f565b9050611dcf8282611d88565b919050565b600080fd5b600080fd5b600067ffffffffffffffff821115611df957611df8611d59565b5b602082029050602081019050919050565b600080fd5b6000819050919050565b611e2281611e0f565b8114611e2d57600080fd5b50565b600081359050611e3f81611e19565b92915050565b600060408284031215611e5b57611e5a611d43565b5b611e656040611db9565b90506000611e7584828501611e30565b6000830152506020611e8984828501611e30565b60208301525092915050565b6000611ea8611ea384611dde565b611db9565b90508083825260208201905060408402830185811115611ecb57611eca611e0a565b5b835b81811015611ef45780611ee08882611e45565b845260208401935050604081019050611ecd565b5050509392505050565b600082601f830112611f1357611f12611dd9565b5b8135611f23848260208601611e95565b91505092915050565b600060808284031215611f4257611f41611d43565b5b611f4c6060611db9565b9050600082013567ffffffffffffffff811115611f6c57611f6b611dd4565b5b611f7884828501611efe565b6000830152506020611f8c84828501611e45565b6020830152506060611fa084828501611e30565b60408301525092915050565b600060808284031215611fc257611fc1611d43565b5b611fcc6080611db9565b9050600082013567ffffffffffffffff811115611fec57611feb611dd4565b5b611ff884828501611efe565b600083015250602082013567ffffffffffffffff81111561201c5761201b611dd4565b5b61202884828501611efe565b602083015250604061203c84828501611e30565b604083015250606061205084828501611e30565b60608301525092915050565b6000806040838503121561207357612072611d39565b5b600083013567ffffffffffffffff81111561209157612090611d3e565b5b61209d85828601611f2c565b925050602083013567ffffffffffffffff8111156120be576120bd611d3e565b5b6120ca85828601611fac565b9150509250929050565b60008115159050919050565b6120e9816120d4565b82525050565b600060208201905061210460008301846120e0565b92915050565b600067ffffffffffffffff82111561212557612124611d59565b5b602082029050602081019050919050565b60006121496121448461210a565b611db9565b9050808382526020820190506020840283018581111561216c5761216b611e0a565b5b835b8181101561219557806121818882611e30565b84526020840193505060208101905061216e565b5050509392505050565b600082601f8301126121b4576121b3611dd9565b5b81356121c4848260208601612136565b91505092915050565b6000602082840312156121e3576121e2611d39565b5b600082013567ffffffffffffffff81111561220157612200611d3e565b5b61220d8482850161219f565b91505092915050565b6000806040838503121561222d5761222c611d39565b5b600083013567ffffffffffffffff81111561224b5761224a611d3e565b5b61225785828601611f2c565b925050602083013567ffffffffffffffff81111561227857612277611d3e565b5b6122848582860161219f565b9150509250929050565b600081519050919050565b600082825260208201905092915050565b6000819050602082019050919050565b6122c381611e0f565b82525050565b6040820160008201516122df60008501826122ba565b5060208201516122f260208501826122ba565b50505050565b600061230483836122c9565b60408301905092915050565b6000602082019050919050565b60006123288261228e565b6123328185612299565b935061233d836122aa565b8060005b8381101561236e57815161235588826122f8565b975061236083612310565b925050600181019050612341565b5085935050505092915050565b60006080830160008301518482036000860152612398828261231d565b915050602083015184820360208601526123b2828261231d565b91505060408301516123c760408601826122ba565b5060608301516123da60608601826122ba565b508091505092915050565b600060208201905081810360008301526123ff818461237b565b905092915050565b61241081611e0f565b82525050565b60408201600082015161242c6000850182612407565b50602082015161243f6020850182612407565b50505050565b600060408201905061245a6000830184612416565b92915050565b6000819050919050565b61247381612460565b811461247e57600080fd5b50565b6000815190506124908161246a565b92915050565b6000602082840312156124ac576124ab611d39565b5b60006124ba84828501612481565b91505092915050565b60008160001c9050919050565b6000819050919050565b60006124ed6124e8836124c3565b6124d0565b9050919050565b604082016000808301549050612509816124da565b6125166000860182612407565b5060018301549050612527816124da565b6125346020860182612407565b5050505050565b600060408201905061255060008301846124f4565b92915050565b6000819050919050565b61257161256c82612460565b612556565b82525050565b6000819050919050565b61259261258d82611e0f565b612577565b82525050565b60006125a48286612560565b6020820191506125b48285612560565b6020820191506125c48284612581565b602082019150819050949350505050565b7f4e487b7100000000000000000000000000000000000000000000000000000000600052603260045260246000fd5b60006126108285612560565b6020820191506126208284612560565b6020820191508190509392505050565b7f4e487b7100000000000000000000000000000000000000000000000000000000600052601160045260246000fd5b600061266a82611e0f565b91507fffffffffffffffffffffffffffffffffffffffffffffffffffffffffffffffff820361269c5761269b612630565b5b600182019050919050565b60006126b282611e0f565b91506126bd83611e0f565b92508282039050818111156126d5576126d4612630565b5b92915050565b600082825260208201905092915050565b7f766563746f72206c656e6774682073686f756c64206265206120706f7765722060008201527f6f66203200000000000000000000000000000000000000000000000000000000602082015250565b60006127486024836126db565b9150612753826126ec565b604082019050919050565b600060208201905081810360008301526127778161273b565b9050919050565b7f4e487b7100000000000000000000000000000000000000000000000000000000600052601260045260246000fd5b60006127b882611e0f565b91506127c383611e0f565b92508282019050808211156127db576127da612630565b5b92915050565b60006127ec82611e0f565b91506127f783611e0f565b9250826128075761280661277e565b5b828204905092915050565b600061281d82611e0f565b915061282883611e0f565b9250826128385761283761277e565b5b828206905092915050565b6000819050919050565b600061285882612843565b915061286383612843565b925082820261287181612843565b91507f800000000000000000000000000000000000000000000000000000000000000084146000841216156128a9576128a8612630565b5b82820584148315176128be576128bd612630565b5b5092915050565b60006128d082612843565b91506128db83612843565b925082820390508181126000841216828213600085121516171561290257612901612630565b5b92915050565b600061291382611e0f565b915061291e83611e0f565b925082820261292c81611e0f565b9150828204841483151761294357612942612630565b5b5092915050565b600061295582612843565b91507f8000000000000000000000000000000000000000000000000000000000000000820361298757612986612630565b5b81600003905091905056fea2646970667358221220a5fc10b3b4fbf430bd583cebe0b449fa09207db6f68621800f5f145fc8bb6c2664736f6c63430008130033",
  "immutableReferences": {},
  "source": "// SPDX-License-Identifier: GPL-3.0\npragma solidity >=0.4.0 <0.9.0;\n\nimport \"./alt_bn128.sol\";\n\ncontract NISA{\n\tusing alt_bn128 for uint256;\n\tusing alt_bn128 for alt_bn128.G1Point;\n\n\talt_bn128.G1Point u; // random generator\n\tstruct Param {\n\t\talt_bn128.G1Point[] Gs; \n\t\talt_bn128.G1Point P; \n\t\tuint256 c;\n\t}\n\n\tstruct Proof {\n\t\talt_bn128.G1Point[] Ls;\n\t\talt_bn128.G1Point[] Rs;\n\t\tuint256 a;\n\t\tuint256 b;\n\t}\n\n\tconstructor() {\n\t\tuint256 seed = uint256(keccak256(abi.encodePacked(block.timestamp, blockhash(block.number - 1))));\n\t\tu = alt_bn128.uintToCurvePoint(seed);\n\t}\n\n\t/** test correctness */\n\tfunction test(uint256[] memory a) public view returns (bool) {\n\t\tParam memory param = generateParam(a);\n\t\tProof memory p = prove(param, a);\n\t\treturn verify(param, p);\n\t}\n\n\tfunction generateParam(uint256[] memory a) internal view returns (Param memory param){\n\t\trequire(a.length & (a.length - 1) == 0, \"vector length should be a power of 2\");\n\t\tparam.Gs = new alt_bn128.G1Point[](a.length);\n\t\tfor (uint256 i = 0; i < a.length; i++){\n\t\t\tparam.Gs[i] = alt_bn128.uintToCurvePoint(i+2);\n\t\t}\n\t\tparam.c = a[0];\n\t\tparam.P = alt_bn128.mul(param.Gs[0], a[0]);\n\t\tfor (uint i = 1; i < a.length; i++){\n\t\t\tparam.c = alt_bn128.add(param.c, a[i]);\n\t\t\tparam.P = alt_bn128.add(param.P, alt_bn128.mul(param.Gs[i], a[i]));\n\t\t}\n\t}\n\n\t/** Gs : public keys\n\t\tP : prod_i (g_i ^ a_i)\n\t\tc : sum_i a_i\n\t */\n\tfunction prove(Param memory param, uint256[] memory a) public view\n\treturns (Proof memory p){\n\t\trequire(a.length & (a.length - 1) == 0, \"vector length should be a power of 2\");\n\n\t\tuint length = log2(a.length);\n\t\tp.Ls = new alt_bn128.G1Point[](length);\n\t\tp.Rs = new alt_bn128.G1Point[](length);\n\n\t\tuint256 H_z = uint256(keccak256(abi.encodePacked(alt_bn128.serialize(param.P), alt_bn128.serialize(u), param.c)));\n\t\t\n\t\talt_bn128.G1Point memory u_prime = alt_bn128.mul(u, H_z);\n\n\t\tuint256[] memory b = new uint256[](a.length);\n\t\talt_bn128.G1Point[] memory Gs = new alt_bn128.G1Point[](a.length);\n\t\tfor (uint i = 0; i < b.length; i++){\n\t\t\tb[i] = 1;\n\t\t\tGs[i] = param.Gs[i];\n\t\t}\n\t\talt_bn128.G1Point memory L;\n\t\talt_bn128.G1Point memory R;\n\t\tuint256 x;\n\n\t\t// O(logn) loop\n\t\tfor (uint idx = 0; idx < length; idx++){\n\n\t\t\t// L && R\n\t\t\t(L, R) = LR(Gs, a, b, u_prime);\n\t\t\tp.Ls[idx] = L; p.Rs[idx] = R;\n\n\t\t\tx = uint256(keccak256(abi.encodePacked(alt_bn128.serialize(L), alt_bn128.serialize(R))));\n\n\t\t\t// half size\n\t\t\t(Gs, a, b) = nextRound(Gs, a, b, x);\n\t\t}\n\n\t\tp.a = a[0];\n\t\tp.b = b[0];\n\t}\n\n\tfunction LR(alt_bn128.G1Point[] memory Gs, uint256[] memory a, uint256[] memory b, alt_bn128.G1Point memory u_prime) internal view \n\treturns (alt_bn128.G1Point memory L, alt_bn128.G1Point memory R) {\n\t\tuint n = a.length / 2;\n\t\tuint256 cL = alt_bn128.mul(a[0], b[n]);\n\t\tuint256 cR = alt_bn128.mul(a[n], b[0]);\n\t\tfor (uint i = 1; i < n; i++){\n\t\t\tcL = alt_bn128.add(cL, alt_bn128.mul(a[i], b[n+i]));\n\t\t\tcR = alt_bn128.add(cR, alt_bn128.mul(a[n+i], b[i]));\n\t\t}\n\n\t\tL = alt_bn128.mul(u_prime, cL);\n\t\tR = alt_bn128.mul(u_prime, cR);\n\n\t\tfor (uint i = 0; i < n; i++){\n\t\t\tL = alt_bn128.add(L, alt_bn128.mul(Gs[n+i], a[i]));\n\t\t\tR = alt_bn128.add(R, alt_bn128.mul(Gs[i], a[n+i]));\n\t\t}\n\t}\n\n\tfunction nextRound(alt_bn128.G1Point[] memory Gs, uint256[] memory a, uint256[] memory b, uint256 x) internal view returns (alt_bn128.G1Point[] memory Gs_new, uint256[] memory a_new, uint256[] memory b_new)\n\t{\n\t\tuint n = a.length / 2;\n\n\t\tuint256 x_inv = alt_bn128.inv(x);\n\n\t\tGs_new = new alt_bn128.G1Point[](n);\n\t\ta_new = new uint256[](n);\n\t\tb_new = new uint256[](n);\n\n\t\tfor (uint i = 0; i < n; i++){\n\t\t\tGs_new[i] = alt_bn128.add(alt_bn128.mul(Gs[i], x_inv), alt_bn128.mul(Gs[n+i], x));\n\t\t\ta_new[i] = alt_bn128.add(alt_bn128.mul(x, a[i]), alt_bn128.mul(x_inv, a[n+i]));\n\t\t\tb_new[i] = alt_bn128.add(alt_bn128.mul(x_inv, b[i]), alt_bn128.mul(x, b[n+i]));\n\t\t}\n\t}\n\n\tfunction verify(Param memory param, Proof memory p) public view \n\treturns (bool){\n\t\tuint256 H_z = uint256(keccak256(abi.encodePacked(alt_bn128.serialize(param.P), alt_bn128.serialize(u), param.c)));\n\n\t\talt_bn128.G1Point memory P_prime = alt_bn128.add(param.P, alt_bn128.mul(u, alt_bn128.mul(param.c, H_z)));\n\n\t\tuint length = log2(param.Gs.length);\n\n\t\tuint256[] memory xs = new uint256[](length);\n\t\tuint256[] memory xs_inv = new uint256[](length);\n\t\tuint256[] memory ys = new uint256[](param.Gs.length);\n\n\t\tfor (uint i = 0; i < length; i++){\n\t\t\txs[i] = uint256(keccak256(abi.encodePacked(alt_bn128.serialize(p.Ls[i]), alt_bn128.serialize(p.Rs[i]))));\n\t\t\txs_inv[i] = alt_bn128.inv(xs[i]);\n\t\t}\n\n\t\tfor (uint i = 0; i < param.Gs.length; i++){\n\t\t\tys[i] = 1;\n\t\t\tfor (uint j = 0; j < length; j++){\n\t\t\t\tif (check_bit(i, j)){\n\t\t\t\t\tys[i] = alt_bn128.mul(ys[i], xs[length-j-1]);\n\t\t\t\t} else {\n\t\t\t\t\tys[i] = alt_bn128.mul(ys[i], xs_inv[length-j-1]);\n\t\t\t\t}\n\t\t\t}\n\t\t}\n\n\t\t// verify\n\t\talt_bn128.G1Point memory left_point;\n\t\talt_bn128.G1Point memory right_point;\n\n\t\tleft_point = P_prime;\n\t\tfor (uint i = 0; i < length; i++){\n\t\t\tleft_point = alt_bn128.add(left_point, \n\t\t\t\t\t\t\talt_bn128.mul(p.Ls[i], alt_bn128.mul(xs[i], xs[i]))\n\t\t\t\t\t\t);\n\t\t\tleft_point = alt_bn128.add(left_point, \n\t\t\t\t\t\t\talt_bn128.mul(p.Rs[i], alt_bn128.mul(xs_inv[i], xs_inv[i]))\n\t\t\t\t\t\t);\n\t\t}\n\n\t\tright_point = alt_bn128.mul(param.Gs[0], ys[0]);\n\t\tfor (uint i = 1; i < param.Gs.length; i++){\n\t\t\tright_point = alt_bn128.add(right_point, alt_bn128.mul(param.Gs[i], ys[i]));\n\t\t}\n\t\tright_point = alt_bn128.add(right_point, alt_bn128.mul(alt_bn128.mul(u, H_z), p.b));\n\t\tright_point = alt_bn128.mul(right_point, p.a);\n\n\t\treturn alt_bn128.eq(left_point, right_point);\n\t}\n\n\tfunction log2(uint n) internal pure returns (uint ndigits){\n\t\tndigits = 0;\n\t\twhile (n > 1){\n\t\t\tndigits += 1;\n\t\t\tn = n/2;\n\t\t}\n\t}\n\n\tfunction check_bit(uint i, uint j) internal pure returns (bool){\n\t\treturn ((i >> j) & 1) == 1;\n\t}\n}",
  "sourcePath": "/Users/qian/Desktop/Y4/COMP4550/ZKP-Blockchain/contracts/nisa.sol",
  "compiler": {
    "name": "solc",
    "version": "0.8.19+commit.7dd6d404.Emscripten.clang"
  },
  "schemaVersion": "3.4.13",
  "updatedAt": "2023-04-06T03:36:05.678Z",
  "networkType": "ethereum",
  "devdoc": {
    "kind": "dev",
    "methods": {},
    "version": 1
  },
  "userdoc": {
    "kind": "user",
    "methods": {
      "prove(((uint256,uint256)[],(uint256,uint256),uint256),uint256[])": {
        "notice": "Gs : public keys P : prod_i (g_i ^ a_i) c : sum_i a_i"
      },
      "test(uint256[])": {
        "notice": "test correctness "
      }
    },
    "version": 1
  }
}