{
  "contractName": "NISA",
  "abi": [
    {
      "inputs": [],
      "stateMutability": "nonpayable",
      "type": "constructor"
    },
    {
      "inputs": [
        {
          "internalType": "uint256[]",
          "name": "a",
          "type": "uint256[]"
        }
      ],
      "name": "test",
      "outputs": [
        {
          "internalType": "bool",
          "name": "",
          "type": "bool"
        }
      ],
      "stateMutability": "view",
      "type": "function",
      "constant": true
    },
    {
      "inputs": [
        {
          "components": [
            {
              "components": [
                {
                  "internalType": "uint256",
                  "name": "X",
                  "type": "uint256"
                },
                {
                  "internalType": "uint256",
                  "name": "Y",
                  "type": "uint256"
                }
              ],
              "internalType": "struct alt_bn128.G1Point[]",
              "name": "Gs",
              "type": "tuple[]"
            },
            {
              "components": [
                {
                  "internalType": "uint256",
                  "name": "X",
                  "type": "uint256"
                },
                {
                  "internalType": "uint256",
                  "name": "Y",
                  "type": "uint256"
                }
              ],
              "internalType": "struct alt_bn128.G1Point",
              "name": "P",
              "type": "tuple"
            },
            {
              "internalType": "uint256",
              "name": "c",
              "type": "uint256"
            }
          ],
          "internalType": "struct NISA.Param",
          "name": "param",
          "type": "tuple"
        },
        {
          "internalType": "uint256[]",
          "name": "a",
          "type": "uint256[]"
        }
      ],
      "name": "prove",
      "outputs": [
        {
          "components": [
            {
              "components": [
                {
                  "internalType": "uint256",
                  "name": "X",
                  "type": "uint256"
                },
                {
                  "internalType": "uint256",
                  "name": "Y",
                  "type": "uint256"
                }
              ],
              "internalType": "struct alt_bn128.G1Point[]",
              "name": "Ls",
              "type": "tuple[]"
            },
            {
              "components": [
                {
                  "internalType": "uint256",
                  "name": "X",
                  "type": "uint256"
                },
                {
                  "internalType": "uint256",
                  "name": "Y",
                  "type": "uint256"
                }
              ],
              "internalType": "struct alt_bn128.G1Point[]",
              "name": "Rs",
              "type": "tuple[]"
            },
            {
              "internalType": "uint256",
              "name": "a",
              "type": "uint256"
            },
            {
              "internalType": "uint256",
              "name": "b",
              "type": "uint256"
            }
          ],
          "internalType": "struct NISA.Proof",
          "name": "p",
          "type": "tuple"
        }
      ],
      "stateMutability": "view",
      "type": "function",
      "constant": true
    },
    {
      "inputs": [
        {
          "components": [
            {
              "components": [
                {
                  "internalType": "uint256",
                  "name": "X",
                  "type": "uint256"
                },
                {
                  "internalType": "uint256",
                  "name": "Y",
                  "type": "uint256"
                }
              ],
              "internalType": "struct alt_bn128.G1Point[]",
              "name": "Gs",
              "type": "tuple[]"
            },
            {
              "components": [
                {
                  "internalType": "uint256",
                  "name": "X",
                  "type": "uint256"
                },
                {
                  "internalType": "uint256",
                  "name": "Y",
                  "type": "uint256"
                }
              ],
              "internalType": "struct alt_bn128.G1Point",
              "name": "P",
              "type": "tuple"
            },
            {
              "internalType": "uint256",
              "name": "c",
              "type": "uint256"
            }
          ],
          "internalType": "struct NISA.Param",
          "name": "param",
          "type": "tuple"
        },
        {
          "components": [
            {
              "components": [
                {
                  "internalType": "uint256",
                  "name": "X",
                  "type": "uint256"
                },
                {
                  "internalType": "uint256",
                  "name": "Y",
                  "type": "uint256"
                }
              ],
              "internalType": "struct alt_bn128.G1Point[]",
              "name": "Ls",
              "type": "tuple[]"
            },
            {
              "components": [
                {
                  "internalType": "uint256",
                  "name": "X",
                  "type": "uint256"
                },
                {
                  "internalType": "uint256",
                  "name": "Y",
                  "type": "uint256"
                }
              ],
              "internalType": "struct alt_bn128.G1Point[]",
              "name": "Rs",
              "type": "tuple[]"
            },
            {
              "internalType": "uint256",
              "name": "a",
              "type": "uint256"
            },
            {
              "internalType": "uint256",
              "name": "b",
              "type": "uint256"
            }
          ],
          "internalType": "struct NISA.Proof",
          "name": "p",
          "type": "tuple"
        }
      ],
      "name": "verify",
      "outputs": [
        {
          "internalType": "bool",
          "name": "",
          "type": "bool"
        }
      ],
      "stateMutability": "view",
      "type": "function",
      "constant": true
    }
  ],
  "bytecode": "0x60806040523480156200001157600080fd5b5060004260014362000024919062000416565b4060405160200162000038929190620004a5565b6040516020818303038152906040528051906020012060001c905062000064816200008360201b60201c565b60008082015181600001556020820151816001015590505050620005de565b6200008d6200037f565b60007f30644e72e131a029b85045b68181585d97816a916871ca8d3c208c16d87cfd4783620000bd919062000504565b90506000600182620000d0919062000416565b91506000805b816200024357600184620000eb91906200053c565b93507f30644e72e131a029b85045b68181585d97816a916871ca8d3c208c16d87cfd47806200011f576200011e620004d5565b5b84850990507f30644e72e131a029b85045b68181585d97816a916871ca8d3c208c16d87cfd4780620001565762000155620004d5565b5b84820990507f30644e72e131a029b85045b68181585d97816a916871ca8d3c208c16d87cfd47806200018d576200018c620004d5565b5b6003820890506200020281600460017f30644e72e131a029b85045b68181585d97816a916871ca8d3c208c16d87cfd47620001c991906200053c565b620001d5919062000577565b7f30644e72e131a029b85045b68181585d97816a916871ca8d3c208c16d87cfd476200026360201b60201c565b9250807f30644e72e131a029b85045b68181585d97816a916871ca8d3c208c16d87cfd4780620002375762000236620004d5565b5b848509149150620000d6565b604051806040016040528085815260200184815250945050505050919050565b60006200026f62000399565b62000279620003bb565b602082600060068110620002925762000291620005af565b5b602002018181525050602082600160068110620002b457620002b3620005af565b5b602002018181525050602082600260068110620002d657620002d5620005af565b5b6020020181815250508582600360068110620002f757620002f6620005af565b5b6020020181815250508482600460068110620003185762000317620005af565b5b6020020181815250508382600560068110620003395762000338620005af565b5b60200201818152505060208160c0846005600019fa6200035857600080fd5b806000600181106200036f576200036e620005af565b5b6020020151925050509392505050565b604051806040016040528060008152602001600081525090565b6040518060c00160405280600690602082028036833780820191505090505090565b6040518060200160405280600190602082028036833780820191505090505090565b6000819050919050565b7f4e487b7100000000000000000000000000000000000000000000000000000000600052601160045260246000fd5b60006200042382620003dd565b91506200043083620003dd565b92508282039050818111156200044b576200044a620003e7565b5b92915050565b6000819050919050565b620004706200046a82620003dd565b62000451565b82525050565b6000819050919050565b6000819050919050565b6200049f620004998262000476565b62000480565b82525050565b6000620004b382856200045b565b602082019150620004c582846200048a565b6020820191508190509392505050565b7f4e487b7100000000000000000000000000000000000000000000000000000000600052601260045260246000fd5b60006200051182620003dd565b91506200051e83620003dd565b925082620005315762000530620004d5565b5b828206905092915050565b60006200054982620003dd565b91506200055683620003dd565b9250828201905080821115620005715762000570620003e7565b5b92915050565b60006200058482620003dd565b91506200059183620003dd565b925082620005a457620005a3620004d5565b5b828204905092915050565b7f4e487b7100000000000000000000000000000000000000000000000000000000600052603260045260246000fd5b6127ea80620005ee6000396000f3fe608060405234801561001057600080fd5b50600436106100415760003560e01c80636c468bb514610046578063ca16068414610076578063f909cb5b146100a6575b600080fd5b610060600480360381019061005b9190611e7e565b6100d6565b60405161006d9190611f11565b60405180910390f35b610090600480360381019061008b9190611fef565b6106d8565b60405161009d9190611f11565b60405180910390f35b6100c060048036038101906100bb9190612038565b610707565b6040516100cd9190612207565b60405180910390f35b60008073__alt_bn128_____________________________63aba8f70685602001516040518263ffffffff1660e01b81526004016101149190612267565b602060405180830381865af4158015610131573d6000803e3d6000fd5b505050506040513d601f19601f8201168201806040525081019061015591906122b8565b73__alt_bn128_____________________________63aba8f70660006040518263ffffffff1660e01b815260040161018d919061235d565b602060405180830381865af41580156101aa573d6000803e3d6000fd5b505050506040513d601f19601f820116820180604052508101906101ce91906122b8565b85604001516040516020016101e5939291906123ba565b6040516020818303038152906040528051906020012060001c90506000610246856020015161024160006040518060400160405290816000820154815260200160018201548152505061023c896040015187610cbe565b610cfa565b610db2565b90506000610258866000015151610e66565b905060008167ffffffffffffffff81111561027657610275611b7b565b5b6040519080825280602002602001820160405280156102a45781602001602082028036833780820191505090505b50905060008060008590506102b7611a60565b6001925060005b8681101561052b5773__alt_bn128_____________________________63aba8f7068c6000015183815181106102f7576102f66123f7565b5b60200260200101516040518263ffffffff1660e01b815260040161031b9190612267565b602060405180830381865af4158015610338573d6000803e3d6000fd5b505050506040513d601f19601f8201168201806040525081019061035c91906122b8565b73__alt_bn128_____________________________63aba8f7068d60200151848151811061038d5761038c6123f7565b5b60200260200101516040518263ffffffff1660e01b81526004016103b19190612267565b602060405180830381865af41580156103ce573d6000803e3d6000fd5b505050506040513d601f19601f820116820180604052508101906103f291906122b8565b604051602001610403929190612426565b6040516020818303038152906040528051906020012060001c86828151811061042f5761042e6123f7565b5b60200260200101818152505061045e868281518110610451576104506123f7565b5b6020026020010151610e9a565b94506104ce836104c98d60000151848151811061047e5761047d6123f7565b5b60200260200101516104c48a868151811061049c5761049b6123f7565b5b60200260200101518b87815181106104b7576104b66123f7565b5b6020026020010151610cbe565b610cfa565b610db2565b925061050a836105058d6020015184815181106104ee576104ed6123f7565b5b6020026020010151610500898a610cbe565b610cfa565b610db2565b92506105168486610cbe565b9350808061052390612481565b9150506102be565b506105558b60000151600081518110610547576105466123f7565b5b602002602001015184610cfa565b90506000600190505b8b600001515181101561066b576001935060005b87811015610624576105848282610ff2565b156105cb576105c485886001848c61059c91906124c9565b6105a691906124c9565b815181106105b7576105b66123f7565b5b6020026020010151610cbe565b9450610611565b61060e85610609896001858d6105e191906124c9565b6105eb91906124c9565b815181106105fc576105fb6123f7565b5b6020026020010151610e9a565b610cbe565b94505b808061061c90612481565b915050610572565b50610656826106518e600001518481518110610643576106426123f7565b5b602002602001015187610cfa565b610db2565b9150808061066390612481565b91505061055e565b506106ac816106a761069d6000604051806040016040529081600082015481526020016001820154815250508c610cfa565b8d60600151610cfa565b610db2565b90506106bc818b60400151610cfa565b90506106c88282611005565b9850505050505050505092915050565b6000806106e48361102d565b905060006106f28285610707565b90506106fe82826100d6565b92505050919050565b61070f611a7a565b60006001835161071f91906124c9565b83511614610762576040517f08c379a000000000000000000000000000000000000000000000000000000000815260040161075990612580565b60405180910390fd5b600061076e8351610e66565b90508067ffffffffffffffff81111561078a57610789611b7b565b5b6040519080825280602002602001820160405280156107c357816020015b6107b0611a60565b8152602001906001900390816107a85790505b5082600001819052508067ffffffffffffffff8111156107e6576107e5611b7b565b5b60405190808252806020026020018201604052801561081f57816020015b61080c611a60565b8152602001906001900390816108045790505b508260200181905250600073__alt_bn128_____________________________63aba8f70686602001516040518263ffffffff1660e01b81526004016108659190612267565b602060405180830381865af4158015610882573d6000803e3d6000fd5b505050506040513d601f19601f820116820180604052508101906108a691906122b8565b73__alt_bn128_____________________________63aba8f70660006040518263ffffffff1660e01b81526004016108de919061235d565b602060405180830381865af41580156108fb573d6000803e3d6000fd5b505050506040513d601f19601f8201168201806040525081019061091f91906122b8565b8660400151604051602001610936939291906123ba565b6040516020818303038152906040528051906020012060001c9050600061097d60006040518060400160405290816000820154815260200160018201548152505083610cfa565b90506000855167ffffffffffffffff81111561099c5761099b611b7b565b5b6040519080825280602002602001820160405280156109ca5781602001602082028036833780820191505090505b5090506000865167ffffffffffffffff8111156109ea576109e9611b7b565b5b604051908082528060200260200182016040528015610a2357816020015b610a10611a60565b815260200190600190039081610a085790505b50905060005b8251811015610aa3576001838281518110610a4757610a466123f7565b5b60200260200101818152505088600001518181518110610a6a57610a696123f7565b5b6020026020010151828281518110610a8557610a846123f7565b5b60200260200101819052508080610a9b90612481565b915050610a29565b50610aac611a60565b610ab4611a60565b600080600090505b88811015610c6557610ad0858c888a61125e565b8094508195505050838a600001518281518110610af057610aef6123f7565b5b6020026020010181905250828a602001518281518110610b1357610b126123f7565b5b602002602001018190525073__alt_bn128_____________________________63aba8f706856040518263ffffffff1660e01b8152600401610b559190612267565b602060405180830381865af4158015610b72573d6000803e3d6000fd5b505050506040513d601f19601f82011682018060405250810190610b9691906122b8565b73__alt_bn128_____________________________63aba8f706856040518263ffffffff1660e01b8152600401610bcd9190612267565b602060405180830381865af4158015610bea573d6000803e3d6000fd5b505050506040513d601f19601f82011682018060405250810190610c0e91906122b8565b604051602001610c1f929190612426565b6040516020818303038152906040528051906020012060001c9150610c46858c88856114bc565b809850819d508297505050508080610c5d90612481565b915050610abc565b5089600081518110610c7a57610c796123f7565b5b602002602001015189604001818152505084600081518110610c9f57610c9e6123f7565b5b6020026020010151896060018181525050505050505050505092915050565b60007f30644e72e131a029b85045b68181585d2833e84879b9709143e1f593f000000180610cef57610cee6125a0565b5b828409905092915050565b610d02611a60565b60018203610d1257829050610dac565b60028203610d2b57610d248384610db2565b9050610dac565b610d33611aa2565b836000015181600060038110610d4c57610d4b6123f7565b5b602002018181525050836020015181600160038110610d6e57610d6d6123f7565b5b6020020181815250508281600260038110610d8c57610d8b6123f7565b5b6020020181815250506040826060836007600019fa610daa57600080fd5b505b92915050565b610dba611a60565b610dc2611ac4565b836000015181600060048110610ddb57610dda6123f7565b5b602002018181525050836020015181600160048110610dfd57610dfc6123f7565b5b602002018181525050826000015181600260048110610e1f57610e1e6123f7565b5b602002018181525050826020015181600360048110610e4157610e406123f7565b5b6020020181815250506040826080836006600019fa610e5f57600080fd5b5092915050565b60005b6001821115610e9557600181610e7f91906125cf565b9050600282610e8e9190612603565b9150610e69565b919050565b60008082905060008103610eb2576000915050610fed565b7f30644e72e131a029b85045b68181585d2833e84879b9709143e1f593f0000001811115610f09577f30644e72e131a029b85045b68181585d2833e84879b9709143e1f593f000000181610f069190612634565b90505b6000806001905060007f30644e72e131a029b85045b68181585d2833e84879b9709143e1f593f00000019050600084905060005b60008214610f98578183610f519190612603565b9050838482610f60919061266f565b86610f6b91906126e7565b838484610f78919061272a565b86610f8391906124c9565b80955081965082975083985050505050610f3d565b6000851215610fe35784610fab9061276c565b7f30644e72e131a029b85045b68181585d2833e84879b9709143e1f593f0000001610fd691906124c9565b9650505050505050610fed565b8496505050505050505b919050565b60006001808385901c1614905092915050565b600081600001518360000151148015611025575081602001518360200151145b905092915050565b611035611ae6565b60006001835161104591906124c9565b83511614611088576040517f08c379a000000000000000000000000000000000000000000000000000000000815260040161107f90612580565b60405180910390fd5b815167ffffffffffffffff8111156110a3576110a2611b7b565b5b6040519080825280602002602001820160405280156110dc57816020015b6110c9611a60565b8152602001906001900390816110c15790505b50816000018190525060005b825181101561113b5761110660028261110191906125cf565b611764565b8260000151828151811061111d5761111c6123f7565b5b6020026020010181905250808061113390612481565b9150506110e8565b50816000815181106111505761114f6123f7565b5b60200260200101518160400181815250506111a5816000015160008151811061117c5761117b6123f7565b5b602002602001015183600081518110611198576111976123f7565b5b6020026020010151610cfa565b81602001819052506000600190505b8251811015611258576111e582604001518483815181106111d8576111d76123f7565b5b6020026020010151611922565b82604001818152505061123d8260200151611238846000015184815181106112105761120f6123f7565b5b602002602001015186858151811061122b5761122a6123f7565b5b6020026020010151610cfa565b610db2565b8260200181905250808061125090612481565b9150506111b4565b50919050565b611266611a60565b61126e611a60565b60006002865161127e9190612603565b905060006112c187600081518110611299576112986123f7565b5b60200260200101518784815181106112b4576112b36123f7565b5b6020026020010151610cbe565b905060006113048884815181106112db576112da6123f7565b5b6020026020010151886000815181106112f7576112f66123f7565b5b6020026020010151610cbe565b90506000600190505b838110156113d057611367836113628b848151811061132f5761132e6123f7565b5b60200260200101518b858961134491906125cf565b81518110611355576113546123f7565b5b6020026020010151610cbe565b611922565b92506113bb826113b68b848861137d91906125cf565b8151811061138e5761138d6123f7565b5b60200260200101518b85815181106113a9576113a86123f7565b5b6020026020010151610cbe565b611922565b915080806113c890612481565b91505061130d565b506113db8683610cfa565b94506113e78682610cfa565b935060005b838110156114af57611446866114418c848861140891906125cf565b81518110611419576114186123f7565b5b60200260200101518c8581518110611434576114336123f7565b5b6020026020010151610cfa565b610db2565b955061149a856114958c8481518110611462576114616123f7565b5b60200260200101518c858961147791906125cf565b81518110611488576114876123f7565b5b6020026020010151610cfa565b610db2565b945080806114a790612481565b9150506113ec565b5050505094509492505050565b60608060606000600287516114d19190612603565b905060006114de86610e9a565b90508167ffffffffffffffff8111156114fa576114f9611b7b565b5b60405190808252806020026020018201604052801561153357816020015b611520611a60565b8152602001906001900390816115185790505b5094508167ffffffffffffffff8111156115505761154f611b7b565b5b60405190808252806020026020018201604052801561157e5781602001602082028036833780820191505090505b5093508167ffffffffffffffff81111561159b5761159a611b7b565b5b6040519080825280602002602001820160405280156115c95781602001602082028036833780820191505090505b50925060005b82811015611757576116326115fe8b83815181106115f0576115ef6123f7565b5b602002602001015184610cfa565b61162d8c848761160e91906125cf565b8151811061161f5761161e6123f7565b5b60200260200101518a610cfa565b610db2565b868281518110611645576116446123f7565b5b60200260200101819052506116ab611677888b848151811061166a576116696123f7565b5b6020026020010151610cbe565b6116a6848c858861168891906125cf565b81518110611699576116986123f7565b5b6020026020010151610cbe565b611922565b8582815181106116be576116bd6123f7565b5b6020026020010181815250506117256116f1838a84815181106116e4576116e36123f7565b5b6020026020010151610cbe565b611720898b858861170291906125cf565b81518110611713576117126123f7565b5b6020026020010151610cbe565b611922565b848281518110611738576117376123f7565b5b602002602001018181525050808061174f90612481565b9150506115cf565b5050509450945094915050565b61176c611a60565b60007f30644e72e131a029b85045b68181585d97816a916871ca8d3c208c16d87cfd478361179a9190612634565b905060006001826117ab91906124c9565b91506000805b81611902576001846117c391906125cf565b93507f30644e72e131a029b85045b68181585d97816a916871ca8d3c208c16d87cfd47806117f4576117f36125a0565b5b84850990507f30644e72e131a029b85045b68181585d97816a916871ca8d3c208c16d87cfd4780611828576118276125a0565b5b84820990507f30644e72e131a029b85045b68181585d97816a916871ca8d3c208c16d87cfd478061185c5761185b6125a0565b5b6003820890506118c581600460017f30644e72e131a029b85045b68181585d97816a916871ca8d3c208c16d87cfd4761189591906125cf565b61189f9190612603565b7f30644e72e131a029b85045b68181585d97816a916871ca8d3c208c16d87cfd4761195e565b9250807f30644e72e131a029b85045b68181585d97816a916871ca8d3c208c16d87cfd47806118f7576118f66125a0565b5b8485091491506117b1565b604051806040016040528085815260200184815250945050505050919050565b60007f30644e72e131a029b85045b68181585d2833e84879b9709143e1f593f000000180611953576119526125a0565b5b828408905092915050565b6000611968611b0d565b611970611b2f565b602082600060068110611986576119856123f7565b5b6020020181815250506020826001600681106119a5576119a46123f7565b5b6020020181815250506020826002600681106119c4576119c36123f7565b5b60200201818152505085826003600681106119e2576119e16123f7565b5b6020020181815250508482600460068110611a00576119ff6123f7565b5b6020020181815250508382600560068110611a1e57611a1d6123f7565b5b60200201818152505060208160c0846005600019fa611a3c57600080fd5b80600060018110611a5057611a4f6123f7565b5b6020020151925050509392505050565b604051806040016040528060008152602001600081525090565b6040518060800160405280606081526020016060815260200160008152602001600081525090565b6040518060600160405280600390602082028036833780820191505090505090565b6040518060800160405280600490602082028036833780820191505090505090565b604051806060016040528060608152602001611b00611a60565b8152602001600081525090565b6040518060c00160405280600690602082028036833780820191505090505090565b6040518060200160405280600190602082028036833780820191505090505090565b6000604051905090565b600080fd5b600080fd5b600080fd5b6000601f19601f8301169050919050565b7f4e487b7100000000000000000000000000000000000000000000000000000000600052604160045260246000fd5b611bb382611b6a565b810181811067ffffffffffffffff82111715611bd257611bd1611b7b565b5b80604052505050565b6000611be5611b51565b9050611bf18282611baa565b919050565b600080fd5b600080fd5b600067ffffffffffffffff821115611c1b57611c1a611b7b565b5b602082029050602081019050919050565b600080fd5b6000819050919050565b611c4481611c31565b8114611c4f57600080fd5b50565b600081359050611c6181611c3b565b92915050565b600060408284031215611c7d57611c7c611b65565b5b611c876040611bdb565b90506000611c9784828501611c52565b6000830152506020611cab84828501611c52565b60208301525092915050565b6000611cca611cc584611c00565b611bdb565b90508083825260208201905060408402830185811115611ced57611cec611c2c565b5b835b81811015611d165780611d028882611c67565b845260208401935050604081019050611cef565b5050509392505050565b600082601f830112611d3557611d34611bfb565b5b8135611d45848260208601611cb7565b91505092915050565b600060808284031215611d6457611d63611b65565b5b611d6e6060611bdb565b9050600082013567ffffffffffffffff811115611d8e57611d8d611bf6565b5b611d9a84828501611d20565b6000830152506020611dae84828501611c67565b6020830152506060611dc284828501611c52565b60408301525092915050565b600060808284031215611de457611de3611b65565b5b611dee6080611bdb565b9050600082013567ffffffffffffffff811115611e0e57611e0d611bf6565b5b611e1a84828501611d20565b600083015250602082013567ffffffffffffffff811115611e3e57611e3d611bf6565b5b611e4a84828501611d20565b6020830152506040611e5e84828501611c52565b6040830152506060611e7284828501611c52565b60608301525092915050565b60008060408385031215611e9557611e94611b5b565b5b600083013567ffffffffffffffff811115611eb357611eb2611b60565b5b611ebf85828601611d4e565b925050602083013567ffffffffffffffff811115611ee057611edf611b60565b5b611eec85828601611dce565b9150509250929050565b60008115159050919050565b611f0b81611ef6565b82525050565b6000602082019050611f266000830184611f02565b92915050565b600067ffffffffffffffff821115611f4757611f46611b7b565b5b602082029050602081019050919050565b6000611f6b611f6684611f2c565b611bdb565b90508083825260208201905060208402830185811115611f8e57611f8d611c2c565b5b835b81811015611fb75780611fa38882611c52565b845260208401935050602081019050611f90565b5050509392505050565b600082601f830112611fd657611fd5611bfb565b5b8135611fe6848260208601611f58565b91505092915050565b60006020828403121561200557612004611b5b565b5b600082013567ffffffffffffffff81111561202357612022611b60565b5b61202f84828501611fc1565b91505092915050565b6000806040838503121561204f5761204e611b5b565b5b600083013567ffffffffffffffff81111561206d5761206c611b60565b5b61207985828601611d4e565b925050602083013567ffffffffffffffff81111561209a57612099611b60565b5b6120a685828601611fc1565b9150509250929050565b600081519050919050565b600082825260208201905092915050565b6000819050602082019050919050565b6120e581611c31565b82525050565b60408201600082015161210160008501826120dc565b50602082015161211460208501826120dc565b50505050565b600061212683836120eb565b60408301905092915050565b6000602082019050919050565b600061214a826120b0565b61215481856120bb565b935061215f836120cc565b8060005b83811015612190578151612177888261211a565b975061218283612132565b925050600181019050612163565b5085935050505092915050565b600060808301600083015184820360008601526121ba828261213f565b915050602083015184820360208601526121d4828261213f565b91505060408301516121e960408601826120dc565b5060608301516121fc60608601826120dc565b508091505092915050565b60006020820190508181036000830152612221818461219d565b905092915050565b61223281611c31565b82525050565b60408201600082015161224e6000850182612229565b5060208201516122616020850182612229565b50505050565b600060408201905061227c6000830184612238565b92915050565b6000819050919050565b61229581612282565b81146122a057600080fd5b50565b6000815190506122b28161228c565b92915050565b6000602082840312156122ce576122cd611b5b565b5b60006122dc848285016122a3565b91505092915050565b60008160001c9050919050565b6000819050919050565b600061230f61230a836122e5565b6122f2565b9050919050565b60408201600080830154905061232b816122fc565b6123386000860182612229565b5060018301549050612349816122fc565b6123566020860182612229565b5050505050565b60006040820190506123726000830184612316565b92915050565b6000819050919050565b61239361238e82612282565b612378565b82525050565b6000819050919050565b6123b46123af82611c31565b612399565b82525050565b60006123c68286612382565b6020820191506123d68285612382565b6020820191506123e682846123a3565b602082019150819050949350505050565b7f4e487b7100000000000000000000000000000000000000000000000000000000600052603260045260246000fd5b60006124328285612382565b6020820191506124428284612382565b6020820191508190509392505050565b7f4e487b7100000000000000000000000000000000000000000000000000000000600052601160045260246000fd5b600061248c82611c31565b91507fffffffffffffffffffffffffffffffffffffffffffffffffffffffffffffffff82036124be576124bd612452565b5b600182019050919050565b60006124d482611c31565b91506124df83611c31565b92508282039050818111156124f7576124f6612452565b5b92915050565b600082825260208201905092915050565b7f766563746f72206c656e6774682073686f756c64206265206120706f7765722060008201527f6f66203200000000000000000000000000000000000000000000000000000000602082015250565b600061256a6024836124fd565b91506125758261250e565b604082019050919050565b600060208201905081810360008301526125998161255d565b9050919050565b7f4e487b7100000000000000000000000000000000000000000000000000000000600052601260045260246000fd5b60006125da82611c31565b91506125e583611c31565b92508282019050808211156125fd576125fc612452565b5b92915050565b600061260e82611c31565b915061261983611c31565b925082612629576126286125a0565b5b828204905092915050565b600061263f82611c31565b915061264a83611c31565b92508261265a576126596125a0565b5b828206905092915050565b6000819050919050565b600061267a82612665565b915061268583612665565b925082820261269381612665565b91507f800000000000000000000000000000000000000000000000000000000000000084146000841216156126cb576126ca612452565b5b82820584148315176126e0576126df612452565b5b5092915050565b60006126f282612665565b91506126fd83612665565b925082820390508181126000841216828213600085121516171561272457612723612452565b5b92915050565b600061273582611c31565b915061274083611c31565b925082820261274e81611c31565b9150828204841483151761276557612764612452565b5b5092915050565b600061277782612665565b91507f800000000000000000000000000000000000000000000000000000000000000082036127a9576127a8612452565b5b81600003905091905056fea2646970667358221220d75ac00c26a692e65dd33471b204c214001c01d36d04e379b4957bd0bcfe4b3e64736f6c63430008130033",
  "immutableReferences": {},
  "source": "// SPDX-License-Identifier: GPL-3.0\npragma solidity >=0.4.0 <0.9.0;\n\nimport \"./alt_bn128.sol\";\n\n// proof using iteration\ncontract NISA{\n\tusing alt_bn128 for uint256;\n\tusing alt_bn128 for alt_bn128.G1Point;\n\n\talt_bn128.G1Point u; // random generator\n\n\tstruct Param {\n\t\talt_bn128.G1Point[] Gs; \n\t\talt_bn128.G1Point P; \n\t\tuint256 c;\n\t}\n\n\tstruct Proof {\n\t\talt_bn128.G1Point[] Ls;\n\t\talt_bn128.G1Point[] Rs;\n\t\tuint256 a;\n\t\tuint256 b;\n\t}\n\n\tconstructor() {\n\t\tuint256 seed = uint256(keccak256(abi.encodePacked(block.timestamp, blockhash(block.number - 1))));\n\t\tu = alt_bn128.uintToCurvePoint(seed);\n\t}\n\n\t/** test correctness */\n\tfunction test(uint256[] memory a) public view returns (bool) {\n\t\tParam memory param = generateParam(a);\n\t\tProof memory p = prove(param, a);\n\t\treturn verify(param, p);\n\t}\n\n\t/** \n\t\tGs : public keys\n\t\tP : prod_i (g_i ^ a_i)\n\t\tc : sum_i a_i\n\t */\n\tfunction generateParam(uint256[] memory a) internal view returns (Param memory param){\n\t\trequire(a.length & (a.length - 1) == 0, \"vector length should be a power of 2\");\n\t\tparam.Gs = new alt_bn128.G1Point[](a.length);\n\t\tfor (uint256 i = 0; i < a.length; i++){\n\t\t\tparam.Gs[i] = alt_bn128.uintToCurvePoint(i+2);\n\t\t}\n\t\tparam.c = a[0];\n\t\tparam.P = alt_bn128.mul(param.Gs[0], a[0]);\n\t\tfor (uint i = 1; i < a.length; i++){\n\t\t\tparam.c = alt_bn128.add(param.c, a[i]);\n\t\t\tparam.P = alt_bn128.add(param.P, alt_bn128.mul(param.Gs[i], a[i]));\n\t\t}\n\t}\n\n\tfunction prove(Param memory param, uint256[] memory a) public view\n\treturns (Proof memory p){\n\t\trequire(a.length & (a.length - 1) == 0, \"vector length should be a power of 2\");\n\n\t\tuint length = log2(a.length);\n\t\tp.Ls = new alt_bn128.G1Point[](length);\n\t\tp.Rs = new alt_bn128.G1Point[](length);\n\n\t\tuint256 H_z = uint256(keccak256(abi.encodePacked(alt_bn128.serialize(param.P), alt_bn128.serialize(u), param.c)));\n\t\t\n\t\talt_bn128.G1Point memory u_prime = alt_bn128.mul(u, H_z);\n\n\t\tuint256[] memory b = new uint256[](a.length);\n\t\talt_bn128.G1Point[] memory Gs = new alt_bn128.G1Point[](a.length);\n\t\tfor (uint i = 0; i < b.length; i++){\n\t\t\tb[i] = 1;\n\t\t\tGs[i] = param.Gs[i];\n\t\t}\n\t\talt_bn128.G1Point memory L;\n\t\talt_bn128.G1Point memory R;\n\t\tuint256 x;\n\n\t\t// O(logn) loop\n\t\tfor (uint idx = 0; idx < length; idx++){\n\n\t\t\t// L && R\n\t\t\t(L, R) = LR(Gs, a, b, u_prime);\n\t\t\tp.Ls[idx] = L; p.Rs[idx] = R;\n\n\t\t\tx = uint256(keccak256(abi.encodePacked(alt_bn128.serialize(L), alt_bn128.serialize(R))));\n\n\t\t\t// half size\n\t\t\t(Gs, a, b) = nextRound(Gs, a, b, x);\n\t\t}\n\n\t\tp.a = a[0];\n\t\tp.b = b[0];\n\t}\n\n\tfunction LR(alt_bn128.G1Point[] memory Gs, uint256[] memory a, uint256[] memory b, alt_bn128.G1Point memory u_prime) internal view \n\treturns (alt_bn128.G1Point memory L, alt_bn128.G1Point memory R) {\n\t\tuint n = a.length / 2;\n\t\tuint256 cL = alt_bn128.mul(a[0], b[n]);\n\t\tuint256 cR = alt_bn128.mul(a[n], b[0]);\n\t\tfor (uint i = 1; i < n; i++){\n\t\t\tcL = alt_bn128.add(cL, alt_bn128.mul(a[i], b[n+i]));\n\t\t\tcR = alt_bn128.add(cR, alt_bn128.mul(a[n+i], b[i]));\n\t\t}\n\n\t\tL = alt_bn128.mul(u_prime, cL);\n\t\tR = alt_bn128.mul(u_prime, cR);\n\n\t\tfor (uint i = 0; i < n; i++){\n\t\t\tL = alt_bn128.add(L, alt_bn128.mul(Gs[n+i], a[i]));\n\t\t\tR = alt_bn128.add(R, alt_bn128.mul(Gs[i], a[n+i]));\n\t\t}\n\t}\n\n\tfunction nextRound(alt_bn128.G1Point[] memory Gs, uint256[] memory a, uint256[] memory b, uint256 x) internal view returns (alt_bn128.G1Point[] memory Gs_new, uint256[] memory a_new, uint256[] memory b_new)\n\t{\n\t\tuint n = a.length / 2;\n\n\t\tuint256 x_inv = alt_bn128.inv(x);\n\n\t\tGs_new = new alt_bn128.G1Point[](n);\n\t\ta_new = new uint256[](n);\n\t\tb_new = new uint256[](n);\n\n\t\tfor (uint i = 0; i < n; i++){\n\t\t\tGs_new[i] = alt_bn128.add(alt_bn128.mul(Gs[i], x_inv), alt_bn128.mul(Gs[n+i], x));\n\t\t\ta_new[i] = alt_bn128.add(alt_bn128.mul(x, a[i]), alt_bn128.mul(x_inv, a[n+i]));\n\t\t\tb_new[i] = alt_bn128.add(alt_bn128.mul(x_inv, b[i]), alt_bn128.mul(x, b[n+i]));\n\t\t}\n\t}\n\n\tfunction verify(Param memory param, Proof memory p) public view \n\treturns (bool){\n\t\tuint256 H_z = uint256(keccak256(abi.encodePacked(alt_bn128.serialize(param.P), alt_bn128.serialize(u), param.c)));\n\n\t\talt_bn128.G1Point memory P_prime = alt_bn128.add(param.P, alt_bn128.mul(u, alt_bn128.mul(param.c, H_z)));\n\n\t\tuint length = log2(param.Gs.length);\n\n\t\tuint256[] memory xs = new uint256[](length);\n\t\t// uint256[] memory xs_inv = new uint256[](length);\n\t\t// uint256[] memory ys = new uint256[](param.Gs.length);\n\t\tuint256 x_inv;\n\t\tuint256 y;\n\t\t// verify\n\t\talt_bn128.G1Point memory left_point = P_prime;\n\t\talt_bn128.G1Point memory right_point;\n\n\t\ty = 1;\n\t\tfor (uint i = 0; i < length; i++){\n\t\t\txs[i] = uint256(keccak256(abi.encodePacked(alt_bn128.serialize(p.Ls[i]), alt_bn128.serialize(p.Rs[i]))));\n\t\t\tx_inv = alt_bn128.inv(xs[i]);\n\n\t\t\tleft_point = alt_bn128.add(left_point, \n\t\t\t\talt_bn128.mul(p.Ls[i], alt_bn128.mul(xs[i], xs[i]))\n\t\t\t);\n\t\t\tleft_point = alt_bn128.add(left_point, \n\t\t\t\talt_bn128.mul(p.Rs[i], alt_bn128.mul(x_inv, x_inv))\n\t\t\t);\n\n\t\t\ty = alt_bn128.mul(y, x_inv);\n\t\t}\n\t\tright_point = alt_bn128.mul(param.Gs[0], y);\n\n\t\t// uint256 k;\n\t\tfor (uint i = 1; i < param.Gs.length; i++){\n\t\t\ty = 1;\n\t\t\t// k = length - 1; // length - j - 1\n\t\t\tfor (uint j = 0; j < length; j++){\n\t\t\t\tif (check_bit(i, j)){\n\t\t\t\t\ty = alt_bn128.mul(y, xs[length-j-1]);\n\t\t\t\t} else {\n\t\t\t\t\ty = alt_bn128.mul(y, alt_bn128.inv(xs[length-j-1]));\n\t\t\t\t}\n\t\t\t\t// k--;\n\t\t\t}\n\t\t\tright_point = alt_bn128.add(right_point, alt_bn128.mul(param.Gs[i], y));\n\t\t}\n\t\tright_point = alt_bn128.add(right_point, alt_bn128.mul(alt_bn128.mul(u, H_z), p.b));\n\t\tright_point = alt_bn128.mul(right_point, p.a);\n\n\t\treturn alt_bn128.eq(left_point, right_point);\n\t}\n\n\tfunction log2(uint n) internal pure returns (uint ndigits){\n\t\tndigits = 0;\n\t\twhile (n > 1){\n\t\t\tndigits += 1;\n\t\t\tn = n/2;\n\t\t}\n\t}\n\n\tfunction check_bit(uint i, uint j) internal pure returns (bool){\n\t\treturn ((i >> j) & 1) == 1;\n\t}\n}",
  "sourcePath": "/Users/qian/Desktop/Y4/COMP4550/ZKP-Blockchain/contracts/nisa.sol",
  "compiler": {
    "name": "solc",
    "version": "0.8.19+commit.7dd6d404.Emscripten.clang"
  },
  "schemaVersion": "3.4.13",
  "updatedAt": "2023-04-06T12:47:11.228Z",
  "networkType": "ethereum",
  "devdoc": {
    "kind": "dev",
    "methods": {},
    "version": 1
  },
  "userdoc": {
    "kind": "user",
    "methods": {
      "test(uint256[])": {
        "notice": "test correctness "
      }
    },
    "version": 1
  }
}