{
  "contractName": "NISA2",
  "abi": [
    {
      "inputs": [],
      "stateMutability": "nonpayable",
      "type": "constructor"
    },
    {
      "inputs": [
        {
          "internalType": "uint256[]",
          "name": "a",
          "type": "uint256[]"
        }
      ],
      "name": "test",
      "outputs": [
        {
          "internalType": "bool",
          "name": "",
          "type": "bool"
        }
      ],
      "stateMutability": "nonpayable",
      "type": "function"
    },
    {
      "inputs": [
        {
          "internalType": "uint256[]",
          "name": "a",
          "type": "uint256[]"
        }
      ],
      "name": "generateParam",
      "outputs": [
        {
          "components": [
            {
              "components": [
                {
                  "internalType": "uint256",
                  "name": "X",
                  "type": "uint256"
                },
                {
                  "internalType": "uint256",
                  "name": "Y",
                  "type": "uint256"
                }
              ],
              "internalType": "struct alt_bn128.G1Point[]",
              "name": "Gs",
              "type": "tuple[]"
            },
            {
              "components": [
                {
                  "internalType": "uint256",
                  "name": "X",
                  "type": "uint256"
                },
                {
                  "internalType": "uint256",
                  "name": "Y",
                  "type": "uint256"
                }
              ],
              "internalType": "struct alt_bn128.G1Point",
              "name": "P",
              "type": "tuple"
            },
            {
              "internalType": "uint256",
              "name": "c",
              "type": "uint256"
            }
          ],
          "internalType": "struct NISA2.Param",
          "name": "param",
          "type": "tuple"
        }
      ],
      "stateMutability": "view",
      "type": "function",
      "constant": true
    },
    {
      "inputs": [
        {
          "components": [
            {
              "components": [
                {
                  "internalType": "uint256",
                  "name": "X",
                  "type": "uint256"
                },
                {
                  "internalType": "uint256",
                  "name": "Y",
                  "type": "uint256"
                }
              ],
              "internalType": "struct alt_bn128.G1Point[]",
              "name": "Gs",
              "type": "tuple[]"
            },
            {
              "components": [
                {
                  "internalType": "uint256",
                  "name": "X",
                  "type": "uint256"
                },
                {
                  "internalType": "uint256",
                  "name": "Y",
                  "type": "uint256"
                }
              ],
              "internalType": "struct alt_bn128.G1Point",
              "name": "P",
              "type": "tuple"
            },
            {
              "internalType": "uint256",
              "name": "c",
              "type": "uint256"
            }
          ],
          "internalType": "struct NISA2.Param",
          "name": "param",
          "type": "tuple"
        },
        {
          "internalType": "uint256[]",
          "name": "a",
          "type": "uint256[]"
        }
      ],
      "name": "prove",
      "outputs": [
        {
          "components": [
            {
              "components": [
                {
                  "internalType": "uint256",
                  "name": "X",
                  "type": "uint256"
                },
                {
                  "internalType": "uint256",
                  "name": "Y",
                  "type": "uint256"
                }
              ],
              "internalType": "struct alt_bn128.G1Point[]",
              "name": "Ls",
              "type": "tuple[]"
            },
            {
              "components": [
                {
                  "internalType": "uint256",
                  "name": "X",
                  "type": "uint256"
                },
                {
                  "internalType": "uint256",
                  "name": "Y",
                  "type": "uint256"
                }
              ],
              "internalType": "struct alt_bn128.G1Point[]",
              "name": "Rs",
              "type": "tuple[]"
            },
            {
              "internalType": "uint256",
              "name": "a",
              "type": "uint256"
            },
            {
              "internalType": "uint256",
              "name": "b",
              "type": "uint256"
            }
          ],
          "internalType": "struct NISA2.Proof",
          "name": "",
          "type": "tuple"
        }
      ],
      "stateMutability": "nonpayable",
      "type": "function"
    },
    {
      "inputs": [
        {
          "components": [
            {
              "components": [
                {
                  "internalType": "uint256",
                  "name": "X",
                  "type": "uint256"
                },
                {
                  "internalType": "uint256",
                  "name": "Y",
                  "type": "uint256"
                }
              ],
              "internalType": "struct alt_bn128.G1Point[]",
              "name": "Gs",
              "type": "tuple[]"
            },
            {
              "components": [
                {
                  "internalType": "uint256",
                  "name": "X",
                  "type": "uint256"
                },
                {
                  "internalType": "uint256",
                  "name": "Y",
                  "type": "uint256"
                }
              ],
              "internalType": "struct alt_bn128.G1Point",
              "name": "u_prime",
              "type": "tuple"
            },
            {
              "internalType": "uint256[]",
              "name": "a",
              "type": "uint256[]"
            },
            {
              "internalType": "uint256[]",
              "name": "b",
              "type": "uint256[]"
            },
            {
              "components": [
                {
                  "internalType": "uint256",
                  "name": "X",
                  "type": "uint256"
                },
                {
                  "internalType": "uint256",
                  "name": "Y",
                  "type": "uint256"
                }
              ],
              "internalType": "struct alt_bn128.G1Point[]",
              "name": "Ls",
              "type": "tuple[]"
            },
            {
              "components": [
                {
                  "internalType": "uint256",
                  "name": "X",
                  "type": "uint256"
                },
                {
                  "internalType": "uint256",
                  "name": "Y",
                  "type": "uint256"
                }
              ],
              "internalType": "struct alt_bn128.G1Point[]",
              "name": "Rs",
              "type": "tuple[]"
            },
            {
              "internalType": "uint256",
              "name": "idx",
              "type": "uint256"
            }
          ],
          "internalType": "struct NISA2.Board",
          "name": "board",
          "type": "tuple"
        }
      ],
      "name": "loop",
      "outputs": [
        {
          "components": [
            {
              "components": [
                {
                  "internalType": "uint256",
                  "name": "X",
                  "type": "uint256"
                },
                {
                  "internalType": "uint256",
                  "name": "Y",
                  "type": "uint256"
                }
              ],
              "internalType": "struct alt_bn128.G1Point[]",
              "name": "Ls",
              "type": "tuple[]"
            },
            {
              "components": [
                {
                  "internalType": "uint256",
                  "name": "X",
                  "type": "uint256"
                },
                {
                  "internalType": "uint256",
                  "name": "Y",
                  "type": "uint256"
                }
              ],
              "internalType": "struct alt_bn128.G1Point[]",
              "name": "Rs",
              "type": "tuple[]"
            },
            {
              "internalType": "uint256",
              "name": "a",
              "type": "uint256"
            },
            {
              "internalType": "uint256",
              "name": "b",
              "type": "uint256"
            }
          ],
          "internalType": "struct NISA2.Proof",
          "name": "",
          "type": "tuple"
        }
      ],
      "stateMutability": "nonpayable",
      "type": "function"
    },
    {
      "inputs": [
        {
          "components": [
            {
              "components": [
                {
                  "internalType": "uint256",
                  "name": "X",
                  "type": "uint256"
                },
                {
                  "internalType": "uint256",
                  "name": "Y",
                  "type": "uint256"
                }
              ],
              "internalType": "struct alt_bn128.G1Point[]",
              "name": "Gs",
              "type": "tuple[]"
            },
            {
              "components": [
                {
                  "internalType": "uint256",
                  "name": "X",
                  "type": "uint256"
                },
                {
                  "internalType": "uint256",
                  "name": "Y",
                  "type": "uint256"
                }
              ],
              "internalType": "struct alt_bn128.G1Point",
              "name": "P",
              "type": "tuple"
            },
            {
              "internalType": "uint256",
              "name": "c",
              "type": "uint256"
            }
          ],
          "internalType": "struct NISA2.Param",
          "name": "param",
          "type": "tuple"
        },
        {
          "components": [
            {
              "components": [
                {
                  "internalType": "uint256",
                  "name": "X",
                  "type": "uint256"
                },
                {
                  "internalType": "uint256",
                  "name": "Y",
                  "type": "uint256"
                }
              ],
              "internalType": "struct alt_bn128.G1Point[]",
              "name": "Ls",
              "type": "tuple[]"
            },
            {
              "components": [
                {
                  "internalType": "uint256",
                  "name": "X",
                  "type": "uint256"
                },
                {
                  "internalType": "uint256",
                  "name": "Y",
                  "type": "uint256"
                }
              ],
              "internalType": "struct alt_bn128.G1Point[]",
              "name": "Rs",
              "type": "tuple[]"
            },
            {
              "internalType": "uint256",
              "name": "a",
              "type": "uint256"
            },
            {
              "internalType": "uint256",
              "name": "b",
              "type": "uint256"
            }
          ],
          "internalType": "struct NISA2.Proof",
          "name": "p",
          "type": "tuple"
        }
      ],
      "name": "verify",
      "outputs": [
        {
          "internalType": "bool",
          "name": "",
          "type": "bool"
        }
      ],
      "stateMutability": "view",
      "type": "function",
      "constant": true
    }
  ],
  "bytecode": "0x60806040523480156200001157600080fd5b5060004260014362000024919062000416565b4060405160200162000038929190620004a5565b6040516020818303038152906040528051906020012060001c905062000064816200008360201b60201c565b60008082015181600001556020820151816001015590505050620005de565b6200008d6200037f565b60007f30644e72e131a029b85045b68181585d97816a916871ca8d3c208c16d87cfd4783620000bd919062000504565b90506000600182620000d0919062000416565b91506000805b816200024357600184620000eb91906200053c565b93507f30644e72e131a029b85045b68181585d97816a916871ca8d3c208c16d87cfd47806200011f576200011e620004d5565b5b84850990507f30644e72e131a029b85045b68181585d97816a916871ca8d3c208c16d87cfd4780620001565762000155620004d5565b5b84820990507f30644e72e131a029b85045b68181585d97816a916871ca8d3c208c16d87cfd47806200018d576200018c620004d5565b5b6003820890506200020281600460017f30644e72e131a029b85045b68181585d97816a916871ca8d3c208c16d87cfd47620001c991906200053c565b620001d5919062000577565b7f30644e72e131a029b85045b68181585d97816a916871ca8d3c208c16d87cfd476200026360201b60201c565b9250807f30644e72e131a029b85045b68181585d97816a916871ca8d3c208c16d87cfd4780620002375762000236620004d5565b5b848509149150620000d6565b604051806040016040528085815260200184815250945050505050919050565b60006200026f62000399565b62000279620003bb565b602082600060068110620002925762000291620005af565b5b602002018181525050602082600160068110620002b457620002b3620005af565b5b602002018181525050602082600260068110620002d657620002d5620005af565b5b6020020181815250508582600360068110620002f757620002f6620005af565b5b6020020181815250508482600460068110620003185762000317620005af565b5b6020020181815250508382600560068110620003395762000338620005af565b5b60200201818152505060208160c0846005600019fa6200035857600080fd5b806000600181106200036f576200036e620005af565b5b6020020151925050509392505050565b604051806040016040528060008152602001600081525090565b6040518060c00160405280600690602082028036833780820191505090505090565b6040518060200160405280600190602082028036833780820191505090505090565b6000819050919050565b7f4e487b7100000000000000000000000000000000000000000000000000000000600052601160045260246000fd5b60006200042382620003dd565b91506200043083620003dd565b92508282039050818111156200044b576200044a620003e7565b5b92915050565b6000819050919050565b620004706200046a82620003dd565b62000451565b82525050565b6000819050919050565b6000819050919050565b6200049f620004998262000476565b62000480565b82525050565b6000620004b382856200045b565b602082019150620004c582846200048a565b6020820191508190509392505050565b7f4e487b7100000000000000000000000000000000000000000000000000000000600052601260045260246000fd5b60006200051182620003dd565b91506200051e83620003dd565b925082620005315762000530620004d5565b5b828206905092915050565b60006200054982620003dd565b91506200055683620003dd565b9250828201905080821115620005715762000570620003e7565b5b92915050565b60006200058482620003dd565b91506200059183620003dd565b925082620005a457620005a3620004d5565b5b828204905092915050565b7f4e487b7100000000000000000000000000000000000000000000000000000000600052603260045260246000fd5b612c5280620005ee6000396000f3fe608060405234801561001057600080fd5b50600436106100575760003560e01c80634d0f9ca81461005c5780636c468bb51461008c578063b5c5d37a146100bc578063ca160684146100ec578063f909cb5b1461011c575b600080fd5b610076600480360381019061007191906121be565b61014c565b604051610083919061235e565b60405180910390f35b6100a660048036038101906100a191906124b0565b610676565b6040516100b39190612543565b60405180910390f35b6100d660048036038101906100d1919061255e565b610e56565b6040516100e391906125f7565b60405180910390f35b6101066004803603810190610101919061255e565b611087565b6040516101139190612543565b60405180910390f35b61013660048036038101906101319190612619565b6110b6565b604051610143919061235e565b60405180910390f35b610154611ccc565b6001826040015151036101cf576040518060800160405280836080015181526020018360a001518152602001836040015160008151811061019857610197612691565b5b6020026020010151815260200183606001516000815181106101bd576101bc612691565b5b60200260200101518152509050610671565b6101d7611cf4565b6101df611cf4565b6101fb8460000151856040015186606001518760200151611403565b80925081935050508184608001518560c001518151811061021f5761021e612691565b5b6020026020010181905250808460a001518560c001518151811061024657610245612691565b5b6020026020010181905250600073__alt_bn128_____________________________63aba8f706846040518263ffffffff1660e01b815260040161028a91906126fe565b602060405180830381865af41580156102a7573d6000803e3d6000fd5b505050506040513d601f19601f820116820180604052508101906102cb919061274f565b73__alt_bn128_____________________________63aba8f706846040518263ffffffff1660e01b815260040161030291906126fe565b602060405180830381865af415801561031f573d6000803e3d6000fd5b505050506040513d601f19601f82011682018060405250810190610343919061274f565b60405160200161035492919061279d565b6040516020818303038152906040528051906020012060001c9050600061037a82611661565b9050600060028760400151516103909190612827565b905060008167ffffffffffffffff8111156103ae576103ad611de7565b5b6040519080825280602002602001820160405280156103e757816020015b6103d4611cf4565b8152602001906001900390816103cc5790505b50905060008267ffffffffffffffff81111561040657610405611de7565b5b6040519080825280602002602001820160405280156104345781602001602082028036833780820191505090505b50905060008367ffffffffffffffff81111561045357610452611de7565b5b6040519080825280602002602001820160405280156104815781602001602082028036833780820191505090505b50905060005b84811015610627576104f26104ba8c6000015183815181106104ac576104ab612691565b5b6020026020010151886117b9565b6104ed8d6000015184896104ce9190612858565b815181106104df576104de612691565b5b60200260200101518a6117b9565b611871565b84828151811061050557610504612691565b5b602002602001018190525061057361053b888d60400151848151811061052e5761052d612691565b5b6020026020010151611925565b61056e888e60400151858a6105509190612858565b8151811061056157610560612691565b5b6020026020010151611925565b611961565b83828151811061058657610585612691565b5b6020026020010181815250506105f56105bd878d6060015184815181106105b0576105af612691565b5b6020026020010151611925565b6105f0898e60600151858a6105d29190612858565b815181106105e3576105e2612691565b5b6020026020010151611925565b611961565b82828151811061060857610607612691565b5b602002602001018181525050808061061f9061288c565b915050610487565b50828a60000181905250818a60400181905250808a6060018190525060018a60c0018181516106569190612858565b915081815250506106668a61014c565b985050505050505050505b919050565b60008073__alt_bn128_____________________________63aba8f70685602001516040518263ffffffff1660e01b81526004016106b491906126fe565b602060405180830381865af41580156106d1573d6000803e3d6000fd5b505050506040513d601f19601f820116820180604052508101906106f5919061274f565b73__alt_bn128_____________________________63aba8f70660006040518263ffffffff1660e01b815260040161072d919061294c565b602060405180830381865af415801561074a573d6000803e3d6000fd5b505050506040513d601f19601f8201168201806040525081019061076e919061274f565b856040015160405160200161078593929190612988565b6040516020818303038152906040528051906020012060001c905060006107e685602001516107e16000604051806040016040529081600082015481526020016001820154815250506107dc896040015187611925565b6117b9565b611871565b905060006107f886600001515161199d565b905060008167ffffffffffffffff81111561081657610815611de7565b5b6040519080825280602002602001820160405280156108445781602001602082028036833780820191505090505b50905060008267ffffffffffffffff81111561086357610862611de7565b5b6040519080825280602002602001820160405280156108915781602001602082028036833780820191505090505b509050600088600001515167ffffffffffffffff8111156108b5576108b4611de7565b5b6040519080825280602002602001820160405280156108e35781602001602082028036833780820191505090505b50905060005b84811015610abb5773__alt_bn128_____________________________63aba8f7068a60000151838151811061092257610921612691565b5b60200260200101516040518263ffffffff1660e01b815260040161094691906126fe565b602060405180830381865af4158015610963573d6000803e3d6000fd5b505050506040513d601f19601f82011682018060405250810190610987919061274f565b73__alt_bn128_____________________________63aba8f7068b6020015184815181106109b8576109b7612691565b5b60200260200101516040518263ffffffff1660e01b81526004016109dc91906126fe565b602060405180830381865af41580156109f9573d6000803e3d6000fd5b505050506040513d601f19601f82011682018060405250810190610a1d919061274f565b604051602001610a2e92919061279d565b6040516020818303038152906040528051906020012060001c848281518110610a5a57610a59612691565b5b602002602001018181525050610a89848281518110610a7c57610a7b612691565b5b6020026020010151611661565b838281518110610a9c57610a9b612691565b5b6020026020010181815250508080610ab39061288c565b9150506108e9565b5060005b896000015151811015610c1c576001828281518110610ae157610ae0612691565b5b60200260200101818152505060005b85811015610c0857610b0282826119d1565b15610b8057610b5c838381518110610b1d57610b1c612691565b5b6020026020010151866001848a610b3491906129c5565b610b3e91906129c5565b81518110610b4f57610b4e612691565b5b6020026020010151611925565b838381518110610b6f57610b6e612691565b5b602002602001018181525050610bf5565b610bd5838381518110610b9657610b95612691565b5b6020026020010151856001848a610bad91906129c5565b610bb791906129c5565b81518110610bc857610bc7612691565b5b6020026020010151611925565b838381518110610be857610be7612691565b5b6020026020010181815250505b8080610c009061288c565b915050610af0565b508080610c149061288c565b915050610abf565b50610c25611cf4565b610c2d611cf4565b86915060005b86811015610d2e57610ca983610ca48d600001518481518110610c5957610c58612691565b5b6020026020010151610c9f8a8681518110610c7757610c76612691565b5b60200260200101518b8781518110610c9257610c91612691565b5b6020026020010151611925565b6117b9565b611871565b9250610d1983610d148d602001518481518110610cc957610cc8612691565b5b6020026020010151610d0f898681518110610ce757610ce6612691565b5b60200260200101518a8781518110610d0257610d01612691565b5b6020026020010151611925565b6117b9565b611871565b92508080610d269061288c565b915050610c33565b50610d738b60000151600081518110610d4a57610d49612691565b5b602002602001015184600081518110610d6657610d65612691565b5b60200260200101516117b9565b90506000600190505b8b6000015151811015610de957610dd482610dcf8e600001518481518110610da757610da6612691565b5b6020026020010151878581518110610dc257610dc1612691565b5b60200260200101516117b9565b611871565b91508080610de19061288c565b915050610d7c565b50610e2a81610e25610e1b6000604051806040016040529081600082015481526020016001820154815250508c6117b9565b8d606001516117b9565b611871565b9050610e3a818b604001516117b9565b9050610e4682826119e4565b9850505050505050505092915050565b610e5e611d0e565b600060018351610e6e91906129c5565b83511614610eb1576040517f08c379a0000000000000000000000000000000000000000000000000000000008152600401610ea890612a7c565b60405180910390fd5b815167ffffffffffffffff811115610ecc57610ecb611de7565b5b604051908082528060200260200182016040528015610f0557816020015b610ef2611cf4565b815260200190600190039081610eea5790505b50816000018190525060005b8251811015610f6457610f2f600282610f2a9190612858565b611a0c565b82600001518281518110610f4657610f45612691565b5b60200260200101819052508080610f5c9061288c565b915050610f11565b5081600081518110610f7957610f78612691565b5b6020026020010151816040018181525050610fce8160000151600081518110610fa557610fa4612691565b5b602002602001015183600081518110610fc157610fc0612691565b5b60200260200101516117b9565b81602001819052506000600190505b82518110156110815761100e826040015184838151811061100157611000612691565b5b6020026020010151611961565b82604001818152505061106682602001516110618460000151848151811061103957611038612691565b5b602002602001015186858151811061105457611053612691565b5b60200260200101516117b9565b611871565b826020018190525080806110799061288c565b915050610fdd565b50919050565b60008061109383610e56565b905060006110a182856110b6565b90506110ad8282610676565b92505050919050565b6110be611ccc565b6000600183516110ce91906129c5565b83511614611111576040517f08c379a000000000000000000000000000000000000000000000000000000000815260040161110890612a7c565b60405180910390fd5b600061111d835161199d565b905060008167ffffffffffffffff81111561113b5761113a611de7565b5b60405190808252806020026020018201604052801561117457816020015b611161611cf4565b8152602001906001900390816111595790505b50905060008267ffffffffffffffff81111561119357611192611de7565b5b6040519080825280602002602001820160405280156111cc57816020015b6111b9611cf4565b8152602001906001900390816111b15790505b509050600073__alt_bn128_____________________________63aba8f70688602001516040518263ffffffff1660e01b815260040161120c91906126fe565b602060405180830381865af4158015611229573d6000803e3d6000fd5b505050506040513d601f19601f8201168201806040525081019061124d919061274f565b73__alt_bn128_____________________________63aba8f70660006040518263ffffffff1660e01b8152600401611285919061294c565b602060405180830381865af41580156112a2573d6000803e3d6000fd5b505050506040513d601f19601f820116820180604052508101906112c6919061274f565b88604001516040516020016112dd93929190612988565b6040516020818303038152906040528051906020012060001c90506000611324600060405180604001604052908160008201548152602001600182015481525050836117b9565b90506000875167ffffffffffffffff81111561134357611342611de7565b5b6040519080825280602002602001820160405280156113715781602001602082028036833780820191505090505b50905060005b81518110156113b457600182828151811061139557611394612691565b5b60200260200101818152505080806113ac9061288c565b915050611377565b506113f56040518060e001604052808b6000015181526020018481526020018a8152602001838152602001878152602001868152602001600081525061014c565b965050505050505092915050565b61140b611cf4565b611413611cf4565b6000600286516114239190612827565b905060006114668760008151811061143e5761143d612691565b5b602002602001015187848151811061145957611458612691565b5b6020026020010151611925565b905060006114a98884815181106114805761147f612691565b5b60200260200101518860008151811061149c5761149b612691565b5b6020026020010151611925565b90506000600190505b838110156115755761150c836115078b84815181106114d4576114d3612691565b5b60200260200101518b85896114e99190612858565b815181106114fa576114f9612691565b5b6020026020010151611925565b611961565b92506115608261155b8b84886115229190612858565b8151811061153357611532612691565b5b60200260200101518b858151811061154e5761154d612691565b5b6020026020010151611925565b611961565b9150808061156d9061288c565b9150506114b2565b5061158086836117b9565b945061158c86826117b9565b935060005b83811015611654576115eb866115e68c84886115ad9190612858565b815181106115be576115bd612691565b5b60200260200101518c85815181106115d9576115d8612691565b5b60200260200101516117b9565b611871565b955061163f8561163a8c848151811061160757611606612691565b5b60200260200101518c858961161c9190612858565b8151811061162d5761162c612691565b5b60200260200101516117b9565b611871565b9450808061164c9061288c565b915050611591565b5050505094509492505050565b600080829050600081036116795760009150506117b4565b7f30644e72e131a029b85045b68181585d2833e84879b9709143e1f593f00000018111156116d0577f30644e72e131a029b85045b68181585d2833e84879b9709143e1f593f0000001816116cd9190612a9c565b90505b6000806001905060007f30644e72e131a029b85045b68181585d2833e84879b9709143e1f593f00000019050600084905060005b6000821461175f5781836117189190612827565b90508384826117279190612ad7565b866117329190612b4f565b83848461173f9190612b92565b8661174a91906129c5565b80955081965082975083985050505050611704565b60008512156117aa578461177290612bd4565b7f30644e72e131a029b85045b68181585d2833e84879b9709143e1f593f000000161179d91906129c5565b96505050505050506117b4565b8496505050505050505b919050565b6117c1611cf4565b600182036117d15782905061186b565b600282036117ea576117e38384611871565b905061186b565b6117f2611d35565b83600001518160006003811061180b5761180a612691565b5b60200201818152505083602001518160016003811061182d5761182c612691565b5b602002018181525050828160026003811061184b5761184a612691565b5b6020020181815250506040826060836007600019fa61186957600080fd5b505b92915050565b611879611cf4565b611881611d57565b83600001518160006004811061189a57611899612691565b5b6020020181815250508360200151816001600481106118bc576118bb612691565b5b6020020181815250508260000151816002600481106118de576118dd612691565b5b602002018181525050826020015181600360048110611900576118ff612691565b5b6020020181815250506040826080836006600019fa61191e57600080fd5b5092915050565b60007f30644e72e131a029b85045b68181585d2833e84879b9709143e1f593f000000180611956576119556127c9565b5b828409905092915050565b60007f30644e72e131a029b85045b68181585d2833e84879b9709143e1f593f000000180611992576119916127c9565b5b828408905092915050565b60005b60018211156119cc576001816119b69190612858565b90506002826119c59190612827565b91506119a0565b919050565b60006001808385901c1614905092915050565b600081600001518360000151148015611a04575081602001518360200151145b905092915050565b611a14611cf4565b60007f30644e72e131a029b85045b68181585d97816a916871ca8d3c208c16d87cfd4783611a429190612a9c565b90506000600182611a5391906129c5565b91506000805b81611baa57600184611a6b9190612858565b93507f30644e72e131a029b85045b68181585d97816a916871ca8d3c208c16d87cfd4780611a9c57611a9b6127c9565b5b84850990507f30644e72e131a029b85045b68181585d97816a916871ca8d3c208c16d87cfd4780611ad057611acf6127c9565b5b84820990507f30644e72e131a029b85045b68181585d97816a916871ca8d3c208c16d87cfd4780611b0457611b036127c9565b5b600382089050611b6d81600460017f30644e72e131a029b85045b68181585d97816a916871ca8d3c208c16d87cfd47611b3d9190612858565b611b479190612827565b7f30644e72e131a029b85045b68181585d97816a916871ca8d3c208c16d87cfd47611bca565b9250807f30644e72e131a029b85045b68181585d97816a916871ca8d3c208c16d87cfd4780611b9f57611b9e6127c9565b5b848509149150611a59565b604051806040016040528085815260200184815250945050505050919050565b6000611bd4611d79565b611bdc611d9b565b602082600060068110611bf257611bf1612691565b5b602002018181525050602082600160068110611c1157611c10612691565b5b602002018181525050602082600260068110611c3057611c2f612691565b5b6020020181815250508582600360068110611c4e57611c4d612691565b5b6020020181815250508482600460068110611c6c57611c6b612691565b5b6020020181815250508382600560068110611c8a57611c89612691565b5b60200201818152505060208160c0846005600019fa611ca857600080fd5b80600060018110611cbc57611cbb612691565b5b6020020151925050509392505050565b6040518060800160405280606081526020016060815260200160008152602001600081525090565b604051806040016040528060008152602001600081525090565b604051806060016040528060608152602001611d28611cf4565b8152602001600081525090565b6040518060600160405280600390602082028036833780820191505090505090565b6040518060800160405280600490602082028036833780820191505090505090565b6040518060c00160405280600690602082028036833780820191505090505090565b6040518060200160405280600190602082028036833780820191505090505090565b6000604051905090565b600080fd5b600080fd5b600080fd5b6000601f19601f8301169050919050565b7f4e487b7100000000000000000000000000000000000000000000000000000000600052604160045260246000fd5b611e1f82611dd6565b810181811067ffffffffffffffff82111715611e3e57611e3d611de7565b5b80604052505050565b6000611e51611dbd565b9050611e5d8282611e16565b919050565b600080fd5b600080fd5b600067ffffffffffffffff821115611e8757611e86611de7565b5b602082029050602081019050919050565b600080fd5b6000819050919050565b611eb081611e9d565b8114611ebb57600080fd5b50565b600081359050611ecd81611ea7565b92915050565b600060408284031215611ee957611ee8611dd1565b5b611ef36040611e47565b90506000611f0384828501611ebe565b6000830152506020611f1784828501611ebe565b60208301525092915050565b6000611f36611f3184611e6c565b611e47565b90508083825260208201905060408402830185811115611f5957611f58611e98565b5b835b81811015611f825780611f6e8882611ed3565b845260208401935050604081019050611f5b565b5050509392505050565b600082601f830112611fa157611fa0611e67565b5b8135611fb1848260208601611f23565b91505092915050565b600067ffffffffffffffff821115611fd557611fd4611de7565b5b602082029050602081019050919050565b6000611ff9611ff484611fba565b611e47565b9050808382526020820190506020840283018581111561201c5761201b611e98565b5b835b8181101561204557806120318882611ebe565b84526020840193505060208101905061201e565b5050509392505050565b600082601f83011261206457612063611e67565b5b8135612074848260208601611fe6565b91505092915050565b6000610100828403121561209457612093611dd1565b5b61209e60e0611e47565b9050600082013567ffffffffffffffff8111156120be576120bd611e62565b5b6120ca84828501611f8c565b60008301525060206120de84828501611ed3565b602083015250606082013567ffffffffffffffff81111561210257612101611e62565b5b61210e8482850161204f565b604083015250608082013567ffffffffffffffff81111561213257612131611e62565b5b61213e8482850161204f565b60608301525060a082013567ffffffffffffffff81111561216257612161611e62565b5b61216e84828501611f8c565b60808301525060c082013567ffffffffffffffff81111561219257612191611e62565b5b61219e84828501611f8c565b60a08301525060e06121b284828501611ebe565b60c08301525092915050565b6000602082840312156121d4576121d3611dc7565b5b600082013567ffffffffffffffff8111156121f2576121f1611dcc565b5b6121fe8482850161207d565b91505092915050565b600081519050919050565b600082825260208201905092915050565b6000819050602082019050919050565b61223c81611e9d565b82525050565b6040820160008201516122586000850182612233565b50602082015161226b6020850182612233565b50505050565b600061227d8383612242565b60408301905092915050565b6000602082019050919050565b60006122a182612207565b6122ab8185612212565b93506122b683612223565b8060005b838110156122e75781516122ce8882612271565b97506122d983612289565b9250506001810190506122ba565b5085935050505092915050565b600060808301600083015184820360008601526123118282612296565b9150506020830151848203602086015261232b8282612296565b91505060408301516123406040860182612233565b5060608301516123536060860182612233565b508091505092915050565b6000602082019050818103600083015261237881846122f4565b905092915050565b60006080828403121561239657612395611dd1565b5b6123a06060611e47565b9050600082013567ffffffffffffffff8111156123c0576123bf611e62565b5b6123cc84828501611f8c565b60008301525060206123e084828501611ed3565b60208301525060606123f484828501611ebe565b60408301525092915050565b60006080828403121561241657612415611dd1565b5b6124206080611e47565b9050600082013567ffffffffffffffff8111156124405761243f611e62565b5b61244c84828501611f8c565b600083015250602082013567ffffffffffffffff8111156124705761246f611e62565b5b61247c84828501611f8c565b602083015250604061249084828501611ebe565b60408301525060606124a484828501611ebe565b60608301525092915050565b600080604083850312156124c7576124c6611dc7565b5b600083013567ffffffffffffffff8111156124e5576124e4611dcc565b5b6124f185828601612380565b925050602083013567ffffffffffffffff81111561251257612511611dcc565b5b61251e85828601612400565b9150509250929050565b60008115159050919050565b61253d81612528565b82525050565b60006020820190506125586000830184612534565b92915050565b60006020828403121561257457612573611dc7565b5b600082013567ffffffffffffffff81111561259257612591611dcc565b5b61259e8482850161204f565b91505092915050565b600060808301600083015184820360008601526125c48282612296565b91505060208301516125d96020860182612242565b5060408301516125ec6060860182612233565b508091505092915050565b6000602082019050818103600083015261261181846125a7565b905092915050565b600080604083850312156126305761262f611dc7565b5b600083013567ffffffffffffffff81111561264e5761264d611dcc565b5b61265a85828601612380565b925050602083013567ffffffffffffffff81111561267b5761267a611dcc565b5b6126878582860161204f565b9150509250929050565b7f4e487b7100000000000000000000000000000000000000000000000000000000600052603260045260246000fd5b6126c981611e9d565b82525050565b6040820160008201516126e560008501826126c0565b5060208201516126f860208501826126c0565b50505050565b600060408201905061271360008301846126cf565b92915050565b6000819050919050565b61272c81612719565b811461273757600080fd5b50565b60008151905061274981612723565b92915050565b60006020828403121561276557612764611dc7565b5b60006127738482850161273a565b91505092915050565b6000819050919050565b61279761279282612719565b61277c565b82525050565b60006127a98285612786565b6020820191506127b98284612786565b6020820191508190509392505050565b7f4e487b7100000000000000000000000000000000000000000000000000000000600052601260045260246000fd5b7f4e487b7100000000000000000000000000000000000000000000000000000000600052601160045260246000fd5b600061283282611e9d565b915061283d83611e9d565b92508261284d5761284c6127c9565b5b828204905092915050565b600061286382611e9d565b915061286e83611e9d565b9250828201905080821115612886576128856127f8565b5b92915050565b600061289782611e9d565b91507fffffffffffffffffffffffffffffffffffffffffffffffffffffffffffffffff82036128c9576128c86127f8565b5b600182019050919050565b60008160001c9050919050565b6000819050919050565b60006128fe6128f9836128d4565b6128e1565b9050919050565b60408201600080830154905061291a816128eb565b61292760008601826126c0565b5060018301549050612938816128eb565b61294560208601826126c0565b5050505050565b60006040820190506129616000830184612905565b92915050565b6000819050919050565b61298261297d82611e9d565b612967565b82525050565b60006129948286612786565b6020820191506129a48285612786565b6020820191506129b48284612971565b602082019150819050949350505050565b60006129d082611e9d565b91506129db83611e9d565b92508282039050818111156129f3576129f26127f8565b5b92915050565b600082825260208201905092915050565b7f766563746f72206c656e6774682073686f756c64206265206120706f7765722060008201527f6f66203200000000000000000000000000000000000000000000000000000000602082015250565b6000612a666024836129f9565b9150612a7182612a0a565b604082019050919050565b60006020820190508181036000830152612a9581612a59565b9050919050565b6000612aa782611e9d565b9150612ab283611e9d565b925082612ac257612ac16127c9565b5b828206905092915050565b6000819050919050565b6000612ae282612acd565b9150612aed83612acd565b9250828202612afb81612acd565b91507f80000000000000000000000000000000000000000000000000000000000000008414600084121615612b3357612b326127f8565b5b8282058414831517612b4857612b476127f8565b5b5092915050565b6000612b5a82612acd565b9150612b6583612acd565b9250828203905081811260008412168282136000851215161715612b8c57612b8b6127f8565b5b92915050565b6000612b9d82611e9d565b9150612ba883611e9d565b9250828202612bb681611e9d565b91508282048414831517612bcd57612bcc6127f8565b5b5092915050565b6000612bdf82612acd565b91507f80000000000000000000000000000000000000000000000000000000000000008203612c1157612c106127f8565b5b81600003905091905056fea26469706673582212206ba51a2c9e57bd9951c829221c4feda6769b43e1513a86441cd951eb13f7389464736f6c63430008130033",
  "immutableReferences": {},
  "source": "// SPDX-License-Identifier: GPL-3.0\npragma solidity >=0.4.0 <0.9.0;\n\nimport \"./alt_bn128.sol\";\n\n// proof using recursion\ncontract NISA2{\n\tusing alt_bn128 for uint256;\n\tusing alt_bn128 for alt_bn128.G1Point;\n\n\tstruct Proof {\n\t\talt_bn128.G1Point[] Ls;\n\t\talt_bn128.G1Point[] Rs;\n\t\tuint256 a;\n\t\tuint256 b;\n\t}\n\n\talt_bn128.G1Point u; // random generator\n\tstruct Param {\n\t\talt_bn128.G1Point[] Gs; \n\t\talt_bn128.G1Point P; \n\t\tuint256 c;\n\t}\n\tstruct Var {\n\t\talt_bn128.G1Point[] Ls;\n\t\talt_bn128.G1Point[] Rs;\n\t}\n\n\tconstructor() {\n\t\tuint256 seed = uint256(keccak256(abi.encodePacked(block.timestamp, blockhash(block.number - 1))));\n\t\tu = alt_bn128.uintToCurvePoint(seed);\n\t}\n\n\t/** generate public keys or curve points */\n\t// function generate(uint count) internal view returns (alt_bn128.G1Point[] memory Gs){\n\t// \tGs = new alt_bn128.G1Point[](count);\n\t// \tfor (uint256 i = 0; i < count; i++){\n\t// \t\tGs[i] = alt_bn128.uintToCurvePoint(i+2);\n\t// \t}\n\t// }\n\n  // test implementation correctness\n  function test(uint256[] memory a) public returns (bool) {\n\t\tParam memory param = generateParam(a);\n\t\tProof memory p = prove(param, a);\n\t\treturn verify(param, p);\n\t}\n\n\tfunction generateParam(uint256[] memory a) public view returns (Param memory param){\n\t\trequire(a.length & (a.length - 1) == 0, \"vector length should be a power of 2\");\n\t\tparam.Gs = new alt_bn128.G1Point[](a.length);\n\t\tfor (uint256 i = 0; i < a.length; i++){\n\t\t\tparam.Gs[i] = alt_bn128.uintToCurvePoint(i+2);\n\t\t}\n\t\tparam.c = a[0];\n\t\tparam.P = alt_bn128.mul(param.Gs[0], a[0]);\n\t\tfor (uint i = 1; i < a.length; i++){\n\t\t\tparam.c = alt_bn128.add(param.c, a[i]);\n\t\t\tparam.P = alt_bn128.add(param.P, alt_bn128.mul(param.Gs[i], a[i]));\n\t\t}\n\t}\n\n\tfunction log2(uint n) internal pure returns (uint ndigits){\n\t\tndigits = 0;\n\t\twhile (n > 1){\n\t\t\tndigits += 1;\n\t\t\tn = n/2;\n\t\t}\n\t}\n\n\t/** Gs : public keys\n\t\tP : prod_i (g_i ^ a_i)\n\t\tc : sum_i a_i\n\t */\n\tfunction prove(Param memory param, uint256[] memory a) public\n\treturns (Proof memory){\n\t\trequire(a.length & (a.length - 1) == 0, \"vector length should be a power of 2\");\n\n\t\tuint length = log2(a.length);\n\t\talt_bn128.G1Point[] memory Ls = new alt_bn128.G1Point[](length);\n\t\talt_bn128.G1Point[] memory Rs = new alt_bn128.G1Point[](length);\n\n\t\tuint256 H_z = uint256(keccak256(abi.encodePacked(alt_bn128.serialize(param.P), alt_bn128.serialize(u), param.c)));\n\t\t\n\t\talt_bn128.G1Point memory u_prime = alt_bn128.mul(u, H_z);\n\n\t\tuint256[] memory b = new uint256[](a.length);\n\t\tfor (uint i = 0; i < b.length; i++){\n\t\t\tb[i] = 1;\n\t\t}\n\t\treturn loop(Board(param.Gs, u_prime, a, b, Ls, Rs, 0));\n\t}\n\n\tstruct Board {\n\t\talt_bn128.G1Point[] Gs;\n    alt_bn128.G1Point u_prime;\n\t\tuint256[] a;\n\t\tuint256[] b;\n    alt_bn128.G1Point[] Ls;\n\t\talt_bn128.G1Point[] Rs;\n    uint idx;\n\t}\n\n\tfunction loop(Board memory board) public returns (Proof memory){\n\t\tif (board.a.length == 1) {\n\t\t\treturn Proof(board.Ls, board.Rs, board.a[0], board.b[0]);\n\t\t}\n\t\talt_bn128.G1Point memory L;\n\t\talt_bn128.G1Point memory R;\n\t\t(L, R) = LR(board.Gs, board.a, board.b, board.u_prime);\n    board.Ls[board.idx] = L;\n    board.Rs[board.idx] = R;\n\n\t\tuint256 x = uint256(keccak256(abi.encodePacked(alt_bn128.serialize(L), alt_bn128.serialize(R))));\n\t\tuint256 x_inv = alt_bn128.inv(x);\n\n\t\tuint n = board.a.length / 2;\n\t\t\n\t\talt_bn128.G1Point[] memory Gs_new = new alt_bn128.G1Point[](n);\n\t\tuint256[] memory a_new = new uint256[](n);\n\t\tuint256[] memory b_new = new uint256[](n);\n\n\t\tfor (uint i = 0; i < n; i++){\n\t\t\tGs_new[i] = alt_bn128.add(alt_bn128.mul(board.Gs[i], x_inv), alt_bn128.mul(board.Gs[n+i], x));\n\t\t  a_new[i] = alt_bn128.add(alt_bn128.mul(x, board.a[i]), alt_bn128.mul(x_inv, board.a[n+i]));\n\t\t\tb_new[i] = alt_bn128.add(alt_bn128.mul(x_inv, board.b[i]), alt_bn128.mul(x, board.b[n+i]));\n\t\t}\n    board.Gs = Gs_new;\n    board.a = a_new;\n    board.b = b_new;\n    board.idx += 1;\n\t\treturn loop(board);\n\t}\n\n\tfunction LR(alt_bn128.G1Point[] memory Gs, uint256[] memory a, uint256[] memory b, alt_bn128.G1Point memory u_prime) internal view \n\treturns (alt_bn128.G1Point memory L, alt_bn128.G1Point memory R) {\n\t\tuint n = a.length / 2;\n\t\tuint256 cL = alt_bn128.mul(a[0], b[n]);\n\t\tuint256 cR = alt_bn128.mul(a[n], b[0]);\n\t\tfor (uint i = 1; i < n; i++){\n\t\t\tcL = alt_bn128.add(cL, alt_bn128.mul(a[i], b[n+i]));\n\t\t\tcR = alt_bn128.add(cR, alt_bn128.mul(a[n+i], b[i]));\n\t\t}\n\n\t\tL = alt_bn128.mul(u_prime, cL);\n\t\tR = alt_bn128.mul(u_prime, cR);\n\n\t\tfor (uint i = 0; i < n; i++){\n\t\t\tL = alt_bn128.add(L, alt_bn128.mul(Gs[n+i], a[i]));\n\t\t\tR = alt_bn128.add(R, alt_bn128.mul(Gs[i], a[n+i]));\n\t\t}\n\t}\n\n\tfunction verify(Param memory param, Proof memory p) public view \n\treturns (bool){\n\t\tuint256 H_z = uint256(keccak256(abi.encodePacked(alt_bn128.serialize(param.P), alt_bn128.serialize(u), param.c)));\n\n\t\talt_bn128.G1Point memory P_prime = alt_bn128.add(param.P, alt_bn128.mul(u, alt_bn128.mul(param.c, H_z)));\n\n\t\tuint length = log2(param.Gs.length);\n\n\t\tuint256[] memory xs = new uint256[](length);\n\t\tuint256[] memory xs_inv = new uint256[](length);\n\t\tuint256[] memory ys = new uint256[](param.Gs.length);\n\n\t\tfor (uint i = 0; i < length; i++){\n\t\t\txs[i] = uint256(keccak256(abi.encodePacked(alt_bn128.serialize(p.Ls[i]), alt_bn128.serialize(p.Rs[i]))));\n\t\t\txs_inv[i] = alt_bn128.inv(xs[i]);\n\t\t}\n\n\t\tfor (uint i = 0; i < param.Gs.length; i++){\n\t\t\tys[i] = 1;\n\t\t\tfor (uint j = 0; j < length; j++){\n\t\t\t\tif (check_bit(i, j)){\n\t\t\t\t\tys[i] = alt_bn128.mul(ys[i], xs[length - j - 1]);\n\t\t\t\t} else {\n\t\t\t\t\tys[i] = alt_bn128.mul(ys[i], xs_inv[length - j - 1]);\n\t\t\t\t}\n\t\t\t}\n\t\t}\n\n\t\t// verify\n\t\talt_bn128.G1Point memory left_point;\n\t\talt_bn128.G1Point memory right_point;\n\n\t\tleft_point = P_prime;\n\t\tfor (uint i = 0; i < length; i++){\n\t\t\tleft_point = alt_bn128.add(left_point, \n\t\t\t\t\t\t\talt_bn128.mul(p.Ls[i], alt_bn128.mul(xs[i], xs[i]))\n\t\t\t\t\t\t);\n\t\t\tleft_point = alt_bn128.add(left_point, \n\t\t\t\t\t\t\talt_bn128.mul(p.Rs[i], alt_bn128.mul(xs_inv[i], xs_inv[i]))\n\t\t\t\t\t\t);\n\t\t}\n\n\t\tright_point = alt_bn128.mul(param.Gs[0], ys[0]);\n\t\tfor (uint i = 1; i < param.Gs.length; i++){\n\t\t\tright_point = alt_bn128.add(right_point, alt_bn128.mul(param.Gs[i], ys[i]));\n\t\t}\n\t\tright_point = alt_bn128.add(right_point, alt_bn128.mul(alt_bn128.mul(u, H_z), p.b));\n\t\tright_point = alt_bn128.mul(right_point, p.a);\n\n\t\treturn alt_bn128.eq(left_point, right_point);\n\t}\n\n\tfunction check_bit(uint i, uint j) internal pure returns (bool){\n\t\treturn ((i >> j) & 1) == 1;\n\t}\n}",
  "sourcePath": "/Users/qian/Desktop/Y4/COMP4550/ZKP-Blockchain/contracts/nisa2.sol",
  "compiler": {
    "name": "solc",
    "version": "0.8.19+commit.7dd6d404.Emscripten.clang"
  },
  "schemaVersion": "3.4.13",
  "updatedAt": "2023-04-06T03:36:06.032Z",
  "networkType": "ethereum",
  "devdoc": {
    "kind": "dev",
    "methods": {},
    "version": 1
  },
  "userdoc": {
    "kind": "user",
    "methods": {
      "prove(((uint256,uint256)[],(uint256,uint256),uint256),uint256[])": {
        "notice": "Gs : public keys P : prod_i (g_i ^ a_i) c : sum_i a_i"
      },
      "test(uint256[])": {
        "notice": "generate public keys or curve points "
      }
    },
    "version": 1
  }
}