{
  "contractName": "NISA2",
  "abi": [
    {
      "inputs": [],
      "stateMutability": "nonpayable",
      "type": "constructor"
    },
    {
      "inputs": [
        {
          "internalType": "uint256[]",
          "name": "a",
          "type": "uint256[]"
        }
      ],
      "name": "generateParam",
      "outputs": [
        {
          "components": [
            {
              "components": [
                {
                  "internalType": "uint256",
                  "name": "X",
                  "type": "uint256"
                },
                {
                  "internalType": "uint256",
                  "name": "Y",
                  "type": "uint256"
                }
              ],
              "internalType": "struct alt_bn128.G1Point[]",
              "name": "Gs",
              "type": "tuple[]"
            },
            {
              "components": [
                {
                  "internalType": "uint256",
                  "name": "X",
                  "type": "uint256"
                },
                {
                  "internalType": "uint256",
                  "name": "Y",
                  "type": "uint256"
                }
              ],
              "internalType": "struct alt_bn128.G1Point",
              "name": "P",
              "type": "tuple"
            },
            {
              "internalType": "uint256",
              "name": "c",
              "type": "uint256"
            }
          ],
          "internalType": "struct NISA2.Param",
          "name": "param",
          "type": "tuple"
        }
      ],
      "stateMutability": "view",
      "type": "function",
      "constant": true
    },
    {
      "inputs": [
        {
          "internalType": "uint256",
          "name": "n",
          "type": "uint256"
        }
      ],
      "name": "log2",
      "outputs": [
        {
          "internalType": "uint256",
          "name": "ndigits",
          "type": "uint256"
        }
      ],
      "stateMutability": "pure",
      "type": "function",
      "constant": true
    },
    {
      "inputs": [
        {
          "internalType": "uint256[]",
          "name": "a",
          "type": "uint256[]"
        }
      ],
      "name": "test",
      "outputs": [
        {
          "internalType": "bool",
          "name": "",
          "type": "bool"
        }
      ],
      "stateMutability": "nonpayable",
      "type": "function"
    },
    {
      "inputs": [
        {
          "components": [
            {
              "components": [
                {
                  "internalType": "uint256",
                  "name": "X",
                  "type": "uint256"
                },
                {
                  "internalType": "uint256",
                  "name": "Y",
                  "type": "uint256"
                }
              ],
              "internalType": "struct alt_bn128.G1Point[]",
              "name": "Gs",
              "type": "tuple[]"
            },
            {
              "components": [
                {
                  "internalType": "uint256",
                  "name": "X",
                  "type": "uint256"
                },
                {
                  "internalType": "uint256",
                  "name": "Y",
                  "type": "uint256"
                }
              ],
              "internalType": "struct alt_bn128.G1Point",
              "name": "P",
              "type": "tuple"
            },
            {
              "internalType": "uint256",
              "name": "c",
              "type": "uint256"
            }
          ],
          "internalType": "struct NISA2.Param",
          "name": "param",
          "type": "tuple"
        },
        {
          "internalType": "uint256[]",
          "name": "a",
          "type": "uint256[]"
        }
      ],
      "name": "prove",
      "outputs": [
        {
          "components": [
            {
              "components": [
                {
                  "internalType": "uint256",
                  "name": "X",
                  "type": "uint256"
                },
                {
                  "internalType": "uint256",
                  "name": "Y",
                  "type": "uint256"
                }
              ],
              "internalType": "struct alt_bn128.G1Point[]",
              "name": "Ls",
              "type": "tuple[]"
            },
            {
              "components": [
                {
                  "internalType": "uint256",
                  "name": "X",
                  "type": "uint256"
                },
                {
                  "internalType": "uint256",
                  "name": "Y",
                  "type": "uint256"
                }
              ],
              "internalType": "struct alt_bn128.G1Point[]",
              "name": "Rs",
              "type": "tuple[]"
            },
            {
              "internalType": "uint256",
              "name": "a",
              "type": "uint256"
            },
            {
              "internalType": "uint256",
              "name": "b",
              "type": "uint256"
            }
          ],
          "internalType": "struct NISA2.Proof",
          "name": "",
          "type": "tuple"
        }
      ],
      "stateMutability": "nonpayable",
      "type": "function"
    },
    {
      "inputs": [
        {
          "components": [
            {
              "components": [
                {
                  "internalType": "uint256",
                  "name": "X",
                  "type": "uint256"
                },
                {
                  "internalType": "uint256",
                  "name": "Y",
                  "type": "uint256"
                }
              ],
              "internalType": "struct alt_bn128.G1Point[]",
              "name": "Gs",
              "type": "tuple[]"
            },
            {
              "components": [
                {
                  "internalType": "uint256",
                  "name": "X",
                  "type": "uint256"
                },
                {
                  "internalType": "uint256",
                  "name": "Y",
                  "type": "uint256"
                }
              ],
              "internalType": "struct alt_bn128.G1Point",
              "name": "u_prime",
              "type": "tuple"
            },
            {
              "internalType": "uint256[]",
              "name": "a",
              "type": "uint256[]"
            },
            {
              "internalType": "uint256[]",
              "name": "b",
              "type": "uint256[]"
            },
            {
              "components": [
                {
                  "internalType": "uint256",
                  "name": "X",
                  "type": "uint256"
                },
                {
                  "internalType": "uint256",
                  "name": "Y",
                  "type": "uint256"
                }
              ],
              "internalType": "struct alt_bn128.G1Point[]",
              "name": "Ls",
              "type": "tuple[]"
            },
            {
              "components": [
                {
                  "internalType": "uint256",
                  "name": "X",
                  "type": "uint256"
                },
                {
                  "internalType": "uint256",
                  "name": "Y",
                  "type": "uint256"
                }
              ],
              "internalType": "struct alt_bn128.G1Point[]",
              "name": "Rs",
              "type": "tuple[]"
            },
            {
              "internalType": "uint256",
              "name": "idx",
              "type": "uint256"
            }
          ],
          "internalType": "struct NISA2.Board",
          "name": "board",
          "type": "tuple"
        }
      ],
      "name": "loop",
      "outputs": [
        {
          "components": [
            {
              "components": [
                {
                  "internalType": "uint256",
                  "name": "X",
                  "type": "uint256"
                },
                {
                  "internalType": "uint256",
                  "name": "Y",
                  "type": "uint256"
                }
              ],
              "internalType": "struct alt_bn128.G1Point[]",
              "name": "Ls",
              "type": "tuple[]"
            },
            {
              "components": [
                {
                  "internalType": "uint256",
                  "name": "X",
                  "type": "uint256"
                },
                {
                  "internalType": "uint256",
                  "name": "Y",
                  "type": "uint256"
                }
              ],
              "internalType": "struct alt_bn128.G1Point[]",
              "name": "Rs",
              "type": "tuple[]"
            },
            {
              "internalType": "uint256",
              "name": "a",
              "type": "uint256"
            },
            {
              "internalType": "uint256",
              "name": "b",
              "type": "uint256"
            }
          ],
          "internalType": "struct NISA2.Proof",
          "name": "",
          "type": "tuple"
        }
      ],
      "stateMutability": "nonpayable",
      "type": "function"
    },
    {
      "inputs": [
        {
          "components": [
            {
              "components": [
                {
                  "internalType": "uint256",
                  "name": "X",
                  "type": "uint256"
                },
                {
                  "internalType": "uint256",
                  "name": "Y",
                  "type": "uint256"
                }
              ],
              "internalType": "struct alt_bn128.G1Point[]",
              "name": "Gs",
              "type": "tuple[]"
            },
            {
              "components": [
                {
                  "internalType": "uint256",
                  "name": "X",
                  "type": "uint256"
                },
                {
                  "internalType": "uint256",
                  "name": "Y",
                  "type": "uint256"
                }
              ],
              "internalType": "struct alt_bn128.G1Point",
              "name": "P",
              "type": "tuple"
            },
            {
              "internalType": "uint256",
              "name": "c",
              "type": "uint256"
            }
          ],
          "internalType": "struct NISA2.Param",
          "name": "param",
          "type": "tuple"
        },
        {
          "components": [
            {
              "components": [
                {
                  "internalType": "uint256",
                  "name": "X",
                  "type": "uint256"
                },
                {
                  "internalType": "uint256",
                  "name": "Y",
                  "type": "uint256"
                }
              ],
              "internalType": "struct alt_bn128.G1Point[]",
              "name": "Ls",
              "type": "tuple[]"
            },
            {
              "components": [
                {
                  "internalType": "uint256",
                  "name": "X",
                  "type": "uint256"
                },
                {
                  "internalType": "uint256",
                  "name": "Y",
                  "type": "uint256"
                }
              ],
              "internalType": "struct alt_bn128.G1Point[]",
              "name": "Rs",
              "type": "tuple[]"
            },
            {
              "internalType": "uint256",
              "name": "a",
              "type": "uint256"
            },
            {
              "internalType": "uint256",
              "name": "b",
              "type": "uint256"
            }
          ],
          "internalType": "struct NISA2.Proof",
          "name": "p",
          "type": "tuple"
        }
      ],
      "name": "verify",
      "outputs": [
        {
          "internalType": "bool",
          "name": "",
          "type": "bool"
        }
      ],
      "stateMutability": "view",
      "type": "function",
      "constant": true
    }
  ],
  "bytecode": "0x60806040523480156200001157600080fd5b5060004260014362000024919062000416565b4060405160200162000038929190620004a5565b6040516020818303038152906040528051906020012060001c905062000064816200008360201b60201c565b60008082015181600001556020820151816001015590505050620005de565b6200008d6200037f565b60007f30644e72e131a029b85045b68181585d97816a916871ca8d3c208c16d87cfd4783620000bd919062000504565b90506000600182620000d0919062000416565b91506000805b816200024357600184620000eb91906200053c565b93507f30644e72e131a029b85045b68181585d97816a916871ca8d3c208c16d87cfd47806200011f576200011e620004d5565b5b84850990507f30644e72e131a029b85045b68181585d97816a916871ca8d3c208c16d87cfd4780620001565762000155620004d5565b5b84820990507f30644e72e131a029b85045b68181585d97816a916871ca8d3c208c16d87cfd47806200018d576200018c620004d5565b5b6003820890506200020281600460017f30644e72e131a029b85045b68181585d97816a916871ca8d3c208c16d87cfd47620001c991906200053c565b620001d5919062000577565b7f30644e72e131a029b85045b68181585d97816a916871ca8d3c208c16d87cfd476200026360201b60201c565b9250807f30644e72e131a029b85045b68181585d97816a916871ca8d3c208c16d87cfd4780620002375762000236620004d5565b5b848509149150620000d6565b604051806040016040528085815260200184815250945050505050919050565b60006200026f62000399565b62000279620003bb565b602082600060068110620002925762000291620005af565b5b602002018181525050602082600160068110620002b457620002b3620005af565b5b602002018181525050602082600260068110620002d657620002d5620005af565b5b6020020181815250508582600360068110620002f757620002f6620005af565b5b6020020181815250508482600460068110620003185762000317620005af565b5b6020020181815250508382600560068110620003395762000338620005af565b5b60200201818152505060208160c0846005600019fa6200035857600080fd5b806000600181106200036f576200036e620005af565b5b6020020151925050509392505050565b604051806040016040528060008152602001600081525090565b6040518060c00160405280600690602082028036833780820191505090505090565b6040518060200160405280600190602082028036833780820191505090505090565b6000819050919050565b7f4e487b7100000000000000000000000000000000000000000000000000000000600052601160045260246000fd5b60006200042382620003dd565b91506200043083620003dd565b92508282039050818111156200044b576200044a620003e7565b5b92915050565b6000819050919050565b620004706200046a82620003dd565b62000451565b82525050565b6000819050919050565b6000819050919050565b6200049f620004998262000476565b62000480565b82525050565b6000620004b382856200045b565b602082019150620004c582846200048a565b6020820191508190509392505050565b7f4e487b7100000000000000000000000000000000000000000000000000000000600052601260045260246000fd5b60006200051182620003dd565b91506200051e83620003dd565b925082620005315762000530620004d5565b5b828206905092915050565b60006200054982620003dd565b91506200055683620003dd565b9250828201905080821115620005715762000570620003e7565b5b92915050565b60006200058482620003dd565b91506200059183620003dd565b925082620005a457620005a3620004d5565b5b828204905092915050565b7f4e487b7100000000000000000000000000000000000000000000000000000000600052603260045260246000fd5b612cbc80620005ee6000396000f3fe608060405234801561001057600080fd5b50600436106100625760003560e01c80634d0f9ca8146100675780635456bf13146100975780636c468bb5146100c7578063b5c5d37a146100f7578063ca16068414610127578063f909cb5b14610157575b600080fd5b610081600480360381019061007c91906121d1565b610187565b60405161008e9190612371565b60405180910390f35b6100b160048036038101906100ac9190612393565b6106b1565b6040516100be91906123cf565b60405180910390f35b6100e160048036038101906100dc919061251a565b6106e5565b6040516100ee91906125ad565b60405180910390f35b610111600480360381019061010c91906125c8565b610e9d565b60405161011e9190612661565b60405180910390f35b610141600480360381019061013c91906125c8565b6110ce565b60405161014e91906125ad565b60405180910390f35b610171600480360381019061016c9190612683565b6110fd565b60405161017e9190612371565b60405180910390f35b61018f611cdf565b60018260400151510361020a576040518060800160405280836080015181526020018360a00151815260200183604001516000815181106101d3576101d26126fb565b5b6020026020010151815260200183606001516000815181106101f8576101f76126fb565b5b602002602001015181525090506106ac565b610212611d07565b61021a611d07565b610236846000015185604001518660600151876020015161144a565b80925081935050508184608001518560c001518151811061025a576102596126fb565b5b6020026020010181905250808460a001518560c0015181518110610281576102806126fb565b5b6020026020010181905250600073__alt_bn128_____________________________63aba8f706846040518263ffffffff1660e01b81526004016102c59190612768565b602060405180830381865af41580156102e2573d6000803e3d6000fd5b505050506040513d601f19601f8201168201806040525081019061030691906127b9565b73__alt_bn128_____________________________63aba8f706846040518263ffffffff1660e01b815260040161033d9190612768565b602060405180830381865af415801561035a573d6000803e3d6000fd5b505050506040513d601f19601f8201168201806040525081019061037e91906127b9565b60405160200161038f929190612807565b6040516020818303038152906040528051906020012060001c905060006103b5826116a8565b9050600060028760400151516103cb9190612891565b905060008167ffffffffffffffff8111156103e9576103e8611dfa565b5b60405190808252806020026020018201604052801561042257816020015b61040f611d07565b8152602001906001900390816104075790505b50905060008267ffffffffffffffff81111561044157610440611dfa565b5b60405190808252806020026020018201604052801561046f5781602001602082028036833780820191505090505b50905060008367ffffffffffffffff81111561048e5761048d611dfa565b5b6040519080825280602002602001820160405280156104bc5781602001602082028036833780820191505090505b50905060005b848110156106625761052d6104f58c6000015183815181106104e7576104e66126fb565b5b602002602001015188611800565b6105288d60000151848961050991906128c2565b8151811061051a576105196126fb565b5b60200260200101518a611800565b6118b8565b8482815181106105405761053f6126fb565b5b60200260200101819052506105ae610576888d604001518481518110610569576105686126fb565b5b602002602001015161196c565b6105a9888e60400151858a61058b91906128c2565b8151811061059c5761059b6126fb565b5b602002602001015161196c565b6119a8565b8382815181106105c1576105c06126fb565b5b6020026020010181815250506106306105f8878d6060015184815181106105eb576105ea6126fb565b5b602002602001015161196c565b61062b898e60600151858a61060d91906128c2565b8151811061061e5761061d6126fb565b5b602002602001015161196c565b6119a8565b828281518110610643576106426126fb565b5b602002602001018181525050808061065a906128f6565b9150506104c2565b50828a60000181905250818a60400181905250808a6060018190525060018a60c00181815161069191906128c2565b915081815250506106a18a610187565b985050505050505050505b919050565b60005b60018211156106e0576001816106ca91906128c2565b90506002826106d99190612891565b91506106b4565b919050565b60008073__alt_bn128_____________________________63aba8f70685602001516040518263ffffffff1660e01b81526004016107239190612768565b602060405180830381865af4158015610740573d6000803e3d6000fd5b505050506040513d601f19601f8201168201806040525081019061076491906127b9565b73__alt_bn128_____________________________63aba8f70660006040518263ffffffff1660e01b815260040161079c91906129b6565b602060405180830381865af41580156107b9573d6000803e3d6000fd5b505050506040513d601f19601f820116820180604052508101906107dd91906127b9565b85604001516040516020016107f4939291906129f2565b6040516020818303038152906040528051906020012060001c9050600061083b60006040518060400160405290816000820154815260200160018201548152505083611800565b9050600061085a8660200151610855848960400151611800565b6118b8565b9050600061086c8760000151516106b1565b905060008167ffffffffffffffff81111561088a57610889611dfa565b5b6040519080825280602002602001820160405280156108b85781602001602082028036833780820191505090505b50905060008267ffffffffffffffff8111156108d7576108d6611dfa565b5b6040519080825280602002602001820160405280156109055781602001602082028036833780820191505090505b509050600089600001515167ffffffffffffffff81111561092957610928611dfa565b5b6040519080825280602002602001820160405280156109575781602001602082028036833780820191505090505b50905060005b84811015610b2f5773__alt_bn128_____________________________63aba8f7068b600001518381518110610996576109956126fb565b5b60200260200101516040518263ffffffff1660e01b81526004016109ba9190612768565b602060405180830381865af41580156109d7573d6000803e3d6000fd5b505050506040513d601f19601f820116820180604052508101906109fb91906127b9565b73__alt_bn128_____________________________63aba8f7068c602001518481518110610a2c57610a2b6126fb565b5b60200260200101516040518263ffffffff1660e01b8152600401610a509190612768565b602060405180830381865af4158015610a6d573d6000803e3d6000fd5b505050506040513d601f19601f82011682018060405250810190610a9191906127b9565b604051602001610aa2929190612807565b6040516020818303038152906040528051906020012060001c848281518110610ace57610acd6126fb565b5b602002602001018181525050610afd848281518110610af057610aef6126fb565b5b60200260200101516116a8565b838281518110610b1057610b0f6126fb565b5b6020026020010181815250508080610b27906128f6565b91505061095d565b5060005b8a6000015151811015610c62576001828281518110610b5557610b546126fb565b5b60200260200101818152505060005b85811015610c4e57610b7682826119e4565b15610bdd57610bb9838381518110610b9157610b906126fb565b5b6020026020010151868381518110610bac57610bab6126fb565b5b602002602001015161196c565b838381518110610bcc57610bcb6126fb565b5b602002602001018181525050610c3b565b610c1b838381518110610bf357610bf26126fb565b5b6020026020010151858381518110610c0e57610c0d6126fb565b5b602002602001015161196c565b838381518110610c2e57610c2d6126fb565b5b6020026020010181815250505b8080610c46906128f6565b915050610b64565b508080610c5a906128f6565b915050610b33565b50610c6b611d07565b610c73611d07565b86915060005b86811015610d7457610cef83610cea8e600001518481518110610c9f57610c9e6126fb565b5b6020026020010151610ce58a8681518110610cbd57610cbc6126fb565b5b60200260200101518b8781518110610cd857610cd76126fb565b5b602002602001015161196c565b611800565b6118b8565b9250610d5f83610d5a8e602001518481518110610d0f57610d0e6126fb565b5b6020026020010151610d55898681518110610d2d57610d2c6126fb565b5b60200260200101518a8781518110610d4857610d476126fb565b5b602002602001015161196c565b611800565b6118b8565b92508080610d6c906128f6565b915050610c79565b50610db98c60000151600081518110610d9057610d8f6126fb565b5b602002602001015184600081518110610dac57610dab6126fb565b5b6020026020010151611800565b90506000600190505b8c6000015151811015610e2f57610e1a82610e158f600001518481518110610ded57610dec6126fb565b5b6020026020010151878581518110610e0857610e076126fb565b5b6020026020010151611800565b6118b8565b91508080610e27906128f6565b915050610dc2565b50610e7081610e6b610e616000604051806040016040529081600082015481526020016001820154815250508d611800565b8e60600151611800565b6118b8565b9050610e80818c60400151611800565b9050610e8c82826119f7565b995050505050505050505092915050565b610ea5611d21565b600060018351610eb59190612a2f565b83511614610ef8576040517f08c379a0000000000000000000000000000000000000000000000000000000008152600401610eef90612ae6565b60405180910390fd5b815167ffffffffffffffff811115610f1357610f12611dfa565b5b604051908082528060200260200182016040528015610f4c57816020015b610f39611d07565b815260200190600190039081610f315790505b50816000018190525060005b8251811015610fab57610f76600282610f7191906128c2565b611a1f565b82600001518281518110610f8d57610f8c6126fb565b5b60200260200101819052508080610fa3906128f6565b915050610f58565b5081600081518110610fc057610fbf6126fb565b5b60200260200101518160400181815250506110158160000151600081518110610fec57610feb6126fb565b5b602002602001015183600081518110611008576110076126fb565b5b6020026020010151611800565b81602001819052506000600190505b82518110156110c8576110558260400151848381518110611048576110476126fb565b5b60200260200101516119a8565b8260400181815250506110ad82602001516110a8846000015184815181106110805761107f6126fb565b5b602002602001015186858151811061109b5761109a6126fb565b5b6020026020010151611800565b6118b8565b826020018190525080806110c0906128f6565b915050611024565b50919050565b6000806110da83610e9d565b905060006110e882856110fd565b90506110f482826106e5565b92505050919050565b611105611cdf565b6000600183516111159190612a2f565b83511614611158576040517f08c379a000000000000000000000000000000000000000000000000000000000815260040161114f90612ae6565b60405180910390fd5b600061116483516106b1565b905060008167ffffffffffffffff81111561118257611181611dfa565b5b6040519080825280602002602001820160405280156111bb57816020015b6111a8611d07565b8152602001906001900390816111a05790505b50905060008267ffffffffffffffff8111156111da576111d9611dfa565b5b60405190808252806020026020018201604052801561121357816020015b611200611d07565b8152602001906001900390816111f85790505b509050600073__alt_bn128_____________________________63aba8f70688602001516040518263ffffffff1660e01b81526004016112539190612768565b602060405180830381865af4158015611270573d6000803e3d6000fd5b505050506040513d601f19601f8201168201806040525081019061129491906127b9565b73__alt_bn128_____________________________63aba8f70660006040518263ffffffff1660e01b81526004016112cc91906129b6565b602060405180830381865af41580156112e9573d6000803e3d6000fd5b505050506040513d601f19601f8201168201806040525081019061130d91906127b9565b8860400151604051602001611324939291906129f2565b6040516020818303038152906040528051906020012060001c9050600061136b60006040518060400160405290816000820154815260200160018201548152505083611800565b90506000875167ffffffffffffffff81111561138a57611389611dfa565b5b6040519080825280602002602001820160405280156113b85781602001602082028036833780820191505090505b50905060005b81518110156113fb5760018282815181106113dc576113db6126fb565b5b60200260200101818152505080806113f3906128f6565b9150506113be565b5061143c6040518060e001604052808b6000015181526020018481526020018a81526020018381526020018781526020018681526020016000815250610187565b965050505050505092915050565b611452611d07565b61145a611d07565b60006002865161146a9190612891565b905060006114ad87600081518110611485576114846126fb565b5b60200260200101518784815181106114a05761149f6126fb565b5b602002602001015161196c565b905060006114f08884815181106114c7576114c66126fb565b5b6020026020010151886000815181106114e3576114e26126fb565b5b602002602001015161196c565b90506000600190505b838110156115bc576115538361154e8b848151811061151b5761151a6126fb565b5b60200260200101518b858961153091906128c2565b81518110611541576115406126fb565b5b602002602001015161196c565b6119a8565b92506115a7826115a28b848861156991906128c2565b8151811061157a576115796126fb565b5b60200260200101518b8581518110611595576115946126fb565b5b602002602001015161196c565b6119a8565b915080806115b4906128f6565b9150506114f9565b506115c78683611800565b94506115d38682611800565b935060005b8381101561169b576116328661162d8c84886115f491906128c2565b81518110611605576116046126fb565b5b60200260200101518c85815181106116205761161f6126fb565b5b6020026020010151611800565b6118b8565b9550611686856116818c848151811061164e5761164d6126fb565b5b60200260200101518c858961166391906128c2565b81518110611674576116736126fb565b5b6020026020010151611800565b6118b8565b94508080611693906128f6565b9150506115d8565b5050505094509492505050565b600080829050600081036116c05760009150506117fb565b7f30644e72e131a029b85045b68181585d2833e84879b9709143e1f593f0000001811115611717577f30644e72e131a029b85045b68181585d2833e84879b9709143e1f593f0000001816117149190612b06565b90505b6000806001905060007f30644e72e131a029b85045b68181585d2833e84879b9709143e1f593f00000019050600084905060005b600082146117a657818361175f9190612891565b905083848261176e9190612b41565b866117799190612bb9565b8384846117869190612bfc565b866117919190612a2f565b8095508196508297508398505050505061174b565b60008512156117f157846117b990612c3e565b7f30644e72e131a029b85045b68181585d2833e84879b9709143e1f593f00000016117e49190612a2f565b96505050505050506117fb565b8496505050505050505b919050565b611808611d07565b60018203611818578290506118b2565b600282036118315761182a83846118b8565b90506118b2565b611839611d48565b836000015181600060038110611852576118516126fb565b5b602002018181525050836020015181600160038110611874576118736126fb565b5b6020020181815250508281600260038110611892576118916126fb565b5b6020020181815250506040826060836007600019fa6118b057600080fd5b505b92915050565b6118c0611d07565b6118c8611d6a565b8360000151816000600481106118e1576118e06126fb565b5b602002018181525050836020015181600160048110611903576119026126fb565b5b602002018181525050826000015181600260048110611925576119246126fb565b5b602002018181525050826020015181600360048110611947576119466126fb565b5b6020020181815250506040826080836006600019fa61196557600080fd5b5092915050565b60007f30644e72e131a029b85045b68181585d2833e84879b9709143e1f593f00000018061199d5761199c612833565b5b828409905092915050565b60007f30644e72e131a029b85045b68181585d2833e84879b9709143e1f593f0000001806119d9576119d8612833565b5b828408905092915050565b60006001808385901c1614905092915050565b600081600001518360000151148015611a17575081602001518360200151145b905092915050565b611a27611d07565b60007f30644e72e131a029b85045b68181585d97816a916871ca8d3c208c16d87cfd4783611a559190612b06565b90506000600182611a669190612a2f565b91506000805b81611bbd57600184611a7e91906128c2565b93507f30644e72e131a029b85045b68181585d97816a916871ca8d3c208c16d87cfd4780611aaf57611aae612833565b5b84850990507f30644e72e131a029b85045b68181585d97816a916871ca8d3c208c16d87cfd4780611ae357611ae2612833565b5b84820990507f30644e72e131a029b85045b68181585d97816a916871ca8d3c208c16d87cfd4780611b1757611b16612833565b5b600382089050611b8081600460017f30644e72e131a029b85045b68181585d97816a916871ca8d3c208c16d87cfd47611b5091906128c2565b611b5a9190612891565b7f30644e72e131a029b85045b68181585d97816a916871ca8d3c208c16d87cfd47611bdd565b9250807f30644e72e131a029b85045b68181585d97816a916871ca8d3c208c16d87cfd4780611bb257611bb1612833565b5b848509149150611a6c565b604051806040016040528085815260200184815250945050505050919050565b6000611be7611d8c565b611bef611dae565b602082600060068110611c0557611c046126fb565b5b602002018181525050602082600160068110611c2457611c236126fb565b5b602002018181525050602082600260068110611c4357611c426126fb565b5b6020020181815250508582600360068110611c6157611c606126fb565b5b6020020181815250508482600460068110611c7f57611c7e6126fb565b5b6020020181815250508382600560068110611c9d57611c9c6126fb565b5b60200201818152505060208160c0846005600019fa611cbb57600080fd5b80600060018110611ccf57611cce6126fb565b5b6020020151925050509392505050565b6040518060800160405280606081526020016060815260200160008152602001600081525090565b604051806040016040528060008152602001600081525090565b604051806060016040528060608152602001611d3b611d07565b8152602001600081525090565b6040518060600160405280600390602082028036833780820191505090505090565b6040518060800160405280600490602082028036833780820191505090505090565b6040518060c00160405280600690602082028036833780820191505090505090565b6040518060200160405280600190602082028036833780820191505090505090565b6000604051905090565b600080fd5b600080fd5b600080fd5b6000601f19601f8301169050919050565b7f4e487b7100000000000000000000000000000000000000000000000000000000600052604160045260246000fd5b611e3282611de9565b810181811067ffffffffffffffff82111715611e5157611e50611dfa565b5b80604052505050565b6000611e64611dd0565b9050611e708282611e29565b919050565b600080fd5b600080fd5b600067ffffffffffffffff821115611e9a57611e99611dfa565b5b602082029050602081019050919050565b600080fd5b6000819050919050565b611ec381611eb0565b8114611ece57600080fd5b50565b600081359050611ee081611eba565b92915050565b600060408284031215611efc57611efb611de4565b5b611f066040611e5a565b90506000611f1684828501611ed1565b6000830152506020611f2a84828501611ed1565b60208301525092915050565b6000611f49611f4484611e7f565b611e5a565b90508083825260208201905060408402830185811115611f6c57611f6b611eab565b5b835b81811015611f955780611f818882611ee6565b845260208401935050604081019050611f6e565b5050509392505050565b600082601f830112611fb457611fb3611e7a565b5b8135611fc4848260208601611f36565b91505092915050565b600067ffffffffffffffff821115611fe857611fe7611dfa565b5b602082029050602081019050919050565b600061200c61200784611fcd565b611e5a565b9050808382526020820190506020840283018581111561202f5761202e611eab565b5b835b8181101561205857806120448882611ed1565b845260208401935050602081019050612031565b5050509392505050565b600082601f83011261207757612076611e7a565b5b8135612087848260208601611ff9565b91505092915050565b600061010082840312156120a7576120a6611de4565b5b6120b160e0611e5a565b9050600082013567ffffffffffffffff8111156120d1576120d0611e75565b5b6120dd84828501611f9f565b60008301525060206120f184828501611ee6565b602083015250606082013567ffffffffffffffff81111561211557612114611e75565b5b61212184828501612062565b604083015250608082013567ffffffffffffffff81111561214557612144611e75565b5b61215184828501612062565b60608301525060a082013567ffffffffffffffff81111561217557612174611e75565b5b61218184828501611f9f565b60808301525060c082013567ffffffffffffffff8111156121a5576121a4611e75565b5b6121b184828501611f9f565b60a08301525060e06121c584828501611ed1565b60c08301525092915050565b6000602082840312156121e7576121e6611dda565b5b600082013567ffffffffffffffff81111561220557612204611ddf565b5b61221184828501612090565b91505092915050565b600081519050919050565b600082825260208201905092915050565b6000819050602082019050919050565b61224f81611eb0565b82525050565b60408201600082015161226b6000850182612246565b50602082015161227e6020850182612246565b50505050565b60006122908383612255565b60408301905092915050565b6000602082019050919050565b60006122b48261221a565b6122be8185612225565b93506122c983612236565b8060005b838110156122fa5781516122e18882612284565b97506122ec8361229c565b9250506001810190506122cd565b5085935050505092915050565b6000608083016000830151848203600086015261232482826122a9565b9150506020830151848203602086015261233e82826122a9565b91505060408301516123536040860182612246565b5060608301516123666060860182612246565b508091505092915050565b6000602082019050818103600083015261238b8184612307565b905092915050565b6000602082840312156123a9576123a8611dda565b5b60006123b784828501611ed1565b91505092915050565b6123c981611eb0565b82525050565b60006020820190506123e460008301846123c0565b92915050565b600060808284031215612400576123ff611de4565b5b61240a6060611e5a565b9050600082013567ffffffffffffffff81111561242a57612429611e75565b5b61243684828501611f9f565b600083015250602061244a84828501611ee6565b602083015250606061245e84828501611ed1565b60408301525092915050565b6000608082840312156124805761247f611de4565b5b61248a6080611e5a565b9050600082013567ffffffffffffffff8111156124aa576124a9611e75565b5b6124b684828501611f9f565b600083015250602082013567ffffffffffffffff8111156124da576124d9611e75565b5b6124e684828501611f9f565b60208301525060406124fa84828501611ed1565b604083015250606061250e84828501611ed1565b60608301525092915050565b6000806040838503121561253157612530611dda565b5b600083013567ffffffffffffffff81111561254f5761254e611ddf565b5b61255b858286016123ea565b925050602083013567ffffffffffffffff81111561257c5761257b611ddf565b5b6125888582860161246a565b9150509250929050565b60008115159050919050565b6125a781612592565b82525050565b60006020820190506125c2600083018461259e565b92915050565b6000602082840312156125de576125dd611dda565b5b600082013567ffffffffffffffff8111156125fc576125fb611ddf565b5b61260884828501612062565b91505092915050565b6000608083016000830151848203600086015261262e82826122a9565b91505060208301516126436020860182612255565b5060408301516126566060860182612246565b508091505092915050565b6000602082019050818103600083015261267b8184612611565b905092915050565b6000806040838503121561269a57612699611dda565b5b600083013567ffffffffffffffff8111156126b8576126b7611ddf565b5b6126c4858286016123ea565b925050602083013567ffffffffffffffff8111156126e5576126e4611ddf565b5b6126f185828601612062565b9150509250929050565b7f4e487b7100000000000000000000000000000000000000000000000000000000600052603260045260246000fd5b61273381611eb0565b82525050565b60408201600082015161274f600085018261272a565b506020820151612762602085018261272a565b50505050565b600060408201905061277d6000830184612739565b92915050565b6000819050919050565b61279681612783565b81146127a157600080fd5b50565b6000815190506127b38161278d565b92915050565b6000602082840312156127cf576127ce611dda565b5b60006127dd848285016127a4565b91505092915050565b6000819050919050565b6128016127fc82612783565b6127e6565b82525050565b600061281382856127f0565b60208201915061282382846127f0565b6020820191508190509392505050565b7f4e487b7100000000000000000000000000000000000000000000000000000000600052601260045260246000fd5b7f4e487b7100000000000000000000000000000000000000000000000000000000600052601160045260246000fd5b600061289c82611eb0565b91506128a783611eb0565b9250826128b7576128b6612833565b5b828204905092915050565b60006128cd82611eb0565b91506128d883611eb0565b92508282019050808211156128f0576128ef612862565b5b92915050565b600061290182611eb0565b91507fffffffffffffffffffffffffffffffffffffffffffffffffffffffffffffffff820361293357612932612862565b5b600182019050919050565b60008160001c9050919050565b6000819050919050565b60006129686129638361293e565b61294b565b9050919050565b60408201600080830154905061298481612955565b612991600086018261272a565b50600183015490506129a281612955565b6129af602086018261272a565b5050505050565b60006040820190506129cb600083018461296f565b92915050565b6000819050919050565b6129ec6129e782611eb0565b6129d1565b82525050565b60006129fe82866127f0565b602082019150612a0e82856127f0565b602082019150612a1e82846129db565b602082019150819050949350505050565b6000612a3a82611eb0565b9150612a4583611eb0565b9250828203905081811115612a5d57612a5c612862565b5b92915050565b600082825260208201905092915050565b7f766563746f72206c656e6774682073686f756c64206265206120706f7765722060008201527f6f66203200000000000000000000000000000000000000000000000000000000602082015250565b6000612ad0602483612a63565b9150612adb82612a74565b604082019050919050565b60006020820190508181036000830152612aff81612ac3565b9050919050565b6000612b1182611eb0565b9150612b1c83611eb0565b925082612b2c57612b2b612833565b5b828206905092915050565b6000819050919050565b6000612b4c82612b37565b9150612b5783612b37565b9250828202612b6581612b37565b91507f80000000000000000000000000000000000000000000000000000000000000008414600084121615612b9d57612b9c612862565b5b8282058414831517612bb257612bb1612862565b5b5092915050565b6000612bc482612b37565b9150612bcf83612b37565b9250828203905081811260008412168282136000851215161715612bf657612bf5612862565b5b92915050565b6000612c0782611eb0565b9150612c1283611eb0565b9250828202612c2081611eb0565b91508282048414831517612c3757612c36612862565b5b5092915050565b6000612c4982612b37565b91507f80000000000000000000000000000000000000000000000000000000000000008203612c7b57612c7a612862565b5b81600003905091905056fea2646970667358221220f23ca19e997d289c575fbe8f231168d8bb5ce20a29e998d0411a025cc730bfd164736f6c63430008130033",
  "immutableReferences": {},
  "source": "// SPDX-License-Identifier: GPL-3.0\npragma solidity >=0.4.0 <0.9.0;\n\nimport \"./alt_bn128.sol\";\n\ncontract NISA2{\n\tusing alt_bn128 for uint256;\n\tusing alt_bn128 for alt_bn128.G1Point;\n\n\tstruct Proof {\n\t\talt_bn128.G1Point[] Ls;\n\t\talt_bn128.G1Point[] Rs;\n\t\tuint256 a;\n\t\tuint256 b;\n\t}\n\n\talt_bn128.G1Point u; // random generator\n\tstruct Param {\n\t\talt_bn128.G1Point[] Gs; \n\t\talt_bn128.G1Point P; \n\t\tuint256 c;\n\t}\n\tstruct Var {\n\t\talt_bn128.G1Point[] Ls;\n\t\talt_bn128.G1Point[] Rs;\n\t}\n\n\tconstructor() {\n\t\tuint256 seed = uint256(keccak256(abi.encodePacked(block.timestamp, blockhash(block.number - 1))));\n\t\tu = alt_bn128.uintToCurvePoint(seed);\n\t}\n\n\t/** generate public keys or curve points */\n\t// function generate(uint count) internal view returns (alt_bn128.G1Point[] memory Gs){\n\t// \tGs = new alt_bn128.G1Point[](count);\n\t// \tfor (uint256 i = 0; i < count; i++){\n\t// \t\tGs[i] = alt_bn128.uintToCurvePoint(i+2);\n\t// \t}\n\t// }\n\n\tfunction generateParam(uint256[] memory a) public view returns (Param memory param){\n\t\trequire(a.length & (a.length - 1) == 0, \"vector length should be a power of 2\");\n\t\tparam.Gs = new alt_bn128.G1Point[](a.length);\n\t\tfor (uint256 i = 0; i < a.length; i++){\n\t\t\tparam.Gs[i] = alt_bn128.uintToCurvePoint(i+2);\n\t\t}\n\t\tparam.c = a[0];\n\t\tparam.P = alt_bn128.mul(param.Gs[0], a[0]);\n\t\tfor (uint i = 1; i < a.length; i++){\n\t\t\tparam.c = alt_bn128.add(param.c, a[i]);\n\t\t\tparam.P = alt_bn128.add(param.P, alt_bn128.mul(param.Gs[i], a[i]));\n\t\t}\n\t}\n\n\tfunction log2(uint n) public pure returns (uint ndigits){\n\t\tndigits = 0;\n\t\twhile (n > 1){\n\t\t\tndigits += 1;\n\t\t\tn = n/2;\n\t\t}\n\t}\n\n\t// function test(uint256[] memory a) public view returns (Proof memory) {\n\t// \tParam memory param = generateParam(a);\n\t// \tProof memory p = prove(param, a);\n\t// \treturn p;\n\t// }\n\n\tfunction test(uint256[] memory a) public returns (bool) {\n\t\tParam memory param = generateParam(a);\n\t\tProof memory p = prove(param, a);\n\t\treturn verify(param, p);\n\t}\n\n\t/** Gs : public keys\n\t\tP : prod_i (g_i ^ a_i)\n\t\tc : sum_i a_i\n\t */\n\tfunction prove(Param memory param, uint256[] memory a) public\n\treturns (Proof memory){\n\t\trequire(a.length & (a.length - 1) == 0, \"vector length should be a power of 2\");\n\n\t\tuint length = log2(a.length);\n\t\talt_bn128.G1Point[] memory Ls = new alt_bn128.G1Point[](length);\n\t\talt_bn128.G1Point[] memory Rs = new alt_bn128.G1Point[](length);\n\n\t\tuint256 H_z = uint256(keccak256(abi.encodePacked(alt_bn128.serialize(param.P), alt_bn128.serialize(u), param.c)));\n\t\t\n\t\talt_bn128.G1Point memory u_prime = alt_bn128.mul(u, H_z);\n\n\t\tuint256[] memory b = new uint256[](a.length);\n\t\tfor (uint i = 0; i < b.length; i++){\n\t\t\tb[i] = 1;\n\t\t}\n\t\treturn loop(Board(param.Gs, u_prime, a, b, Ls, Rs, 0));\n\t}\n\n\tstruct Board {\n\t\talt_bn128.G1Point[] Gs;\n    alt_bn128.G1Point u_prime;\n\t\tuint256[] a;\n\t\tuint256[] b;\n    alt_bn128.G1Point[] Ls;\n\t\talt_bn128.G1Point[] Rs;\n    uint idx;\n\t}\n\n\tfunction loop(Board memory board) public returns (Proof memory){\n\t\tif (board.a.length == 1) {\n\t\t\treturn Proof(board.Ls, board.Rs, board.a[0], board.b[0]);\n\t\t}\n\t\talt_bn128.G1Point memory L;\n\t\talt_bn128.G1Point memory R;\n\t\t(L, R) = LR(board.Gs, board.a, board.b, board.u_prime);\n    board.Ls[board.idx] = L;\n    board.Rs[board.idx] = R;\n\n\t\tuint256 x = uint256(keccak256(abi.encodePacked(alt_bn128.serialize(L), alt_bn128.serialize(R))));\n\t\tuint256 x_inv = alt_bn128.inv(x);\n\n\t\tuint n = board.a.length / 2;\n\t\t\n\t\talt_bn128.G1Point[] memory Gs_new = new alt_bn128.G1Point[](n);\n\t\tuint256[] memory a_new = new uint256[](n);\n\t\tuint256[] memory b_new = new uint256[](n);\n\n\t\tfor (uint i = 0; i < n; i++){\n\t\t\tGs_new[i] = alt_bn128.add(alt_bn128.mul(board.Gs[i], x_inv), alt_bn128.mul(board.Gs[n+i], x));\n\t\t  a_new[i] = alt_bn128.add(alt_bn128.mul(x, board.a[i]), alt_bn128.mul(x_inv, board.a[n+i]));\n\t\t\tb_new[i] = alt_bn128.add(alt_bn128.mul(x_inv, board.b[i]), alt_bn128.mul(x, board.b[n+i]));\n\t\t}\n    board.Gs = Gs_new;\n    board.a = a_new;\n    board.b = b_new;\n    board.idx += 1;\n\t\treturn loop(board);\n\t}\n\n\tfunction LR(alt_bn128.G1Point[] memory Gs, uint256[] memory a, uint256[] memory b, alt_bn128.G1Point memory u_prime) internal view \n\treturns (alt_bn128.G1Point memory L, alt_bn128.G1Point memory R) {\n\t\tuint n = a.length / 2;\n\t\tuint256 cL = alt_bn128.mul(a[0], b[n]);\n\t\tuint256 cR = alt_bn128.mul(a[n], b[0]);\n\t\tfor (uint i = 1; i < n; i++){\n\t\t\tcL = alt_bn128.add(cL, alt_bn128.mul(a[i], b[n+i]));\n\t\t\tcR = alt_bn128.add(cR, alt_bn128.mul(a[n+i], b[i]));\n\t\t}\n\n\t\tL = alt_bn128.mul(u_prime, cL);\n\t\tR = alt_bn128.mul(u_prime, cR);\n\n\t\tfor (uint i = 0; i < n; i++){\n\t\t\tL = alt_bn128.add(L, alt_bn128.mul(Gs[n+i], a[i]));\n\t\t\tR = alt_bn128.add(R, alt_bn128.mul(Gs[i], a[n+i]));\n\t\t}\n\t}\n\n\tfunction nextRound(alt_bn128.G1Point[] memory Gs, uint256[] memory a, uint256[] memory b, uint256 x) internal view returns (alt_bn128.G1Point[] memory Gs_new, uint256[] memory a_new, uint256[] memory b_new)\n\t{\n\t\tuint n = a.length / 2;\n\n\t\tuint256 x_inv = alt_bn128.inv(x);\n\n\t\tGs_new = new alt_bn128.G1Point[](n);\n\t\ta_new = new uint256[](n);\n\t\tb_new = new uint256[](n);\n\n\t\tfor (uint i = 0; i < n; i++){\n\t\t\tGs_new[i] = alt_bn128.add(alt_bn128.mul(Gs[i], x_inv), alt_bn128.mul(Gs[n+i], x));\n\t\t\ta_new[i] = alt_bn128.add(alt_bn128.mul(x, a[i]), alt_bn128.mul(x_inv, a[n+i]));\n\t\t\tb_new[i] = alt_bn128.add(alt_bn128.mul(x_inv, b[i]), alt_bn128.mul(x, b[n+i]));\n\t\t}\n\t}\n\n\tfunction verify(Param memory param, Proof memory p) public view \n\treturns (bool){\n\t\tuint256 H_z = uint256(keccak256(abi.encodePacked(alt_bn128.serialize(param.P), alt_bn128.serialize(u), param.c)));\n\n\t\talt_bn128.G1Point memory u_prime = alt_bn128.mul(u, H_z);\n\t\t\n\t\talt_bn128.G1Point memory P_prime = alt_bn128.add(param.P, alt_bn128.mul(u_prime, param.c));\n\n\t\tuint length = log2(param.Gs.length);\n\n\t\tuint256[] memory xs = new uint256[](length);\n\t\tuint256[] memory xs_inv = new uint256[](length);\n\t\tuint256[] memory ys = new uint256[](param.Gs.length);\n\n\t\tfor (uint i = 0; i < length; i++){\n\t\t\txs[i] = uint256(keccak256(abi.encodePacked(alt_bn128.serialize(p.Ls[i]), alt_bn128.serialize(p.Rs[i]))));\n\t\t\txs_inv[i] = alt_bn128.inv(xs[i]);\n\t\t}\n\n\t\tfor (uint i = 0; i < param.Gs.length; i++){\n\t\t\tys[i] = 1;\n\t\t\tfor (uint j = 0; j < length; j++){\n\t\t\t\tif (check_bit(i, j)){\n\t\t\t\t\tys[i] = alt_bn128.mul(ys[i], xs[j]);\n\t\t\t\t} else {\n\t\t\t\t\tys[i] = alt_bn128.mul(ys[i], xs_inv[j]);\n\t\t\t\t}\n\t\t\t}\n\t\t}\n\n\t\t// verify\n\t\talt_bn128.G1Point memory left_point;\n\t\talt_bn128.G1Point memory right_point;\n\n\t\tleft_point = P_prime;\n\t\tfor (uint i = 0; i < length; i++){\n\t\t\tleft_point = alt_bn128.add(left_point, \n\t\t\t\t\t\t\talt_bn128.mul(p.Ls[i], alt_bn128.mul(xs[i], xs[i]))\n\t\t\t\t\t\t);\n\t\t\tleft_point = alt_bn128.add(left_point, \n\t\t\t\t\t\t\talt_bn128.mul(p.Rs[i], alt_bn128.mul(xs_inv[i], xs_inv[i]))\n\t\t\t\t\t\t);\n\t\t}\n\n\t\tright_point = alt_bn128.mul(param.Gs[0], ys[0]);\n\t\tfor (uint i = 1; i < param.Gs.length; i++){\n\t\t\tright_point = alt_bn128.add(right_point, alt_bn128.mul(param.Gs[i], ys[i]));\n\t\t}\n\t\tright_point = alt_bn128.add(right_point, alt_bn128.mul(alt_bn128.mul(u, H_z), p.b));\n\t\tright_point = alt_bn128.mul(right_point, p.a);\n\n\t\treturn alt_bn128.eq(left_point, right_point);\n\t}\n\n\tfunction check_bit(uint i, uint j) internal pure returns (bool){\n\t\treturn ((i >> j) & 1) == 1;\n\t}\n}",
  "sourcePath": "/Users/qian/Desktop/Y4/COMP4550/ZKP-Blockchain/contracts/nisa2.sol",
  "compiler": {
    "name": "solc",
    "version": "0.8.19+commit.7dd6d404.Emscripten.clang"
  },
  "schemaVersion": "3.4.13",
  "updatedAt": "2023-04-05T14:58:36.890Z",
  "networkType": "ethereum",
  "devdoc": {
    "kind": "dev",
    "methods": {},
    "version": 1
  },
  "userdoc": {
    "kind": "user",
    "methods": {
      "generateParam(uint256[])": {
        "notice": "generate public keys or curve points "
      },
      "prove(((uint256,uint256)[],(uint256,uint256),uint256),uint256[])": {
        "notice": "Gs : public keys P : prod_i (g_i ^ a_i) c : sum_i a_i"
      }
    },
    "version": 1
  }
}