{
  "contractName": "NISA",
  "abi": [
    {
      "inputs": [],
      "stateMutability": "nonpayable",
      "type": "constructor"
    },
    {
      "inputs": [
        {
          "internalType": "uint256[]",
          "name": "a",
          "type": "uint256[]"
        }
      ],
      "name": "test",
      "outputs": [
        {
          "internalType": "bool",
          "name": "",
          "type": "bool"
        }
      ],
      "stateMutability": "view",
      "type": "function",
      "constant": true
    },
    {
      "inputs": [
        {
          "internalType": "uint256[]",
          "name": "a",
          "type": "uint256[]"
        }
      ],
      "name": "generateParam",
      "outputs": [
        {
          "components": [
            {
              "components": [
                {
                  "internalType": "uint256",
                  "name": "X",
                  "type": "uint256"
                },
                {
                  "internalType": "uint256",
                  "name": "Y",
                  "type": "uint256"
                }
              ],
              "internalType": "struct alt_bn128.G1Point[]",
              "name": "Gs",
              "type": "tuple[]"
            },
            {
              "components": [
                {
                  "internalType": "uint256",
                  "name": "X",
                  "type": "uint256"
                },
                {
                  "internalType": "uint256",
                  "name": "Y",
                  "type": "uint256"
                }
              ],
              "internalType": "struct alt_bn128.G1Point",
              "name": "P",
              "type": "tuple"
            },
            {
              "internalType": "uint256",
              "name": "c",
              "type": "uint256"
            }
          ],
          "internalType": "struct NISA.Param",
          "name": "param",
          "type": "tuple"
        }
      ],
      "stateMutability": "view",
      "type": "function",
      "constant": true
    },
    {
      "inputs": [
        {
          "components": [
            {
              "components": [
                {
                  "internalType": "uint256",
                  "name": "X",
                  "type": "uint256"
                },
                {
                  "internalType": "uint256",
                  "name": "Y",
                  "type": "uint256"
                }
              ],
              "internalType": "struct alt_bn128.G1Point[]",
              "name": "Gs",
              "type": "tuple[]"
            },
            {
              "components": [
                {
                  "internalType": "uint256",
                  "name": "X",
                  "type": "uint256"
                },
                {
                  "internalType": "uint256",
                  "name": "Y",
                  "type": "uint256"
                }
              ],
              "internalType": "struct alt_bn128.G1Point",
              "name": "P",
              "type": "tuple"
            },
            {
              "internalType": "uint256",
              "name": "c",
              "type": "uint256"
            }
          ],
          "internalType": "struct NISA.Param",
          "name": "param",
          "type": "tuple"
        },
        {
          "internalType": "uint256[]",
          "name": "a",
          "type": "uint256[]"
        }
      ],
      "name": "prove",
      "outputs": [
        {
          "components": [
            {
              "components": [
                {
                  "internalType": "uint256",
                  "name": "X",
                  "type": "uint256"
                },
                {
                  "internalType": "uint256",
                  "name": "Y",
                  "type": "uint256"
                }
              ],
              "internalType": "struct alt_bn128.G1Point[]",
              "name": "Ls",
              "type": "tuple[]"
            },
            {
              "components": [
                {
                  "internalType": "uint256",
                  "name": "X",
                  "type": "uint256"
                },
                {
                  "internalType": "uint256",
                  "name": "Y",
                  "type": "uint256"
                }
              ],
              "internalType": "struct alt_bn128.G1Point[]",
              "name": "Rs",
              "type": "tuple[]"
            },
            {
              "internalType": "uint256",
              "name": "a",
              "type": "uint256"
            },
            {
              "internalType": "uint256",
              "name": "b",
              "type": "uint256"
            }
          ],
          "internalType": "struct NISA.Proof",
          "name": "p",
          "type": "tuple"
        }
      ],
      "stateMutability": "view",
      "type": "function",
      "constant": true
    },
    {
      "inputs": [
        {
          "components": [
            {
              "components": [
                {
                  "internalType": "uint256",
                  "name": "X",
                  "type": "uint256"
                },
                {
                  "internalType": "uint256",
                  "name": "Y",
                  "type": "uint256"
                }
              ],
              "internalType": "struct alt_bn128.G1Point[]",
              "name": "Gs",
              "type": "tuple[]"
            },
            {
              "components": [
                {
                  "internalType": "uint256",
                  "name": "X",
                  "type": "uint256"
                },
                {
                  "internalType": "uint256",
                  "name": "Y",
                  "type": "uint256"
                }
              ],
              "internalType": "struct alt_bn128.G1Point",
              "name": "P",
              "type": "tuple"
            },
            {
              "internalType": "uint256",
              "name": "c",
              "type": "uint256"
            }
          ],
          "internalType": "struct NISA.Param",
          "name": "param",
          "type": "tuple"
        },
        {
          "components": [
            {
              "components": [
                {
                  "internalType": "uint256",
                  "name": "X",
                  "type": "uint256"
                },
                {
                  "internalType": "uint256",
                  "name": "Y",
                  "type": "uint256"
                }
              ],
              "internalType": "struct alt_bn128.G1Point[]",
              "name": "Ls",
              "type": "tuple[]"
            },
            {
              "components": [
                {
                  "internalType": "uint256",
                  "name": "X",
                  "type": "uint256"
                },
                {
                  "internalType": "uint256",
                  "name": "Y",
                  "type": "uint256"
                }
              ],
              "internalType": "struct alt_bn128.G1Point[]",
              "name": "Rs",
              "type": "tuple[]"
            },
            {
              "internalType": "uint256",
              "name": "a",
              "type": "uint256"
            },
            {
              "internalType": "uint256",
              "name": "b",
              "type": "uint256"
            }
          ],
          "internalType": "struct NISA.Proof",
          "name": "p",
          "type": "tuple"
        }
      ],
      "name": "verify",
      "outputs": [
        {
          "internalType": "bool",
          "name": "",
          "type": "bool"
        }
      ],
      "stateMutability": "view",
      "type": "function",
      "constant": true
    }
  ],
  "bytecode": "0x60806040523480156200001157600080fd5b5060004260014362000024919062000416565b4060405160200162000038929190620004a5565b6040516020818303038152906040528051906020012060001c905062000064816200008360201b60201c565b60008082015181600001556020820151816001015590505050620005de565b6200008d6200037f565b60007f30644e72e131a029b85045b68181585d97816a916871ca8d3c208c16d87cfd4783620000bd919062000504565b90506000600182620000d0919062000416565b91506000805b816200024357600184620000eb91906200053c565b93507f30644e72e131a029b85045b68181585d97816a916871ca8d3c208c16d87cfd47806200011f576200011e620004d5565b5b84850990507f30644e72e131a029b85045b68181585d97816a916871ca8d3c208c16d87cfd4780620001565762000155620004d5565b5b84820990507f30644e72e131a029b85045b68181585d97816a916871ca8d3c208c16d87cfd47806200018d576200018c620004d5565b5b6003820890506200020281600460017f30644e72e131a029b85045b68181585d97816a916871ca8d3c208c16d87cfd47620001c991906200053c565b620001d5919062000577565b7f30644e72e131a029b85045b68181585d97816a916871ca8d3c208c16d87cfd476200026360201b60201c565b9250807f30644e72e131a029b85045b68181585d97816a916871ca8d3c208c16d87cfd4780620002375762000236620004d5565b5b848509149150620000d6565b604051806040016040528085815260200184815250945050505050919050565b60006200026f62000399565b62000279620003bb565b602082600060068110620002925762000291620005af565b5b602002018181525050602082600160068110620002b457620002b3620005af565b5b602002018181525050602082600260068110620002d657620002d5620005af565b5b6020020181815250508582600360068110620002f757620002f6620005af565b5b6020020181815250508482600460068110620003185762000317620005af565b5b6020020181815250508382600560068110620003395762000338620005af565b5b60200201818152505060208160c0846005600019fa6200035857600080fd5b806000600181106200036f576200036e620005af565b5b6020020151925050509392505050565b604051806040016040528060008152602001600081525090565b6040518060c00160405280600690602082028036833780820191505090505090565b6040518060200160405280600190602082028036833780820191505090505090565b6000819050919050565b7f4e487b7100000000000000000000000000000000000000000000000000000000600052601160045260246000fd5b60006200042382620003dd565b91506200043083620003dd565b92508282039050818111156200044b576200044a620003e7565b5b92915050565b6000819050919050565b620004706200046a82620003dd565b62000451565b82525050565b6000819050919050565b6000819050919050565b6200049f620004998262000476565b62000480565b82525050565b6000620004b382856200045b565b602082019150620004c582846200048a565b6020820191508190509392505050565b7f4e487b7100000000000000000000000000000000000000000000000000000000600052601260045260246000fd5b60006200051182620003dd565b91506200051e83620003dd565b925082620005315762000530620004d5565b5b828206905092915050565b60006200054982620003dd565b91506200055683620003dd565b9250828201905080821115620005715762000570620003e7565b5b92915050565b60006200058482620003dd565b91506200059183620003dd565b925082620005a457620005a3620004d5565b5b828204905092915050565b7f4e487b7100000000000000000000000000000000000000000000000000000000600052603260045260246000fd5b6126f280620005ee6000396000f3fe608060405234801561001057600080fd5b506004361061004c5760003560e01c80636c468bb514610051578063b5c5d37a14610081578063ca160684146100b1578063f909cb5b146100e1575b600080fd5b61006b60048036038101906100669190611e63565b610111565b6040516100789190611ef6565b60405180910390f35b61009b60048036038101906100969190611fd4565b6107b5565b6040516100a8919061215a565b60405180910390f35b6100cb60048036038101906100c69190611fd4565b6109e6565b6040516100d89190611ef6565b60405180910390f35b6100fb60048036038101906100f6919061217c565b610a15565b604051610108919061225e565b60405180910390f35b600080610122846000015151610fcc565b905060008167ffffffffffffffff8111156101405761013f611b60565b5b60405190808252806020026020018201604052801561016e5781602001602082028036833780820191505090505b50905060008267ffffffffffffffff81111561018d5761018c611b60565b5b6040519080825280602002602001820160405280156101bb5781602001602082028036833780820191505090505b50905060008073__alt_bn128_____________________________63aba8f70689602001516040518263ffffffff1660e01b81526004016101fc91906122be565b602060405180830381865af4158015610219573d6000803e3d6000fd5b505050506040513d601f19601f8201168201806040525081019061023d919061230f565b73__alt_bn128_____________________________63aba8f70660006040518263ffffffff1660e01b815260040161027591906123b4565b602060405180830381865af4158015610292573d6000803e3d6000fd5b505050506040513d601f19601f820116820180604052508101906102b6919061230f565b89604001516040516020016102cd93929190612411565b6040516020818303038152906040528051906020012060001c9050600061032e89602001516103296000604051806040016040529081600082015481526020016001820154815250506103248d6040015187611000565b61103c565b6110f4565b90506001925060005b8681101561060f5773__alt_bn128_____________________________63aba8f7068a6000015183815181106103705761036f61244e565b5b60200260200101516040518263ffffffff1660e01b815260040161039491906122be565b602060405180830381865af41580156103b1573d6000803e3d6000fd5b505050506040513d601f19601f820116820180604052508101906103d5919061230f565b73__alt_bn128_____________________________63aba8f7068b6020015184815181106104065761040561244e565b5b60200260200101516040518263ffffffff1660e01b815260040161042a91906122be565b602060405180830381865af4158015610447573d6000803e3d6000fd5b505050506040513d601f19601f8201168201806040525081019061046b919061230f565b60405160200161047c92919061247d565b6040516020818303038152906040528051906020012060001c8682815181106104a8576104a761244e565b5b6020026020010181815250506104d78682815181106104ca576104c961244e565b5b60200260200101516111a8565b8582815181106104ea576104e961244e565b5b6020026020010181815250506105648261055f8b6000015184815181106105145761051361244e565b5b602002602001015161055a8a86815181106105325761053161244e565b5b60200260200101518b878151811061054d5761054c61244e565b5b6020026020010151611000565b61103c565b6110f4565b91506105d4826105cf8b6020015184815181106105845761058361244e565b5b60200260200101516105ca8986815181106105a2576105a161244e565b5b60200260200101518a87815181106105bd576105bc61244e565b5b6020026020010151611000565b61103c565b6110f4565b91506105fa848683815181106105ed576105ec61244e565b5b6020026020010151611000565b93508080610607906124d8565b915050610337565b50600061063b8a6000015160008151811061062d5761062c61244e565b5b60200260200101518561103c565b90506000600190505b8a6000015151811015610749576001945060005b888110156107025761066a8282611208565b156106b1576106aa86896001848d6106829190612520565b61068c9190612520565b8151811061069d5761069c61244e565b5b6020026020010151611000565b95506106ef565b6106ec86886001848d6106c49190612520565b6106ce9190612520565b815181106106df576106de61244e565b5b6020026020010151611000565b95505b80806106fa906124d8565b915050610658565b506107348261072f8d6000015184815181106107215761072061244e565b5b60200260200101518861103c565b6110f4565b91508080610741906124d8565b915050610644565b5061078a8161078561077b6000604051806040016040529081600082015481526020016001820154815250508761103c565b8c6060015161103c565b6110f4565b905061079a818a6040015161103c565b90506107a6828261121b565b97505050505050505092915050565b6107bd611a45565b6000600183516107cd9190612520565b83511614610810576040517f08c379a0000000000000000000000000000000000000000000000000000000008152600401610807906125d7565b60405180910390fd5b815167ffffffffffffffff81111561082b5761082a611b60565b5b60405190808252806020026020018201604052801561086457816020015b610851611a6c565b8152602001906001900390816108495790505b50816000018190525060005b82518110156108c35761088e60028261088991906125f7565b611243565b826000015182815181106108a5576108a461244e565b5b602002602001018190525080806108bb906124d8565b915050610870565b50816000815181106108d8576108d761244e565b5b602002602001015181604001818152505061092d81600001516000815181106109045761090361244e565b5b6020026020010151836000815181106109205761091f61244e565b5b602002602001015161103c565b81602001819052506000600190505b82518110156109e05761096d82604001518483815181106109605761095f61244e565b5b6020026020010151611401565b8260400181815250506109c582602001516109c0846000015184815181106109985761099761244e565b5b60200260200101518685815181106109b3576109b261244e565b5b602002602001015161103c565b6110f4565b826020018190525080806109d8906124d8565b91505061093c565b50919050565b6000806109f2836107b5565b90506000610a008285610a15565b9050610a0c8282610111565b92505050919050565b610a1d611a86565b600060018351610a2d9190612520565b83511614610a70576040517f08c379a0000000000000000000000000000000000000000000000000000000008152600401610a67906125d7565b60405180910390fd5b6000610a7c8351610fcc565b90508067ffffffffffffffff811115610a9857610a97611b60565b5b604051908082528060200260200182016040528015610ad157816020015b610abe611a6c565b815260200190600190039081610ab65790505b5082600001819052508067ffffffffffffffff811115610af457610af3611b60565b5b604051908082528060200260200182016040528015610b2d57816020015b610b1a611a6c565b815260200190600190039081610b125790505b508260200181905250600073__alt_bn128_____________________________63aba8f70686602001516040518263ffffffff1660e01b8152600401610b7391906122be565b602060405180830381865af4158015610b90573d6000803e3d6000fd5b505050506040513d601f19601f82011682018060405250810190610bb4919061230f565b73__alt_bn128_____________________________63aba8f70660006040518263ffffffff1660e01b8152600401610bec91906123b4565b602060405180830381865af4158015610c09573d6000803e3d6000fd5b505050506040513d601f19601f82011682018060405250810190610c2d919061230f565b8660400151604051602001610c4493929190612411565b6040516020818303038152906040528051906020012060001c90506000610c8b6000604051806040016040529081600082015481526020016001820154815250508361103c565b90506000855167ffffffffffffffff811115610caa57610ca9611b60565b5b604051908082528060200260200182016040528015610cd85781602001602082028036833780820191505090505b5090506000865167ffffffffffffffff811115610cf857610cf7611b60565b5b604051908082528060200260200182016040528015610d3157816020015b610d1e611a6c565b815260200190600190039081610d165790505b50905060005b8251811015610db1576001838281518110610d5557610d5461244e565b5b60200260200101818152505088600001518181518110610d7857610d7761244e565b5b6020026020010151828281518110610d9357610d9261244e565b5b60200260200101819052508080610da9906124d8565b915050610d37565b50610dba611a6c565b610dc2611a6c565b600080600090505b88811015610f7357610dde858c888a61143d565b8094508195505050838a600001518281518110610dfe57610dfd61244e565b5b6020026020010181905250828a602001518281518110610e2157610e2061244e565b5b602002602001018190525073__alt_bn128_____________________________63aba8f706856040518263ffffffff1660e01b8152600401610e6391906122be565b602060405180830381865af4158015610e80573d6000803e3d6000fd5b505050506040513d601f19601f82011682018060405250810190610ea4919061230f565b73__alt_bn128_____________________________63aba8f706856040518263ffffffff1660e01b8152600401610edb91906122be565b602060405180830381865af4158015610ef8573d6000803e3d6000fd5b505050506040513d601f19601f82011682018060405250810190610f1c919061230f565b604051602001610f2d92919061247d565b6040516020818303038152906040528051906020012060001c9150610f54858c888561169b565b809850819d508297505050508080610f6b906124d8565b915050610dca565b5089600081518110610f8857610f8761244e565b5b602002602001015189604001818152505084600081518110610fad57610fac61244e565b5b6020026020010151896060018181525050505050505050505092915050565b60005b6001821115610ffb57600181610fe591906125f7565b9050600282610ff4919061265a565b9150610fcf565b919050565b60007f30644e72e131a029b85045b68181585d2833e84879b9709143e1f593f0000001806110315761103061262b565b5b828409905092915050565b611044611a6c565b60018203611054578290506110ee565b6002820361106d5761106683846110f4565b90506110ee565b611075611aae565b83600001518160006003811061108e5761108d61244e565b5b6020020181815250508360200151816001600381106110b0576110af61244e565b5b60200201818152505082816002600381106110ce576110cd61244e565b5b6020020181815250506040826060836007600019fa6110ec57600080fd5b505b92915050565b6110fc611a6c565b611104611ad0565b83600001518160006004811061111d5761111c61244e565b5b60200201818152505083602001518160016004811061113f5761113e61244e565b5b6020020181815250508260000151816002600481106111615761116061244e565b5b6020020181815250508260200151816003600481106111835761118261244e565b5b6020020181815250506040826080836006600019fa6111a157600080fd5b5092915050565b60006112018260027f30644e72e131a029b85045b68181585d2833e84879b9709143e1f593f00000016111db9190612520565b7f30644e72e131a029b85045b68181585d2833e84879b9709143e1f593f0000001611943565b9050919050565b60006001808385901c1614905092915050565b60008160000151836000015114801561123b575081602001518360200151145b905092915050565b61124b611a6c565b60007f30644e72e131a029b85045b68181585d97816a916871ca8d3c208c16d87cfd4783611279919061268b565b9050600060018261128a9190612520565b91506000805b816113e1576001846112a291906125f7565b93507f30644e72e131a029b85045b68181585d97816a916871ca8d3c208c16d87cfd47806112d3576112d261262b565b5b84850990507f30644e72e131a029b85045b68181585d97816a916871ca8d3c208c16d87cfd47806113075761130661262b565b5b84820990507f30644e72e131a029b85045b68181585d97816a916871ca8d3c208c16d87cfd478061133b5761133a61262b565b5b6003820890506113a481600460017f30644e72e131a029b85045b68181585d97816a916871ca8d3c208c16d87cfd4761137491906125f7565b61137e919061265a565b7f30644e72e131a029b85045b68181585d97816a916871ca8d3c208c16d87cfd47611943565b9250807f30644e72e131a029b85045b68181585d97816a916871ca8d3c208c16d87cfd47806113d6576113d561262b565b5b848509149150611290565b604051806040016040528085815260200184815250945050505050919050565b60007f30644e72e131a029b85045b68181585d2833e84879b9709143e1f593f0000001806114325761143161262b565b5b828408905092915050565b611445611a6c565b61144d611a6c565b60006002865161145d919061265a565b905060006114a0876000815181106114785761147761244e565b5b60200260200101518784815181106114935761149261244e565b5b6020026020010151611000565b905060006114e38884815181106114ba576114b961244e565b5b6020026020010151886000815181106114d6576114d561244e565b5b6020026020010151611000565b90506000600190505b838110156115af57611546836115418b848151811061150e5761150d61244e565b5b60200260200101518b858961152391906125f7565b815181106115345761153361244e565b5b6020026020010151611000565b611401565b925061159a826115958b848861155c91906125f7565b8151811061156d5761156c61244e565b5b60200260200101518b85815181106115885761158761244e565b5b6020026020010151611000565b611401565b915080806115a7906124d8565b9150506114ec565b506115ba868361103c565b94506115c6868261103c565b935060005b8381101561168e57611625866116208c84886115e791906125f7565b815181106115f8576115f761244e565b5b60200260200101518c85815181106116135761161261244e565b5b602002602001015161103c565b6110f4565b9550611679856116748c84815181106116415761164061244e565b5b60200260200101518c858961165691906125f7565b815181106116675761166661244e565b5b602002602001015161103c565b6110f4565b94508080611686906124d8565b9150506115cb565b5050505094509492505050565b60608060606000600287516116b0919061265a565b905060006116bd866111a8565b90508167ffffffffffffffff8111156116d9576116d8611b60565b5b60405190808252806020026020018201604052801561171257816020015b6116ff611a6c565b8152602001906001900390816116f75790505b5094508167ffffffffffffffff81111561172f5761172e611b60565b5b60405190808252806020026020018201604052801561175d5781602001602082028036833780820191505090505b5093508167ffffffffffffffff81111561177a57611779611b60565b5b6040519080825280602002602001820160405280156117a85781602001602082028036833780820191505090505b50925060005b82811015611936576118116117dd8b83815181106117cf576117ce61244e565b5b60200260200101518461103c565b61180c8c84876117ed91906125f7565b815181106117fe576117fd61244e565b5b60200260200101518a61103c565b6110f4565b8682815181106118245761182361244e565b5b602002602001018190525061188a611856888b84815181106118495761184861244e565b5b6020026020010151611000565b611885848c858861186791906125f7565b815181106118785761187761244e565b5b6020026020010151611000565b611401565b85828151811061189d5761189c61244e565b5b6020026020010181815250506119046118d0838a84815181106118c3576118c261244e565b5b6020026020010151611000565b6118ff898b85886118e191906125f7565b815181106118f2576118f161244e565b5b6020026020010151611000565b611401565b8482815181106119175761191661244e565b5b602002602001018181525050808061192e906124d8565b9150506117ae565b5050509450945094915050565b600061194d611af2565b611955611b14565b60208260006006811061196b5761196a61244e565b5b60200201818152505060208260016006811061198a5761198961244e565b5b6020020181815250506020826002600681106119a9576119a861244e565b5b60200201818152505085826003600681106119c7576119c661244e565b5b60200201818152505084826004600681106119e5576119e461244e565b5b6020020181815250508382600560068110611a0357611a0261244e565b5b60200201818152505060208160c0846005600019fa611a2157600080fd5b80600060018110611a3557611a3461244e565b5b6020020151925050509392505050565b604051806060016040528060608152602001611a5f611a6c565b8152602001600081525090565b604051806040016040528060008152602001600081525090565b6040518060800160405280606081526020016060815260200160008152602001600081525090565b6040518060600160405280600390602082028036833780820191505090505090565b6040518060800160405280600490602082028036833780820191505090505090565b6040518060c00160405280600690602082028036833780820191505090505090565b6040518060200160405280600190602082028036833780820191505090505090565b6000604051905090565b600080fd5b600080fd5b600080fd5b6000601f19601f8301169050919050565b7f4e487b7100000000000000000000000000000000000000000000000000000000600052604160045260246000fd5b611b9882611b4f565b810181811067ffffffffffffffff82111715611bb757611bb6611b60565b5b80604052505050565b6000611bca611b36565b9050611bd68282611b8f565b919050565b600080fd5b600080fd5b600067ffffffffffffffff821115611c0057611bff611b60565b5b602082029050602081019050919050565b600080fd5b6000819050919050565b611c2981611c16565b8114611c3457600080fd5b50565b600081359050611c4681611c20565b92915050565b600060408284031215611c6257611c61611b4a565b5b611c6c6040611bc0565b90506000611c7c84828501611c37565b6000830152506020611c9084828501611c37565b60208301525092915050565b6000611caf611caa84611be5565b611bc0565b90508083825260208201905060408402830185811115611cd257611cd1611c11565b5b835b81811015611cfb5780611ce78882611c4c565b845260208401935050604081019050611cd4565b5050509392505050565b600082601f830112611d1a57611d19611be0565b5b8135611d2a848260208601611c9c565b91505092915050565b600060808284031215611d4957611d48611b4a565b5b611d536060611bc0565b9050600082013567ffffffffffffffff811115611d7357611d72611bdb565b5b611d7f84828501611d05565b6000830152506020611d9384828501611c4c565b6020830152506060611da784828501611c37565b60408301525092915050565b600060808284031215611dc957611dc8611b4a565b5b611dd36080611bc0565b9050600082013567ffffffffffffffff811115611df357611df2611bdb565b5b611dff84828501611d05565b600083015250602082013567ffffffffffffffff811115611e2357611e22611bdb565b5b611e2f84828501611d05565b6020830152506040611e4384828501611c37565b6040830152506060611e5784828501611c37565b60608301525092915050565b60008060408385031215611e7a57611e79611b40565b5b600083013567ffffffffffffffff811115611e9857611e97611b45565b5b611ea485828601611d33565b925050602083013567ffffffffffffffff811115611ec557611ec4611b45565b5b611ed185828601611db3565b9150509250929050565b60008115159050919050565b611ef081611edb565b82525050565b6000602082019050611f0b6000830184611ee7565b92915050565b600067ffffffffffffffff821115611f2c57611f2b611b60565b5b602082029050602081019050919050565b6000611f50611f4b84611f11565b611bc0565b90508083825260208201905060208402830185811115611f7357611f72611c11565b5b835b81811015611f9c5780611f888882611c37565b845260208401935050602081019050611f75565b5050509392505050565b600082601f830112611fbb57611fba611be0565b5b8135611fcb848260208601611f3d565b91505092915050565b600060208284031215611fea57611fe9611b40565b5b600082013567ffffffffffffffff81111561200857612007611b45565b5b61201484828501611fa6565b91505092915050565b600081519050919050565b600082825260208201905092915050565b6000819050602082019050919050565b61205281611c16565b82525050565b60408201600082015161206e6000850182612049565b5060208201516120816020850182612049565b50505050565b60006120938383612058565b60408301905092915050565b6000602082019050919050565b60006120b78261201d565b6120c18185612028565b93506120cc83612039565b8060005b838110156120fd5781516120e48882612087565b97506120ef8361209f565b9250506001810190506120d0565b5085935050505092915050565b6000608083016000830151848203600086015261212782826120ac565b915050602083015161213c6020860182612058565b50604083015161214f6060860182612049565b508091505092915050565b60006020820190508181036000830152612174818461210a565b905092915050565b6000806040838503121561219357612192611b40565b5b600083013567ffffffffffffffff8111156121b1576121b0611b45565b5b6121bd85828601611d33565b925050602083013567ffffffffffffffff8111156121de576121dd611b45565b5b6121ea85828601611fa6565b9150509250929050565b6000608083016000830151848203600086015261221182826120ac565b9150506020830151848203602086015261222b82826120ac565b91505060408301516122406040860182612049565b5060608301516122536060860182612049565b508091505092915050565b6000602082019050818103600083015261227881846121f4565b905092915050565b61228981611c16565b82525050565b6040820160008201516122a56000850182612280565b5060208201516122b86020850182612280565b50505050565b60006040820190506122d3600083018461228f565b92915050565b6000819050919050565b6122ec816122d9565b81146122f757600080fd5b50565b600081519050612309816122e3565b92915050565b60006020828403121561232557612324611b40565b5b6000612333848285016122fa565b91505092915050565b60008160001c9050919050565b6000819050919050565b60006123666123618361233c565b612349565b9050919050565b60408201600080830154905061238281612353565b61238f6000860182612280565b50600183015490506123a081612353565b6123ad6020860182612280565b5050505050565b60006040820190506123c9600083018461236d565b92915050565b6000819050919050565b6123ea6123e5826122d9565b6123cf565b82525050565b6000819050919050565b61240b61240682611c16565b6123f0565b82525050565b600061241d82866123d9565b60208201915061242d82856123d9565b60208201915061243d82846123fa565b602082019150819050949350505050565b7f4e487b7100000000000000000000000000000000000000000000000000000000600052603260045260246000fd5b600061248982856123d9565b60208201915061249982846123d9565b6020820191508190509392505050565b7f4e487b7100000000000000000000000000000000000000000000000000000000600052601160045260246000fd5b60006124e382611c16565b91507fffffffffffffffffffffffffffffffffffffffffffffffffffffffffffffffff8203612515576125146124a9565b5b600182019050919050565b600061252b82611c16565b915061253683611c16565b925082820390508181111561254e5761254d6124a9565b5b92915050565b600082825260208201905092915050565b7f766563746f72206c656e6774682073686f756c64206265206120706f7765722060008201527f6f66203200000000000000000000000000000000000000000000000000000000602082015250565b60006125c1602483612554565b91506125cc82612565565b604082019050919050565b600060208201905081810360008301526125f0816125b4565b9050919050565b600061260282611c16565b915061260d83611c16565b9250828201905080821115612625576126246124a9565b5b92915050565b7f4e487b7100000000000000000000000000000000000000000000000000000000600052601260045260246000fd5b600061266582611c16565b915061267083611c16565b9250826126805761267f61262b565b5b828204905092915050565b600061269682611c16565b91506126a183611c16565b9250826126b1576126b061262b565b5b82820690509291505056fea264697066735822122011e85eb7762d67f1fd25ef9b6bb8f399f30c5987ab77e0d40f603b028342c34464736f6c63430008130033",
  "immutableReferences": {},
  "source": "// SPDX-License-Identifier: GPL-3.0\npragma solidity >=0.4.0 <0.9.0;\n\nimport \"./alt_bn128.sol\";\n\n// proof using iteration\ncontract NISA{\n\tusing alt_bn128 for uint256;\n\tusing alt_bn128 for alt_bn128.G1Point;\n\n\talt_bn128.G1Point u; // random generator\n\n\tstruct Param {\n\t\talt_bn128.G1Point[] Gs; \n\t\talt_bn128.G1Point P; \n\t\tuint256 c;\n\t}\n\n\tstruct Proof {\n\t\talt_bn128.G1Point[] Ls;\n\t\talt_bn128.G1Point[] Rs;\n\t\tuint256 a;\n\t\tuint256 b;\n\t}\n\n\tconstructor() {\n\t\tuint256 seed = uint256(keccak256(abi.encodePacked(block.timestamp, blockhash(block.number - 1))));\n\t\tu = alt_bn128.uintToCurvePoint(seed);\n\t}\n\n\t/** test correctness */\n\tfunction test(uint256[] memory a) public view returns (bool) {\n\t\tParam memory param = generateParam(a);\n\t\tProof memory p = prove(param, a);\n\t\treturn verify(param, p);\n\t}\n\n\t/** \n\t\tGs : public keys\n\t\tP : prod_i (g_i ^ a_i)\n\t\tc : sum_i a_i\n\t */\n\tfunction generateParam(uint256[] memory a) public view returns (Param memory param){\n\t\trequire(a.length & (a.length - 1) == 0, \"vector length should be a power of 2\");\n\t\tparam.Gs = new alt_bn128.G1Point[](a.length);\n\t\tfor (uint256 i = 0; i < a.length; i++){\n\t\t\tparam.Gs[i] = alt_bn128.uintToCurvePoint(i+2);\n\t\t}\n\t\tparam.c = a[0];\n\t\tparam.P = alt_bn128.mul(param.Gs[0], a[0]);\n\t\tfor (uint i = 1; i < a.length; i++){\n\t\t\tparam.c = alt_bn128.add(param.c, a[i]);\n\t\t\tparam.P = alt_bn128.add(param.P, alt_bn128.mul(param.Gs[i], a[i]));\n\t\t}\n\t}\n\n\tfunction prove(Param memory param, uint256[] memory a) public view\n\treturns (Proof memory p){\n\t\trequire(a.length & (a.length - 1) == 0, \"vector length should be a power of 2\");\n\n\t\tuint length = log2(a.length);\n\t\tp.Ls = new alt_bn128.G1Point[](length);\n\t\tp.Rs = new alt_bn128.G1Point[](length);\n\n\t\tuint256 H_z = uint256(keccak256(abi.encodePacked(alt_bn128.serialize(param.P), alt_bn128.serialize(u), param.c)));\n\t\t\n\t\talt_bn128.G1Point memory u_prime = alt_bn128.mul(u, H_z);\n\n\t\tuint256[] memory b = new uint256[](a.length);\n\t\talt_bn128.G1Point[] memory Gs = new alt_bn128.G1Point[](a.length);\n\t\tfor (uint i = 0; i < b.length; i++){\n\t\t\tb[i] = 1;\n\t\t\tGs[i] = param.Gs[i];\n\t\t}\n\t\talt_bn128.G1Point memory L;\n\t\talt_bn128.G1Point memory R;\n\t\tuint256 x;\n\n\t\t// O(logn) loop\n\t\tfor (uint idx = 0; idx < length; idx++){\n\n\t\t\t// L && R\n\t\t\t(L, R) = LR(Gs, a, b, u_prime);\n\t\t\tp.Ls[idx] = L; p.Rs[idx] = R;\n\n\t\t\tx = uint256(keccak256(abi.encodePacked(alt_bn128.serialize(L), alt_bn128.serialize(R))));\n\n\t\t\t// half size\n\t\t\t(Gs, a, b) = nextRound(Gs, a, b, x);\n\t\t}\n\n\t\tp.a = a[0];\n\t\tp.b = b[0];\n\t}\n\n\tfunction LR(alt_bn128.G1Point[] memory Gs, uint256[] memory a, uint256[] memory b, alt_bn128.G1Point memory u_prime) internal view \n\treturns (alt_bn128.G1Point memory L, alt_bn128.G1Point memory R) {\n\t\tuint n = a.length / 2;\n\t\tuint256 cL = alt_bn128.mul(a[0], b[n]);\n\t\tuint256 cR = alt_bn128.mul(a[n], b[0]);\n\t\tfor (uint i = 1; i < n; i++){\n\t\t\tcL = alt_bn128.add(cL, alt_bn128.mul(a[i], b[n+i]));\n\t\t\tcR = alt_bn128.add(cR, alt_bn128.mul(a[n+i], b[i]));\n\t\t}\n\n\t\tL = alt_bn128.mul(u_prime, cL);\n\t\tR = alt_bn128.mul(u_prime, cR);\n\n\t\tfor (uint i = 0; i < n; i++){\n\t\t\tL = alt_bn128.add(L, alt_bn128.mul(Gs[n+i], a[i]));\n\t\t\tR = alt_bn128.add(R, alt_bn128.mul(Gs[i], a[n+i]));\n\t\t}\n\t}\n\n\tfunction nextRound(alt_bn128.G1Point[] memory Gs, uint256[] memory a, uint256[] memory b, uint256 x) internal view returns (alt_bn128.G1Point[] memory Gs_new, uint256[] memory a_new, uint256[] memory b_new)\n\t{\n\t\tuint n = a.length / 2;\n\n\t\tuint256 x_inv = alt_bn128.inv(x);\n\n\t\tGs_new = new alt_bn128.G1Point[](n);\n\t\ta_new = new uint256[](n);\n\t\tb_new = new uint256[](n);\n\n\t\tfor (uint i = 0; i < n; i++){\n\t\t\tGs_new[i] = alt_bn128.add(alt_bn128.mul(Gs[i], x_inv), alt_bn128.mul(Gs[n+i], x));\n\t\t\ta_new[i] = alt_bn128.add(alt_bn128.mul(x, a[i]), alt_bn128.mul(x_inv, a[n+i]));\n\t\t\tb_new[i] = alt_bn128.add(alt_bn128.mul(x_inv, b[i]), alt_bn128.mul(x, b[n+i]));\n\t\t}\n\t}\n\n\tfunction verify(Param memory param, Proof memory p) public view \n\treturns (bool){\n\t\tuint length = log2(param.Gs.length);\n\n\t\tuint256[] memory xs = new uint256[](length);\n\t\tuint256[] memory xs_inv = new uint256[](length);\n\t\tuint256 y;\n\t\t// verify\n\t\tuint256 H_z = uint256(keccak256(abi.encodePacked(alt_bn128.serialize(param.P), alt_bn128.serialize(u), param.c)));\n\t\talt_bn128.G1Point memory left_point = alt_bn128.add(param.P, alt_bn128.mul(u, alt_bn128.mul(param.c, H_z)));\n\n\t\ty = 1;\n\t\tfor (uint i = 0; i < length; i++){\n\t\t\txs[i] = uint256(keccak256(abi.encodePacked(alt_bn128.serialize(p.Ls[i]), alt_bn128.serialize(p.Rs[i]))));\n\t\t\txs_inv[i] = alt_bn128.inv(xs[i]);\n\n\t\t\tleft_point = alt_bn128.add(left_point, \n\t\t\t\talt_bn128.mul(p.Ls[i], alt_bn128.mul(xs[i], xs[i]))\n\t\t\t);\n\t\t\tleft_point = alt_bn128.add(left_point, \n\t\t\t\talt_bn128.mul(p.Rs[i], alt_bn128.mul(xs_inv[i], xs_inv[i]))\n\t\t\t);\n\t\t\ty = alt_bn128.mul(y, xs_inv[i]);\n\t\t}\n\t\talt_bn128.G1Point memory right_point = alt_bn128.mul(param.Gs[0], y);\n\n\t\t// uint k;\n\t\tfor (uint i = 1; i < param.Gs.length; i++){\n\t\t\ty = 1;\n\t\t\t// k = length; // length - j - 1\n\t\t\tfor (uint j = 0; j < length; j++){\n\t\t\t\t// k--;\n\t\t\t\tif (check_bit(i, j)){\n\t\t\t\t\ty = alt_bn128.mul(y, xs[length-j-1]);\n\t\t\t\t} else {\n\t\t\t\t\ty = alt_bn128.mul(y, xs_inv[length-j-1]);\n\t\t\t\t}\n\t\t\t}\n\t\t\tright_point = alt_bn128.add(right_point, alt_bn128.mul(param.Gs[i], y));\n\t\t}\n\t\tright_point = alt_bn128.add(right_point, alt_bn128.mul(alt_bn128.mul(u, H_z), p.b));\n\t\tright_point = alt_bn128.mul(right_point, p.a);\n\n\t\treturn alt_bn128.eq(left_point, right_point);\n\t}\n\n\tfunction log2(uint n) internal pure returns (uint ndigits){\n\t\tndigits = 0;\n\t\twhile (n > 1){\n\t\t\tndigits += 1;\n\t\t\tn = n/2;\n\t\t}\n\t}\n\n\tfunction check_bit(uint i, uint j) internal pure returns (bool){\n\t\treturn ((i >> j) & 1) == 1;\n\t}\n}",
  "sourcePath": "/Users/qian/Desktop/Y4/COMP4550/ZKP-Blockchain/contracts/nisa.sol",
  "compiler": {
    "name": "solc",
    "version": "0.8.19+commit.7dd6d404.Emscripten.clang"
  },
  "schemaVersion": "3.4.13",
  "updatedAt": "2023-04-06T16:48:58.376Z",
  "networkType": "ethereum",
  "devdoc": {
    "kind": "dev",
    "methods": {},
    "version": 1
  },
  "userdoc": {
    "kind": "user",
    "methods": {
      "generateParam(uint256[])": {
        "notice": "Gs : public keys P : prod_i (g_i ^ a_i) c : sum_i a_i"
      },
      "test(uint256[])": {
        "notice": "test correctness "
      }
    },
    "version": 1
  }
}