{
  "contractName": "NISA2",
  "abi": [
    {
      "inputs": [],
      "stateMutability": "nonpayable",
      "type": "constructor"
    },
    {
      "inputs": [
        {
          "internalType": "uint256[]",
          "name": "a",
          "type": "uint256[]"
        }
      ],
      "name": "test",
      "outputs": [
        {
          "internalType": "bool",
          "name": "",
          "type": "bool"
        }
      ],
      "stateMutability": "view",
      "type": "function",
      "constant": true
    },
    {
      "inputs": [
        {
          "internalType": "uint256[]",
          "name": "a",
          "type": "uint256[]"
        }
      ],
      "name": "generateParam",
      "outputs": [
        {
          "components": [
            {
              "components": [
                {
                  "internalType": "uint256",
                  "name": "X",
                  "type": "uint256"
                },
                {
                  "internalType": "uint256",
                  "name": "Y",
                  "type": "uint256"
                }
              ],
              "internalType": "struct alt_bn128.G1Point[]",
              "name": "Gs",
              "type": "tuple[]"
            },
            {
              "components": [
                {
                  "internalType": "uint256",
                  "name": "X",
                  "type": "uint256"
                },
                {
                  "internalType": "uint256",
                  "name": "Y",
                  "type": "uint256"
                }
              ],
              "internalType": "struct alt_bn128.G1Point",
              "name": "P",
              "type": "tuple"
            },
            {
              "internalType": "uint256",
              "name": "c",
              "type": "uint256"
            }
          ],
          "internalType": "struct NISA2.Param",
          "name": "param",
          "type": "tuple"
        }
      ],
      "stateMutability": "view",
      "type": "function",
      "constant": true
    },
    {
      "inputs": [
        {
          "components": [
            {
              "components": [
                {
                  "internalType": "uint256",
                  "name": "X",
                  "type": "uint256"
                },
                {
                  "internalType": "uint256",
                  "name": "Y",
                  "type": "uint256"
                }
              ],
              "internalType": "struct alt_bn128.G1Point[]",
              "name": "Gs",
              "type": "tuple[]"
            },
            {
              "components": [
                {
                  "internalType": "uint256",
                  "name": "X",
                  "type": "uint256"
                },
                {
                  "internalType": "uint256",
                  "name": "Y",
                  "type": "uint256"
                }
              ],
              "internalType": "struct alt_bn128.G1Point",
              "name": "P",
              "type": "tuple"
            },
            {
              "internalType": "uint256",
              "name": "c",
              "type": "uint256"
            }
          ],
          "internalType": "struct NISA2.Param",
          "name": "param",
          "type": "tuple"
        },
        {
          "internalType": "uint256[]",
          "name": "a",
          "type": "uint256[]"
        }
      ],
      "name": "prove",
      "outputs": [
        {
          "components": [
            {
              "components": [
                {
                  "internalType": "uint256",
                  "name": "X",
                  "type": "uint256"
                },
                {
                  "internalType": "uint256",
                  "name": "Y",
                  "type": "uint256"
                }
              ],
              "internalType": "struct alt_bn128.G1Point[]",
              "name": "Ls",
              "type": "tuple[]"
            },
            {
              "components": [
                {
                  "internalType": "uint256",
                  "name": "X",
                  "type": "uint256"
                },
                {
                  "internalType": "uint256",
                  "name": "Y",
                  "type": "uint256"
                }
              ],
              "internalType": "struct alt_bn128.G1Point[]",
              "name": "Rs",
              "type": "tuple[]"
            },
            {
              "internalType": "uint256",
              "name": "a",
              "type": "uint256"
            },
            {
              "internalType": "uint256",
              "name": "b",
              "type": "uint256"
            }
          ],
          "internalType": "struct NISA2.Proof",
          "name": "",
          "type": "tuple"
        }
      ],
      "stateMutability": "view",
      "type": "function",
      "constant": true
    },
    {
      "inputs": [
        {
          "components": [
            {
              "components": [
                {
                  "internalType": "uint256",
                  "name": "X",
                  "type": "uint256"
                },
                {
                  "internalType": "uint256",
                  "name": "Y",
                  "type": "uint256"
                }
              ],
              "internalType": "struct alt_bn128.G1Point[]",
              "name": "Gs",
              "type": "tuple[]"
            },
            {
              "components": [
                {
                  "internalType": "uint256",
                  "name": "X",
                  "type": "uint256"
                },
                {
                  "internalType": "uint256",
                  "name": "Y",
                  "type": "uint256"
                }
              ],
              "internalType": "struct alt_bn128.G1Point",
              "name": "P",
              "type": "tuple"
            },
            {
              "internalType": "uint256",
              "name": "c",
              "type": "uint256"
            }
          ],
          "internalType": "struct NISA2.Param",
          "name": "param",
          "type": "tuple"
        },
        {
          "components": [
            {
              "components": [
                {
                  "internalType": "uint256",
                  "name": "X",
                  "type": "uint256"
                },
                {
                  "internalType": "uint256",
                  "name": "Y",
                  "type": "uint256"
                }
              ],
              "internalType": "struct alt_bn128.G1Point[]",
              "name": "Ls",
              "type": "tuple[]"
            },
            {
              "components": [
                {
                  "internalType": "uint256",
                  "name": "X",
                  "type": "uint256"
                },
                {
                  "internalType": "uint256",
                  "name": "Y",
                  "type": "uint256"
                }
              ],
              "internalType": "struct alt_bn128.G1Point[]",
              "name": "Rs",
              "type": "tuple[]"
            },
            {
              "internalType": "uint256",
              "name": "a",
              "type": "uint256"
            },
            {
              "internalType": "uint256",
              "name": "b",
              "type": "uint256"
            }
          ],
          "internalType": "struct NISA2.Proof",
          "name": "p",
          "type": "tuple"
        }
      ],
      "name": "verify",
      "outputs": [
        {
          "internalType": "bool",
          "name": "",
          "type": "bool"
        }
      ],
      "stateMutability": "view",
      "type": "function",
      "constant": true
    }
  ],
  "bytecode": "0x60806040523480156200001157600080fd5b5060004260014362000024919062000416565b4060405160200162000038929190620004a5565b6040516020818303038152906040528051906020012060001c905062000064816200008360201b60201c565b60008082015181600001556020820151816001015590505050620005de565b6200008d6200037f565b60007f30644e72e131a029b85045b68181585d97816a916871ca8d3c208c16d87cfd4783620000bd919062000504565b90506000600182620000d0919062000416565b91506000805b816200024357600184620000eb91906200053c565b93507f30644e72e131a029b85045b68181585d97816a916871ca8d3c208c16d87cfd47806200011f576200011e620004d5565b5b84850990507f30644e72e131a029b85045b68181585d97816a916871ca8d3c208c16d87cfd4780620001565762000155620004d5565b5b84820990507f30644e72e131a029b85045b68181585d97816a916871ca8d3c208c16d87cfd47806200018d576200018c620004d5565b5b6003820890506200020281600460017f30644e72e131a029b85045b68181585d97816a916871ca8d3c208c16d87cfd47620001c991906200053c565b620001d5919062000577565b7f30644e72e131a029b85045b68181585d97816a916871ca8d3c208c16d87cfd476200026360201b60201c565b9250807f30644e72e131a029b85045b68181585d97816a916871ca8d3c208c16d87cfd4780620002375762000236620004d5565b5b848509149150620000d6565b604051806040016040528085815260200184815250945050505050919050565b60006200026f62000399565b62000279620003bb565b602082600060068110620002925762000291620005af565b5b602002018181525050602082600160068110620002b457620002b3620005af565b5b602002018181525050602082600260068110620002d657620002d5620005af565b5b6020020181815250508582600360068110620002f757620002f6620005af565b5b6020020181815250508482600460068110620003185762000317620005af565b5b6020020181815250508382600560068110620003395762000338620005af565b5b60200201818152505060208160c0846005600019fa6200035857600080fd5b806000600181106200036f576200036e620005af565b5b6020020151925050509392505050565b604051806040016040528060008152602001600081525090565b6040518060c00160405280600690602082028036833780820191505090505090565b6040518060200160405280600190602082028036833780820191505090505090565b6000819050919050565b7f4e487b7100000000000000000000000000000000000000000000000000000000600052601160045260246000fd5b60006200042382620003dd565b91506200043083620003dd565b92508282039050818111156200044b576200044a620003e7565b5b92915050565b6000819050919050565b620004706200046a82620003dd565b62000451565b82525050565b6000819050919050565b6000819050919050565b6200049f620004998262000476565b62000480565b82525050565b6000620004b382856200045b565b602082019150620004c582846200048a565b6020820191508190509392505050565b7f4e487b7100000000000000000000000000000000000000000000000000000000600052601260045260246000fd5b60006200051182620003dd565b91506200051e83620003dd565b925082620005315762000530620004d5565b5b828206905092915050565b60006200054982620003dd565b91506200055683620003dd565b9250828201905080821115620005715762000570620003e7565b5b92915050565b60006200058482620003dd565b91506200059183620003dd565b925082620005a457620005a3620004d5565b5b828204905092915050565b7f4e487b7100000000000000000000000000000000000000000000000000000000600052603260045260246000fd5b61284680620005ee6000396000f3fe608060405234801561001057600080fd5b506004361061004c5760003560e01c80636c468bb514610051578063b5c5d37a14610081578063ca160684146100b1578063f909cb5b146100e1575b600080fd5b61006b60048036038101906100669190611fb7565b610111565b604051610078919061204a565b60405180910390f35b61009b60048036038101906100969190612128565b6108f1565b6040516100a891906122ae565b60405180910390f35b6100cb60048036038101906100c69190612128565b610b22565b6040516100d8919061204a565b60405180910390f35b6100fb60048036038101906100f691906122d0565b610b51565b60405161010891906123b2565b60405180910390f35b60008073__alt_bn128_____________________________63aba8f70685602001516040518263ffffffff1660e01b815260040161014f9190612412565b602060405180830381865af415801561016c573d6000803e3d6000fd5b505050506040513d601f19601f820116820180604052508101906101909190612463565b73__alt_bn128_____________________________63aba8f70660006040518263ffffffff1660e01b81526004016101c89190612508565b602060405180830381865af41580156101e5573d6000803e3d6000fd5b505050506040513d601f19601f820116820180604052508101906102099190612463565b856040015160405160200161022093929190612565565b6040516020818303038152906040528051906020012060001c90506000610281856020015161027c600060405180604001604052908160008201548152602001600182015481525050610277896040015187610e9e565b610eda565b610f92565b90506000610293866000015151611046565b905060008167ffffffffffffffff8111156102b1576102b0611cb4565b5b6040519080825280602002602001820160405280156102df5781602001602082028036833780820191505090505b50905060008267ffffffffffffffff8111156102fe576102fd611cb4565b5b60405190808252806020026020018201604052801561032c5781602001602082028036833780820191505090505b509050600088600001515167ffffffffffffffff8111156103505761034f611cb4565b5b60405190808252806020026020018201604052801561037e5781602001602082028036833780820191505090505b50905060005b848110156105565773__alt_bn128_____________________________63aba8f7068a6000015183815181106103bd576103bc6125a2565b5b60200260200101516040518263ffffffff1660e01b81526004016103e19190612412565b602060405180830381865af41580156103fe573d6000803e3d6000fd5b505050506040513d601f19601f820116820180604052508101906104229190612463565b73__alt_bn128_____________________________63aba8f7068b602001518481518110610453576104526125a2565b5b60200260200101516040518263ffffffff1660e01b81526004016104779190612412565b602060405180830381865af4158015610494573d6000803e3d6000fd5b505050506040513d601f19601f820116820180604052508101906104b89190612463565b6040516020016104c99291906125d1565b6040516020818303038152906040528051906020012060001c8482815181106104f5576104f46125a2565b5b602002602001018181525050610524848281518110610517576105166125a2565b5b602002602001015161107a565b838281518110610537576105366125a2565b5b602002602001018181525050808061054e9061262c565b915050610384565b5060005b8960000151518110156106b757600182828151811061057c5761057b6125a2565b5b60200260200101818152505060005b858110156106a35761059d82826110da565b1561061b576105f78383815181106105b8576105b76125a2565b5b6020026020010151866001848a6105cf9190612674565b6105d99190612674565b815181106105ea576105e96125a2565b5b6020026020010151610e9e565b83838151811061060a576106096125a2565b5b602002602001018181525050610690565b610670838381518110610631576106306125a2565b5b6020026020010151856001848a6106489190612674565b6106529190612674565b81518110610663576106626125a2565b5b6020026020010151610e9e565b838381518110610683576106826125a2565b5b6020026020010181815250505b808061069b9061262c565b91505061058b565b5080806106af9061262c565b91505061055a565b506106c0611b99565b6106c8611b99565b86915060005b868110156107c9576107448361073f8d6000015184815181106106f4576106f36125a2565b5b602002602001015161073a8a8681518110610712576107116125a2565b5b60200260200101518b878151811061072d5761072c6125a2565b5b6020026020010151610e9e565b610eda565b610f92565b92506107b4836107af8d602001518481518110610764576107636125a2565b5b60200260200101516107aa898681518110610782576107816125a2565b5b60200260200101518a878151811061079d5761079c6125a2565b5b6020026020010151610e9e565b610eda565b610f92565b925080806107c19061262c565b9150506106ce565b5061080e8b600001516000815181106107e5576107e46125a2565b5b602002602001015184600081518110610801576108006125a2565b5b6020026020010151610eda565b90506000600190505b8b60000151518110156108845761086f8261086a8e600001518481518110610842576108416125a2565b5b602002602001015187858151811061085d5761085c6125a2565b5b6020026020010151610eda565b610f92565b9150808061087c9061262c565b915050610817565b506108c5816108c06108b66000604051806040016040529081600082015481526020016001820154815250508c610eda565b8d60600151610eda565b610f92565b90506108d5818b60400151610eda565b90506108e182826110ed565b9850505050505050505092915050565b6108f9611bb3565b6000600183516109099190612674565b8351161461094c576040517f08c379a00000000000000000000000000000000000000000000000000000000081526004016109439061272b565b60405180910390fd5b815167ffffffffffffffff81111561096757610966611cb4565b5b6040519080825280602002602001820160405280156109a057816020015b61098d611b99565b8152602001906001900390816109855790505b50816000018190525060005b82518110156109ff576109ca6002826109c5919061274b565b611115565b826000015182815181106109e1576109e06125a2565b5b602002602001018190525080806109f79061262c565b9150506109ac565b5081600081518110610a1457610a136125a2565b5b6020026020010151816040018181525050610a698160000151600081518110610a4057610a3f6125a2565b5b602002602001015183600081518110610a5c57610a5b6125a2565b5b6020026020010151610eda565b81602001819052506000600190505b8251811015610b1c57610aa98260400151848381518110610a9c57610a9b6125a2565b5b60200260200101516112d3565b826040018181525050610b018260200151610afc84600001518481518110610ad457610ad36125a2565b5b6020026020010151868581518110610aef57610aee6125a2565b5b6020026020010151610eda565b610f92565b82602001819052508080610b149061262c565b915050610a78565b50919050565b600080610b2e836108f1565b90506000610b3c8285610b51565b9050610b488282610111565b92505050919050565b610b59611bda565b600060018351610b699190612674565b83511614610bac576040517f08c379a0000000000000000000000000000000000000000000000000000000008152600401610ba39061272b565b60405180910390fd5b6000610bb88351611046565b905060008167ffffffffffffffff811115610bd657610bd5611cb4565b5b604051908082528060200260200182016040528015610c0f57816020015b610bfc611b99565b815260200190600190039081610bf45790505b50905060008267ffffffffffffffff811115610c2e57610c2d611cb4565b5b604051908082528060200260200182016040528015610c6757816020015b610c54611b99565b815260200190600190039081610c4c5790505b509050600073__alt_bn128_____________________________63aba8f70688602001516040518263ffffffff1660e01b8152600401610ca79190612412565b602060405180830381865af4158015610cc4573d6000803e3d6000fd5b505050506040513d601f19601f82011682018060405250810190610ce89190612463565b73__alt_bn128_____________________________63aba8f70660006040518263ffffffff1660e01b8152600401610d209190612508565b602060405180830381865af4158015610d3d573d6000803e3d6000fd5b505050506040513d601f19601f82011682018060405250810190610d619190612463565b8860400151604051602001610d7893929190612565565b6040516020818303038152906040528051906020012060001c90506000610dbf60006040518060400160405290816000820154815260200160018201548152505083610eda565b90506000875167ffffffffffffffff811115610dde57610ddd611cb4565b5b604051908082528060200260200182016040528015610e0c5781602001602082028036833780820191505090505b50905060005b8151811015610e4f576001828281518110610e3057610e2f6125a2565b5b6020026020010181815250508080610e479061262c565b915050610e12565b50610e906040518060e001604052808b6000015181526020018481526020018a8152602001838152602001878152602001868152602001600081525061130f565b965050505050505092915050565b60007f30644e72e131a029b85045b68181585d2833e84879b9709143e1f593f000000180610ecf57610ece61277f565b5b828409905092915050565b610ee2611b99565b60018203610ef257829050610f8c565b60028203610f0b57610f048384610f92565b9050610f8c565b610f13611c02565b836000015181600060038110610f2c57610f2b6125a2565b5b602002018181525050836020015181600160038110610f4e57610f4d6125a2565b5b6020020181815250508281600260038110610f6c57610f6b6125a2565b5b6020020181815250506040826060836007600019fa610f8a57600080fd5b505b92915050565b610f9a611b99565b610fa2611c24565b836000015181600060048110610fbb57610fba6125a2565b5b602002018181525050836020015181600160048110610fdd57610fdc6125a2565b5b602002018181525050826000015181600260048110610fff57610ffe6125a2565b5b602002018181525050826020015181600360048110611021576110206125a2565b5b6020020181815250506040826080836006600019fa61103f57600080fd5b5092915050565b60005b60018211156110755760018161105f919061274b565b905060028261106e91906127ae565b9150611049565b919050565b60006110d38260027f30644e72e131a029b85045b68181585d2833e84879b9709143e1f593f00000016110ad9190612674565b7f30644e72e131a029b85045b68181585d2833e84879b9709143e1f593f0000001611839565b9050919050565b60006001808385901c1614905092915050565b60008160000151836000015114801561110d575081602001518360200151145b905092915050565b61111d611b99565b60007f30644e72e131a029b85045b68181585d97816a916871ca8d3c208c16d87cfd478361114b91906127df565b9050600060018261115c9190612674565b91506000805b816112b357600184611174919061274b565b93507f30644e72e131a029b85045b68181585d97816a916871ca8d3c208c16d87cfd47806111a5576111a461277f565b5b84850990507f30644e72e131a029b85045b68181585d97816a916871ca8d3c208c16d87cfd47806111d9576111d861277f565b5b84820990507f30644e72e131a029b85045b68181585d97816a916871ca8d3c208c16d87cfd478061120d5761120c61277f565b5b60038208905061127681600460017f30644e72e131a029b85045b68181585d97816a916871ca8d3c208c16d87cfd47611246919061274b565b61125091906127ae565b7f30644e72e131a029b85045b68181585d97816a916871ca8d3c208c16d87cfd47611839565b9250807f30644e72e131a029b85045b68181585d97816a916871ca8d3c208c16d87cfd47806112a8576112a761277f565b5b848509149150611162565b604051806040016040528085815260200184815250945050505050919050565b60007f30644e72e131a029b85045b68181585d2833e84879b9709143e1f593f0000001806113045761130361277f565b5b828408905092915050565b611317611bda565b600182604001515103611392576040518060800160405280836080015181526020018360a001518152602001836040015160008151811061135b5761135a6125a2565b5b6020026020010151815260200183606001516000815181106113805761137f6125a2565b5b60200260200101518152509050611834565b61139a611b99565b6113a2611b99565b6113be846000015185604001518660600151876020015161193b565b80925081935050508184608001518560c00151815181106113e2576113e16125a2565b5b6020026020010181905250808460a001518560c0015181518110611409576114086125a2565b5b6020026020010181905250600073__alt_bn128_____________________________63aba8f706846040518263ffffffff1660e01b815260040161144d9190612412565b602060405180830381865af415801561146a573d6000803e3d6000fd5b505050506040513d601f19601f8201168201806040525081019061148e9190612463565b73__alt_bn128_____________________________63aba8f706846040518263ffffffff1660e01b81526004016114c59190612412565b602060405180830381865af41580156114e2573d6000803e3d6000fd5b505050506040513d601f19601f820116820180604052508101906115069190612463565b6040516020016115179291906125d1565b6040516020818303038152906040528051906020012060001c9050600061153d8261107a565b90506000600287604001515161155391906127ae565b905060008167ffffffffffffffff81111561157157611570611cb4565b5b6040519080825280602002602001820160405280156115aa57816020015b611597611b99565b81526020019060019003908161158f5790505b50905060008267ffffffffffffffff8111156115c9576115c8611cb4565b5b6040519080825280602002602001820160405280156115f75781602001602082028036833780820191505090505b50905060008367ffffffffffffffff81111561161657611615611cb4565b5b6040519080825280602002602001820160405280156116445781602001602082028036833780820191505090505b50905060005b848110156117ea576116b561167d8c60000151838151811061166f5761166e6125a2565b5b602002602001015188610eda565b6116b08d600001518489611691919061274b565b815181106116a2576116a16125a2565b5b60200260200101518a610eda565b610f92565b8482815181106116c8576116c76125a2565b5b60200260200101819052506117366116fe888d6040015184815181106116f1576116f06125a2565b5b6020026020010151610e9e565b611731888e60400151858a611713919061274b565b81518110611724576117236125a2565b5b6020026020010151610e9e565b6112d3565b838281518110611749576117486125a2565b5b6020026020010181815250506117b8611780878d606001518481518110611773576117726125a2565b5b6020026020010151610e9e565b6117b3898e60600151858a611795919061274b565b815181106117a6576117a56125a2565b5b6020026020010151610e9e565b6112d3565b8282815181106117cb576117ca6125a2565b5b60200260200101818152505080806117e29061262c565b91505061164a565b50828a60000181905250818a60400181905250808a6060018190525060018a60c001818151611819919061274b565b915081815250506118298a61130f565b985050505050505050505b919050565b6000611843611c46565b61184b611c68565b602082600060068110611861576118606125a2565b5b6020020181815250506020826001600681106118805761187f6125a2565b5b60200201818152505060208260026006811061189f5761189e6125a2565b5b60200201818152505085826003600681106118bd576118bc6125a2565b5b60200201818152505084826004600681106118db576118da6125a2565b5b60200201818152505083826005600681106118f9576118f86125a2565b5b60200201818152505060208160c0846005600019fa61191757600080fd5b8060006001811061192b5761192a6125a2565b5b6020020151925050509392505050565b611943611b99565b61194b611b99565b60006002865161195b91906127ae565b9050600061199e87600081518110611976576119756125a2565b5b6020026020010151878481518110611991576119906125a2565b5b6020026020010151610e9e565b905060006119e18884815181106119b8576119b76125a2565b5b6020026020010151886000815181106119d4576119d36125a2565b5b6020026020010151610e9e565b90506000600190505b83811015611aad57611a4483611a3f8b8481518110611a0c57611a0b6125a2565b5b60200260200101518b8589611a21919061274b565b81518110611a3257611a316125a2565b5b6020026020010151610e9e565b6112d3565b9250611a9882611a938b8488611a5a919061274b565b81518110611a6b57611a6a6125a2565b5b60200260200101518b8581518110611a8657611a856125a2565b5b6020026020010151610e9e565b6112d3565b91508080611aa59061262c565b9150506119ea565b50611ab88683610eda565b9450611ac48682610eda565b935060005b83811015611b8c57611b2386611b1e8c8488611ae5919061274b565b81518110611af657611af56125a2565b5b60200260200101518c8581518110611b1157611b106125a2565b5b6020026020010151610eda565b610f92565b9550611b7785611b728c8481518110611b3f57611b3e6125a2565b5b60200260200101518c8589611b54919061274b565b81518110611b6557611b646125a2565b5b6020026020010151610eda565b610f92565b94508080611b849061262c565b915050611ac9565b5050505094509492505050565b604051806040016040528060008152602001600081525090565b604051806060016040528060608152602001611bcd611b99565b8152602001600081525090565b6040518060800160405280606081526020016060815260200160008152602001600081525090565b6040518060600160405280600390602082028036833780820191505090505090565b6040518060800160405280600490602082028036833780820191505090505090565b6040518060c00160405280600690602082028036833780820191505090505090565b6040518060200160405280600190602082028036833780820191505090505090565b6000604051905090565b600080fd5b600080fd5b600080fd5b6000601f19601f8301169050919050565b7f4e487b7100000000000000000000000000000000000000000000000000000000600052604160045260246000fd5b611cec82611ca3565b810181811067ffffffffffffffff82111715611d0b57611d0a611cb4565b5b80604052505050565b6000611d1e611c8a565b9050611d2a8282611ce3565b919050565b600080fd5b600080fd5b600067ffffffffffffffff821115611d5457611d53611cb4565b5b602082029050602081019050919050565b600080fd5b6000819050919050565b611d7d81611d6a565b8114611d8857600080fd5b50565b600081359050611d9a81611d74565b92915050565b600060408284031215611db657611db5611c9e565b5b611dc06040611d14565b90506000611dd084828501611d8b565b6000830152506020611de484828501611d8b565b60208301525092915050565b6000611e03611dfe84611d39565b611d14565b90508083825260208201905060408402830185811115611e2657611e25611d65565b5b835b81811015611e4f5780611e3b8882611da0565b845260208401935050604081019050611e28565b5050509392505050565b600082601f830112611e6e57611e6d611d34565b5b8135611e7e848260208601611df0565b91505092915050565b600060808284031215611e9d57611e9c611c9e565b5b611ea76060611d14565b9050600082013567ffffffffffffffff811115611ec757611ec6611d2f565b5b611ed384828501611e59565b6000830152506020611ee784828501611da0565b6020830152506060611efb84828501611d8b565b60408301525092915050565b600060808284031215611f1d57611f1c611c9e565b5b611f276080611d14565b9050600082013567ffffffffffffffff811115611f4757611f46611d2f565b5b611f5384828501611e59565b600083015250602082013567ffffffffffffffff811115611f7757611f76611d2f565b5b611f8384828501611e59565b6020830152506040611f9784828501611d8b565b6040830152506060611fab84828501611d8b565b60608301525092915050565b60008060408385031215611fce57611fcd611c94565b5b600083013567ffffffffffffffff811115611fec57611feb611c99565b5b611ff885828601611e87565b925050602083013567ffffffffffffffff81111561201957612018611c99565b5b61202585828601611f07565b9150509250929050565b60008115159050919050565b6120448161202f565b82525050565b600060208201905061205f600083018461203b565b92915050565b600067ffffffffffffffff8211156120805761207f611cb4565b5b602082029050602081019050919050565b60006120a461209f84612065565b611d14565b905080838252602082019050602084028301858111156120c7576120c6611d65565b5b835b818110156120f057806120dc8882611d8b565b8452602084019350506020810190506120c9565b5050509392505050565b600082601f83011261210f5761210e611d34565b5b813561211f848260208601612091565b91505092915050565b60006020828403121561213e5761213d611c94565b5b600082013567ffffffffffffffff81111561215c5761215b611c99565b5b612168848285016120fa565b91505092915050565b600081519050919050565b600082825260208201905092915050565b6000819050602082019050919050565b6121a681611d6a565b82525050565b6040820160008201516121c2600085018261219d565b5060208201516121d5602085018261219d565b50505050565b60006121e783836121ac565b60408301905092915050565b6000602082019050919050565b600061220b82612171565b612215818561217c565b93506122208361218d565b8060005b8381101561225157815161223888826121db565b9750612243836121f3565b925050600181019050612224565b5085935050505092915050565b6000608083016000830151848203600086015261227b8282612200565b915050602083015161229060208601826121ac565b5060408301516122a3606086018261219d565b508091505092915050565b600060208201905081810360008301526122c8818461225e565b905092915050565b600080604083850312156122e7576122e6611c94565b5b600083013567ffffffffffffffff81111561230557612304611c99565b5b61231185828601611e87565b925050602083013567ffffffffffffffff81111561233257612331611c99565b5b61233e858286016120fa565b9150509250929050565b600060808301600083015184820360008601526123658282612200565b9150506020830151848203602086015261237f8282612200565b9150506040830151612394604086018261219d565b5060608301516123a7606086018261219d565b508091505092915050565b600060208201905081810360008301526123cc8184612348565b905092915050565b6123dd81611d6a565b82525050565b6040820160008201516123f960008501826123d4565b50602082015161240c60208501826123d4565b50505050565b600060408201905061242760008301846123e3565b92915050565b6000819050919050565b6124408161242d565b811461244b57600080fd5b50565b60008151905061245d81612437565b92915050565b60006020828403121561247957612478611c94565b5b60006124878482850161244e565b91505092915050565b60008160001c9050919050565b6000819050919050565b60006124ba6124b583612490565b61249d565b9050919050565b6040820160008083015490506124d6816124a7565b6124e360008601826123d4565b50600183015490506124f4816124a7565b61250160208601826123d4565b5050505050565b600060408201905061251d60008301846124c1565b92915050565b6000819050919050565b61253e6125398261242d565b612523565b82525050565b6000819050919050565b61255f61255a82611d6a565b612544565b82525050565b6000612571828661252d565b602082019150612581828561252d565b602082019150612591828461254e565b602082019150819050949350505050565b7f4e487b7100000000000000000000000000000000000000000000000000000000600052603260045260246000fd5b60006125dd828561252d565b6020820191506125ed828461252d565b6020820191508190509392505050565b7f4e487b7100000000000000000000000000000000000000000000000000000000600052601160045260246000fd5b600061263782611d6a565b91507fffffffffffffffffffffffffffffffffffffffffffffffffffffffffffffffff8203612669576126686125fd565b5b600182019050919050565b600061267f82611d6a565b915061268a83611d6a565b92508282039050818111156126a2576126a16125fd565b5b92915050565b600082825260208201905092915050565b7f766563746f72206c656e6774682073686f756c64206265206120706f7765722060008201527f6f66203200000000000000000000000000000000000000000000000000000000602082015250565b60006127156024836126a8565b9150612720826126b9565b604082019050919050565b6000602082019050818103600083015261274481612708565b9050919050565b600061275682611d6a565b915061276183611d6a565b9250828201905080821115612779576127786125fd565b5b92915050565b7f4e487b7100000000000000000000000000000000000000000000000000000000600052601260045260246000fd5b60006127b982611d6a565b91506127c483611d6a565b9250826127d4576127d361277f565b5b828204905092915050565b60006127ea82611d6a565b91506127f583611d6a565b9250826128055761280461277f565b5b82820690509291505056fea264697066735822122093a8c11fd5c0eb8d5dc0630fcecd69f39708ce4717bdc9bd4368ce71d5f0db3d64736f6c63430008130033",
  "immutableReferences": {},
  "source": "// SPDX-License-Identifier: GPL-3.0\npragma solidity >=0.4.0 <0.9.0;\n\nimport \"./alt_bn128.sol\";\n\n// proof using recursion\ncontract NISA2{\n\tusing alt_bn128 for uint256;\n\tusing alt_bn128 for alt_bn128.G1Point;\n\n\talt_bn128.G1Point u; // random generator\n\n\tstruct Param {\n\t\talt_bn128.G1Point[] Gs; \n\t\talt_bn128.G1Point P; \n\t\tuint256 c;\n\t}\n\n  struct Proof {\n\t\talt_bn128.G1Point[] Ls;\n\t\talt_bn128.G1Point[] Rs;\n\t\tuint256 a;\n\t\tuint256 b;\n\t}\n\n  // for recursion\n  struct Board {\n\t\talt_bn128.G1Point[] Gs;\n    alt_bn128.G1Point u_prime;\n\t\tuint256[] a;\n\t\tuint256[] b;\n    alt_bn128.G1Point[] Ls;\n\t\talt_bn128.G1Point[] Rs;\n    uint idx;\n\t}\n\n\tconstructor() {\n\t\tuint256 seed = uint256(keccak256(abi.encodePacked(block.timestamp, blockhash(block.number - 1))));\n\t\tu = alt_bn128.uintToCurvePoint(seed);\n\t}\n\n  /** test correctness */\n  function test(uint256[] memory a) public view returns (bool) {\n\t\tParam memory param = generateParam(a);\n\t\tProof memory p = prove(param, a);\n\t\treturn verify(param, p);\n\t}\n\n  /** \n    Gs : public keys\n\t\tP : prod_i (g_i ^ a_i)\n\t\tc : sum_i a_i\n\t */\n\tfunction generateParam(uint256[] memory a) public view returns (Param memory param){\n\t\trequire(a.length & (a.length - 1) == 0, \"vector length should be a power of 2\");\n\t\tparam.Gs = new alt_bn128.G1Point[](a.length);\n\t\tfor (uint256 i = 0; i < a.length; i++){\n\t\t\tparam.Gs[i] = alt_bn128.uintToCurvePoint(i+2);\n\t\t}\n\t\tparam.c = a[0];\n\t\tparam.P = alt_bn128.mul(param.Gs[0], a[0]);\n\t\tfor (uint i = 1; i < a.length; i++){\n\t\t\tparam.c = alt_bn128.add(param.c, a[i]);\n\t\t\tparam.P = alt_bn128.add(param.P, alt_bn128.mul(param.Gs[i], a[i]));\n\t\t}\n\t}\n\n\tfunction prove(Param memory param, uint256[] memory a) public view\n\treturns (Proof memory){\n\t\trequire(a.length & (a.length - 1) == 0, \"vector length should be a power of 2\");\n\n\t\tuint length = log2(a.length);\n\t\talt_bn128.G1Point[] memory Ls = new alt_bn128.G1Point[](length);\n\t\talt_bn128.G1Point[] memory Rs = new alt_bn128.G1Point[](length);\n\n\t\tuint256 H_z = uint256(keccak256(abi.encodePacked(alt_bn128.serialize(param.P), alt_bn128.serialize(u), param.c)));\n\t\t\n\t\talt_bn128.G1Point memory u_prime = alt_bn128.mul(u, H_z);\n\n\t\tuint256[] memory b = new uint256[](a.length);\n\t\tfor (uint i = 0; i < b.length; i++){\n\t\t\tb[i] = 1;\n\t\t}\n\t\treturn loop(Board(param.Gs, u_prime, a, b, Ls, Rs, 0));\n\t}\n\n\tfunction loop(Board memory board) internal view returns (Proof memory){\n\t\tif (board.a.length == 1) {\n\t\t\treturn Proof(board.Ls, board.Rs, board.a[0], board.b[0]);\n\t\t}\n\t\talt_bn128.G1Point memory L;\n\t\talt_bn128.G1Point memory R;\n\t\t(L, R) = LR(board.Gs, board.a, board.b, board.u_prime);\n    board.Ls[board.idx] = L;\n    board.Rs[board.idx] = R;\n\n\t\tuint256 x = uint256(keccak256(abi.encodePacked(alt_bn128.serialize(L), alt_bn128.serialize(R))));\n\t\tuint256 x_inv = alt_bn128.inv(x);\n\n\t\tuint n = board.a.length / 2;\n\t\t\n\t\talt_bn128.G1Point[] memory Gs_new = new alt_bn128.G1Point[](n);\n\t\tuint256[] memory a_new = new uint256[](n);\n\t\tuint256[] memory b_new = new uint256[](n);\n\n\t\tfor (uint i = 0; i < n; i++){\n\t\t\tGs_new[i] = alt_bn128.add(alt_bn128.mul(board.Gs[i], x_inv), alt_bn128.mul(board.Gs[n+i], x));\n\t\t  a_new[i] = alt_bn128.add(alt_bn128.mul(x, board.a[i]), alt_bn128.mul(x_inv, board.a[n+i]));\n\t\t\tb_new[i] = alt_bn128.add(alt_bn128.mul(x_inv, board.b[i]), alt_bn128.mul(x, board.b[n+i]));\n\t\t}\n    board.Gs = Gs_new;\n    board.a = a_new;\n    board.b = b_new;\n    board.idx += 1;\n\t\treturn loop(board);\n\t}\n\n\tfunction LR(alt_bn128.G1Point[] memory Gs, uint256[] memory a, uint256[] memory b, alt_bn128.G1Point memory u_prime) internal view \n\treturns (alt_bn128.G1Point memory L, alt_bn128.G1Point memory R) {\n\t\tuint n = a.length / 2;\n\t\tuint256 cL = alt_bn128.mul(a[0], b[n]);\n\t\tuint256 cR = alt_bn128.mul(a[n], b[0]);\n\t\tfor (uint i = 1; i < n; i++){\n\t\t\tcL = alt_bn128.add(cL, alt_bn128.mul(a[i], b[n+i]));\n\t\t\tcR = alt_bn128.add(cR, alt_bn128.mul(a[n+i], b[i]));\n\t\t}\n\n\t\tL = alt_bn128.mul(u_prime, cL);\n\t\tR = alt_bn128.mul(u_prime, cR);\n\n\t\tfor (uint i = 0; i < n; i++){\n\t\t\tL = alt_bn128.add(L, alt_bn128.mul(Gs[n+i], a[i]));\n\t\t\tR = alt_bn128.add(R, alt_bn128.mul(Gs[i], a[n+i]));\n\t\t}\n\t}\n\n\tfunction verify(Param memory param, Proof memory p) public view \n\treturns (bool){\n\t\tuint256 H_z = uint256(keccak256(abi.encodePacked(alt_bn128.serialize(param.P), alt_bn128.serialize(u), param.c)));\n\t\talt_bn128.G1Point memory P_prime = alt_bn128.add(param.P, alt_bn128.mul(u, alt_bn128.mul(param.c, H_z)));\n\n\t\tuint length = log2(param.Gs.length);\n\n\t\tuint256[] memory xs = new uint256[](length);\n\t\tuint256[] memory xs_inv = new uint256[](length);\n\t\tuint256[] memory ys = new uint256[](param.Gs.length);\n\n\t\tfor (uint i = 0; i < length; i++){\n\t\t\txs[i] = uint256(keccak256(abi.encodePacked(alt_bn128.serialize(p.Ls[i]), alt_bn128.serialize(p.Rs[i]))));\n\t\t\txs_inv[i] = alt_bn128.inv(xs[i]);\n\t\t}\n\n\t\tfor (uint i = 0; i < param.Gs.length; i++){\n\t\t\tys[i] = 1;\n\t\t\tfor (uint j = 0; j < length; j++){\n\t\t\t\tif (check_bit(i, j)){\n\t\t\t\t\tys[i] = alt_bn128.mul(ys[i], xs[length-j-1]);\n\t\t\t\t} else {\n\t\t\t\t\tys[i] = alt_bn128.mul(ys[i], xs_inv[length-j-1]);\n\t\t\t\t}\n\t\t\t}\n\t\t}\n\n\t\t// verify\n\t\talt_bn128.G1Point memory left_point;\n\t\talt_bn128.G1Point memory right_point;\n\n\t\tleft_point = P_prime;\n\t\tfor (uint i = 0; i < length; i++){\n\t\t\tleft_point = alt_bn128.add(left_point, \n\t\t\t\t\t\t\talt_bn128.mul(p.Ls[i], alt_bn128.mul(xs[i], xs[i]))\n\t\t\t\t\t\t);\n\t\t\tleft_point = alt_bn128.add(left_point, \n\t\t\t\t\t\t\talt_bn128.mul(p.Rs[i], alt_bn128.mul(xs_inv[i], xs_inv[i]))\n\t\t\t\t\t\t);\n\t\t}\n\n\t\tright_point = alt_bn128.mul(param.Gs[0], ys[0]);\n\t\tfor (uint i = 1; i < param.Gs.length; i++){\n\t\t\tright_point = alt_bn128.add(right_point, alt_bn128.mul(param.Gs[i], ys[i]));\n\t\t}\n\t\tright_point = alt_bn128.add(right_point, alt_bn128.mul(alt_bn128.mul(u, H_z), p.b));\n\t\tright_point = alt_bn128.mul(right_point, p.a);\n\n\t\treturn alt_bn128.eq(left_point, right_point);\n\t}\n\n  function log2(uint n) internal pure returns (uint ndigits){\n\t\tndigits = 0;\n\t\twhile (n > 1){\n\t\t\tndigits += 1;\n\t\t\tn = n/2;\n\t\t}\n\t}\n\n\tfunction check_bit(uint i, uint j) internal pure returns (bool){\n\t\treturn ((i >> j) & 1) == 1;\n\t}\n}",
  "sourcePath": "/Users/qian/Desktop/Y4/COMP4550/ZKP-Blockchain/contracts/nisa2.sol",
  "compiler": {
    "name": "solc",
    "version": "0.8.19+commit.7dd6d404.Emscripten.clang"
  },
  "schemaVersion": "3.4.13",
  "updatedAt": "2023-04-06T16:49:03.503Z",
  "networkType": "ethereum",
  "devdoc": {
    "kind": "dev",
    "methods": {},
    "version": 1
  },
  "userdoc": {
    "kind": "user",
    "methods": {
      "generateParam(uint256[])": {
        "notice": "Gs : public keys P : prod_i (g_i ^ a_i) c : sum_i a_i"
      },
      "test(uint256[])": {
        "notice": "test correctness "
      }
    },
    "version": 1
  }
}