{
  "contractName": "NISA",
  "abi": [
    {
      "inputs": [],
      "stateMutability": "nonpayable",
      "type": "constructor"
    },
    {
      "inputs": [
        {
          "internalType": "uint256[]",
          "name": "a",
          "type": "uint256[]"
        }
      ],
      "name": "generateParam",
      "outputs": [
        {
          "components": [
            {
              "components": [
                {
                  "internalType": "uint256",
                  "name": "X",
                  "type": "uint256"
                },
                {
                  "internalType": "uint256",
                  "name": "Y",
                  "type": "uint256"
                }
              ],
              "internalType": "struct alt_bn128.G1Point[]",
              "name": "Gs",
              "type": "tuple[]"
            },
            {
              "components": [
                {
                  "internalType": "uint256",
                  "name": "X",
                  "type": "uint256"
                },
                {
                  "internalType": "uint256",
                  "name": "Y",
                  "type": "uint256"
                }
              ],
              "internalType": "struct alt_bn128.G1Point",
              "name": "P",
              "type": "tuple"
            },
            {
              "internalType": "uint256",
              "name": "c",
              "type": "uint256"
            }
          ],
          "internalType": "struct NISA.Param",
          "name": "param",
          "type": "tuple"
        }
      ],
      "stateMutability": "view",
      "type": "function",
      "constant": true
    },
    {
      "inputs": [
        {
          "internalType": "uint256",
          "name": "n",
          "type": "uint256"
        }
      ],
      "name": "log2",
      "outputs": [
        {
          "internalType": "uint256",
          "name": "ndigits",
          "type": "uint256"
        }
      ],
      "stateMutability": "pure",
      "type": "function",
      "constant": true
    },
    {
      "inputs": [
        {
          "internalType": "uint256[]",
          "name": "a",
          "type": "uint256[]"
        }
      ],
      "name": "test",
      "outputs": [
        {
          "components": [
            {
              "components": [
                {
                  "internalType": "uint256",
                  "name": "X",
                  "type": "uint256"
                },
                {
                  "internalType": "uint256",
                  "name": "Y",
                  "type": "uint256"
                }
              ],
              "internalType": "struct alt_bn128.G1Point[]",
              "name": "Ls",
              "type": "tuple[]"
            },
            {
              "components": [
                {
                  "internalType": "uint256",
                  "name": "X",
                  "type": "uint256"
                },
                {
                  "internalType": "uint256",
                  "name": "Y",
                  "type": "uint256"
                }
              ],
              "internalType": "struct alt_bn128.G1Point[]",
              "name": "Rs",
              "type": "tuple[]"
            },
            {
              "internalType": "uint256",
              "name": "a",
              "type": "uint256"
            },
            {
              "internalType": "uint256",
              "name": "b",
              "type": "uint256"
            }
          ],
          "internalType": "struct NISA.Proof",
          "name": "",
          "type": "tuple"
        }
      ],
      "stateMutability": "view",
      "type": "function",
      "constant": true
    },
    {
      "inputs": [
        {
          "internalType": "uint256[]",
          "name": "a",
          "type": "uint256[]"
        }
      ],
      "name": "test2",
      "outputs": [
        {
          "internalType": "bool",
          "name": "",
          "type": "bool"
        }
      ],
      "stateMutability": "view",
      "type": "function",
      "constant": true
    },
    {
      "inputs": [
        {
          "components": [
            {
              "components": [
                {
                  "internalType": "uint256",
                  "name": "X",
                  "type": "uint256"
                },
                {
                  "internalType": "uint256",
                  "name": "Y",
                  "type": "uint256"
                }
              ],
              "internalType": "struct alt_bn128.G1Point[]",
              "name": "Gs",
              "type": "tuple[]"
            },
            {
              "components": [
                {
                  "internalType": "uint256",
                  "name": "X",
                  "type": "uint256"
                },
                {
                  "internalType": "uint256",
                  "name": "Y",
                  "type": "uint256"
                }
              ],
              "internalType": "struct alt_bn128.G1Point",
              "name": "P",
              "type": "tuple"
            },
            {
              "internalType": "uint256",
              "name": "c",
              "type": "uint256"
            }
          ],
          "internalType": "struct NISA.Param",
          "name": "param",
          "type": "tuple"
        },
        {
          "internalType": "uint256[]",
          "name": "a",
          "type": "uint256[]"
        }
      ],
      "name": "prove",
      "outputs": [
        {
          "components": [
            {
              "components": [
                {
                  "internalType": "uint256",
                  "name": "X",
                  "type": "uint256"
                },
                {
                  "internalType": "uint256",
                  "name": "Y",
                  "type": "uint256"
                }
              ],
              "internalType": "struct alt_bn128.G1Point[]",
              "name": "Ls",
              "type": "tuple[]"
            },
            {
              "components": [
                {
                  "internalType": "uint256",
                  "name": "X",
                  "type": "uint256"
                },
                {
                  "internalType": "uint256",
                  "name": "Y",
                  "type": "uint256"
                }
              ],
              "internalType": "struct alt_bn128.G1Point[]",
              "name": "Rs",
              "type": "tuple[]"
            },
            {
              "internalType": "uint256",
              "name": "a",
              "type": "uint256"
            },
            {
              "internalType": "uint256",
              "name": "b",
              "type": "uint256"
            }
          ],
          "internalType": "struct NISA.Proof",
          "name": "p",
          "type": "tuple"
        }
      ],
      "stateMutability": "view",
      "type": "function",
      "constant": true
    },
    {
      "inputs": [
        {
          "components": [
            {
              "components": [
                {
                  "internalType": "uint256",
                  "name": "X",
                  "type": "uint256"
                },
                {
                  "internalType": "uint256",
                  "name": "Y",
                  "type": "uint256"
                }
              ],
              "internalType": "struct alt_bn128.G1Point[]",
              "name": "Gs",
              "type": "tuple[]"
            },
            {
              "components": [
                {
                  "internalType": "uint256",
                  "name": "X",
                  "type": "uint256"
                },
                {
                  "internalType": "uint256",
                  "name": "Y",
                  "type": "uint256"
                }
              ],
              "internalType": "struct alt_bn128.G1Point",
              "name": "P",
              "type": "tuple"
            },
            {
              "internalType": "uint256",
              "name": "c",
              "type": "uint256"
            }
          ],
          "internalType": "struct NISA.Param",
          "name": "param",
          "type": "tuple"
        },
        {
          "components": [
            {
              "components": [
                {
                  "internalType": "uint256",
                  "name": "X",
                  "type": "uint256"
                },
                {
                  "internalType": "uint256",
                  "name": "Y",
                  "type": "uint256"
                }
              ],
              "internalType": "struct alt_bn128.G1Point[]",
              "name": "Ls",
              "type": "tuple[]"
            },
            {
              "components": [
                {
                  "internalType": "uint256",
                  "name": "X",
                  "type": "uint256"
                },
                {
                  "internalType": "uint256",
                  "name": "Y",
                  "type": "uint256"
                }
              ],
              "internalType": "struct alt_bn128.G1Point[]",
              "name": "Rs",
              "type": "tuple[]"
            },
            {
              "internalType": "uint256",
              "name": "a",
              "type": "uint256"
            },
            {
              "internalType": "uint256",
              "name": "b",
              "type": "uint256"
            }
          ],
          "internalType": "struct NISA.Proof",
          "name": "p",
          "type": "tuple"
        }
      ],
      "name": "verify",
      "outputs": [
        {
          "internalType": "bool",
          "name": "",
          "type": "bool"
        }
      ],
      "stateMutability": "view",
      "type": "function",
      "constant": true
    }
  ],
  "bytecode": "0x60806040523480156200001157600080fd5b5060004260014362000024919062000416565b4060405160200162000038929190620004a5565b6040516020818303038152906040528051906020012060001c905062000064816200008360201b60201c565b60008082015181600001556020820151816001015590505050620005de565b6200008d6200037f565b60007f30644e72e131a029b85045b68181585d97816a916871ca8d3c208c16d87cfd4783620000bd919062000504565b90506000600182620000d0919062000416565b91506000805b816200024357600184620000eb91906200053c565b93507f30644e72e131a029b85045b68181585d97816a916871ca8d3c208c16d87cfd47806200011f576200011e620004d5565b5b84850990507f30644e72e131a029b85045b68181585d97816a916871ca8d3c208c16d87cfd4780620001565762000155620004d5565b5b84820990507f30644e72e131a029b85045b68181585d97816a916871ca8d3c208c16d87cfd47806200018d576200018c620004d5565b5b6003820890506200020281600460017f30644e72e131a029b85045b68181585d97816a916871ca8d3c208c16d87cfd47620001c991906200053c565b620001d5919062000577565b7f30644e72e131a029b85045b68181585d97816a916871ca8d3c208c16d87cfd476200026360201b60201c565b9250807f30644e72e131a029b85045b68181585d97816a916871ca8d3c208c16d87cfd4780620002375762000236620004d5565b5b848509149150620000d6565b604051806040016040528085815260200184815250945050505050919050565b60006200026f62000399565b62000279620003bb565b602082600060068110620002925762000291620005af565b5b602002018181525050602082600160068110620002b457620002b3620005af565b5b602002018181525050602082600260068110620002d657620002d5620005af565b5b6020020181815250508582600360068110620002f757620002f6620005af565b5b6020020181815250508482600460068110620003185762000317620005af565b5b6020020181815250508382600560068110620003395762000338620005af565b5b60200201818152505060208160c0846005600019fa6200035857600080fd5b806000600181106200036f576200036e620005af565b5b6020020151925050509392505050565b604051806040016040528060008152602001600081525090565b6040518060c00160405280600690602082028036833780820191505090505090565b6040518060200160405280600190602082028036833780820191505090505090565b6000819050919050565b7f4e487b7100000000000000000000000000000000000000000000000000000000600052601160045260246000fd5b60006200042382620003dd565b91506200043083620003dd565b92508282039050818111156200044b576200044a620003e7565b5b92915050565b6000819050919050565b620004706200046a82620003dd565b62000451565b82525050565b6000819050919050565b6000819050919050565b6200049f620004998262000476565b62000480565b82525050565b6000620004b382856200045b565b602082019150620004c582846200048a565b6020820191508190509392505050565b7f4e487b7100000000000000000000000000000000000000000000000000000000600052601260045260246000fd5b60006200051182620003dd565b91506200051e83620003dd565b925082620005315762000530620004d5565b5b828206905092915050565b60006200054982620003dd565b91506200055683620003dd565b9250828201905080821115620005715762000570620003e7565b5b92915050565b60006200058482620003dd565b91506200059183620003dd565b925082620005a457620005a3620004d5565b5b828204905092915050565b7f4e487b7100000000000000000000000000000000000000000000000000000000600052603260045260246000fd5b612b8c80620005ee6000396000f3fe608060405234801561001057600080fd5b50600436106100625760003560e01c80635456bf13146100675780636c468bb5146100975780636f1f05ed146100c7578063b5c5d37a146100f7578063ca16068414610127578063f909cb5b14610157575b600080fd5b610081600480360381019061007c9190611e74565b610187565b60405161008e9190611eb0565b60405180910390f35b6100b160048036038101906100ac91906121ae565b6101bb565b6040516100be9190612241565b60405180910390f35b6100e160048036038101906100dc919061231f565b610973565b6040516100ee9190612241565b60405180910390f35b610111600480360381019061010c919061231f565b6109a2565b60405161011e91906124a5565b60405180910390f35b610141600480360381019061013c919061231f565b610bd3565b60405161014e9190612531565b60405180910390f35b610171600480360381019061016c9190612553565b610c0e565b60405161017e9190612531565b60405180910390f35b60005b60018211156101b6576001816101a091906125fa565b90506002826101af919061265d565b915061018a565b919050565b60008073__alt_bn128_____________________________63aba8f70685602001516040518263ffffffff1660e01b81526004016101f991906126cc565b602060405180830381865af4158015610216573d6000803e3d6000fd5b505050506040513d601f19601f8201168201806040525081019061023a919061271d565b73__alt_bn128_____________________________63aba8f70660006040518263ffffffff1660e01b815260040161027291906127c2565b602060405180830381865af415801561028f573d6000803e3d6000fd5b505050506040513d601f19601f820116820180604052508101906102b3919061271d565b85604001516040516020016102ca9392919061281f565b6040516020818303038152906040528051906020012060001c90506000610311600060405180604001604052908160008201548152602001600182015481525050836111e2565b90506000610330866020015161032b8489604001516111e2565b61129a565b90506000610342876000015151610187565b905060008167ffffffffffffffff8111156103605761035f611ee1565b5b60405190808252806020026020018201604052801561038e5781602001602082028036833780820191505090505b50905060008267ffffffffffffffff8111156103ad576103ac611ee1565b5b6040519080825280602002602001820160405280156103db5781602001602082028036833780820191505090505b509050600089600001515167ffffffffffffffff8111156103ff576103fe611ee1565b5b60405190808252806020026020018201604052801561042d5781602001602082028036833780820191505090505b50905060005b848110156106055773__alt_bn128_____________________________63aba8f7068b60000151838151811061046c5761046b61285c565b5b60200260200101516040518263ffffffff1660e01b815260040161049091906126cc565b602060405180830381865af41580156104ad573d6000803e3d6000fd5b505050506040513d601f19601f820116820180604052508101906104d1919061271d565b73__alt_bn128_____________________________63aba8f7068c6020015184815181106105025761050161285c565b5b60200260200101516040518263ffffffff1660e01b815260040161052691906126cc565b602060405180830381865af4158015610543573d6000803e3d6000fd5b505050506040513d601f19601f82011682018060405250810190610567919061271d565b60405160200161057892919061288b565b6040516020818303038152906040528051906020012060001c8482815181106105a4576105a361285c565b5b6020026020010181815250506105d38482815181106105c6576105c561285c565b5b602002602001015161134e565b8382815181106105e6576105e561285c565b5b60200260200101818152505080806105fd906128b7565b915050610433565b5060005b8a600001515181101561073857600182828151811061062b5761062a61285c565b5b60200260200101818152505060005b858110156107245761064c82826114a6565b156106b35761068f8383815181106106675761066661285c565b5b60200260200101518683815181106106825761068161285c565b5b60200260200101516114b9565b8383815181106106a2576106a161285c565b5b602002602001018181525050610711565b6106f18383815181106106c9576106c861285c565b5b60200260200101518583815181106106e4576106e361285c565b5b60200260200101516114b9565b8383815181106107045761070361285c565b5b6020026020010181815250505b808061071c906128b7565b91505061063a565b508080610730906128b7565b915050610609565b50610741611d1f565b610749611d1f565b86915060005b8681101561084a576107c5836107c08e6000015184815181106107755761077461285c565b5b60200260200101516107bb8a86815181106107935761079261285c565b5b60200260200101518b87815181106107ae576107ad61285c565b5b60200260200101516114b9565b6111e2565b61129a565b9250610835836108308e6020015184815181106107e5576107e461285c565b5b602002602001015161082b8986815181106108035761080261285c565b5b60200260200101518a878151811061081e5761081d61285c565b5b60200260200101516114b9565b6111e2565b61129a565b92508080610842906128b7565b91505061074f565b5061088f8c600001516000815181106108665761086561285c565b5b6020026020010151846000815181106108825761088161285c565b5b60200260200101516111e2565b90506000600190505b8c6000015151811015610905576108f0826108eb8f6000015184815181106108c3576108c261285c565b5b60200260200101518785815181106108de576108dd61285c565b5b60200260200101516111e2565b61129a565b915080806108fd906128b7565b915050610898565b50610946816109416109376000604051806040016040529081600082015481526020016001820154815250508d6111e2565b8e606001516111e2565b61129a565b9050610956818c604001516111e2565b905061096282826114f5565b995050505050505050505092915050565b60008061097f836109a2565b9050600061098d8285610c0e565b905061099982826101bb565b92505050919050565b6109aa611d39565b6000600183516109ba91906128ff565b835116146109fd576040517f08c379a00000000000000000000000000000000000000000000000000000000081526004016109f4906129b6565b60405180910390fd5b815167ffffffffffffffff811115610a1857610a17611ee1565b5b604051908082528060200260200182016040528015610a5157816020015b610a3e611d1f565b815260200190600190039081610a365790505b50816000018190525060005b8251811015610ab057610a7b600282610a7691906125fa565b61151d565b82600001518281518110610a9257610a9161285c565b5b60200260200101819052508080610aa8906128b7565b915050610a5d565b5081600081518110610ac557610ac461285c565b5b6020026020010151816040018181525050610b1a8160000151600081518110610af157610af061285c565b5b602002602001015183600081518110610b0d57610b0c61285c565b5b60200260200101516111e2565b81602001819052506000600190505b8251811015610bcd57610b5a8260400151848381518110610b4d57610b4c61285c565b5b60200260200101516116db565b826040018181525050610bb28260200151610bad84600001518481518110610b8557610b8461285c565b5b6020026020010151868581518110610ba057610b9f61285c565b5b60200260200101516111e2565b61129a565b82602001819052508080610bc5906128b7565b915050610b29565b50919050565b610bdb611d60565b6000610be6836109a2565b90506000610bf3846109a2565b90506000610c018386610c0e565b9050809350505050919050565b610c16611d60565b600060018351610c2691906128ff565b83511614610c69576040517f08c379a0000000000000000000000000000000000000000000000000000000008152600401610c60906129b6565b60405180910390fd5b6000610c758351610187565b9050610c7f611d88565b8167ffffffffffffffff811115610c9957610c98611ee1565b5b604051908082528060200260200182016040528015610cd257816020015b610cbf611d1f565b815260200190600190039081610cb75790505b5081600001819052508167ffffffffffffffff811115610cf557610cf4611ee1565b5b604051908082528060200260200182016040528015610d2e57816020015b610d1b611d1f565b815260200190600190039081610d135790505b508160200181905250600073__alt_bn128_____________________________63aba8f70687602001516040518263ffffffff1660e01b8152600401610d7491906126cc565b602060405180830381865af4158015610d91573d6000803e3d6000fd5b505050506040513d601f19601f82011682018060405250810190610db5919061271d565b73__alt_bn128_____________________________63aba8f70660006040518263ffffffff1660e01b8152600401610ded91906127c2565b602060405180830381865af4158015610e0a573d6000803e3d6000fd5b505050506040513d601f19601f82011682018060405250810190610e2e919061271d565b8760400151604051602001610e459392919061281f565b6040516020818303038152906040528051906020012060001c90506000610e8c600060405180604001604052908160008201548152602001600182015481525050836111e2565b90506000865167ffffffffffffffff811115610eab57610eaa611ee1565b5b604051908082528060200260200182016040528015610ed95781602001602082028036833780820191505090505b5090506000875167ffffffffffffffff811115610ef957610ef8611ee1565b5b604051908082528060200260200182016040528015610f3257816020015b610f1f611d1f565b815260200190600190039081610f175790505b50905060005b8251811015610fb2576001838281518110610f5657610f5561285c565b5b60200260200101818152505089600001518181518110610f7957610f7861285c565b5b6020026020010151828281518110610f9457610f9361285c565b5b60200260200101819052508080610faa906128b7565b915050610f38565b506000610fbd611d1f565b610fc5611d1f565b60005b8981101561117157610fdc858d888a611717565b80935081945050508289600001518281518110610ffc57610ffb61285c565b5b6020026020010181905250818960200151828151811061101f5761101e61285c565b5b602002602001018190525073__alt_bn128_____________________________63aba8f706846040518263ffffffff1660e01b815260040161106191906126cc565b602060405180830381865af415801561107e573d6000803e3d6000fd5b505050506040513d601f19601f820116820180604052508101906110a2919061271d565b73__alt_bn128_____________________________63aba8f706846040518263ffffffff1660e01b81526004016110d991906126cc565b602060405180830381865af41580156110f6573d6000803e3d6000fd5b505050506040513d601f19601f8201168201806040525081019061111a919061271d565b60405160200161112b92919061288b565b6040516020818303038152906040528051906020012060001c9350611152858d8887611975565b809850819e508297505050508080611169906128b7565b915050610fc8565b50604051806080016040528089600001518152602001896020015181526020018c6000815181106111a5576111a461285c565b5b60200260200101518152602001866000815181106111c6576111c561285c565b5b6020026020010151815250995050505050505050505092915050565b6111ea611d1f565b600182036111fa57829050611294565b600282036112135761120c838461129a565b9050611294565b61121b611da2565b8360000151816000600381106112345761123361285c565b5b6020020181815250508360200151816001600381106112565761125561285c565b5b60200201818152505082816002600381106112745761127361285c565b5b6020020181815250506040826060836007600019fa61129257600080fd5b505b92915050565b6112a2611d1f565b6112aa611dc4565b8360000151816000600481106112c3576112c261285c565b5b6020020181815250508360200151816001600481106112e5576112e461285c565b5b6020020181815250508260000151816002600481106113075761130661285c565b5b6020020181815250508260200151816003600481106113295761132861285c565b5b6020020181815250506040826080836006600019fa61134757600080fd5b5092915050565b600080829050600081036113665760009150506114a1565b7f30644e72e131a029b85045b68181585d2833e84879b9709143e1f593f00000018111156113bd577f30644e72e131a029b85045b68181585d2833e84879b9709143e1f593f0000001816113ba91906129d6565b90505b6000806001905060007f30644e72e131a029b85045b68181585d2833e84879b9709143e1f593f00000019050600084905060005b6000821461144c578183611405919061265d565b90508384826114149190612a11565b8661141f9190612a89565b83848461142c9190612acc565b8661143791906128ff565b809550819650829750839850505050506113f1565b6000851215611497578461145f90612b0e565b7f30644e72e131a029b85045b68181585d2833e84879b9709143e1f593f000000161148a91906128ff565b96505050505050506114a1565b8496505050505050505b919050565b60006001808385901c1614905092915050565b60007f30644e72e131a029b85045b68181585d2833e84879b9709143e1f593f0000001806114ea576114e961262e565b5b828409905092915050565b600081600001518360000151148015611515575081602001518360200151145b905092915050565b611525611d1f565b60007f30644e72e131a029b85045b68181585d97816a916871ca8d3c208c16d87cfd478361155391906129d6565b9050600060018261156491906128ff565b91506000805b816116bb5760018461157c91906125fa565b93507f30644e72e131a029b85045b68181585d97816a916871ca8d3c208c16d87cfd47806115ad576115ac61262e565b5b84850990507f30644e72e131a029b85045b68181585d97816a916871ca8d3c208c16d87cfd47806115e1576115e061262e565b5b84820990507f30644e72e131a029b85045b68181585d97816a916871ca8d3c208c16d87cfd47806116155761161461262e565b5b60038208905061167e81600460017f30644e72e131a029b85045b68181585d97816a916871ca8d3c208c16d87cfd4761164e91906125fa565b611658919061265d565b7f30644e72e131a029b85045b68181585d97816a916871ca8d3c208c16d87cfd47611c1d565b9250807f30644e72e131a029b85045b68181585d97816a916871ca8d3c208c16d87cfd47806116b0576116af61262e565b5b84850914915061156a565b604051806040016040528085815260200184815250945050505050919050565b60007f30644e72e131a029b85045b68181585d2833e84879b9709143e1f593f00000018061170c5761170b61262e565b5b828408905092915050565b61171f611d1f565b611727611d1f565b600060028651611737919061265d565b9050600061177a876000815181106117525761175161285c565b5b602002602001015187848151811061176d5761176c61285c565b5b60200260200101516114b9565b905060006117bd8884815181106117945761179361285c565b5b6020026020010151886000815181106117b0576117af61285c565b5b60200260200101516114b9565b90506000600190505b83811015611889576118208361181b8b84815181106117e8576117e761285c565b5b60200260200101518b85896117fd91906125fa565b8151811061180e5761180d61285c565b5b60200260200101516114b9565b6116db565b92506118748261186f8b848861183691906125fa565b815181106118475761184661285c565b5b60200260200101518b85815181106118625761186161285c565b5b60200260200101516114b9565b6116db565b91508080611881906128b7565b9150506117c6565b5061189486836111e2565b94506118a086826111e2565b935060005b83811015611968576118ff866118fa8c84886118c191906125fa565b815181106118d2576118d161285c565b5b60200260200101518c85815181106118ed576118ec61285c565b5b60200260200101516111e2565b61129a565b95506119538561194e8c848151811061191b5761191a61285c565b5b60200260200101518c858961193091906125fa565b815181106119415761194061285c565b5b60200260200101516111e2565b61129a565b94508080611960906128b7565b9150506118a5565b5050505094509492505050565b606080606060006002875161198a919061265d565b905060006119978661134e565b90508167ffffffffffffffff8111156119b3576119b2611ee1565b5b6040519080825280602002602001820160405280156119ec57816020015b6119d9611d1f565b8152602001906001900390816119d15790505b5094508167ffffffffffffffff811115611a0957611a08611ee1565b5b604051908082528060200260200182016040528015611a375781602001602082028036833780820191505090505b5093508167ffffffffffffffff811115611a5457611a53611ee1565b5b604051908082528060200260200182016040528015611a825781602001602082028036833780820191505090505b50925060005b82811015611c1057611aeb611ab78b8381518110611aa957611aa861285c565b5b6020026020010151846111e2565b611ae68c8487611ac791906125fa565b81518110611ad857611ad761285c565b5b60200260200101518a6111e2565b61129a565b868281518110611afe57611afd61285c565b5b6020026020010181905250611b64611b30888b8481518110611b2357611b2261285c565b5b60200260200101516114b9565b611b5f848c8588611b4191906125fa565b81518110611b5257611b5161285c565b5b60200260200101516114b9565b6116db565b858281518110611b7757611b7661285c565b5b602002602001018181525050611bde611baa838a8481518110611b9d57611b9c61285c565b5b60200260200101516114b9565b611bd9898b8588611bbb91906125fa565b81518110611bcc57611bcb61285c565b5b60200260200101516114b9565b6116db565b848281518110611bf157611bf061285c565b5b6020026020010181815250508080611c08906128b7565b915050611a88565b5050509450945094915050565b6000611c27611de6565b611c2f611e08565b602082600060068110611c4557611c4461285c565b5b602002018181525050602082600160068110611c6457611c6361285c565b5b602002018181525050602082600260068110611c8357611c8261285c565b5b6020020181815250508582600360068110611ca157611ca061285c565b5b6020020181815250508482600460068110611cbf57611cbe61285c565b5b6020020181815250508382600560068110611cdd57611cdc61285c565b5b60200201818152505060208160c0846005600019fa611cfb57600080fd5b80600060018110611d0f57611d0e61285c565b5b6020020151925050509392505050565b604051806040016040528060008152602001600081525090565b604051806060016040528060608152602001611d53611d1f565b8152602001600081525090565b6040518060800160405280606081526020016060815260200160008152602001600081525090565b604051806040016040528060608152602001606081525090565b6040518060600160405280600390602082028036833780820191505090505090565b6040518060800160405280600490602082028036833780820191505090505090565b6040518060c00160405280600690602082028036833780820191505090505090565b6040518060200160405280600190602082028036833780820191505090505090565b6000604051905090565b600080fd5b600080fd5b6000819050919050565b611e5181611e3e565b8114611e5c57600080fd5b50565b600081359050611e6e81611e48565b92915050565b600060208284031215611e8a57611e89611e34565b5b6000611e9884828501611e5f565b91505092915050565b611eaa81611e3e565b82525050565b6000602082019050611ec56000830184611ea1565b92915050565b600080fd5b6000601f19601f8301169050919050565b7f4e487b7100000000000000000000000000000000000000000000000000000000600052604160045260246000fd5b611f1982611ed0565b810181811067ffffffffffffffff82111715611f3857611f37611ee1565b5b80604052505050565b6000611f4b611e2a565b9050611f578282611f10565b919050565b600080fd5b600080fd5b600067ffffffffffffffff821115611f8157611f80611ee1565b5b602082029050602081019050919050565b600080fd5b600060408284031215611fad57611fac611ecb565b5b611fb76040611f41565b90506000611fc784828501611e5f565b6000830152506020611fdb84828501611e5f565b60208301525092915050565b6000611ffa611ff584611f66565b611f41565b9050808382526020820190506040840283018581111561201d5761201c611f92565b5b835b8181101561204657806120328882611f97565b84526020840193505060408101905061201f565b5050509392505050565b600082601f83011261206557612064611f61565b5b8135612075848260208601611fe7565b91505092915050565b60006080828403121561209457612093611ecb565b5b61209e6060611f41565b9050600082013567ffffffffffffffff8111156120be576120bd611f5c565b5b6120ca84828501612050565b60008301525060206120de84828501611f97565b60208301525060606120f284828501611e5f565b60408301525092915050565b60006080828403121561211457612113611ecb565b5b61211e6080611f41565b9050600082013567ffffffffffffffff81111561213e5761213d611f5c565b5b61214a84828501612050565b600083015250602082013567ffffffffffffffff81111561216e5761216d611f5c565b5b61217a84828501612050565b602083015250604061218e84828501611e5f565b60408301525060606121a284828501611e5f565b60608301525092915050565b600080604083850312156121c5576121c4611e34565b5b600083013567ffffffffffffffff8111156121e3576121e2611e39565b5b6121ef8582860161207e565b925050602083013567ffffffffffffffff8111156122105761220f611e39565b5b61221c858286016120fe565b9150509250929050565b60008115159050919050565b61223b81612226565b82525050565b60006020820190506122566000830184612232565b92915050565b600067ffffffffffffffff82111561227757612276611ee1565b5b602082029050602081019050919050565b600061229b6122968461225c565b611f41565b905080838252602082019050602084028301858111156122be576122bd611f92565b5b835b818110156122e757806122d38882611e5f565b8452602084019350506020810190506122c0565b5050509392505050565b600082601f83011261230657612305611f61565b5b8135612316848260208601612288565b91505092915050565b60006020828403121561233557612334611e34565b5b600082013567ffffffffffffffff81111561235357612352611e39565b5b61235f848285016122f1565b91505092915050565b600081519050919050565b600082825260208201905092915050565b6000819050602082019050919050565b61239d81611e3e565b82525050565b6040820160008201516123b96000850182612394565b5060208201516123cc6020850182612394565b50505050565b60006123de83836123a3565b60408301905092915050565b6000602082019050919050565b600061240282612368565b61240c8185612373565b935061241783612384565b8060005b8381101561244857815161242f88826123d2565b975061243a836123ea565b92505060018101905061241b565b5085935050505092915050565b6000608083016000830151848203600086015261247282826123f7565b915050602083015161248760208601826123a3565b50604083015161249a6060860182612394565b508091505092915050565b600060208201905081810360008301526124bf8184612455565b905092915050565b600060808301600083015184820360008601526124e482826123f7565b915050602083015184820360208601526124fe82826123f7565b91505060408301516125136040860182612394565b5060608301516125266060860182612394565b508091505092915050565b6000602082019050818103600083015261254b81846124c7565b905092915050565b6000806040838503121561256a57612569611e34565b5b600083013567ffffffffffffffff81111561258857612587611e39565b5b6125948582860161207e565b925050602083013567ffffffffffffffff8111156125b5576125b4611e39565b5b6125c1858286016122f1565b9150509250929050565b7f4e487b7100000000000000000000000000000000000000000000000000000000600052601160045260246000fd5b600061260582611e3e565b915061261083611e3e565b9250828201905080821115612628576126276125cb565b5b92915050565b7f4e487b7100000000000000000000000000000000000000000000000000000000600052601260045260246000fd5b600061266882611e3e565b915061267383611e3e565b9250826126835761268261262e565b5b828204905092915050565b61269781611e3e565b82525050565b6040820160008201516126b3600085018261268e565b5060208201516126c6602085018261268e565b50505050565b60006040820190506126e1600083018461269d565b92915050565b6000819050919050565b6126fa816126e7565b811461270557600080fd5b50565b600081519050612717816126f1565b92915050565b60006020828403121561273357612732611e34565b5b600061274184828501612708565b91505092915050565b60008160001c9050919050565b6000819050919050565b600061277461276f8361274a565b612757565b9050919050565b60408201600080830154905061279081612761565b61279d600086018261268e565b50600183015490506127ae81612761565b6127bb602086018261268e565b5050505050565b60006040820190506127d7600083018461277b565b92915050565b6000819050919050565b6127f86127f3826126e7565b6127dd565b82525050565b6000819050919050565b61281961281482611e3e565b6127fe565b82525050565b600061282b82866127e7565b60208201915061283b82856127e7565b60208201915061284b8284612808565b602082019150819050949350505050565b7f4e487b7100000000000000000000000000000000000000000000000000000000600052603260045260246000fd5b600061289782856127e7565b6020820191506128a782846127e7565b6020820191508190509392505050565b60006128c282611e3e565b91507fffffffffffffffffffffffffffffffffffffffffffffffffffffffffffffffff82036128f4576128f36125cb565b5b600182019050919050565b600061290a82611e3e565b915061291583611e3e565b925082820390508181111561292d5761292c6125cb565b5b92915050565b600082825260208201905092915050565b7f766563746f72206c656e6774682073686f756c64206265206120706f7765722060008201527f6f66203200000000000000000000000000000000000000000000000000000000602082015250565b60006129a0602483612933565b91506129ab82612944565b604082019050919050565b600060208201905081810360008301526129cf81612993565b9050919050565b60006129e182611e3e565b91506129ec83611e3e565b9250826129fc576129fb61262e565b5b828206905092915050565b6000819050919050565b6000612a1c82612a07565b9150612a2783612a07565b9250828202612a3581612a07565b91507f80000000000000000000000000000000000000000000000000000000000000008414600084121615612a6d57612a6c6125cb565b5b8282058414831517612a8257612a816125cb565b5b5092915050565b6000612a9482612a07565b9150612a9f83612a07565b9250828203905081811260008412168282136000851215161715612ac657612ac56125cb565b5b92915050565b6000612ad782611e3e565b9150612ae283611e3e565b9250828202612af081611e3e565b91508282048414831517612b0757612b066125cb565b5b5092915050565b6000612b1982612a07565b91507f80000000000000000000000000000000000000000000000000000000000000008203612b4b57612b4a6125cb565b5b81600003905091905056fea2646970667358221220850b9fa6516322f55c5ff0bb264332665cd3ddb2787715b9a314b159f39f131b64736f6c63430008130033",
  "immutableReferences": {},
  "source": "// SPDX-License-Identifier: GPL-3.0\npragma solidity >=0.4.0 <0.9.0;\n\nimport \"./alt_bn128.sol\";\n\ncontract NISA{\n\tusing alt_bn128 for uint256;\n\tusing alt_bn128 for alt_bn128.G1Point;\n\n\tstruct Proof {\n\t\talt_bn128.G1Point[] Ls;\n\t\talt_bn128.G1Point[] Rs;\n\t\tuint256 a;\n\t\tuint256 b;\n\t}\n\n\talt_bn128.G1Point u; // random generator\n\tstruct Param {\n\t\talt_bn128.G1Point[] Gs; \n\t\talt_bn128.G1Point P; \n\t\tuint256 c;\n\t}\n\tstruct Var {\n\t\talt_bn128.G1Point[] Ls;\n\t\talt_bn128.G1Point[] Rs;\n\t}\n\n\tconstructor() {\n\t\tuint256 seed = uint256(keccak256(abi.encodePacked(block.timestamp, blockhash(block.number - 1))));\n\t\tu = alt_bn128.uintToCurvePoint(seed);\n\t}\n\n\t/** generate public keys or curve points */\n\t// function generate(uint count) internal view returns (alt_bn128.G1Point[] memory Gs){\n\t// \tGs = new alt_bn128.G1Point[](count);\n\t// \tfor (uint256 i = 0; i < count; i++){\n\t// \t\tGs[i] = alt_bn128.uintToCurvePoint(i+2);\n\t// \t}\n\t// }\n\n\tfunction generateParam(uint256[] memory a) public view returns (Param memory param){\n\t\trequire(a.length & (a.length - 1) == 0, \"vector length should be a power of 2\");\n\t\tparam.Gs = new alt_bn128.G1Point[](a.length);\n\t\tfor (uint256 i = 0; i < a.length; i++){\n\t\t\tparam.Gs[i] = alt_bn128.uintToCurvePoint(i+2);\n\t\t}\n\t\tparam.c = a[0];\n\t\tparam.P = alt_bn128.mul(param.Gs[0], a[0]);\n\t\tfor (uint i = 1; i < a.length; i++){\n\t\t\tparam.c = alt_bn128.add(param.c, a[i]);\n\t\t\tparam.P = alt_bn128.add(param.P, alt_bn128.mul(param.Gs[i], a[i]));\n\t\t}\n\t}\n\n\tfunction log2(uint n) public pure returns (uint ndigits){\n\t\tndigits = 0;\n\t\twhile (n > 1){\n\t\t\tndigits += 1;\n\t\t\tn = n/2;\n\t\t}\n\t}\n\n\tfunction test(uint256[] memory a) public view returns (Proof memory) {\n\t\tParam memory param = generateParam(a);\n\t\tParam memory sec = generateParam(a); // second copy\n\t\tProof memory p = prove(param, a);\n\t\t// return verify(sec, p);\n\t\treturn p;\n\t}\n\n\t\tfunction test2(uint256[] memory a) public view returns (bool) {\n\t\tParam memory param = generateParam(a);\n\t\t// Param memory sec = generateParam(a); // second copy\n\t\tProof memory p = prove(param, a);\n\t\treturn verify(param, p);\n\t}\n\n\t/** Gs : public keys\n\t\tP : prod_i (g_i ^ a_i)\n\t\tc : sum_i a_i\n\t */\n\tfunction prove(Param memory param, uint256[] memory a) view public\n\treturns (Proof memory p){\n\t\trequire(a.length & (a.length - 1) == 0, \"vector length should be a power of 2\");\n\n\t\tuint length = log2(a.length);\n\t\tVar memory v;\n\t\tv.Ls = new alt_bn128.G1Point[](length);\n\t\tv.Rs = new alt_bn128.G1Point[](length);\n\n\t\tuint256 H_z = uint256(keccak256(abi.encodePacked(alt_bn128.serialize(param.P), alt_bn128.serialize(u), param.c)));\n\t\t\n\t\talt_bn128.G1Point memory u_prime = alt_bn128.mul(u, H_z);\n\n\t\tuint256[] memory b = new uint256[](a.length);\n\t\talt_bn128.G1Point[] memory Gs = new alt_bn128.G1Point[](a.length);\n\t\tfor (uint i = 0; i < b.length; i++){\n\t\t\tb[i] = 1;\n\t\t\tGs[i] = param.Gs[i];\n\t\t}\n\t\tuint256 x;\n\n\t\talt_bn128.G1Point memory L;\n\t\talt_bn128.G1Point memory R;\n\n\t\t// O(logn) loop\n\t\tfor (uint idx = 0; idx < length; idx++){\n\n\t\t\t// L && R\n\t\t\t(L, R) = LR(Gs, a, b, u_prime);\n\t\t\tv.Ls[idx] = L; v.Rs[idx] = R;\n\t\t\t\n\t\t\tx = uint256(keccak256(abi.encodePacked(alt_bn128.serialize(L), alt_bn128.serialize(R))));\n\n\t\t\t// half size\n\t\t\t(Gs, a, b) = nextRound(Gs, a, b, x);\n\t\t}\n\n\t\tp = Proof(v.Ls, v.Rs, a[0], b[0]);\n\t}\n\n\tfunction LR(alt_bn128.G1Point[] memory Gs, uint256[] memory a, uint256[] memory b, alt_bn128.G1Point memory u_prime) internal view \n\treturns (alt_bn128.G1Point memory L, alt_bn128.G1Point memory R) {\n\t\tuint n = a.length / 2;\n\t\tuint256 cL = alt_bn128.mul(a[0], b[n]);\n\t\tuint256 cR = alt_bn128.mul(a[n], b[0]);\n\t\tfor (uint i = 1; i < n; i++){\n\t\t\tcL = alt_bn128.add(cL, alt_bn128.mul(a[i], b[n+i]));\n\t\t\tcR = alt_bn128.add(cR, alt_bn128.mul(a[n+i], b[i]));\n\t\t}\n\n\t\tL = alt_bn128.mul(u_prime, cL);\n\t\tR = alt_bn128.mul(u_prime, cR);\n\n\t\tfor (uint i = 0; i < n; i++){\n\t\t\tL = alt_bn128.add(L, alt_bn128.mul(Gs[n+i], a[i]));\n\t\t\tR = alt_bn128.add(R, alt_bn128.mul(Gs[i], a[n+i]));\n\t\t}\n\t}\n\n\tfunction nextRound(alt_bn128.G1Point[] memory Gs, uint256[] memory a, uint256[] memory b, uint256 x) internal view returns (alt_bn128.G1Point[] memory Gs_new, uint256[] memory a_new, uint256[] memory b_new)\n\t{\n\t\tuint n = a.length / 2;\n\n\t\tuint256 x_inv = alt_bn128.inv(x);\n\n\t\tGs_new = new alt_bn128.G1Point[](n);\n\t\ta_new = new uint256[](n);\n\t\tb_new = new uint256[](n);\n\n\t\tfor (uint i = 0; i < n; i++){\n\t\t\tGs_new[i] = alt_bn128.add(alt_bn128.mul(Gs[i], x_inv), alt_bn128.mul(Gs[n+i], x));\n\t\t\ta_new[i] = alt_bn128.add(alt_bn128.mul(x, a[i]), alt_bn128.mul(x_inv, a[n+i]));\n\t\t\tb_new[i] = alt_bn128.add(alt_bn128.mul(x_inv, b[i]), alt_bn128.mul(x, b[n+i]));\n\t\t}\n\t}\n\n\tfunction verify(Param memory param, Proof memory p) public view \n\treturns (bool){\n\t\tuint256 H_z = uint256(keccak256(abi.encodePacked(alt_bn128.serialize(param.P), alt_bn128.serialize(u), param.c)));\n\n\t\talt_bn128.G1Point memory u_prime = alt_bn128.mul(u, H_z);\n\t\t\n\t\talt_bn128.G1Point memory P_prime = alt_bn128.add(param.P, alt_bn128.mul(u_prime, param.c));\n\n\t\tuint length = log2(param.Gs.length);\n\n\t\tuint256[] memory xs = new uint256[](length);\n\t\tuint256[] memory xs_inv = new uint256[](length);\n\t\tuint256[] memory ys = new uint256[](param.Gs.length);\n\n\t\tfor (uint i = 0; i < length; i++){\n\t\t\txs[i] = uint256(keccak256(abi.encodePacked(alt_bn128.serialize(p.Ls[i]), alt_bn128.serialize(p.Rs[i]))));\n\t\t\txs_inv[i] = alt_bn128.inv(xs[i]);\n\t\t}\n\n\t\tfor (uint i = 0; i < param.Gs.length; i++){\n\t\t\tys[i] = 1;\n\t\t\tfor (uint j = 0; j < length; j++){\n\t\t\t\tif (check_bit(i, j)){\n\t\t\t\t\tys[i] = alt_bn128.mul(ys[i], xs[j]);\n\t\t\t\t} else {\n\t\t\t\t\tys[i] = alt_bn128.mul(ys[i], xs_inv[j]);\n\t\t\t\t}\n\t\t\t}\n\t\t}\n\n\t\t// verify\n\t\talt_bn128.G1Point memory left_point;\n\t\talt_bn128.G1Point memory right_point;\n\n\t\tleft_point = P_prime;\n\t\tfor (uint i = 0; i < length; i++){\n\t\t\tleft_point = alt_bn128.add(left_point, \n\t\t\t\t\t\t\talt_bn128.mul(p.Ls[i], alt_bn128.mul(xs[i], xs[i]))\n\t\t\t\t\t\t);\n\t\t\tleft_point = alt_bn128.add(left_point, \n\t\t\t\t\t\t\talt_bn128.mul(p.Rs[i], alt_bn128.mul(xs_inv[i], xs_inv[i]))\n\t\t\t\t\t\t);\n\t\t}\n\n\t\tright_point = alt_bn128.mul(param.Gs[0], ys[0]);\n\t\tfor (uint i = 1; i < param.Gs.length; i++){\n\t\t\tright_point = alt_bn128.add(right_point, alt_bn128.mul(param.Gs[i], ys[i]));\n\t\t}\n\t\tright_point = alt_bn128.add(right_point, alt_bn128.mul(alt_bn128.mul(u, H_z), p.b));\n\t\tright_point = alt_bn128.mul(right_point, p.a);\n\n\t\treturn alt_bn128.eq(left_point, right_point);\n\t}\n\n\tfunction check_bit(uint i, uint j) internal pure returns (bool){\n\t\treturn ((i >> j) & 1) == 1;\n\t}\n}",
  "sourcePath": "/Users/qian/Desktop/Y4/COMP4550/ZKP-Blockchain/contracts/nisa.sol",
  "compiler": {
    "name": "solc",
    "version": "0.8.19+commit.7dd6d404.Emscripten.clang"
  },
  "schemaVersion": "3.4.13",
  "updatedAt": "2023-04-05T13:48:55.959Z",
  "networkType": "ethereum",
  "devdoc": {
    "kind": "dev",
    "methods": {},
    "version": 1
  },
  "userdoc": {
    "kind": "user",
    "methods": {
      "generateParam(uint256[])": {
        "notice": "generate public keys or curve points "
      },
      "prove(((uint256,uint256)[],(uint256,uint256),uint256),uint256[])": {
        "notice": "Gs : public keys P : prod_i (g_i ^ a_i) c : sum_i a_i"
      }
    },
    "version": 1
  }
}