{
  "contractName": "NISA",
  "abi": [
    {
      "inputs": [],
      "stateMutability": "nonpayable",
      "type": "constructor"
    },
    {
      "inputs": [
        {
          "internalType": "uint256",
          "name": "count",
          "type": "uint256"
        }
      ],
      "name": "generate",
      "outputs": [
        {
          "components": [
            {
              "internalType": "uint256",
              "name": "X",
              "type": "uint256"
            },
            {
              "internalType": "uint256",
              "name": "Y",
              "type": "uint256"
            }
          ],
          "internalType": "struct alt_bn128.G1Point[]",
          "name": "Gs",
          "type": "tuple[]"
        }
      ],
      "stateMutability": "view",
      "type": "function"
    },
    {
      "inputs": [
        {
          "components": [
            {
              "components": [
                {
                  "internalType": "uint256",
                  "name": "X",
                  "type": "uint256"
                },
                {
                  "internalType": "uint256",
                  "name": "Y",
                  "type": "uint256"
                }
              ],
              "internalType": "struct alt_bn128.G1Point[]",
              "name": "Gs",
              "type": "tuple[]"
            },
            {
              "components": [
                {
                  "internalType": "uint256",
                  "name": "X",
                  "type": "uint256"
                },
                {
                  "internalType": "uint256",
                  "name": "Y",
                  "type": "uint256"
                }
              ],
              "internalType": "struct alt_bn128.G1Point",
              "name": "P",
              "type": "tuple"
            },
            {
              "internalType": "uint256",
              "name": "c",
              "type": "uint256"
            }
          ],
          "internalType": "struct NISA.Param",
          "name": "param",
          "type": "tuple"
        },
        {
          "internalType": "uint256[]",
          "name": "a",
          "type": "uint256[]"
        }
      ],
      "name": "prove",
      "outputs": [
        {
          "components": [
            {
              "components": [
                {
                  "internalType": "uint256",
                  "name": "X",
                  "type": "uint256"
                },
                {
                  "internalType": "uint256",
                  "name": "Y",
                  "type": "uint256"
                }
              ],
              "internalType": "struct alt_bn128.G1Point[]",
              "name": "Ls",
              "type": "tuple[]"
            },
            {
              "components": [
                {
                  "internalType": "uint256",
                  "name": "X",
                  "type": "uint256"
                },
                {
                  "internalType": "uint256",
                  "name": "Y",
                  "type": "uint256"
                }
              ],
              "internalType": "struct alt_bn128.G1Point[]",
              "name": "Rs",
              "type": "tuple[]"
            },
            {
              "internalType": "uint256",
              "name": "a",
              "type": "uint256"
            },
            {
              "internalType": "uint256",
              "name": "b",
              "type": "uint256"
            }
          ],
          "internalType": "struct NISA.Proof",
          "name": "p",
          "type": "tuple"
        }
      ],
      "stateMutability": "view",
      "type": "function"
    },
    {
      "inputs": [
        {
          "components": [
            {
              "components": [
                {
                  "internalType": "uint256",
                  "name": "X",
                  "type": "uint256"
                },
                {
                  "internalType": "uint256",
                  "name": "Y",
                  "type": "uint256"
                }
              ],
              "internalType": "struct alt_bn128.G1Point[]",
              "name": "Gs",
              "type": "tuple[]"
            },
            {
              "components": [
                {
                  "internalType": "uint256",
                  "name": "X",
                  "type": "uint256"
                },
                {
                  "internalType": "uint256",
                  "name": "Y",
                  "type": "uint256"
                }
              ],
              "internalType": "struct alt_bn128.G1Point",
              "name": "P",
              "type": "tuple"
            },
            {
              "internalType": "uint256",
              "name": "c",
              "type": "uint256"
            }
          ],
          "internalType": "struct NISA.Param",
          "name": "param",
          "type": "tuple"
        },
        {
          "components": [
            {
              "components": [
                {
                  "internalType": "uint256",
                  "name": "X",
                  "type": "uint256"
                },
                {
                  "internalType": "uint256",
                  "name": "Y",
                  "type": "uint256"
                }
              ],
              "internalType": "struct alt_bn128.G1Point[]",
              "name": "Ls",
              "type": "tuple[]"
            },
            {
              "components": [
                {
                  "internalType": "uint256",
                  "name": "X",
                  "type": "uint256"
                },
                {
                  "internalType": "uint256",
                  "name": "Y",
                  "type": "uint256"
                }
              ],
              "internalType": "struct alt_bn128.G1Point[]",
              "name": "Rs",
              "type": "tuple[]"
            },
            {
              "internalType": "uint256",
              "name": "a",
              "type": "uint256"
            },
            {
              "internalType": "uint256",
              "name": "b",
              "type": "uint256"
            }
          ],
          "internalType": "struct NISA.Proof",
          "name": "p",
          "type": "tuple"
        }
      ],
      "name": "verify",
      "outputs": [
        {
          "internalType": "bool",
          "name": "",
          "type": "bool"
        }
      ],
      "stateMutability": "view",
      "type": "function"
    }
  ],
  "bytecode": "0x60806040523480156200001157600080fd5b5060004260014362000024919062000416565b4060405160200162000038929190620004a5565b6040516020818303038152906040528051906020012060001c905062000064816200008360201b60201c565b60008082015181600001556020820151816001015590505050620005de565b6200008d6200037f565b60007f30644e72e131a029b85045b68181585d97816a916871ca8d3c208c16d87cfd4783620000bd919062000504565b90506000600182620000d0919062000416565b91506000805b816200024357600184620000eb91906200053c565b93507f30644e72e131a029b85045b68181585d97816a916871ca8d3c208c16d87cfd47806200011f576200011e620004d5565b5b84850990507f30644e72e131a029b85045b68181585d97816a916871ca8d3c208c16d87cfd4780620001565762000155620004d5565b5b84820990507f30644e72e131a029b85045b68181585d97816a916871ca8d3c208c16d87cfd47806200018d576200018c620004d5565b5b6003820890506200020281600460017f30644e72e131a029b85045b68181585d97816a916871ca8d3c208c16d87cfd47620001c991906200053c565b620001d5919062000577565b7f30644e72e131a029b85045b68181585d97816a916871ca8d3c208c16d87cfd476200026360201b60201c565b9250807f30644e72e131a029b85045b68181585d97816a916871ca8d3c208c16d87cfd4780620002375762000236620004d5565b5b848509149150620000d6565b604051806040016040528085815260200184815250945050505050919050565b60006200026f62000399565b62000279620003bb565b602082600060068110620002925762000291620005af565b5b602002018181525050602082600160068110620002b457620002b3620005af565b5b602002018181525050602082600260068110620002d657620002d5620005af565b5b6020020181815250508582600360068110620002f757620002f6620005af565b5b6020020181815250508482600460068110620003185762000317620005af565b5b6020020181815250508382600560068110620003395762000338620005af565b5b60200201818152505060208160c0846005600019fa6200035857600080fd5b806000600181106200036f576200036e620005af565b5b6020020151925050509392505050565b604051806040016040528060008152602001600081525090565b6040518060c00160405280600690602082028036833780820191505090505090565b6040518060200160405280600190602082028036833780820191505090505090565b6000819050919050565b7f4e487b7100000000000000000000000000000000000000000000000000000000600052601160045260246000fd5b60006200042382620003dd565b91506200043083620003dd565b92508282039050818111156200044b576200044a620003e7565b5b92915050565b6000819050919050565b620004706200046a82620003dd565b62000451565b82525050565b6000819050919050565b6000819050919050565b6200049f620004998262000476565b62000480565b82525050565b6000620004b382856200045b565b602082019150620004c582846200048a565b6020820191508190509392505050565b7f4e487b7100000000000000000000000000000000000000000000000000000000600052601260045260246000fd5b60006200051182620003dd565b91506200051e83620003dd565b925082620005315762000530620004d5565b5b828206905092915050565b60006200054982620003dd565b91506200055683620003dd565b9250828201905080821115620005715762000570620003e7565b5b92915050565b60006200058482620003dd565b91506200059183620003dd565b925082620005a457620005a3620004d5565b5b828204905092915050565b7f4e487b7100000000000000000000000000000000000000000000000000000000600052603260045260246000fd5b6127e780620005ee6000396000f3fe608060405234801561001057600080fd5b50600436106100415760003560e01c80634a7dd523146100465780636c468bb514610076578063f909cb5b146100a6575b600080fd5b610060600480360381019061005b9190611b23565b6100d6565b60405161006d9190611c3d565b60405180910390f35b610090600480360381019061008b9190611f42565b610185565b60405161009d9190611fd5565b60405180910390f35b6100c060048036038101906100bb91906120b3565b610937565b6040516100cd9190612204565b60405180910390f35b60608167ffffffffffffffff8111156100f2576100f1611c75565b5b60405190808252806020026020018201604052801561012b57816020015b6101186119f5565b8152602001906001900390816101105790505b50905060005b8281101561017f5761014e6002826101499190612255565b610e97565b82828151811061016157610160612289565b5b60200260200101819052508080610177906122b8565b915050610131565b50919050565b60008073__alt_bn128_____________________________63aba8f70685602001516040518263ffffffff1660e01b81526004016101c3919061233e565b602060405180830381865af41580156101e0573d6000803e3d6000fd5b505050506040513d601f19601f82011682018060405250810190610204919061238f565b73__alt_bn128_____________________________63aba8f70660006040518263ffffffff1660e01b815260040161023c9190612434565b602060405180830381865af4158015610259573d6000803e3d6000fd5b505050506040513d601f19601f8201168201806040525081019061027d919061238f565b856040015160405160200161029493929190612491565b6040516020818303038152906040528051906020012060001c905060006102f585602001516102f06102e660006040518060400160405290816000820154815260200160018201548152505086611055565b8860400151611055565b61110d565b905060006103078660000151516111c1565b905060008167ffffffffffffffff81111561032557610324611c75565b5b6040519080825280602002602001820160405280156103535781602001602082028036833780820191505090505b50905060008267ffffffffffffffff81111561037257610371611c75565b5b6040519080825280602002602001820160405280156103a05781602001602082028036833780820191505090505b509050600088600001515167ffffffffffffffff8111156103c4576103c3611c75565b5b6040519080825280602002602001820160405280156103f25781602001602082028036833780820191505090505b50905060005b848110156105ca5773__alt_bn128_____________________________63aba8f7068a60000151838151811061043157610430612289565b5b60200260200101516040518263ffffffff1660e01b8152600401610455919061233e565b602060405180830381865af4158015610472573d6000803e3d6000fd5b505050506040513d601f19601f82011682018060405250810190610496919061238f565b73__alt_bn128_____________________________63aba8f7068b6020015184815181106104c7576104c6612289565b5b60200260200101516040518263ffffffff1660e01b81526004016104eb919061233e565b602060405180830381865af4158015610508573d6000803e3d6000fd5b505050506040513d601f19601f8201168201806040525081019061052c919061238f565b60405160200161053d9291906124ce565b6040516020818303038152906040528051906020012060001c84828151811061056957610568612289565b5b60200260200101818152505061059884828151811061058b5761058a612289565b5b60200260200101516111f5565b8382815181106105ab576105aa612289565b5b60200260200101818152505080806105c2906122b8565b9150506103f8565b5060005b8960000151518110156106fd5760018282815181106105f0576105ef612289565b5b60200260200101818152505060005b858110156106e957610611828261134d565b156106785761065483838151811061062c5761062b612289565b5b602002602001015186838151811061064757610646612289565b5b6020026020010151611360565b83838151811061066757610666612289565b5b6020026020010181815250506106d6565b6106b683838151811061068e5761068d612289565b5b60200260200101518583815181106106a9576106a8612289565b5b6020026020010151611360565b8383815181106106c9576106c8612289565b5b6020026020010181815250505b80806106e1906122b8565b9150506105ff565b5080806106f5906122b8565b9150506105ce565b506107066119f5565b61070e6119f5565b86915060005b8681101561080f5761078a836107858d60000151848151811061073a57610739612289565b5b60200260200101516107808a868151811061075857610757612289565b5b60200260200101518b878151811061077357610772612289565b5b6020026020010151611360565b611055565b61110d565b92506107fa836107f58d6020015184815181106107aa576107a9612289565b5b60200260200101516107f08986815181106107c8576107c7612289565b5b60200260200101518a87815181106107e3576107e2612289565b5b6020026020010151611360565b611055565b61110d565b92508080610807906122b8565b915050610714565b506108548b6000015160008151811061082b5761082a612289565b5b60200260200101518460008151811061084757610846612289565b5b6020026020010151611055565b90506000600190505b8b60000151518110156108ca576108b5826108b08e60000151848151811061088857610887612289565b5b60200260200101518785815181106108a3576108a2612289565b5b6020026020010151611055565b61110d565b915080806108c2906122b8565b91505061085d565b5061090b816109066108fc6000604051806040016040529081600082015481526020016001820154815250508c611055565b8d60600151611055565b61110d565b905061091b818b60400151611055565b9050610927828261139c565b9850505050505050505092915050565b61093f611a0f565b60006001835161094f91906124fa565b83511614610992576040517f08c379a0000000000000000000000000000000000000000000000000000000008152600401610989906125b1565b60405180910390fd5b600061099e83516111c1565b90506109a8611a37565b8167ffffffffffffffff8111156109c2576109c1611c75565b5b6040519080825280602002602001820160405280156109fb57816020015b6109e86119f5565b8152602001906001900390816109e05790505b5081600001819052508167ffffffffffffffff811115610a1e57610a1d611c75565b5b604051908082528060200260200182016040528015610a5757816020015b610a446119f5565b815260200190600190039081610a3c5790505b508160200181905250600073__alt_bn128_____________________________63aba8f70687602001516040518263ffffffff1660e01b8152600401610a9d919061233e565b602060405180830381865af4158015610aba573d6000803e3d6000fd5b505050506040513d601f19601f82011682018060405250810190610ade919061238f565b73__alt_bn128_____________________________63aba8f70660006040518263ffffffff1660e01b8152600401610b169190612434565b602060405180830381865af4158015610b33573d6000803e3d6000fd5b505050506040513d601f19601f82011682018060405250810190610b57919061238f565b8760400151604051602001610b6e93929190612491565b6040516020818303038152906040528051906020012060001c90506000610bb560006040518060400160405290816000820154815260200160018201548152505083611055565b90506000865167ffffffffffffffff811115610bd457610bd3611c75565b5b604051908082528060200260200182016040528015610c025781602001602082028036833780820191505090505b50905060005b8151811015610c45576001828281518110610c2657610c25612289565b5b6020026020010181815250508080610c3d906122b8565b915050610c08565b506000875190506000610c566119f5565b610c5e6119f5565b60005b89811015610e2657600285610c769190612600565b9450610c898d600001518d88888b6113c4565b80935081945050508289600001518281518110610ca957610ca8612289565b5b60200260200101819052508189602001518281518110610ccc57610ccb612289565b5b602002602001018190525073__alt_bn128_____________________________63aba8f706846040518263ffffffff1660e01b8152600401610d0e919061233e565b602060405180830381865af4158015610d2b573d6000803e3d6000fd5b505050506040513d601f19601f82011682018060405250810190610d4f919061238f565b73__alt_bn128_____________________________63aba8f706846040518263ffffffff1660e01b8152600401610d86919061233e565b602060405180830381865af4158015610da3573d6000803e3d6000fd5b505050506040513d601f19601f82011682018060405250810190610dc7919061238f565b604051602001610dd89291906124ce565b6040516020818303038152906040528051906020012060001c9350610e038d600001518d888761160f565b8f600001819950829f508390525050508080610e1e906122b8565b915050610c61565b50604051806080016040528089600001518152602001896020015181526020018c600081518110610e5a57610e59612289565b5b6020026020010151815260200186600081518110610e7b57610e7a612289565b5b6020026020010151815250995050505050505050505092915050565b610e9f6119f5565b60007f30644e72e131a029b85045b68181585d97816a916871ca8d3c208c16d87cfd4783610ecd9190612631565b90506000600182610ede91906124fa565b91506000805b8161103557600184610ef69190612255565b93507f30644e72e131a029b85045b68181585d97816a916871ca8d3c208c16d87cfd4780610f2757610f266125d1565b5b84850990507f30644e72e131a029b85045b68181585d97816a916871ca8d3c208c16d87cfd4780610f5b57610f5a6125d1565b5b84820990507f30644e72e131a029b85045b68181585d97816a916871ca8d3c208c16d87cfd4780610f8f57610f8e6125d1565b5b600382089050610ff881600460017f30644e72e131a029b85045b68181585d97816a916871ca8d3c208c16d87cfd47610fc89190612255565b610fd29190612600565b7f30644e72e131a029b85045b68181585d97816a916871ca8d3c208c16d87cfd476118b7565b9250807f30644e72e131a029b85045b68181585d97816a916871ca8d3c208c16d87cfd478061102a576110296125d1565b5b848509149150610ee4565b604051806040016040528085815260200184815250945050505050919050565b61105d6119f5565b6001820361106d57829050611107565b600282036110865761107f838461110d565b9050611107565b61108e611a51565b8360000151816000600381106110a7576110a6612289565b5b6020020181815250508360200151816001600381106110c9576110c8612289565b5b60200201818152505082816002600381106110e7576110e6612289565b5b6020020181815250506040826060836007600019fa61110557600080fd5b505b92915050565b6111156119f5565b61111d611a73565b83600001518160006004811061113657611135612289565b5b60200201818152505083602001518160016004811061115857611157612289565b5b60200201818152505082600001518160026004811061117a57611179612289565b5b60200201818152505082602001518160036004811061119c5761119b612289565b5b6020020181815250506040826080836006600019fa6111ba57600080fd5b5092915050565b60005b60018211156111f0576001816111da9190612255565b90506002826111e99190612600565b91506111c4565b919050565b6000808290506000810361120d576000915050611348565b7f30644e72e131a029b85045b68181585d2833e84879b9709143e1f593f0000001811115611264577f30644e72e131a029b85045b68181585d2833e84879b9709143e1f593f0000001816112619190612631565b90505b6000806001905060007f30644e72e131a029b85045b68181585d2833e84879b9709143e1f593f00000019050600084905060005b600082146112f35781836112ac9190612600565b90508384826112bb919061266c565b866112c691906126e4565b8384846112d39190612727565b866112de91906124fa565b80955081965082975083985050505050611298565b600085121561133e578461130690612769565b7f30644e72e131a029b85045b68181585d2833e84879b9709143e1f593f000000161133191906124fa565b9650505050505050611348565b8496505050505050505b919050565b60006001808385901c1614905092915050565b60007f30644e72e131a029b85045b68181585d2833e84879b9709143e1f593f000000180611391576113906125d1565b5b828409905092915050565b6000816000015183600001511480156113bc575081602001518360200151145b905092915050565b6113cc6119f5565b6113d46119f5565b600080611416886000815181106113ee576113ed612289565b5b602002602001015188888151811061140957611408612289565b5b6020026020010151611360565b915061145788878151811061142e5761142d612289565b5b60200260200101518860008151811061144a57611449612289565b5b6020026020010151611360565b90506000600190505b86811015611523576114ba836114b58b848151811061148257611481612289565b5b60200260200101518b858c6114979190612255565b815181106114a8576114a7612289565b5b6020026020010151611360565b6119b9565b925061150e826115098b848b6114d09190612255565b815181106114e1576114e0612289565b5b60200260200101518b85815181106114fc576114fb612289565b5b6020026020010151611360565b6119b9565b9150808061151b906122b8565b915050611460565b5061152e8583611055565b935061153a8582611055565b925060005b8681101561160257611599856115948c848b61155b9190612255565b8151811061156c5761156b612289565b5b60200260200101518c858151811061158757611586612289565b5b6020026020010151611055565b61110d565b94506115ed846115e88c84815181106115b5576115b4612289565b5b60200260200101518c858c6115ca9190612255565b815181106115db576115da612289565b5b6020026020010151611055565b61110d565b935080806115fa906122b8565b91505061153f565b5050509550959350505050565b60608060606000600287516116249190612600565b90506000611631866111f5565b90508167ffffffffffffffff81111561164d5761164c611c75565b5b60405190808252806020026020018201604052801561168657816020015b6116736119f5565b81526020019060019003908161166b5790505b5094508167ffffffffffffffff8111156116a3576116a2611c75565b5b6040519080825280602002602001820160405280156116d15781602001602082028036833780820191505090505b5093508167ffffffffffffffff8111156116ee576116ed611c75565b5b60405190808252806020026020018201604052801561171c5781602001602082028036833780820191505090505b50925060005b828110156118aa576117856117518b838151811061174357611742612289565b5b602002602001015184611055565b6117808c84876117619190612255565b8151811061177257611771612289565b5b60200260200101518a611055565b61110d565b86828151811061179857611797612289565b5b60200260200101819052506117fe6117ca888b84815181106117bd576117bc612289565b5b6020026020010151611360565b6117f9848c85886117db9190612255565b815181106117ec576117eb612289565b5b6020026020010151611360565b6119b9565b85828151811061181157611810612289565b5b602002602001018181525050611878611844838a848151811061183757611836612289565b5b6020026020010151611360565b611873898b85886118559190612255565b8151811061186657611865612289565b5b6020026020010151611360565b6119b9565b84828151811061188b5761188a612289565b5b60200260200101818152505080806118a2906122b8565b915050611722565b5050509450945094915050565b60006118c1611a95565b6118c9611ab7565b6020826000600681106118df576118de612289565b5b6020020181815250506020826001600681106118fe576118fd612289565b5b60200201818152505060208260026006811061191d5761191c612289565b5b602002018181525050858260036006811061193b5761193a612289565b5b602002018181525050848260046006811061195957611958612289565b5b602002018181525050838260056006811061197757611976612289565b5b60200201818152505060208160c0846005600019fa61199557600080fd5b806000600181106119a9576119a8612289565b5b6020020151925050509392505050565b60007f30644e72e131a029b85045b68181585d2833e84879b9709143e1f593f0000001806119ea576119e96125d1565b5b828408905092915050565b604051806040016040528060008152602001600081525090565b6040518060800160405280606081526020016060815260200160008152602001600081525090565b604051806040016040528060608152602001606081525090565b6040518060600160405280600390602082028036833780820191505090505090565b6040518060800160405280600490602082028036833780820191505090505090565b6040518060c00160405280600690602082028036833780820191505090505090565b6040518060200160405280600190602082028036833780820191505090505090565b6000604051905090565b600080fd5b600080fd5b6000819050919050565b611b0081611aed565b8114611b0b57600080fd5b50565b600081359050611b1d81611af7565b92915050565b600060208284031215611b3957611b38611ae3565b5b6000611b4784828501611b0e565b91505092915050565b600081519050919050565b600082825260208201905092915050565b6000819050602082019050919050565b611b8581611aed565b82525050565b604082016000820151611ba16000850182611b7c565b506020820151611bb46020850182611b7c565b50505050565b6000611bc68383611b8b565b60408301905092915050565b6000602082019050919050565b6000611bea82611b50565b611bf48185611b5b565b9350611bff83611b6c565b8060005b83811015611c30578151611c178882611bba565b9750611c2283611bd2565b925050600181019050611c03565b5085935050505092915050565b60006020820190508181036000830152611c578184611bdf565b905092915050565b600080fd5b6000601f19601f8301169050919050565b7f4e487b7100000000000000000000000000000000000000000000000000000000600052604160045260246000fd5b611cad82611c64565b810181811067ffffffffffffffff82111715611ccc57611ccb611c75565b5b80604052505050565b6000611cdf611ad9565b9050611ceb8282611ca4565b919050565b600080fd5b600080fd5b600067ffffffffffffffff821115611d1557611d14611c75565b5b602082029050602081019050919050565b600080fd5b600060408284031215611d4157611d40611c5f565b5b611d4b6040611cd5565b90506000611d5b84828501611b0e565b6000830152506020611d6f84828501611b0e565b60208301525092915050565b6000611d8e611d8984611cfa565b611cd5565b90508083825260208201905060408402830185811115611db157611db0611d26565b5b835b81811015611dda5780611dc68882611d2b565b845260208401935050604081019050611db3565b5050509392505050565b600082601f830112611df957611df8611cf5565b5b8135611e09848260208601611d7b565b91505092915050565b600060808284031215611e2857611e27611c5f565b5b611e326060611cd5565b9050600082013567ffffffffffffffff811115611e5257611e51611cf0565b5b611e5e84828501611de4565b6000830152506020611e7284828501611d2b565b6020830152506060611e8684828501611b0e565b60408301525092915050565b600060808284031215611ea857611ea7611c5f565b5b611eb26080611cd5565b9050600082013567ffffffffffffffff811115611ed257611ed1611cf0565b5b611ede84828501611de4565b600083015250602082013567ffffffffffffffff811115611f0257611f01611cf0565b5b611f0e84828501611de4565b6020830152506040611f2284828501611b0e565b6040830152506060611f3684828501611b0e565b60608301525092915050565b60008060408385031215611f5957611f58611ae3565b5b600083013567ffffffffffffffff811115611f7757611f76611ae8565b5b611f8385828601611e12565b925050602083013567ffffffffffffffff811115611fa457611fa3611ae8565b5b611fb085828601611e92565b9150509250929050565b60008115159050919050565b611fcf81611fba565b82525050565b6000602082019050611fea6000830184611fc6565b92915050565b600067ffffffffffffffff82111561200b5761200a611c75565b5b602082029050602081019050919050565b600061202f61202a84611ff0565b611cd5565b9050808382526020820190506020840283018581111561205257612051611d26565b5b835b8181101561207b57806120678882611b0e565b845260208401935050602081019050612054565b5050509392505050565b600082601f83011261209a57612099611cf5565b5b81356120aa84826020860161201c565b91505092915050565b600080604083850312156120ca576120c9611ae3565b5b600083013567ffffffffffffffff8111156120e8576120e7611ae8565b5b6120f485828601611e12565b925050602083013567ffffffffffffffff81111561211557612114611ae8565b5b61212185828601612085565b9150509250929050565b600082825260208201905092915050565b600061214782611b50565b612151818561212b565b935061215c83611b6c565b8060005b8381101561218d5781516121748882611bba565b975061217f83611bd2565b925050600181019050612160565b5085935050505092915050565b600060808301600083015184820360008601526121b7828261213c565b915050602083015184820360208601526121d1828261213c565b91505060408301516121e66040860182611b7c565b5060608301516121f96060860182611b7c565b508091505092915050565b6000602082019050818103600083015261221e818461219a565b905092915050565b7f4e487b7100000000000000000000000000000000000000000000000000000000600052601160045260246000fd5b600061226082611aed565b915061226b83611aed565b925082820190508082111561228357612282612226565b5b92915050565b7f4e487b7100000000000000000000000000000000000000000000000000000000600052603260045260246000fd5b60006122c382611aed565b91507fffffffffffffffffffffffffffffffffffffffffffffffffffffffffffffffff82036122f5576122f4612226565b5b600182019050919050565b61230981611aed565b82525050565b6040820160008201516123256000850182612300565b5060208201516123386020850182612300565b50505050565b6000604082019050612353600083018461230f565b92915050565b6000819050919050565b61236c81612359565b811461237757600080fd5b50565b60008151905061238981612363565b92915050565b6000602082840312156123a5576123a4611ae3565b5b60006123b38482850161237a565b91505092915050565b60008160001c9050919050565b6000819050919050565b60006123e66123e1836123bc565b6123c9565b9050919050565b604082016000808301549050612402816123d3565b61240f6000860182612300565b5060018301549050612420816123d3565b61242d6020860182612300565b5050505050565b600060408201905061244960008301846123ed565b92915050565b6000819050919050565b61246a61246582612359565b61244f565b82525050565b6000819050919050565b61248b61248682611aed565b612470565b82525050565b600061249d8286612459565b6020820191506124ad8285612459565b6020820191506124bd828461247a565b602082019150819050949350505050565b60006124da8285612459565b6020820191506124ea8284612459565b6020820191508190509392505050565b600061250582611aed565b915061251083611aed565b925082820390508181111561252857612527612226565b5b92915050565b600082825260208201905092915050565b7f766563746f72206c656e6774682073686f756c64206265206120706f7765722060008201527f6f66203200000000000000000000000000000000000000000000000000000000602082015250565b600061259b60248361252e565b91506125a68261253f565b604082019050919050565b600060208201905081810360008301526125ca8161258e565b9050919050565b7f4e487b7100000000000000000000000000000000000000000000000000000000600052601260045260246000fd5b600061260b82611aed565b915061261683611aed565b925082612626576126256125d1565b5b828204905092915050565b600061263c82611aed565b915061264783611aed565b925082612657576126566125d1565b5b828206905092915050565b6000819050919050565b600061267782612662565b915061268283612662565b925082820261269081612662565b91507f800000000000000000000000000000000000000000000000000000000000000084146000841216156126c8576126c7612226565b5b82820584148315176126dd576126dc612226565b5b5092915050565b60006126ef82612662565b91506126fa83612662565b925082820390508181126000841216828213600085121516171561272157612720612226565b5b92915050565b600061273282611aed565b915061273d83611aed565b925082820261274b81611aed565b9150828204841483151761276257612761612226565b5b5092915050565b600061277482612662565b91507f800000000000000000000000000000000000000000000000000000000000000082036127a6576127a5612226565b5b81600003905091905056fea26469706673582212205c02e44f4166fc8ae1c430341876809e6f2888b82a52fd0cb5b84129dc7664ef64736f6c63430008130033",
  "immutableReferences": {},
  "source": "// SPDX-License-Identifier: GPL-3.0\npragma solidity >=0.4.0 <0.9.0;\n\nimport \"./alt_bn128.sol\";\n\ncontract NISA{\n    using alt_bn128 for uint256;\n\tusing alt_bn128 for alt_bn128.G1Point;\n\n    struct Proof {\n      alt_bn128.G1Point[] Ls;\n      alt_bn128.G1Point[] Rs;\n      uint256 a;\n      uint256 b;\n    }\n\n\talt_bn128.G1Point u; // random generator\n\tstruct Param {\n\t\talt_bn128.G1Point[] Gs; \n\t\talt_bn128.G1Point P; \n\t\tuint256 c;\n\t}\n\tstruct Var {\n\t\talt_bn128.G1Point[] Ls;\n\t\talt_bn128.G1Point[] Rs;\n\t}\n\n\tconstructor() {\n\t\tuint256 seed = uint256(keccak256(abi.encodePacked(block.timestamp, blockhash(block.number - 1))));\n\t\tu = alt_bn128.uintToCurvePoint(seed);\n\t}\n\n  \t/** generate public keys or curve points */\n  \tfunction generate(uint count) public view returns (alt_bn128.G1Point[] memory Gs){\n        Gs = new alt_bn128.G1Point[](count);\n        for (uint256 i = 0; i < count; i++){\n            Gs[i] = alt_bn128.uintToCurvePoint(i+2);\n        }\n    }\n\n\tfunction log2(uint n) internal pure returns (uint ndigits){\n        ndigits = 0;\n        while (n > 1){\n            ndigits += 1;\n            n = n/2;\n        }\n    }\n\n\t/** Gs : public keys\n\t\tP : prod_i (g_i ^ a_i)\n\t\tc : sum_i a_i\n\t */\n\tfunction prove(Param memory param, uint256[] memory a) public view\n\treturns (Proof memory p){\n\t\trequire(a.length & (a.length - 1) == 0, \"vector length should be a power of 2\");\n\n\t\tuint length = log2(a.length);\n\t\tVar memory v;\n\t\tv.Ls = new alt_bn128.G1Point[](length);\n\t\tv.Rs = new alt_bn128.G1Point[](length);\n\n\t\tuint256 H_z = uint256(keccak256(abi.encodePacked(alt_bn128.serialize(param.P), alt_bn128.serialize(u), param.c)));\n\t\t\n\t\talt_bn128.G1Point memory u_prime = alt_bn128.mul(u, H_z);\n\n\t\tuint256[] memory b = new uint256[](a.length);\n\t\tfor (uint i = 0; i < b.length; i++){\n\t\t\tb[i] = 1;\n\t\t}\n\n\t\tuint n = a.length;\n\t\tuint256 x;\n\n\t\talt_bn128.G1Point memory L;\n\t\talt_bn128.G1Point memory R;\n\n\t\t// O(logn) loop\n\t\tfor (uint idx = 0; idx < length; idx++){\n\t\t\tn = n / 2;\n\n\t\t\t// L && R\n\t\t\t(L, R) = LRpair(param.Gs, a, b, n, u_prime);\n\t\t\tv.Ls[idx] = L; v.Rs[idx] = R;\n\t\t\t\n\t\t\tx = uint256(keccak256(abi.encodePacked(alt_bn128.serialize(L), alt_bn128.serialize(R))));\n\n\t\t\t// half size\n\t\t\t(param.Gs, a, b) = nextRound(param.Gs, a, b, x);\n\t\t}\n\n\t\tp = Proof(v.Ls, v.Rs, a[0], b[0]);\n\t}\n\n\tfunction LRpair(alt_bn128.G1Point[] memory Gs, uint256[] memory a, uint256[] memory b, uint n, alt_bn128.G1Point memory u_prime) internal view \n\treturns (alt_bn128.G1Point memory L, alt_bn128.G1Point memory R) {\n\t\tuint256 cL;\n\t\tuint256 cR;\n\t\tcL = alt_bn128.mul(a[0], b[n]);\n\t\tcR = alt_bn128.mul(a[n], b[0]);\n\t\tfor (uint i = 1; i < n; i++){\n\t\t\tcL = alt_bn128.add(cL, alt_bn128.mul(a[i], b[n+i]));\n\t\t\tcR = alt_bn128.add(cR, alt_bn128.mul(a[n+i], b[i]));\n\t\t}\n\n\t\tL = alt_bn128.mul(u_prime, cL);\n\t\tR = alt_bn128.mul(u_prime, cR);\n\n\t\tfor (uint i = 0; i < n; i++){\n\t\t\tL = alt_bn128.add(L, alt_bn128.mul(Gs[n+i], a[i]));\n\t\t\tR = alt_bn128.add(R, alt_bn128.mul(Gs[i], a[n+i]));\n\t\t}\n\t}\n\n\tfunction nextRound(alt_bn128.G1Point[] memory Gs, uint256[] memory a, uint256[] memory b, uint256 x) internal view\n    returns (alt_bn128.G1Point[] memory Gs_new, uint256[] memory a_new, uint256[] memory b_new){\n        uint n = a.length / 2;\n\n\t\tuint256 x_inv = alt_bn128.inv(x);\n\n        Gs_new = new alt_bn128.G1Point[](n);\n        a_new = new uint256[](n);\n\t\tb_new = new uint256[](n);\n\n        for (uint i = 0; i < n; i++){\n            Gs_new[i] = alt_bn128.add(alt_bn128.mul(Gs[i], x_inv), alt_bn128.mul(Gs[n+i], x));\n            a_new[i] = alt_bn128.add(alt_bn128.mul(x, a[i]), alt_bn128.mul(x_inv, a[n+i]));\n\t\t\tb_new[i] = alt_bn128.add(alt_bn128.mul(x_inv, b[i]), alt_bn128.mul(x, b[n+i]));\n        }\n    }\n\n\tfunction verify(Param memory param, Proof memory p) public view \n\treturns (bool){\n\t\tuint256 H_z = uint256(keccak256(abi.encodePacked(alt_bn128.serialize(param.P), alt_bn128.serialize(u), param.c)));\n\t\t\n\t\talt_bn128.G1Point memory P_prime = alt_bn128.add(param.P, alt_bn128.mul(alt_bn128.mul(u, H_z), param.c));\n\n\t\tuint length = log2(param.Gs.length);\n\n\t\tuint256[] memory xs = new uint256[](length);\n\t\tuint256[] memory xs_inv = new uint256[](length);\n\t\tuint256[] memory ys = new uint256[](param.Gs.length);\n\n\t\tfor (uint i = 0; i < length; i++){\n\t\t\txs[i] = uint256(keccak256(abi.encodePacked(alt_bn128.serialize(p.Ls[i]), alt_bn128.serialize(p.Rs[i]))));\n\t\t\txs_inv[i] = alt_bn128.inv(xs[i]);\n\t\t}\n\n\t\tfor (uint i = 0; i < param.Gs.length; i++){\n\t\t\tys[i] = 1;\n\t\t\tfor (uint j = 0; j < length; j++){\n\t\t\t\tif (check_bit(i, j)){\n\t\t\t\t\tys[i] = alt_bn128.mul(ys[i], xs[j]);\n\t\t\t\t} else {\n\t\t\t\t\tys[i] = alt_bn128.mul(ys[i], xs_inv[j]);\n\t\t\t\t}\n\t\t\t}\n\t\t}\n\n\t\t// verify\n\t\talt_bn128.G1Point memory left_point;\n\t\talt_bn128.G1Point memory right_point;\n\n\t\tleft_point = P_prime;\n\t\tfor (uint i = 0; i < length; i++){\n\t\t\tleft_point = alt_bn128.add(left_point, \n\t\t\t\t\t\t\talt_bn128.mul(p.Ls[i], alt_bn128.mul(xs[i], xs[i]))\n\t\t\t\t\t\t);\n\t\t\tleft_point = alt_bn128.add(left_point, \n\t\t\t\t\t\t\talt_bn128.mul(p.Rs[i], alt_bn128.mul(xs_inv[i], xs_inv[i]))\n\t\t\t\t\t\t);\n\t\t}\n\n\t\tright_point = alt_bn128.mul(param.Gs[0], ys[0]);\n\t\tfor (uint i = 1; i < param.Gs.length; i++){\n\t\t\tright_point = alt_bn128.add(right_point, alt_bn128.mul(param.Gs[i], ys[i]));\n\t\t}\n\t\tright_point = alt_bn128.add(right_point, alt_bn128.mul(alt_bn128.mul(u, H_z), p.b));\n\t\tright_point = alt_bn128.mul(right_point, p.a);\n\n\t\treturn alt_bn128.eq(left_point, right_point);\n\t}\n\n\tfunction check_bit(uint i, uint j) internal pure returns (bool){\n\t\treturn ((i >> j) & 1) == 1;\n\t}\n}",
  "sourcePath": "/Users/qian/Desktop/Y4/COMP4550/ZKP-Blockchain/contracts/nisa.sol",
  "compiler": {
    "name": "solc",
    "version": "0.8.19+commit.7dd6d404.Emscripten.clang"
  },
  "schemaVersion": "3.4.13",
  "updatedAt": "2023-03-18T17:42:51.391Z",
  "devdoc": {
    "kind": "dev",
    "methods": {},
    "version": 1
  },
  "userdoc": {
    "kind": "user",
    "methods": {
      "generate(uint256)": {
        "notice": "generate public keys or curve points "
      },
      "prove(((uint256,uint256)[],(uint256,uint256),uint256),uint256[])": {
        "notice": "Gs : public keys P : prod_i (g_i ^ a_i) c : sum_i a_i"
      }
    },
    "version": 1
  }
}