{
  "contractName": "NISA2",
  "abi": [
    {
      "inputs": [],
      "stateMutability": "nonpayable",
      "type": "constructor"
    },
    {
      "inputs": [
        {
          "internalType": "uint256[]",
          "name": "a",
          "type": "uint256[]"
        }
      ],
      "name": "test",
      "outputs": [
        {
          "internalType": "bool",
          "name": "",
          "type": "bool"
        }
      ],
      "stateMutability": "nonpayable",
      "type": "function"
    },
    {
      "inputs": [
        {
          "components": [
            {
              "components": [
                {
                  "internalType": "uint256",
                  "name": "X",
                  "type": "uint256"
                },
                {
                  "internalType": "uint256",
                  "name": "Y",
                  "type": "uint256"
                }
              ],
              "internalType": "struct alt_bn128.G1Point[]",
              "name": "Gs",
              "type": "tuple[]"
            },
            {
              "components": [
                {
                  "internalType": "uint256",
                  "name": "X",
                  "type": "uint256"
                },
                {
                  "internalType": "uint256",
                  "name": "Y",
                  "type": "uint256"
                }
              ],
              "internalType": "struct alt_bn128.G1Point",
              "name": "P",
              "type": "tuple"
            },
            {
              "internalType": "uint256",
              "name": "c",
              "type": "uint256"
            }
          ],
          "internalType": "struct NISA2.Param",
          "name": "param",
          "type": "tuple"
        },
        {
          "internalType": "uint256[]",
          "name": "a",
          "type": "uint256[]"
        }
      ],
      "name": "prove",
      "outputs": [
        {
          "components": [
            {
              "components": [
                {
                  "internalType": "uint256",
                  "name": "X",
                  "type": "uint256"
                },
                {
                  "internalType": "uint256",
                  "name": "Y",
                  "type": "uint256"
                }
              ],
              "internalType": "struct alt_bn128.G1Point[]",
              "name": "Ls",
              "type": "tuple[]"
            },
            {
              "components": [
                {
                  "internalType": "uint256",
                  "name": "X",
                  "type": "uint256"
                },
                {
                  "internalType": "uint256",
                  "name": "Y",
                  "type": "uint256"
                }
              ],
              "internalType": "struct alt_bn128.G1Point[]",
              "name": "Rs",
              "type": "tuple[]"
            },
            {
              "internalType": "uint256",
              "name": "a",
              "type": "uint256"
            },
            {
              "internalType": "uint256",
              "name": "b",
              "type": "uint256"
            }
          ],
          "internalType": "struct NISA2.Proof",
          "name": "",
          "type": "tuple"
        }
      ],
      "stateMutability": "nonpayable",
      "type": "function"
    },
    {
      "inputs": [
        {
          "components": [
            {
              "components": [
                {
                  "internalType": "uint256",
                  "name": "X",
                  "type": "uint256"
                },
                {
                  "internalType": "uint256",
                  "name": "Y",
                  "type": "uint256"
                }
              ],
              "internalType": "struct alt_bn128.G1Point[]",
              "name": "Gs",
              "type": "tuple[]"
            },
            {
              "components": [
                {
                  "internalType": "uint256",
                  "name": "X",
                  "type": "uint256"
                },
                {
                  "internalType": "uint256",
                  "name": "Y",
                  "type": "uint256"
                }
              ],
              "internalType": "struct alt_bn128.G1Point",
              "name": "u_prime",
              "type": "tuple"
            },
            {
              "internalType": "uint256[]",
              "name": "a",
              "type": "uint256[]"
            },
            {
              "internalType": "uint256[]",
              "name": "b",
              "type": "uint256[]"
            },
            {
              "components": [
                {
                  "internalType": "uint256",
                  "name": "X",
                  "type": "uint256"
                },
                {
                  "internalType": "uint256",
                  "name": "Y",
                  "type": "uint256"
                }
              ],
              "internalType": "struct alt_bn128.G1Point[]",
              "name": "Ls",
              "type": "tuple[]"
            },
            {
              "components": [
                {
                  "internalType": "uint256",
                  "name": "X",
                  "type": "uint256"
                },
                {
                  "internalType": "uint256",
                  "name": "Y",
                  "type": "uint256"
                }
              ],
              "internalType": "struct alt_bn128.G1Point[]",
              "name": "Rs",
              "type": "tuple[]"
            },
            {
              "internalType": "uint256",
              "name": "idx",
              "type": "uint256"
            }
          ],
          "internalType": "struct NISA2.Board",
          "name": "board",
          "type": "tuple"
        }
      ],
      "name": "loop",
      "outputs": [
        {
          "components": [
            {
              "components": [
                {
                  "internalType": "uint256",
                  "name": "X",
                  "type": "uint256"
                },
                {
                  "internalType": "uint256",
                  "name": "Y",
                  "type": "uint256"
                }
              ],
              "internalType": "struct alt_bn128.G1Point[]",
              "name": "Ls",
              "type": "tuple[]"
            },
            {
              "components": [
                {
                  "internalType": "uint256",
                  "name": "X",
                  "type": "uint256"
                },
                {
                  "internalType": "uint256",
                  "name": "Y",
                  "type": "uint256"
                }
              ],
              "internalType": "struct alt_bn128.G1Point[]",
              "name": "Rs",
              "type": "tuple[]"
            },
            {
              "internalType": "uint256",
              "name": "a",
              "type": "uint256"
            },
            {
              "internalType": "uint256",
              "name": "b",
              "type": "uint256"
            }
          ],
          "internalType": "struct NISA2.Proof",
          "name": "",
          "type": "tuple"
        }
      ],
      "stateMutability": "nonpayable",
      "type": "function"
    },
    {
      "inputs": [
        {
          "components": [
            {
              "components": [
                {
                  "internalType": "uint256",
                  "name": "X",
                  "type": "uint256"
                },
                {
                  "internalType": "uint256",
                  "name": "Y",
                  "type": "uint256"
                }
              ],
              "internalType": "struct alt_bn128.G1Point[]",
              "name": "Gs",
              "type": "tuple[]"
            },
            {
              "components": [
                {
                  "internalType": "uint256",
                  "name": "X",
                  "type": "uint256"
                },
                {
                  "internalType": "uint256",
                  "name": "Y",
                  "type": "uint256"
                }
              ],
              "internalType": "struct alt_bn128.G1Point",
              "name": "P",
              "type": "tuple"
            },
            {
              "internalType": "uint256",
              "name": "c",
              "type": "uint256"
            }
          ],
          "internalType": "struct NISA2.Param",
          "name": "param",
          "type": "tuple"
        },
        {
          "components": [
            {
              "components": [
                {
                  "internalType": "uint256",
                  "name": "X",
                  "type": "uint256"
                },
                {
                  "internalType": "uint256",
                  "name": "Y",
                  "type": "uint256"
                }
              ],
              "internalType": "struct alt_bn128.G1Point[]",
              "name": "Ls",
              "type": "tuple[]"
            },
            {
              "components": [
                {
                  "internalType": "uint256",
                  "name": "X",
                  "type": "uint256"
                },
                {
                  "internalType": "uint256",
                  "name": "Y",
                  "type": "uint256"
                }
              ],
              "internalType": "struct alt_bn128.G1Point[]",
              "name": "Rs",
              "type": "tuple[]"
            },
            {
              "internalType": "uint256",
              "name": "a",
              "type": "uint256"
            },
            {
              "internalType": "uint256",
              "name": "b",
              "type": "uint256"
            }
          ],
          "internalType": "struct NISA2.Proof",
          "name": "p",
          "type": "tuple"
        }
      ],
      "name": "verify",
      "outputs": [
        {
          "internalType": "bool",
          "name": "",
          "type": "bool"
        }
      ],
      "stateMutability": "view",
      "type": "function",
      "constant": true
    }
  ],
  "bytecode": "0x60806040523480156200001157600080fd5b5060004260014362000024919062000416565b4060405160200162000038929190620004a5565b6040516020818303038152906040528051906020012060001c905062000064816200008360201b60201c565b60008082015181600001556020820151816001015590505050620005de565b6200008d6200037f565b60007f30644e72e131a029b85045b68181585d97816a916871ca8d3c208c16d87cfd4783620000bd919062000504565b90506000600182620000d0919062000416565b91506000805b816200024357600184620000eb91906200053c565b93507f30644e72e131a029b85045b68181585d97816a916871ca8d3c208c16d87cfd47806200011f576200011e620004d5565b5b84850990507f30644e72e131a029b85045b68181585d97816a916871ca8d3c208c16d87cfd4780620001565762000155620004d5565b5b84820990507f30644e72e131a029b85045b68181585d97816a916871ca8d3c208c16d87cfd47806200018d576200018c620004d5565b5b6003820890506200020281600460017f30644e72e131a029b85045b68181585d97816a916871ca8d3c208c16d87cfd47620001c991906200053c565b620001d5919062000577565b7f30644e72e131a029b85045b68181585d97816a916871ca8d3c208c16d87cfd476200026360201b60201c565b9250807f30644e72e131a029b85045b68181585d97816a916871ca8d3c208c16d87cfd4780620002375762000236620004d5565b5b848509149150620000d6565b604051806040016040528085815260200184815250945050505050919050565b60006200026f62000399565b62000279620003bb565b602082600060068110620002925762000291620005af565b5b602002018181525050602082600160068110620002b457620002b3620005af565b5b602002018181525050602082600260068110620002d657620002d5620005af565b5b6020020181815250508582600360068110620002f757620002f6620005af565b5b6020020181815250508482600460068110620003185762000317620005af565b5b6020020181815250508382600560068110620003395762000338620005af565b5b60200201818152505060208160c0846005600019fa6200035857600080fd5b806000600181106200036f576200036e620005af565b5b6020020151925050509392505050565b604051806040016040528060008152602001600081525090565b6040518060c00160405280600690602082028036833780820191505090505090565b6040518060200160405280600190602082028036833780820191505090505090565b6000819050919050565b7f4e487b7100000000000000000000000000000000000000000000000000000000600052601160045260246000fd5b60006200042382620003dd565b91506200043083620003dd565b92508282039050818111156200044b576200044a620003e7565b5b92915050565b6000819050919050565b620004706200046a82620003dd565b62000451565b82525050565b6000819050919050565b6000819050919050565b6200049f620004998262000476565b62000480565b82525050565b6000620004b382856200045b565b602082019150620004c582846200048a565b6020820191508190509392505050565b7f4e487b7100000000000000000000000000000000000000000000000000000000600052601260045260246000fd5b60006200051182620003dd565b91506200051e83620003dd565b925082620005315762000530620004d5565b5b828206905092915050565b60006200054982620003dd565b91506200055683620003dd565b9250828201905080821115620005715762000570620003e7565b5b92915050565b60006200058482620003dd565b91506200059183620003dd565b925082620005a457620005a3620004d5565b5b828204905092915050565b7f4e487b7100000000000000000000000000000000000000000000000000000000600052603260045260246000fd5b612ba580620005ee6000396000f3fe608060405234801561001057600080fd5b506004361061004c5760003560e01c80634d0f9ca8146100515780636c468bb514610081578063ca160684146100b1578063f909cb5b146100e1575b600080fd5b61006b60048036038101906100669190612183565b610111565b6040516100789190612323565b60405180910390f35b61009b60048036038101906100969190612475565b61063b565b6040516100a89190612508565b60405180910390f35b6100cb60048036038101906100c69190612523565b610e1b565b6040516100d89190612508565b60405180910390f35b6100fb60048036038101906100f6919061256c565b610e4a565b6040516101089190612323565b60405180910390f35b610119611c91565b600182604001515103610194576040518060800160405280836080015181526020018360a001518152602001836040015160008151811061015d5761015c6125e4565b5b602002602001015181526020018360600151600081518110610182576101816125e4565b5b60200260200101518152509050610636565b61019c611cb9565b6101a4611cb9565b6101c08460000151856040015186606001518760200151611197565b80925081935050508184608001518560c00151815181106101e4576101e36125e4565b5b6020026020010181905250808460a001518560c001518151811061020b5761020a6125e4565b5b6020026020010181905250600073__alt_bn128_____________________________63aba8f706846040518263ffffffff1660e01b815260040161024f9190612651565b602060405180830381865af415801561026c573d6000803e3d6000fd5b505050506040513d601f19601f8201168201806040525081019061029091906126a2565b73__alt_bn128_____________________________63aba8f706846040518263ffffffff1660e01b81526004016102c79190612651565b602060405180830381865af41580156102e4573d6000803e3d6000fd5b505050506040513d601f19601f8201168201806040525081019061030891906126a2565b6040516020016103199291906126f0565b6040516020818303038152906040528051906020012060001c9050600061033f826113f5565b905060006002876040015151610355919061277a565b905060008167ffffffffffffffff81111561037357610372611dac565b5b6040519080825280602002602001820160405280156103ac57816020015b610399611cb9565b8152602001906001900390816103915790505b50905060008267ffffffffffffffff8111156103cb576103ca611dac565b5b6040519080825280602002602001820160405280156103f95781602001602082028036833780820191505090505b50905060008367ffffffffffffffff81111561041857610417611dac565b5b6040519080825280602002602001820160405280156104465781602001602082028036833780820191505090505b50905060005b848110156105ec576104b761047f8c600001518381518110610471576104706125e4565b5b60200260200101518861154d565b6104b28d60000151848961049391906127ab565b815181106104a4576104a36125e4565b5b60200260200101518a61154d565b611605565b8482815181106104ca576104c96125e4565b5b6020026020010181905250610538610500888d6040015184815181106104f3576104f26125e4565b5b60200260200101516116b9565b610533888e60400151858a61051591906127ab565b81518110610526576105256125e4565b5b60200260200101516116b9565b6116f5565b83828151811061054b5761054a6125e4565b5b6020026020010181815250506105ba610582878d606001518481518110610575576105746125e4565b5b60200260200101516116b9565b6105b5898e60600151858a61059791906127ab565b815181106105a8576105a76125e4565b5b60200260200101516116b9565b6116f5565b8282815181106105cd576105cc6125e4565b5b60200260200101818152505080806105e4906127df565b91505061044c565b50828a60000181905250818a60400181905250808a6060018190525060018a60c00181815161061b91906127ab565b9150818152505061062b8a610111565b985050505050505050505b919050565b60008073__alt_bn128_____________________________63aba8f70685602001516040518263ffffffff1660e01b81526004016106799190612651565b602060405180830381865af4158015610696573d6000803e3d6000fd5b505050506040513d601f19601f820116820180604052508101906106ba91906126a2565b73__alt_bn128_____________________________63aba8f70660006040518263ffffffff1660e01b81526004016106f2919061289f565b602060405180830381865af415801561070f573d6000803e3d6000fd5b505050506040513d601f19601f8201168201806040525081019061073391906126a2565b856040015160405160200161074a939291906128db565b6040516020818303038152906040528051906020012060001c905060006107ab85602001516107a66000604051806040016040529081600082015481526020016001820154815250506107a18960400151876116b9565b61154d565b611605565b905060006107bd866000015151611731565b905060008167ffffffffffffffff8111156107db576107da611dac565b5b6040519080825280602002602001820160405280156108095781602001602082028036833780820191505090505b50905060008267ffffffffffffffff81111561082857610827611dac565b5b6040519080825280602002602001820160405280156108565781602001602082028036833780820191505090505b509050600088600001515167ffffffffffffffff81111561087a57610879611dac565b5b6040519080825280602002602001820160405280156108a85781602001602082028036833780820191505090505b50905060005b84811015610a805773__alt_bn128_____________________________63aba8f7068a6000015183815181106108e7576108e66125e4565b5b60200260200101516040518263ffffffff1660e01b815260040161090b9190612651565b602060405180830381865af4158015610928573d6000803e3d6000fd5b505050506040513d601f19601f8201168201806040525081019061094c91906126a2565b73__alt_bn128_____________________________63aba8f7068b60200151848151811061097d5761097c6125e4565b5b60200260200101516040518263ffffffff1660e01b81526004016109a19190612651565b602060405180830381865af41580156109be573d6000803e3d6000fd5b505050506040513d601f19601f820116820180604052508101906109e291906126a2565b6040516020016109f39291906126f0565b6040516020818303038152906040528051906020012060001c848281518110610a1f57610a1e6125e4565b5b602002602001018181525050610a4e848281518110610a4157610a406125e4565b5b60200260200101516113f5565b838281518110610a6157610a606125e4565b5b6020026020010181815250508080610a78906127df565b9150506108ae565b5060005b896000015151811015610be1576001828281518110610aa657610aa56125e4565b5b60200260200101818152505060005b85811015610bcd57610ac78282611765565b15610b4557610b21838381518110610ae257610ae16125e4565b5b6020026020010151866001848a610af99190612918565b610b039190612918565b81518110610b1457610b136125e4565b5b60200260200101516116b9565b838381518110610b3457610b336125e4565b5b602002602001018181525050610bba565b610b9a838381518110610b5b57610b5a6125e4565b5b6020026020010151856001848a610b729190612918565b610b7c9190612918565b81518110610b8d57610b8c6125e4565b5b60200260200101516116b9565b838381518110610bad57610bac6125e4565b5b6020026020010181815250505b8080610bc5906127df565b915050610ab5565b508080610bd9906127df565b915050610a84565b50610bea611cb9565b610bf2611cb9565b86915060005b86811015610cf357610c6e83610c698d600001518481518110610c1e57610c1d6125e4565b5b6020026020010151610c648a8681518110610c3c57610c3b6125e4565b5b60200260200101518b8781518110610c5757610c566125e4565b5b60200260200101516116b9565b61154d565b611605565b9250610cde83610cd98d602001518481518110610c8e57610c8d6125e4565b5b6020026020010151610cd4898681518110610cac57610cab6125e4565b5b60200260200101518a8781518110610cc757610cc66125e4565b5b60200260200101516116b9565b61154d565b611605565b92508080610ceb906127df565b915050610bf8565b50610d388b60000151600081518110610d0f57610d0e6125e4565b5b602002602001015184600081518110610d2b57610d2a6125e4565b5b602002602001015161154d565b90506000600190505b8b6000015151811015610dae57610d9982610d948e600001518481518110610d6c57610d6b6125e4565b5b6020026020010151878581518110610d8757610d866125e4565b5b602002602001015161154d565b611605565b91508080610da6906127df565b915050610d41565b50610def81610dea610de06000604051806040016040529081600082015481526020016001820154815250508c61154d565b8d6060015161154d565b611605565b9050610dff818b6040015161154d565b9050610e0b8282611778565b9850505050505050505092915050565b600080610e27836117a0565b90506000610e358285610e4a565b9050610e41828261063b565b92505050919050565b610e52611c91565b600060018351610e629190612918565b83511614610ea5576040517f08c379a0000000000000000000000000000000000000000000000000000000008152600401610e9c906129cf565b60405180910390fd5b6000610eb18351611731565b905060008167ffffffffffffffff811115610ecf57610ece611dac565b5b604051908082528060200260200182016040528015610f0857816020015b610ef5611cb9565b815260200190600190039081610eed5790505b50905060008267ffffffffffffffff811115610f2757610f26611dac565b5b604051908082528060200260200182016040528015610f6057816020015b610f4d611cb9565b815260200190600190039081610f455790505b509050600073__alt_bn128_____________________________63aba8f70688602001516040518263ffffffff1660e01b8152600401610fa09190612651565b602060405180830381865af4158015610fbd573d6000803e3d6000fd5b505050506040513d601f19601f82011682018060405250810190610fe191906126a2565b73__alt_bn128_____________________________63aba8f70660006040518263ffffffff1660e01b8152600401611019919061289f565b602060405180830381865af4158015611036573d6000803e3d6000fd5b505050506040513d601f19601f8201168201806040525081019061105a91906126a2565b8860400151604051602001611071939291906128db565b6040516020818303038152906040528051906020012060001c905060006110b86000604051806040016040529081600082015481526020016001820154815250508361154d565b90506000875167ffffffffffffffff8111156110d7576110d6611dac565b5b6040519080825280602002602001820160405280156111055781602001602082028036833780820191505090505b50905060005b8151811015611148576001828281518110611129576111286125e4565b5b6020026020010181815250508080611140906127df565b91505061110b565b506111896040518060e001604052808b6000015181526020018481526020018a81526020018381526020018781526020018681526020016000815250610111565b965050505050505092915050565b61119f611cb9565b6111a7611cb9565b6000600286516111b7919061277a565b905060006111fa876000815181106111d2576111d16125e4565b5b60200260200101518784815181106111ed576111ec6125e4565b5b60200260200101516116b9565b9050600061123d888481518110611214576112136125e4565b5b6020026020010151886000815181106112305761122f6125e4565b5b60200260200101516116b9565b90506000600190505b83811015611309576112a08361129b8b8481518110611268576112676125e4565b5b60200260200101518b858961127d91906127ab565b8151811061128e5761128d6125e4565b5b60200260200101516116b9565b6116f5565b92506112f4826112ef8b84886112b691906127ab565b815181106112c7576112c66125e4565b5b60200260200101518b85815181106112e2576112e16125e4565b5b60200260200101516116b9565b6116f5565b91508080611301906127df565b915050611246565b50611314868361154d565b9450611320868261154d565b935060005b838110156113e85761137f8661137a8c848861134191906127ab565b81518110611352576113516125e4565b5b60200260200101518c858151811061136d5761136c6125e4565b5b602002602001015161154d565b611605565b95506113d3856113ce8c848151811061139b5761139a6125e4565b5b60200260200101518c85896113b091906127ab565b815181106113c1576113c06125e4565b5b602002602001015161154d565b611605565b945080806113e0906127df565b915050611325565b5050505094509492505050565b6000808290506000810361140d576000915050611548565b7f30644e72e131a029b85045b68181585d2833e84879b9709143e1f593f0000001811115611464577f30644e72e131a029b85045b68181585d2833e84879b9709143e1f593f00000018161146191906129ef565b90505b6000806001905060007f30644e72e131a029b85045b68181585d2833e84879b9709143e1f593f00000019050600084905060005b600082146114f35781836114ac919061277a565b90508384826114bb9190612a2a565b866114c69190612aa2565b8384846114d39190612ae5565b866114de9190612918565b80955081965082975083985050505050611498565b600085121561153e578461150690612b27565b7f30644e72e131a029b85045b68181585d2833e84879b9709143e1f593f00000016115319190612918565b9650505050505050611548565b8496505050505050505b919050565b611555611cb9565b60018203611565578290506115ff565b6002820361157e576115778384611605565b90506115ff565b611586611cd3565b83600001518160006003811061159f5761159e6125e4565b5b6020020181815250508360200151816001600381106115c1576115c06125e4565b5b60200201818152505082816002600381106115df576115de6125e4565b5b6020020181815250506040826060836007600019fa6115fd57600080fd5b505b92915050565b61160d611cb9565b611615611cf5565b83600001518160006004811061162e5761162d6125e4565b5b6020020181815250508360200151816001600481106116505761164f6125e4565b5b602002018181525050826000015181600260048110611672576116716125e4565b5b602002018181525050826020015181600360048110611694576116936125e4565b5b6020020181815250506040826080836006600019fa6116b257600080fd5b5092915050565b60007f30644e72e131a029b85045b68181585d2833e84879b9709143e1f593f0000001806116ea576116e961271c565b5b828409905092915050565b60007f30644e72e131a029b85045b68181585d2833e84879b9709143e1f593f0000001806117265761172561271c565b5b828408905092915050565b60005b60018211156117605760018161174a91906127ab565b9050600282611759919061277a565b9150611734565b919050565b60006001808385901c1614905092915050565b600081600001518360000151148015611798575081602001518360200151145b905092915050565b6117a8611d17565b6000600183516117b89190612918565b835116146117fb576040517f08c379a00000000000000000000000000000000000000000000000000000000081526004016117f2906129cf565b60405180910390fd5b815167ffffffffffffffff81111561181657611815611dac565b5b60405190808252806020026020018201604052801561184f57816020015b61183c611cb9565b8152602001906001900390816118345790505b50816000018190525060005b82518110156118ae5761187960028261187491906127ab565b6119d1565b826000015182815181106118905761188f6125e4565b5b602002602001018190525080806118a6906127df565b91505061185b565b50816000815181106118c3576118c26125e4565b5b602002602001015181604001818152505061191881600001516000815181106118ef576118ee6125e4565b5b60200260200101518360008151811061190b5761190a6125e4565b5b602002602001015161154d565b81602001819052506000600190505b82518110156119cb57611958826040015184838151811061194b5761194a6125e4565b5b60200260200101516116f5565b8260400181815250506119b082602001516119ab84600001518481518110611983576119826125e4565b5b602002602001015186858151811061199e5761199d6125e4565b5b602002602001015161154d565b611605565b826020018190525080806119c3906127df565b915050611927565b50919050565b6119d9611cb9565b60007f30644e72e131a029b85045b68181585d97816a916871ca8d3c208c16d87cfd4783611a0791906129ef565b90506000600182611a189190612918565b91506000805b81611b6f57600184611a3091906127ab565b93507f30644e72e131a029b85045b68181585d97816a916871ca8d3c208c16d87cfd4780611a6157611a6061271c565b5b84850990507f30644e72e131a029b85045b68181585d97816a916871ca8d3c208c16d87cfd4780611a9557611a9461271c565b5b84820990507f30644e72e131a029b85045b68181585d97816a916871ca8d3c208c16d87cfd4780611ac957611ac861271c565b5b600382089050611b3281600460017f30644e72e131a029b85045b68181585d97816a916871ca8d3c208c16d87cfd47611b0291906127ab565b611b0c919061277a565b7f30644e72e131a029b85045b68181585d97816a916871ca8d3c208c16d87cfd47611b8f565b9250807f30644e72e131a029b85045b68181585d97816a916871ca8d3c208c16d87cfd4780611b6457611b6361271c565b5b848509149150611a1e565b604051806040016040528085815260200184815250945050505050919050565b6000611b99611d3e565b611ba1611d60565b602082600060068110611bb757611bb66125e4565b5b602002018181525050602082600160068110611bd657611bd56125e4565b5b602002018181525050602082600260068110611bf557611bf46125e4565b5b6020020181815250508582600360068110611c1357611c126125e4565b5b6020020181815250508482600460068110611c3157611c306125e4565b5b6020020181815250508382600560068110611c4f57611c4e6125e4565b5b60200201818152505060208160c0846005600019fa611c6d57600080fd5b80600060018110611c8157611c806125e4565b5b6020020151925050509392505050565b6040518060800160405280606081526020016060815260200160008152602001600081525090565b604051806040016040528060008152602001600081525090565b6040518060600160405280600390602082028036833780820191505090505090565b6040518060800160405280600490602082028036833780820191505090505090565b604051806060016040528060608152602001611d31611cb9565b8152602001600081525090565b6040518060c00160405280600690602082028036833780820191505090505090565b6040518060200160405280600190602082028036833780820191505090505090565b6000604051905090565b600080fd5b600080fd5b600080fd5b6000601f19601f8301169050919050565b7f4e487b7100000000000000000000000000000000000000000000000000000000600052604160045260246000fd5b611de482611d9b565b810181811067ffffffffffffffff82111715611e0357611e02611dac565b5b80604052505050565b6000611e16611d82565b9050611e228282611ddb565b919050565b600080fd5b600080fd5b600067ffffffffffffffff821115611e4c57611e4b611dac565b5b602082029050602081019050919050565b600080fd5b6000819050919050565b611e7581611e62565b8114611e8057600080fd5b50565b600081359050611e9281611e6c565b92915050565b600060408284031215611eae57611ead611d96565b5b611eb86040611e0c565b90506000611ec884828501611e83565b6000830152506020611edc84828501611e83565b60208301525092915050565b6000611efb611ef684611e31565b611e0c565b90508083825260208201905060408402830185811115611f1e57611f1d611e5d565b5b835b81811015611f475780611f338882611e98565b845260208401935050604081019050611f20565b5050509392505050565b600082601f830112611f6657611f65611e2c565b5b8135611f76848260208601611ee8565b91505092915050565b600067ffffffffffffffff821115611f9a57611f99611dac565b5b602082029050602081019050919050565b6000611fbe611fb984611f7f565b611e0c565b90508083825260208201905060208402830185811115611fe157611fe0611e5d565b5b835b8181101561200a5780611ff68882611e83565b845260208401935050602081019050611fe3565b5050509392505050565b600082601f83011261202957612028611e2c565b5b8135612039848260208601611fab565b91505092915050565b6000610100828403121561205957612058611d96565b5b61206360e0611e0c565b9050600082013567ffffffffffffffff81111561208357612082611e27565b5b61208f84828501611f51565b60008301525060206120a384828501611e98565b602083015250606082013567ffffffffffffffff8111156120c7576120c6611e27565b5b6120d384828501612014565b604083015250608082013567ffffffffffffffff8111156120f7576120f6611e27565b5b61210384828501612014565b60608301525060a082013567ffffffffffffffff81111561212757612126611e27565b5b61213384828501611f51565b60808301525060c082013567ffffffffffffffff81111561215757612156611e27565b5b61216384828501611f51565b60a08301525060e061217784828501611e83565b60c08301525092915050565b60006020828403121561219957612198611d8c565b5b600082013567ffffffffffffffff8111156121b7576121b6611d91565b5b6121c384828501612042565b91505092915050565b600081519050919050565b600082825260208201905092915050565b6000819050602082019050919050565b61220181611e62565b82525050565b60408201600082015161221d60008501826121f8565b50602082015161223060208501826121f8565b50505050565b60006122428383612207565b60408301905092915050565b6000602082019050919050565b6000612266826121cc565b61227081856121d7565b935061227b836121e8565b8060005b838110156122ac5781516122938882612236565b975061229e8361224e565b92505060018101905061227f565b5085935050505092915050565b600060808301600083015184820360008601526122d6828261225b565b915050602083015184820360208601526122f0828261225b565b915050604083015161230560408601826121f8565b50606083015161231860608601826121f8565b508091505092915050565b6000602082019050818103600083015261233d81846122b9565b905092915050565b60006080828403121561235b5761235a611d96565b5b6123656060611e0c565b9050600082013567ffffffffffffffff81111561238557612384611e27565b5b61239184828501611f51565b60008301525060206123a584828501611e98565b60208301525060606123b984828501611e83565b60408301525092915050565b6000608082840312156123db576123da611d96565b5b6123e56080611e0c565b9050600082013567ffffffffffffffff81111561240557612404611e27565b5b61241184828501611f51565b600083015250602082013567ffffffffffffffff81111561243557612434611e27565b5b61244184828501611f51565b602083015250604061245584828501611e83565b604083015250606061246984828501611e83565b60608301525092915050565b6000806040838503121561248c5761248b611d8c565b5b600083013567ffffffffffffffff8111156124aa576124a9611d91565b5b6124b685828601612345565b925050602083013567ffffffffffffffff8111156124d7576124d6611d91565b5b6124e3858286016123c5565b9150509250929050565b60008115159050919050565b612502816124ed565b82525050565b600060208201905061251d60008301846124f9565b92915050565b60006020828403121561253957612538611d8c565b5b600082013567ffffffffffffffff81111561255757612556611d91565b5b61256384828501612014565b91505092915050565b6000806040838503121561258357612582611d8c565b5b600083013567ffffffffffffffff8111156125a1576125a0611d91565b5b6125ad85828601612345565b925050602083013567ffffffffffffffff8111156125ce576125cd611d91565b5b6125da85828601612014565b9150509250929050565b7f4e487b7100000000000000000000000000000000000000000000000000000000600052603260045260246000fd5b61261c81611e62565b82525050565b6040820160008201516126386000850182612613565b50602082015161264b6020850182612613565b50505050565b60006040820190506126666000830184612622565b92915050565b6000819050919050565b61267f8161266c565b811461268a57600080fd5b50565b60008151905061269c81612676565b92915050565b6000602082840312156126b8576126b7611d8c565b5b60006126c68482850161268d565b91505092915050565b6000819050919050565b6126ea6126e58261266c565b6126cf565b82525050565b60006126fc82856126d9565b60208201915061270c82846126d9565b6020820191508190509392505050565b7f4e487b7100000000000000000000000000000000000000000000000000000000600052601260045260246000fd5b7f4e487b7100000000000000000000000000000000000000000000000000000000600052601160045260246000fd5b600061278582611e62565b915061279083611e62565b9250826127a05761279f61271c565b5b828204905092915050565b60006127b682611e62565b91506127c183611e62565b92508282019050808211156127d9576127d861274b565b5b92915050565b60006127ea82611e62565b91507fffffffffffffffffffffffffffffffffffffffffffffffffffffffffffffffff820361281c5761281b61274b565b5b600182019050919050565b60008160001c9050919050565b6000819050919050565b600061285161284c83612827565b612834565b9050919050565b60408201600080830154905061286d8161283e565b61287a6000860182612613565b506001830154905061288b8161283e565b6128986020860182612613565b5050505050565b60006040820190506128b46000830184612858565b92915050565b6000819050919050565b6128d56128d082611e62565b6128ba565b82525050565b60006128e782866126d9565b6020820191506128f782856126d9565b60208201915061290782846128c4565b602082019150819050949350505050565b600061292382611e62565b915061292e83611e62565b92508282039050818111156129465761294561274b565b5b92915050565b600082825260208201905092915050565b7f766563746f72206c656e6774682073686f756c64206265206120706f7765722060008201527f6f66203200000000000000000000000000000000000000000000000000000000602082015250565b60006129b960248361294c565b91506129c48261295d565b604082019050919050565b600060208201905081810360008301526129e8816129ac565b9050919050565b60006129fa82611e62565b9150612a0583611e62565b925082612a1557612a1461271c565b5b828206905092915050565b6000819050919050565b6000612a3582612a20565b9150612a4083612a20565b9250828202612a4e81612a20565b91507f80000000000000000000000000000000000000000000000000000000000000008414600084121615612a8657612a8561274b565b5b8282058414831517612a9b57612a9a61274b565b5b5092915050565b6000612aad82612a20565b9150612ab883612a20565b9250828203905081811260008412168282136000851215161715612adf57612ade61274b565b5b92915050565b6000612af082611e62565b9150612afb83611e62565b9250828202612b0981611e62565b91508282048414831517612b2057612b1f61274b565b5b5092915050565b6000612b3282612a20565b91507f80000000000000000000000000000000000000000000000000000000000000008203612b6457612b6361274b565b5b81600003905091905056fea2646970667358221220a6b5651f075dffbd564e159e97611b7bfac8438ae63fb3433f11ed515f84023964736f6c63430008130033",
  "immutableReferences": {},
  "source": "// SPDX-License-Identifier: GPL-3.0\npragma solidity >=0.4.0 <0.9.0;\n\nimport \"./alt_bn128.sol\";\n\n// proof using recursion\ncontract NISA2{\n\tusing alt_bn128 for uint256;\n\tusing alt_bn128 for alt_bn128.G1Point;\n\n\talt_bn128.G1Point u; // random generator\n\n\tstruct Param {\n\t\talt_bn128.G1Point[] Gs; \n\t\talt_bn128.G1Point P; \n\t\tuint256 c;\n\t}\n\n  struct Proof {\n\t\talt_bn128.G1Point[] Ls;\n\t\talt_bn128.G1Point[] Rs;\n\t\tuint256 a;\n\t\tuint256 b;\n\t}\n\n  // for recursion\n  struct Board {\n\t\talt_bn128.G1Point[] Gs;\n    alt_bn128.G1Point u_prime;\n\t\tuint256[] a;\n\t\tuint256[] b;\n    alt_bn128.G1Point[] Ls;\n\t\talt_bn128.G1Point[] Rs;\n    uint idx;\n\t}\n\n\tconstructor() {\n\t\tuint256 seed = uint256(keccak256(abi.encodePacked(block.timestamp, blockhash(block.number - 1))));\n\t\tu = alt_bn128.uintToCurvePoint(seed);\n\t}\n\n  /** test correctness */\n  function test(uint256[] memory a) public returns (bool) {\n\t\tParam memory param = generateParam(a);\n\t\tProof memory p = prove(param, a);\n\t\treturn verify(param, p);\n\t}\n\n  /** \n    Gs : public keys\n\t\tP : prod_i (g_i ^ a_i)\n\t\tc : sum_i a_i\n\t */\n\tfunction generateParam(uint256[] memory a) internal view returns (Param memory param){\n\t\trequire(a.length & (a.length - 1) == 0, \"vector length should be a power of 2\");\n\t\tparam.Gs = new alt_bn128.G1Point[](a.length);\n\t\tfor (uint256 i = 0; i < a.length; i++){\n\t\t\tparam.Gs[i] = alt_bn128.uintToCurvePoint(i+2);\n\t\t}\n\t\tparam.c = a[0];\n\t\tparam.P = alt_bn128.mul(param.Gs[0], a[0]);\n\t\tfor (uint i = 1; i < a.length; i++){\n\t\t\tparam.c = alt_bn128.add(param.c, a[i]);\n\t\t\tparam.P = alt_bn128.add(param.P, alt_bn128.mul(param.Gs[i], a[i]));\n\t\t}\n\t}\n\n\tfunction prove(Param memory param, uint256[] memory a) public\n\treturns (Proof memory){\n\t\trequire(a.length & (a.length - 1) == 0, \"vector length should be a power of 2\");\n\n\t\tuint length = log2(a.length);\n\t\talt_bn128.G1Point[] memory Ls = new alt_bn128.G1Point[](length);\n\t\talt_bn128.G1Point[] memory Rs = new alt_bn128.G1Point[](length);\n\n\t\tuint256 H_z = uint256(keccak256(abi.encodePacked(alt_bn128.serialize(param.P), alt_bn128.serialize(u), param.c)));\n\t\t\n\t\talt_bn128.G1Point memory u_prime = alt_bn128.mul(u, H_z);\n\n\t\tuint256[] memory b = new uint256[](a.length);\n\t\tfor (uint i = 0; i < b.length; i++){\n\t\t\tb[i] = 1;\n\t\t}\n\t\treturn loop(Board(param.Gs, u_prime, a, b, Ls, Rs, 0));\n\t}\n\n\tfunction loop(Board memory board) public returns (Proof memory){\n\t\tif (board.a.length == 1) {\n\t\t\treturn Proof(board.Ls, board.Rs, board.a[0], board.b[0]);\n\t\t}\n\t\talt_bn128.G1Point memory L;\n\t\talt_bn128.G1Point memory R;\n\t\t(L, R) = LR(board.Gs, board.a, board.b, board.u_prime);\n    board.Ls[board.idx] = L;\n    board.Rs[board.idx] = R;\n\n\t\tuint256 x = uint256(keccak256(abi.encodePacked(alt_bn128.serialize(L), alt_bn128.serialize(R))));\n\t\tuint256 x_inv = alt_bn128.inv(x);\n\n\t\tuint n = board.a.length / 2;\n\t\t\n\t\talt_bn128.G1Point[] memory Gs_new = new alt_bn128.G1Point[](n);\n\t\tuint256[] memory a_new = new uint256[](n);\n\t\tuint256[] memory b_new = new uint256[](n);\n\n\t\tfor (uint i = 0; i < n; i++){\n\t\t\tGs_new[i] = alt_bn128.add(alt_bn128.mul(board.Gs[i], x_inv), alt_bn128.mul(board.Gs[n+i], x));\n\t\t  a_new[i] = alt_bn128.add(alt_bn128.mul(x, board.a[i]), alt_bn128.mul(x_inv, board.a[n+i]));\n\t\t\tb_new[i] = alt_bn128.add(alt_bn128.mul(x_inv, board.b[i]), alt_bn128.mul(x, board.b[n+i]));\n\t\t}\n    board.Gs = Gs_new;\n    board.a = a_new;\n    board.b = b_new;\n    board.idx += 1;\n\t\treturn loop(board);\n\t}\n\n\tfunction LR(alt_bn128.G1Point[] memory Gs, uint256[] memory a, uint256[] memory b, alt_bn128.G1Point memory u_prime) internal view \n\treturns (alt_bn128.G1Point memory L, alt_bn128.G1Point memory R) {\n\t\tuint n = a.length / 2;\n\t\tuint256 cL = alt_bn128.mul(a[0], b[n]);\n\t\tuint256 cR = alt_bn128.mul(a[n], b[0]);\n\t\tfor (uint i = 1; i < n; i++){\n\t\t\tcL = alt_bn128.add(cL, alt_bn128.mul(a[i], b[n+i]));\n\t\t\tcR = alt_bn128.add(cR, alt_bn128.mul(a[n+i], b[i]));\n\t\t}\n\n\t\tL = alt_bn128.mul(u_prime, cL);\n\t\tR = alt_bn128.mul(u_prime, cR);\n\n\t\tfor (uint i = 0; i < n; i++){\n\t\t\tL = alt_bn128.add(L, alt_bn128.mul(Gs[n+i], a[i]));\n\t\t\tR = alt_bn128.add(R, alt_bn128.mul(Gs[i], a[n+i]));\n\t\t}\n\t}\n\n\tfunction verify(Param memory param, Proof memory p) public view \n\treturns (bool){\n\t\tuint256 H_z = uint256(keccak256(abi.encodePacked(alt_bn128.serialize(param.P), alt_bn128.serialize(u), param.c)));\n\n\t\talt_bn128.G1Point memory P_prime = alt_bn128.add(param.P, alt_bn128.mul(u, alt_bn128.mul(param.c, H_z)));\n\n\t\tuint length = log2(param.Gs.length);\n\n\t\tuint256[] memory xs = new uint256[](length);\n\t\tuint256[] memory xs_inv = new uint256[](length);\n\t\tuint256[] memory ys = new uint256[](param.Gs.length);\n\n\t\tfor (uint i = 0; i < length; i++){\n\t\t\txs[i] = uint256(keccak256(abi.encodePacked(alt_bn128.serialize(p.Ls[i]), alt_bn128.serialize(p.Rs[i]))));\n\t\t\txs_inv[i] = alt_bn128.inv(xs[i]);\n\t\t}\n\n\t\tfor (uint i = 0; i < param.Gs.length; i++){\n\t\t\tys[i] = 1;\n\t\t\tfor (uint j = 0; j < length; j++){\n\t\t\t\tif (check_bit(i, j)){\n\t\t\t\t\tys[i] = alt_bn128.mul(ys[i], xs[length-j-1]);\n\t\t\t\t} else {\n\t\t\t\t\tys[i] = alt_bn128.mul(ys[i], xs_inv[length-j-1]);\n\t\t\t\t}\n\t\t\t}\n\t\t}\n\n\t\t// verify\n\t\talt_bn128.G1Point memory left_point;\n\t\talt_bn128.G1Point memory right_point;\n\n\t\tleft_point = P_prime;\n\t\tfor (uint i = 0; i < length; i++){\n\t\t\tleft_point = alt_bn128.add(left_point, \n\t\t\t\t\t\t\talt_bn128.mul(p.Ls[i], alt_bn128.mul(xs[i], xs[i]))\n\t\t\t\t\t\t);\n\t\t\tleft_point = alt_bn128.add(left_point, \n\t\t\t\t\t\t\talt_bn128.mul(p.Rs[i], alt_bn128.mul(xs_inv[i], xs_inv[i]))\n\t\t\t\t\t\t);\n\t\t}\n\n\t\tright_point = alt_bn128.mul(param.Gs[0], ys[0]);\n\t\tfor (uint i = 1; i < param.Gs.length; i++){\n\t\t\tright_point = alt_bn128.add(right_point, alt_bn128.mul(param.Gs[i], ys[i]));\n\t\t}\n\t\tright_point = alt_bn128.add(right_point, alt_bn128.mul(alt_bn128.mul(u, H_z), p.b));\n\t\tright_point = alt_bn128.mul(right_point, p.a);\n\n\t\treturn alt_bn128.eq(left_point, right_point);\n\t}\n\n  function log2(uint n) internal pure returns (uint ndigits){\n\t\tndigits = 0;\n\t\twhile (n > 1){\n\t\t\tndigits += 1;\n\t\t\tn = n/2;\n\t\t}\n\t}\n\n\tfunction check_bit(uint i, uint j) internal pure returns (bool){\n\t\treturn ((i >> j) & 1) == 1;\n\t}\n}",
  "sourcePath": "/Users/qian/Desktop/Y4/COMP4550/ZKP-Blockchain/contracts/nisa2.sol",
  "compiler": {
    "name": "solc",
    "version": "0.8.19+commit.7dd6d404.Emscripten.clang"
  },
  "schemaVersion": "3.4.13",
  "updatedAt": "2023-04-06T12:47:11.599Z",
  "networkType": "ethereum",
  "devdoc": {
    "kind": "dev",
    "methods": {},
    "version": 1
  },
  "userdoc": {
    "kind": "user",
    "methods": {
      "test(uint256[])": {
        "notice": "test correctness "
      }
    },
    "version": 1
  }
}