{
  "contractName": "RingSignature",
  "abi": [
    {
      "inputs": [],
      "name": "sig",
      "outputs": [
        {
          "internalType": "bytes32",
          "name": "c",
          "type": "bytes32"
        }
      ],
      "stateMutability": "view",
      "type": "function"
    },
    {
      "inputs": [
        {
          "internalType": "string",
          "name": "message",
          "type": "string"
        },
        {
          "internalType": "uint256",
          "name": "z",
          "type": "uint256"
        }
      ],
      "name": "sign",
      "outputs": [],
      "stateMutability": "nonpayable",
      "type": "function"
    },
    {
      "inputs": [
        {
          "internalType": "string",
          "name": "message",
          "type": "string"
        }
      ],
      "name": "verify",
      "outputs": [
        {
          "internalType": "bool",
          "name": "",
          "type": "bool"
        }
      ],
      "stateMutability": "view",
      "type": "function"
    },
    {
      "inputs": [
        {
          "internalType": "uint256",
          "name": "size",
          "type": "uint256"
        }
      ],
      "name": "generateRing",
      "outputs": [],
      "stateMutability": "nonpayable",
      "type": "function"
    }
  ],
  "bytecode": "0x608060405234801561001057600080fd5b50610e24806100206000396000f3fe608060405234801561001057600080fd5b506004361061004b5760003560e01c8062a7029b146100505780632042d7251461006e5780638125493e1461008a578063bb9c6c3e146100a6575b600080fd5b6100586100d6565b6040516100659190610838565b60405180910390f35b610088600480360381019061008391906109e3565b6100e2565b005b6100a4600480360381019061009f9190610a3f565b6103ad565b005b6100c060048036038101906100bb9190610a6c565b61048d565b6040516100cd9190610ad0565b60405180910390f35b60038060000154905081565b60008080549050905060006100f68461061b565b905060008267ffffffffffffffff81111561011457610113610882565b5b6040519080825280602002602001820160405280156101425781602001602082028036833780820191505090505b5090506000426001436101559190610b1a565b40604051602001610167929190610b90565b6040516020818303038152906040528051906020012060001c905060008190506000610196838660025461064e565b90506000866001896101a89190610bbc565b6101b29190610c1f565b90505b8781146102de57426001436101ca9190610b1a565b406040516020016101dc929190610b90565b6040516020818303038152906040528051906020012060001c85828151811061020857610207610c50565b5b602002602001018181525050600061028986838151811061022c5761022b610c50565b5b60200260200101516000848154811061024857610247610c50565b5b9060005260206000209060020201600001546000858154811061026e5761026d610c50565b5b9060005260206000209060020201600101548a600154610690565b905061029a8184188860025461064e565b925088886001846102ab9190610bbc565b6102b59190610c1f565b036102be578293505b50866001826102cd9190610bbc565b6102d79190610c1f565b90506101b5565b5061033a838218600089815481106102f9576102f8610c50565b5b90600052602060002090600202016000015460008a8154811061031f5761031e610c50565b5b90600052602060002090600202016001015488600154610690565b84888151811061034d5761034c610c50565b5b602002602001018181525050600060405180604001604052808460001b815260200186815250905080600360008201518160000155602082015181600101908051906020019061039e92919061079b565b50905050505050505050505050565b60008167ffffffffffffffff8111156103c9576103c8610882565b5b60405190808252806020026020018201604052801561040257816020015b6103ef6107e8565b8152602001906001900390816103e75790505b50905060005b8281101561045857604051806040016040528060008152602001600081525082828151811061043a57610439610c50565b5b6020026020010181905250808061045090610c7f565b915050610408565b506104006001819055507f80000000000000000000000000000000000000000000000000000000000000006002819055505050565b600080600080549050905060006104a38461061b565b905060008267ffffffffffffffff8111156104c1576104c0610882565b5b6040519080825280602002602001820160405280156104ef5781602001602082028036833780820191505090505b50905060005b838110156105a9576105776003600101828154811061051757610516610c50565b5b90600052602060002001546000838154811061053657610535610c50565b5b9060005260206000209060020201600001546000848154811061055c5761055b610c50565b5b90600052602060002090600202016001015486600154610690565b82828151811061058a57610589610c50565b5b60200260200101818152505080806105a190610c7f565b9150506104f5565b50600060036000015460001c905060005b84811015610600576105eb8382815181106105d8576105d7610c50565b5b602002602001015183188560025461064e565b915080806105f890610c7f565b9150506105ba565b506000600360000154901c60001c8114945050505050919050565b60008160405160200161062e9190610d38565b6040516020818303038152906040528051906020012060001c9050919050565b6000818484604051602001610664929190610d4f565b6040516020818303038152906040528051906020012060001c6106879190610c1f565b90509392505050565b600080600061069f888761070e565b9150915060006001856001901b6106b69190610b1a565b876001856106c49190610bbc565b6106ce9190610d7b565b116106fb576106de828989610740565b87846106ea9190610d7b565b6106f49190610bbc565b90506106ff565b8890505b80935050505095945050505050565b6000806000838561071f9190610dbd565b90506000848661072f9190610c1f565b905081819350935050509250929050565b600080600190505b60008411156107905760018085160361077057828061076a57610769610bf0565b5b85820990505b828061077f5761077e610bf0565b5b8586099450600184901c9350610748565b809150509392505050565b8280548282559060005260206000209081019282156107d7579160200282015b828111156107d65782518255916020019190600101906107bb565b5b5090506107e49190610802565b5090565b604051806040016040528060008152602001600081525090565b5b8082111561081b576000816000905550600101610803565b5090565b6000819050919050565b6108328161081f565b82525050565b600060208201905061084d6000830184610829565b92915050565b6000604051905090565b600080fd5b600080fd5b600080fd5b600080fd5b6000601f19601f8301169050919050565b7f4e487b7100000000000000000000000000000000000000000000000000000000600052604160045260246000fd5b6108ba82610871565b810181811067ffffffffffffffff821117156108d9576108d8610882565b5b80604052505050565b60006108ec610853565b90506108f882826108b1565b919050565b600067ffffffffffffffff82111561091857610917610882565b5b61092182610871565b9050602081019050919050565b82818337600083830152505050565b600061095061094b846108fd565b6108e2565b90508281526020810184848401111561096c5761096b61086c565b5b61097784828561092e565b509392505050565b600082601f83011261099457610993610867565b5b81356109a484826020860161093d565b91505092915050565b6000819050919050565b6109c0816109ad565b81146109cb57600080fd5b50565b6000813590506109dd816109b7565b92915050565b600080604083850312156109fa576109f961085d565b5b600083013567ffffffffffffffff811115610a1857610a17610862565b5b610a248582860161097f565b9250506020610a35858286016109ce565b9150509250929050565b600060208284031215610a5557610a5461085d565b5b6000610a63848285016109ce565b91505092915050565b600060208284031215610a8257610a8161085d565b5b600082013567ffffffffffffffff811115610aa057610a9f610862565b5b610aac8482850161097f565b91505092915050565b60008115159050919050565b610aca81610ab5565b82525050565b6000602082019050610ae56000830184610ac1565b92915050565b7f4e487b7100000000000000000000000000000000000000000000000000000000600052601160045260246000fd5b6000610b25826109ad565b9150610b30836109ad565b9250828203905081811115610b4857610b47610aeb565b5b92915050565b6000819050919050565b610b69610b64826109ad565b610b4e565b82525050565b6000819050919050565b610b8a610b858261081f565b610b6f565b82525050565b6000610b9c8285610b58565b602082019150610bac8284610b79565b6020820191508190509392505050565b6000610bc7826109ad565b9150610bd2836109ad565b9250828201905080821115610bea57610be9610aeb565b5b92915050565b7f4e487b7100000000000000000000000000000000000000000000000000000000600052601260045260246000fd5b6000610c2a826109ad565b9150610c35836109ad565b925082610c4557610c44610bf0565b5b828206905092915050565b7f4e487b7100000000000000000000000000000000000000000000000000000000600052603260045260246000fd5b6000610c8a826109ad565b91507fffffffffffffffffffffffffffffffffffffffffffffffffffffffffffffffff8203610cbc57610cbb610aeb565b5b600182019050919050565b600081519050919050565b600081905092915050565b60005b83811015610cfb578082015181840152602081019050610ce0565b60008484015250505050565b6000610d1282610cc7565b610d1c8185610cd2565b9350610d2c818560208601610cdd565b80840191505092915050565b6000610d448284610d07565b915081905092915050565b6000610d5b8285610b58565b602082019150610d6b8284610b58565b6020820191508190509392505050565b6000610d86826109ad565b9150610d91836109ad565b9250828202610d9f816109ad565b91508282048414831517610db657610db5610aeb565b5b5092915050565b6000610dc8826109ad565b9150610dd3836109ad565b925082610de357610de2610bf0565b5b82820490509291505056fea26469706673582212202fa6d33ba401e162f5d7ddaaa2f691d403b318e7b4f8091be8942a7e9419bfa164736f6c63430008130033",
  "immutableReferences": {},
  "source": "// SPDX-License-Identifier: GPL-3.0\r\npragma solidity >=0.4.0 <0.9.0;\r\n\r\nimport \"../node_modules/@openzeppelin/contracts/utils/cryptography/ECDSA.sol\";\r\n\r\ncontract RingSignature {\r\n    using ECDSA for bytes32;\r\n\r\n    struct PublicKey {\r\n        uint256 e;\r\n        uint256 n;\r\n    }\r\n\r\n    struct Signature {\r\n        bytes32 c;\r\n        uint256[] s;\r\n    }\r\n\r\n\r\n    PublicKey[] publicKeys;\r\n    uint256 l;\r\n    uint256 q;\r\n\r\n    Signature  public sig;\r\n    \r\n\r\n\r\n    // constructor() public {\r\n    //     ring = generateRing(4);\r\n    // }\r\n\r\n    function sign(string memory message,  uint256 z) public  {\r\n        uint256 n = publicKeys.length;\r\n\r\n        uint256 p = permut(message);\r\n        uint256[] memory s = new uint256[](n);\r\n\r\n        uint256 u = uint256(keccak256(abi.encodePacked(block.timestamp, blockhash(block.number - 1))));\r\n        uint256 c = u;\r\n        uint256 v = E(u, p, q);\r\n\r\n        for (uint256 i = (z + 1) % n; i != z; i = (i + 1) % n) {\r\n            s[i] = uint256(keccak256(abi.encodePacked(block.timestamp, blockhash(block.number - 1))));\r\n            uint256 e = g(s[i], publicKeys[i].e, publicKeys[i].n, p, l);\r\n            v = E(v ^ e, p, q);\r\n            if ((i + 1) % n == z) {\r\n                c = v;\r\n            }\r\n        }\r\n\r\n        s[z] = g(v ^ u, publicKeys[z].e, publicKeys[z].n, p, l);\r\n        Signature memory signature = Signature(bytes32(c), s);\r\n        sig = signature;\r\n    }\r\n\r\n    function verify(string memory message) public view returns (bool) {\r\n        uint256 n = publicKeys.length;\r\n\r\n        uint256 p = permut(message);\r\n        uint256[] memory y = new uint256[](n);\r\n        for (uint256 i = 0; i < n; i++) {\r\n            y[i] = g(sig.s[i], publicKeys[i].e, publicKeys[i].n, p, l);\r\n        }\r\n\r\n        uint256 v =uint256(sig.c);\r\n        for (uint256 i = 0; i < n; i++) {\r\n            v = E(v ^ y[i], p, q);\r\n        }\r\n\r\n        return v == uint256(sig.c >> 0);\r\n    }\r\n\r\n    function permut(string memory m) internal pure returns (uint256) {\r\n        return uint256(keccak256(abi.encodePacked(m)));\r\n    }\r\n\r\n    function E(uint256 x, uint256 p, uint256 q) internal pure returns (uint256) {\r\n        return uint256(keccak256(abi.encodePacked(x, p))) % q;\r\n    }\r\n\r\n    function g(uint256 x, uint256 e, uint256 n, uint256 p, uint256 l) internal pure returns (uint256) {\r\n        (uint256 q, uint256 r) = divmod(x, n);\r\n        uint256 rslt;\r\n        if ((q + 1) * n <= (1 << l) - 1) {\r\n            rslt = q * n + modExp(r, e, n);\r\n        } else {\r\n            rslt = x;\r\n        }\r\n        return rslt;\r\n    }   \r\n    function modExp(uint256 base, uint256 exponent, uint256 modulus) internal pure returns (uint256) {\r\n        uint256 result = 1;\r\n        while (exponent > 0) {\r\n            if (exponent & 1 == 1) {\r\n                result = mulmod(result, base, modulus);\r\n            }\r\n            base = mulmod(base, base, modulus);\r\n            exponent >>= 1;\r\n        }\r\n        return result;\r\n    }\r\n\r\n    function divmod(uint256 a, uint256 b) internal pure returns (uint256, uint256) {\r\n        uint256 q = a / b;\r\n        uint256 r = a % b;\r\n        return (q, r);\r\n    }\r\n\r\n    function generateRing(uint256 size) public {\r\n\r\n        PublicKey[] memory publicKeys = new PublicKey[](size);\r\n        for (uint256 i = 0; i < size; i++) {\r\n            publicKeys[i] = PublicKey({\r\n                n: 0,\r\n                e: 0\r\n            });\r\n        }\r\n\r\n        l= 1024;\r\n        q= 1 << 255;\r\n\r\n        // return Ring({\r\n        //     publicKeys: publicKeys,\r\n        //     l: 1024,\r\n        //     q: 1 << 255\r\n        // });\r\n    }\r\n}",
  "sourcePath": "/Users/qian/Desktop/Y4/COMP4550/ZKP-Blockchain/contracts/ring_sig_rsa.sol",
  "compiler": {
    "name": "solc",
    "version": "0.8.19+commit.7dd6d404.Emscripten.clang"
  },
  "schemaVersion": "3.4.13",
  "updatedAt": "2023-03-17T12:31:57.052Z",
  "devdoc": {
    "kind": "dev",
    "methods": {},
    "version": 1
  },
  "userdoc": {
    "kind": "user",
    "methods": {},
    "version": 1
  }
}